{
  "contractName": "AEnvStorage",
  "abi": [
    {
      "constant": true,
      "inputs": [],
      "name": "STAKING_NAME",
      "outputs": [
        {
          "name": "",
          "type": "bytes32"
        }
      ],
      "payable": false,
      "stateMutability": "view",
      "type": "function"
    },
    {
      "constant": true,
      "inputs": [
        {
          "name": "h",
          "type": "bytes32"
        }
      ],
      "name": "getAddress",
      "outputs": [
        {
          "name": "",
          "type": "address"
        }
      ],
      "payable": false,
      "stateMutability": "view",
      "type": "function"
    },
    {
      "constant": true,
      "inputs": [
        {
          "name": "h",
          "type": "bytes32"
        }
      ],
      "name": "getBoolean",
      "outputs": [
        {
          "name": "",
          "type": "bool"
        }
      ],
      "payable": false,
      "stateMutability": "view",
      "type": "function"
    },
    {
      "constant": true,
      "inputs": [],
      "name": "GOV_NAME",
      "outputs": [
        {
          "name": "",
          "type": "bytes32"
        }
      ],
      "payable": false,
      "stateMutability": "view",
      "type": "function"
    },
    {
      "constant": false,
      "inputs": [],
      "name": "renounceOwnership",
      "outputs": [],
      "payable": false,
      "stateMutability": "nonpayable",
      "type": "function"
    },
    {
      "constant": true,
      "inputs": [],
      "name": "reg",
      "outputs": [
        {
          "name": "",
          "type": "address"
        }
      ],
      "payable": false,
      "stateMutability": "view",
      "type": "function"
    },
    {
      "constant": true,
      "inputs": [],
      "name": "ENV_STORAGE_NAME",
      "outputs": [
        {
          "name": "",
          "type": "bytes32"
        }
      ],
      "payable": false,
      "stateMutability": "view",
      "type": "function"
    },
    {
      "constant": true,
      "inputs": [],
      "name": "owner",
      "outputs": [
        {
          "name": "",
          "type": "address"
        }
      ],
      "payable": false,
      "stateMutability": "view",
      "type": "function"
    },
    {
      "constant": true,
      "inputs": [],
      "name": "isOwner",
      "outputs": [
        {
          "name": "",
          "type": "bool"
        }
      ],
      "payable": false,
      "stateMutability": "view",
      "type": "function"
    },
    {
      "constant": true,
      "inputs": [
        {
          "name": "h",
          "type": "bytes32"
        }
      ],
      "name": "getString",
      "outputs": [
        {
          "name": "",
          "type": "string"
        }
      ],
      "payable": false,
      "stateMutability": "view",
      "type": "function"
    },
    {
      "constant": true,
      "inputs": [],
      "name": "BALLOT_STORAGE_NAME",
      "outputs": [
        {
          "name": "",
          "type": "bytes32"
        }
      ],
      "payable": false,
      "stateMutability": "view",
      "type": "function"
    },
    {
      "constant": true,
      "inputs": [
        {
          "name": "h",
          "type": "bytes32"
        }
      ],
      "name": "getBytes32",
      "outputs": [
        {
          "name": "",
          "type": "bytes32"
        }
      ],
      "payable": false,
      "stateMutability": "view",
      "type": "function"
    },
    {
      "constant": false,
      "inputs": [
        {
          "name": "_addr",
          "type": "address"
        }
      ],
      "name": "setRegistry",
      "outputs": [],
      "payable": false,
      "stateMutability": "nonpayable",
      "type": "function"
    },
    {
      "constant": true,
      "inputs": [
        {
          "name": "h",
          "type": "bytes32"
        }
      ],
      "name": "getUint",
      "outputs": [
        {
          "name": "",
          "type": "uint256"
        }
      ],
      "payable": false,
      "stateMutability": "view",
      "type": "function"
    },
    {
      "constant": true,
      "inputs": [
        {
          "name": "h",
          "type": "bytes32"
        }
      ],
      "name": "getBytes",
      "outputs": [
        {
          "name": "",
          "type": "bytes"
        }
      ],
      "payable": false,
      "stateMutability": "view",
      "type": "function"
    },
    {
      "constant": true,
      "inputs": [
        {
          "name": "h",
          "type": "bytes32"
        }
      ],
      "name": "getInt",
      "outputs": [
        {
          "name": "",
          "type": "int256"
        }
      ],
      "payable": false,
      "stateMutability": "view",
      "type": "function"
    },
    {
      "constant": false,
      "inputs": [
        {
          "name": "newOwner",
          "type": "address"
        }
      ],
      "name": "transferOwnership",
      "outputs": [],
      "payable": false,
      "stateMutability": "nonpayable",
      "type": "function"
    },
    {
      "anonymous": false,
      "inputs": [
        {
          "indexed": true,
          "name": "_name",
          "type": "bytes32"
        },
        {
          "indexed": false,
          "name": "_value",
          "type": "string"
        }
      ],
      "name": "StringVarableChanged",
      "type": "event"
    },
    {
      "anonymous": false,
      "inputs": [
        {
          "indexed": true,
          "name": "_name",
          "type": "bytes32"
        },
        {
          "indexed": false,
          "name": "_value",
          "type": "uint256"
        }
      ],
      "name": "UintVarableChanged",
      "type": "event"
    },
    {
      "anonymous": false,
      "inputs": [
        {
          "indexed": true,
          "name": "_name",
          "type": "bytes32"
        },
        {
          "indexed": false,
          "name": "_value",
          "type": "int256"
        }
      ],
      "name": "IntVarableChanged",
      "type": "event"
    },
    {
      "anonymous": false,
      "inputs": [
        {
          "indexed": true,
          "name": "_name",
          "type": "bytes32"
        },
        {
          "indexed": false,
          "name": "_value",
          "type": "address"
        }
      ],
      "name": "AddressVarableChanged",
      "type": "event"
    },
    {
      "anonymous": false,
      "inputs": [
        {
          "indexed": true,
          "name": "_name",
          "type": "bytes32"
        },
        {
          "indexed": false,
          "name": "_value",
          "type": "bytes32"
        }
      ],
      "name": "Bytes32VarableChanged",
      "type": "event"
    },
    {
      "anonymous": false,
      "inputs": [
        {
          "indexed": true,
          "name": "_name",
          "type": "bytes32"
        },
        {
          "indexed": false,
          "name": "_value",
          "type": "bytes"
        }
      ],
      "name": "BytesVarableChanged",
      "type": "event"
    },
    {
      "anonymous": false,
      "inputs": [
        {
          "indexed": true,
          "name": "_name",
          "type": "bytes32"
        },
        {
          "indexed": true,
          "name": "_type",
          "type": "uint256"
        },
        {
          "indexed": false,
          "name": "_value",
          "type": "string"
        }
      ],
      "name": "VarableChanged",
      "type": "event"
    },
    {
      "anonymous": false,
      "inputs": [
        {
          "indexed": true,
          "name": "previousOwner",
          "type": "address"
        },
        {
          "indexed": true,
          "name": "newOwner",
          "type": "address"
        }
      ],
      "name": "OwnershipTransferred",
      "type": "event"
    }
  ],
  "bytecode": "0x608060405233600760006101000a81548173ffffffffffffffffffffffffffffffffffffffff021916908373ffffffffffffffffffffffffffffffffffffffff160217905550600760009054906101000a900473ffffffffffffffffffffffffffffffffffffffff1673ffffffffffffffffffffffffffffffffffffffff16600073ffffffffffffffffffffffffffffffffffffffff167f8be0079c531659141344cd1fd0a4f28419497f9722a3daafe3b4186f6b6457e060405160405180910390a3610c3b806100d16000396000f3006080604052600436106100f1576000357c0100000000000000000000000000000000000000000000000000000000900463ffffffff1680631e0cba0d146100f657806321f8a721146101295780633848207a1461019a5780636c78d2cf146101e3578063715018a614610216578063738fdd1a1461022d5780637bf46530146102845780638da5cb5b146102b75780638f32d59b1461030e578063986e791a1461033d5780639986e4b9146103e7578063a6ed563e1461041a578063a91ee0dc14610467578063bd02d0f5146104aa578063c031a180146104ef578063dc97d96214610599578063f2fde38b146105de575b600080fd5b34801561010257600080fd5b5061010b610621565b60405180826000191660001916815260200191505060405180910390f35b34801561013557600080fd5b506101586004803603810190808035600019169060200190929190505050610645565b604051808273ffffffffffffffffffffffffffffffffffffffff1673ffffffffffffffffffffffffffffffffffffffff16815260200191505060405180910390f35b3480156101a657600080fd5b506101c9600480360381019080803560001916906020019092919050505061068c565b604051808215151515815260200191505060405180910390f35b3480156101ef57600080fd5b506101f86106c0565b60405180826000191660001916815260200191505060405180910390f35b34801561022257600080fd5b5061022b6106e4565b005b34801561023957600080fd5b506102426107b8565b604051808273ffffffffffffffffffffffffffffffffffffffff1673ffffffffffffffffffffffffffffffffffffffff16815260200191505060405180910390f35b34801561029057600080fd5b506102996107de565b60405180826000191660001916815260200191505060405180910390f35b3480156102c357600080fd5b506102cc610802565b604051808273ffffffffffffffffffffffffffffffffffffffff1673ffffffffffffffffffffffffffffffffffffffff16815260200191505060405180910390f35b34801561031a57600080fd5b5061032361082c565b604051808215151515815260200191505060405180910390f35b34801561034957600080fd5b5061036c6004803603810190808035600019169060200190929190505050610884565b6040518080602001828103825283818151815260200191508051906020019080838360005b838110156103ac578082015181840152602081019050610391565b50505050905090810190601f1680156103d95780820380516001836020036101000a031916815260200191505b509250505060405180910390f35b3480156103f357600080fd5b506103fc610944565b60405180826000191660001916815260200191505060405180910390f35b34801561042657600080fd5b506104496004803603810190808035600019169060200190929190505050610968565b60405180826000191660001916815260200191505060405180910390f35b34801561047357600080fd5b506104a8600480360381019080803573ffffffffffffffffffffffffffffffffffffffff16906020019092919050505061098f565b005b3480156104b657600080fd5b506104d960048036038101908080356000191690602001909291905050506109e6565b6040518082815260200191505060405180910390f35b3480156104fb57600080fd5b5061051e6004803603810190808035600019169060200190929190505050610a0d565b6040518080602001828103825283818151815260200191508051906020019080838360005b8381101561055e578082015181840152602081019050610543565b50505050905090810190601f16801561058b5780820380516001836020036101000a031916815260200191505b509250505060405180910390f35b3480156105a557600080fd5b506105c86004803603810190808035600019169060200190929190505050610acd565b6040518082815260200191505060405180910390f35b3480156105ea57600080fd5b5061061f600480360381019080803573ffffffffffffffffffffffffffffffffffffffff169060200190929190505050610af4565b005b7f5374616b696e670000000000000000000000000000000000000000000000000081565b6000806004016000836000191660001916815260200190815260200160002060009054906101000a900473ffffffffffffffffffffffffffffffffffffffff169050919050565b6000806000016000836000191660001916815260200190815260200160002060009054906101000a900460ff169050919050565b7f476f7665726e616e6365436f6e7472616374000000000000000000000000000081565b6106ec61082c565b15156106f757600080fd5b600073ffffffffffffffffffffffffffffffffffffffff16600760009054906101000a900473ffffffffffffffffffffffffffffffffffffffff1673ffffffffffffffffffffffffffffffffffffffff167f8be0079c531659141344cd1fd0a4f28419497f9722a3daafe3b4186f6b6457e060405160405180910390a36000600760006101000a81548173ffffffffffffffffffffffffffffffffffffffff021916908373ffffffffffffffffffffffffffffffffffffffff160217905550565b600860009054906101000a900473ffffffffffffffffffffffffffffffffffffffff1681565b7f456e7653746f726167650000000000000000000000000000000000000000000081565b6000600760009054906101000a900473ffffffffffffffffffffffffffffffffffffffff16905090565b6000600760009054906101000a900473ffffffffffffffffffffffffffffffffffffffff1673ffffffffffffffffffffffffffffffffffffffff163373ffffffffffffffffffffffffffffffffffffffff1614905090565b60606000600301600083600019166000191681526020019081526020016000208054600181600116156101000203166002900480601f0160208091040260200160405190810160405280929190818152602001828054600181600116156101000203166002900480156109385780601f1061090d57610100808354040283529160200191610938565b820191906000526020600020905b81548152906001019060200180831161091b57829003601f168201915b50505050509050919050565b7f42616c6c6f7453746f726167650000000000000000000000000000000000000081565b60008060060160008360001916600019168152602001908152602001600020549050919050565b61099761082c565b15156109a257600080fd5b80600860006101000a81548173ffffffffffffffffffffffffffffffffffffffff021916908373ffffffffffffffffffffffffffffffffffffffff16021790555050565b60008060020160008360001916600019168152602001908152602001600020549050919050565b60606000600501600083600019166000191681526020019081526020016000208054600181600116156101000203166002900480601f016020809104026020016040519081016040528092919081815260200182805460018160011615610100020316600290048015610ac15780601f10610a9657610100808354040283529160200191610ac1565b820191906000526020600020905b815481529060010190602001808311610aa457829003601f168201915b50505050509050919050565b60008060010160008360001916600019168152602001908152602001600020549050919050565b610afc61082c565b1515610b0757600080fd5b610b1081610b13565b50565b600073ffffffffffffffffffffffffffffffffffffffff168173ffffffffffffffffffffffffffffffffffffffff1614151515610b4f57600080fd5b8073ffffffffffffffffffffffffffffffffffffffff16600760009054906101000a900473ffffffffffffffffffffffffffffffffffffffff1673ffffffffffffffffffffffffffffffffffffffff167f8be0079c531659141344cd1fd0a4f28419497f9722a3daafe3b4186f6b6457e060405160405180910390a380600760006101000a81548173ffffffffffffffffffffffffffffffffffffffff021916908373ffffffffffffffffffffffffffffffffffffffff160217905550505600a165627a7a723058200117437b66f60fc39d22ef1d0d87354b2f1c92e595d54224bacc8ee0dc76ad540029",
  "source": "pragma solidity ^0.4.24;\n\nimport \"../GovChecker.sol\";\nimport \"./EternalStorage.sol\";\n\ncontract AEnvStorage is EternalStorage, GovChecker {\n    // struct Variable {\n    //     bytes32 _name;\n    //     uint256 _type;\n    //     string _value;\n    // }\n   \n    event StringVarableChanged ( \n        bytes32 indexed _name,\n        string _value\n    );\n\n    event UintVarableChanged ( \n        bytes32 indexed _name,\n        uint _value\n    );\n\n    event IntVarableChanged ( \n        bytes32 indexed _name,\n        int _value\n    );\n\n    event AddressVarableChanged ( \n        bytes32 indexed _name,\n        address _value\n    );\n\n    event Bytes32VarableChanged ( \n        bytes32 indexed _name,\n        bytes32 _value\n    );\n\n    event BytesVarableChanged ( \n        bytes32 indexed _name,\n        bytes _value\n    );\n\n    event VarableChanged ( \n        bytes32 indexed _name,\n        uint256 indexed _type,\n        string _value\n    );\n   \n    /**\n    * @dev Allows the owner to set a value for a int variable.\n    * @param h The keccak256 hash of the variable name\n    * @param v The value to be stored\n    */\n    function setInt(bytes32 h, int256 v) internal {\n        _setInt(h, v);\n        emit IntVarableChanged(h, v);\n    }\n\n    /**\n    * @dev Allows the owner to set a value for a boolean variable.\n    * @param h The keccak256 hash of the variable name\n    * @param v The value to be stored\n    */\n    function setUint(bytes32 h, uint256 v) internal {\n        _setUint(h, v);\n        emit UintVarableChanged(h, v);\n    }\n\n    /**\n    * @dev Allows the owner to set a value for a address variable.\n    * @param h The keccak256 hash of the variable name\n    * @param v The value to be stored\n    */\n    function setAddress(bytes32 h, address v) internal {\n        _setAddress(h, v);\n        emit AddressVarableChanged(h, v);\n    }\n\n    /**\n    * @dev Allows the owner to set a value for a string variable.\n    * @param h The keccak256 hash of the variable name\n    * @param v The value to be stored\n    */\n    function setString(bytes32 h, string v) internal  {\n        _setString(h, v);\n        emit StringVarableChanged(h, v);\n    }\n\n    /**\n    * @dev Allows the owner to set a value for a bytes variable.\n    * @param h The keccak256 hash of the variable name\n    * @param v The value to be stored\n    */\n    function setBytes(bytes32 h, bytes v) internal {\n        _setBytes(h, v);\n        emit BytesVarableChanged(h, v);\n    }\n\n    /**\n    * @dev Allows the owner to set a value for a bytes32 variable.\n    * @param h The keccak256 hash of the variable name\n    * @param v The value to be stored\n    */\n    function setBytes32(bytes32 h, bytes32 v) internal {\n        _setBytes32(h, v);\n        emit Bytes32VarableChanged(h, v);\n    }\n\n    // mapping(bytes32 => Variable) internal s;\n\n    // /**\n    // * @dev Add a new variable .\n    // * @param _h The keccak256 hash of the variable name\n    // * @param _t The type of value\n    // * @param _v The value to be stored\n    // */\n    // function _add(bytes32 _h, uint256 _t, string _v) internal  {\n    //     require(s[_h]._name == \"\",\"not found\");\n    //     s[_h] = Variable(_h,_t,_v);\n    //     emit VarableAdded(_h,_t,_v);\n    // }\n    // /**\n    // * @dev Update a new variable .\n    // * @param _h The keccak256 hash of the variable name\n    // * @param _t The type of value\n    // * @param _v The value to be stored\n    // */\n    // function _change(bytes32 _h, uint256 _t, string _v) internal {\n    //     require(s[_h]._name == _h,\"not found\");\n    //     Variable storage v = s[_h];\n    //     v._name = _h;\n    //     v._type = _t;\n    //     v._value = _v;\n    //     emit VarableChanged(_h,_t,_v);\n\n    // }\n    // /**\n    // * @dev Get the type & value stored of a string variable by the hash name\n    // * @param _h The keccak256 hash of the variable name\n    // */\n    // function get(bytes32 _h) public view returns (uint256 varType, string varVal){\n    //     //require(s[_h]._name == _h,\"not found\");\n    //     return (s[_h]._type, s[_h]._value);\n    // }\n    // /**\n    // * @dev Get the type stored of a string variable by the hash name\n    // * @param _h The keccak256 hash of the variable name\n    // */\n    // function getType(bytes32 _h) public view returns (uint256){\n    //     require(s[_h]._name == _h,\"not found\");\n    //     return s[_h]._type;\n    // }\n    // /**\n    // * @dev Get the value stored of a string variable by the hash name\n    // * @param _h The keccak256 hash of the variable name\n    // */\n    // function getValue(bytes32 _h) public view returns (string){\n    //     require(s[_h]._name == _h,\"not found\");\n    //     return s[_h]._value;\n    // }\n}",
  "sourcePath": "/Users/hexoul/Documents/Metadium/governance/governance-contract/contracts/storage/AEnvStorage.sol",
  "compiler": {
    "name": "solc",
    "version": "0.4.24+commit.e67f0147.Emscripten.clang"
  },
  "schemaVersion": "2.0.1",
  "updatedAt": "2019-02-01T07:15:27.053Z"
}