{
  "contractName": "AEnvStorage",
  "abi": [
    {
      "constant": true,
      "inputs": [
        {
          "name": "h",
          "type": "bytes32"
        }
      ],
      "name": "getAddress",
      "outputs": [
        {
          "name": "",
          "type": "address"
        }
      ],
      "payable": false,
      "stateMutability": "view",
      "type": "function"
    },
    {
      "constant": true,
      "inputs": [
        {
          "name": "h",
          "type": "bytes32"
        }
      ],
      "name": "getBoolean",
      "outputs": [
        {
          "name": "",
          "type": "bool"
        }
      ],
      "payable": false,
      "stateMutability": "view",
      "type": "function"
    },
    {
      "constant": true,
      "inputs": [],
      "name": "REG",
      "outputs": [
        {
          "name": "",
          "type": "address"
        }
      ],
      "payable": false,
      "stateMutability": "view",
      "type": "function"
    },
    {
      "constant": true,
      "inputs": [],
      "name": "GOV_NAME",
      "outputs": [
        {
          "name": "",
          "type": "bytes32"
        }
      ],
      "payable": false,
      "stateMutability": "view",
      "type": "function"
    },
    {
      "constant": false,
      "inputs": [],
      "name": "renounceOwnership",
      "outputs": [],
      "payable": false,
      "stateMutability": "nonpayable",
      "type": "function"
    },
    {
      "constant": true,
      "inputs": [],
      "name": "owner",
      "outputs": [
        {
          "name": "",
          "type": "address"
        }
      ],
      "payable": false,
      "stateMutability": "view",
      "type": "function"
    },
    {
      "constant": true,
      "inputs": [],
      "name": "isOwner",
      "outputs": [
        {
          "name": "",
          "type": "bool"
        }
      ],
      "payable": false,
      "stateMutability": "view",
      "type": "function"
    },
    {
      "constant": true,
      "inputs": [
        {
          "name": "h",
          "type": "bytes32"
        }
      ],
      "name": "getString",
      "outputs": [
        {
          "name": "",
          "type": "string"
        }
      ],
      "payable": false,
      "stateMutability": "view",
      "type": "function"
    },
    {
      "constant": true,
      "inputs": [
        {
          "name": "h",
          "type": "bytes32"
        }
      ],
      "name": "getBytes32",
      "outputs": [
        {
          "name": "",
          "type": "bytes32"
        }
      ],
      "payable": false,
      "stateMutability": "view",
      "type": "function"
    },
    {
      "constant": false,
      "inputs": [
        {
          "name": "_addr",
          "type": "address"
        }
      ],
      "name": "setRegistry",
      "outputs": [],
      "payable": false,
      "stateMutability": "nonpayable",
      "type": "function"
    },
    {
      "constant": true,
      "inputs": [
        {
          "name": "h",
          "type": "bytes32"
        }
      ],
      "name": "getUint",
      "outputs": [
        {
          "name": "",
          "type": "uint256"
        }
      ],
      "payable": false,
      "stateMutability": "view",
      "type": "function"
    },
    {
      "constant": true,
      "inputs": [
        {
          "name": "h",
          "type": "bytes32"
        }
      ],
      "name": "getBytes",
      "outputs": [
        {
          "name": "",
          "type": "bytes"
        }
      ],
      "payable": false,
      "stateMutability": "view",
      "type": "function"
    },
    {
      "constant": true,
      "inputs": [
        {
          "name": "h",
          "type": "bytes32"
        }
      ],
      "name": "getInt",
      "outputs": [
        {
          "name": "",
          "type": "int256"
        }
      ],
      "payable": false,
      "stateMutability": "view",
      "type": "function"
    },
    {
      "constant": false,
      "inputs": [
        {
          "name": "newOwner",
          "type": "address"
        }
      ],
      "name": "transferOwnership",
      "outputs": [],
      "payable": false,
      "stateMutability": "nonpayable",
      "type": "function"
    },
    {
      "anonymous": false,
      "inputs": [
        {
          "indexed": true,
          "name": "_name",
          "type": "bytes32"
        },
        {
          "indexed": false,
          "name": "_value",
          "type": "string"
        }
      ],
      "name": "StringVarableChanged",
      "type": "event"
    },
    {
      "anonymous": false,
      "inputs": [
        {
          "indexed": true,
          "name": "_name",
          "type": "bytes32"
        },
        {
          "indexed": false,
          "name": "_value",
          "type": "uint256"
        }
      ],
      "name": "UintVarableChanged",
      "type": "event"
    },
    {
      "anonymous": false,
      "inputs": [
        {
          "indexed": true,
          "name": "_name",
          "type": "bytes32"
        },
        {
          "indexed": false,
          "name": "_value",
          "type": "int256"
        }
      ],
      "name": "IntVarableChanged",
      "type": "event"
    },
    {
      "anonymous": false,
      "inputs": [
        {
          "indexed": true,
          "name": "_name",
          "type": "bytes32"
        },
        {
          "indexed": false,
          "name": "_value",
          "type": "address"
        }
      ],
      "name": "AddressVarableChanged",
      "type": "event"
    },
    {
      "anonymous": false,
      "inputs": [
        {
          "indexed": true,
          "name": "_name",
          "type": "bytes32"
        },
        {
          "indexed": false,
          "name": "_value",
          "type": "bytes32"
        }
      ],
      "name": "Bytes32VarableChanged",
      "type": "event"
    },
    {
      "anonymous": false,
      "inputs": [
        {
          "indexed": true,
          "name": "_name",
          "type": "bytes32"
        },
        {
          "indexed": false,
          "name": "_value",
          "type": "bytes"
        }
      ],
      "name": "BytesVarableChanged",
      "type": "event"
    },
    {
      "anonymous": false,
      "inputs": [
        {
          "indexed": true,
          "name": "_name",
          "type": "bytes32"
        },
        {
          "indexed": true,
          "name": "_type",
          "type": "uint256"
        },
        {
          "indexed": false,
          "name": "_value",
          "type": "string"
        }
      ],
      "name": "VarableChanged",
      "type": "event"
    },
    {
      "anonymous": false,
      "inputs": [
        {
          "indexed": true,
          "name": "previousOwner",
          "type": "address"
        },
        {
          "indexed": true,
          "name": "newOwner",
          "type": "address"
        }
      ],
      "name": "OwnershipTransferred",
      "type": "event"
    }
  ],
  "bytecode": "0x60806040527f476f7665726e616e6365436f6e7472616374000000000000000000000000000060099060001916905533600760006101000a81548173ffffffffffffffffffffffffffffffffffffffff021916908373ffffffffffffffffffffffffffffffffffffffff160217905550600760009054906101000a900473ffffffffffffffffffffffffffffffffffffffff1673ffffffffffffffffffffffffffffffffffffffff16600073ffffffffffffffffffffffffffffffffffffffff167f8be0079c531659141344cd1fd0a4f28419497f9722a3daafe3b4186f6b6457e060405160405180910390a3610af7806100fb6000396000f3006080604052600436106100d0576000357c0100000000000000000000000000000000000000000000000000000000900463ffffffff16806321f8a721146100d55780633848207a14610146578063393631121461018f5780636c78d2cf146101e6578063715018a6146102195780638da5cb5b146102305780638f32d59b14610287578063986e791a146102b6578063a6ed563e14610360578063a91ee0dc146103ad578063bd02d0f5146103f0578063c031a18014610435578063dc97d962146104df578063f2fde38b14610524575b600080fd5b3480156100e157600080fd5b506101046004803603810190808035600019169060200190929190505050610567565b604051808273ffffffffffffffffffffffffffffffffffffffff1673ffffffffffffffffffffffffffffffffffffffff16815260200191505060405180910390f35b34801561015257600080fd5b5061017560048036038101908080356000191690602001909291905050506105ae565b604051808215151515815260200191505060405180910390f35b34801561019b57600080fd5b506101a46105e2565b604051808273ffffffffffffffffffffffffffffffffffffffff1673ffffffffffffffffffffffffffffffffffffffff16815260200191505060405180910390f35b3480156101f257600080fd5b506101fb610608565b60405180826000191660001916815260200191505060405180910390f35b34801561022557600080fd5b5061022e61060e565b005b34801561023c57600080fd5b506102456106e2565b604051808273ffffffffffffffffffffffffffffffffffffffff1673ffffffffffffffffffffffffffffffffffffffff16815260200191505060405180910390f35b34801561029357600080fd5b5061029c61070c565b604051808215151515815260200191505060405180910390f35b3480156102c257600080fd5b506102e56004803603810190808035600019169060200190929190505050610764565b6040518080602001828103825283818151815260200191508051906020019080838360005b8381101561032557808201518184015260208101905061030a565b50505050905090810190601f1680156103525780820380516001836020036101000a031916815260200191505b509250505060405180910390f35b34801561036c57600080fd5b5061038f6004803603810190808035600019169060200190929190505050610824565b60405180826000191660001916815260200191505060405180910390f35b3480156103b957600080fd5b506103ee600480360381019080803573ffffffffffffffffffffffffffffffffffffffff16906020019092919050505061084b565b005b3480156103fc57600080fd5b5061041f60048036038101908080356000191690602001909291905050506108a2565b6040518082815260200191505060405180910390f35b34801561044157600080fd5b5061046460048036038101908080356000191690602001909291905050506108c9565b6040518080602001828103825283818151815260200191508051906020019080838360005b838110156104a4578082015181840152602081019050610489565b50505050905090810190601f1680156104d15780820380516001836020036101000a031916815260200191505b509250505060405180910390f35b3480156104eb57600080fd5b5061050e6004803603810190808035600019169060200190929190505050610989565b6040518082815260200191505060405180910390f35b34801561053057600080fd5b50610565600480360381019080803573ffffffffffffffffffffffffffffffffffffffff1690602001909291905050506109b0565b005b6000806004016000836000191660001916815260200190815260200160002060009054906101000a900473ffffffffffffffffffffffffffffffffffffffff169050919050565b6000806000016000836000191660001916815260200190815260200160002060009054906101000a900460ff169050919050565b600860009054906101000a900473ffffffffffffffffffffffffffffffffffffffff1681565b60095481565b61061661070c565b151561062157600080fd5b600073ffffffffffffffffffffffffffffffffffffffff16600760009054906101000a900473ffffffffffffffffffffffffffffffffffffffff1673ffffffffffffffffffffffffffffffffffffffff167f8be0079c531659141344cd1fd0a4f28419497f9722a3daafe3b4186f6b6457e060405160405180910390a36000600760006101000a81548173ffffffffffffffffffffffffffffffffffffffff021916908373ffffffffffffffffffffffffffffffffffffffff160217905550565b6000600760009054906101000a900473ffffffffffffffffffffffffffffffffffffffff16905090565b6000600760009054906101000a900473ffffffffffffffffffffffffffffffffffffffff1673ffffffffffffffffffffffffffffffffffffffff163373ffffffffffffffffffffffffffffffffffffffff1614905090565b60606000600301600083600019166000191681526020019081526020016000208054600181600116156101000203166002900480601f0160208091040260200160405190810160405280929190818152602001828054600181600116156101000203166002900480156108185780601f106107ed57610100808354040283529160200191610818565b820191906000526020600020905b8154815290600101906020018083116107fb57829003601f168201915b50505050509050919050565b60008060060160008360001916600019168152602001908152602001600020549050919050565b61085361070c565b151561085e57600080fd5b80600860006101000a81548173ffffffffffffffffffffffffffffffffffffffff021916908373ffffffffffffffffffffffffffffffffffffffff16021790555050565b60008060020160008360001916600019168152602001908152602001600020549050919050565b60606000600501600083600019166000191681526020019081526020016000208054600181600116156101000203166002900480601f01602080910402602001604051908101604052809291908181526020018280546001816001161561010002031660029004801561097d5780601f106109525761010080835404028352916020019161097d565b820191906000526020600020905b81548152906001019060200180831161096057829003601f168201915b50505050509050919050565b60008060010160008360001916600019168152602001908152602001600020549050919050565b6109b861070c565b15156109c357600080fd5b6109cc816109cf565b50565b600073ffffffffffffffffffffffffffffffffffffffff168173ffffffffffffffffffffffffffffffffffffffff1614151515610a0b57600080fd5b8073ffffffffffffffffffffffffffffffffffffffff16600760009054906101000a900473ffffffffffffffffffffffffffffffffffffffff1673ffffffffffffffffffffffffffffffffffffffff167f8be0079c531659141344cd1fd0a4f28419497f9722a3daafe3b4186f6b6457e060405160405180910390a380600760006101000a81548173ffffffffffffffffffffffffffffffffffffffff021916908373ffffffffffffffffffffffffffffffffffffffff160217905550505600a165627a7a72305820e75e35dee0c93673ff2ff0961d58ebdbe8c8d2074f7fb5e4a4fbdd8fce3247760029",
  "source": "pragma solidity ^0.4.24;\n\nimport \"../GovChecker.sol\";\nimport \"./EternalStorage.sol\";\n\ncontract AEnvStorage is EternalStorage, GovChecker {\n    // struct Variable {\n    //     bytes32 _name;\n    //     uint256 _type;\n    //     string _value;\n    // }\n   \n    event StringVarableChanged ( \n        bytes32 indexed _name,\n        string _value\n    );\n    event UintVarableChanged ( \n        bytes32 indexed _name,\n        uint _value\n    );\n    event IntVarableChanged ( \n        bytes32 indexed _name,\n        int _value\n    );\n    event AddressVarableChanged ( \n        bytes32 indexed _name,\n        address _value\n    );\n    event Bytes32VarableChanged ( \n        bytes32 indexed _name,\n        bytes32 _value\n    );\n    event BytesVarableChanged ( \n        bytes32 indexed _name,\n        bytes _value\n    );\n\n    event VarableChanged ( \n        bytes32 indexed _name,\n        uint256 indexed _type,\n        string _value\n    );\n   \n    /**\n    * @dev Allows the owner to set a value for a int variable.\n    * @param h The keccak256 hash of the variable name\n    * @param v The value to be stored\n    */\n    function setInt(bytes32 h, int256 v) internal {\n        _setInt(h, v);\n        emit IntVarableChanged(h,v);\n    }\n\n    /**\n    * @dev Allows the owner to set a value for a boolean variable.\n    * @param h The keccak256 hash of the variable name\n    * @param v The value to be stored\n    */\n    function setUint(bytes32 h, uint256 v) internal {\n        _setUint(h, v);\n        emit UintVarableChanged(h,v);\n    }\n\n    /**\n    * @dev Allows the owner to set a value for a address variable.\n    * @param h The keccak256 hash of the variable name\n    * @param v The value to be stored\n    */\n    function setAddress(bytes32 h, address v) internal {\n        _setAddress(h, v);\n        emit AddressVarableChanged(h,v);\n    }\n\n    /**\n    * @dev Allows the owner to set a value for a string variable.\n    * @param h The keccak256 hash of the variable name\n    * @param v The value to be stored\n    */\n    function setString(bytes32 h, string v) internal  {\n        _setString(h, v);\n        emit StringVarableChanged(h,v);\n    }\n\n    /**\n    * @dev Allows the owner to set a value for a bytes variable.\n    * @param h The keccak256 hash of the variable name\n    * @param v The value to be stored\n    */\n    function setBytes(bytes32 h, bytes v) internal {\n        _setBytes(h, v);\n        emit BytesVarableChanged(h,v);\n    }\n    /**\n    * @dev Allows the owner to set a value for a bytes32 variable.\n    * @param h The keccak256 hash of the variable name\n    * @param v The value to be stored\n    */\n    function setBytes32(bytes32 h, bytes32 v) internal {\n        _setBytes32(h, v);\n        emit Bytes32VarableChanged(h,v);\n    }\n\n\n\n    // mapping(bytes32 => Variable) internal s;\n\n    // /**\n    // * @dev Add a new variable .\n    // * @param _h The keccak256 hash of the variable name\n    // * @param _t The type of value\n    // * @param _v The value to be stored\n    // */\n    // function _add(bytes32 _h, uint256 _t, string _v) internal  {\n    //     require(s[_h]._name == \"\",\"not found\");\n    //     s[_h] = Variable(_h,_t,_v);\n    //     emit VarableAdded(_h,_t,_v);\n    // }\n    // /**\n    // * @dev Update a new variable .\n    // * @param _h The keccak256 hash of the variable name\n    // * @param _t The type of value\n    // * @param _v The value to be stored\n    // */\n    // function _change(bytes32 _h, uint256 _t, string _v) internal {\n    //     require(s[_h]._name == _h,\"not found\");\n    //     Variable storage v = s[_h];\n    //     v._name = _h;\n    //     v._type = _t;\n    //     v._value = _v;\n    //     emit VarableChanged(_h,_t,_v);\n\n    // }\n    // /**\n    // * @dev Get the type & value stored of a string variable by the hash name\n    // * @param _h The keccak256 hash of the variable name\n    // */\n    // function get(bytes32 _h) public view returns (uint256 varType, string varVal){\n    //     //require(s[_h]._name == _h,\"not found\");\n    //     return (s[_h]._type, s[_h]._value);\n    // }\n    // /**\n    // * @dev Get the type stored of a string variable by the hash name\n    // * @param _h The keccak256 hash of the variable name\n    // */\n    // function getType(bytes32 _h) public view returns (uint256){\n    //     require(s[_h]._name == _h,\"not found\");\n    //     return s[_h]._type;\n    // }\n    // /**\n    // * @dev Get the value stored of a string variable by the hash name\n    // * @param _h The keccak256 hash of the variable name\n    // */\n    // function getValue(bytes32 _h) public view returns (string){\n    //     require(s[_h]._name == _h,\"not found\");\n    //     return s[_h]._value;\n    // }\n    \n}",
  "sourcePath": "/Users/hexoul/Documents/Metadium/governance/governance-contract/contracts/storage/AEnvStorage.sol",
  "compiler": {
    "name": "solc",
    "version": "0.4.24+commit.e67f0147.Emscripten.clang"
  },
  "schemaVersion": "2.0.1",
  "updatedAt": "2019-02-01T01:24:43.029Z"
}