{
  "contractName": "AEnvStorage",
  "abi": [
    {
      "constant": true,
      "inputs": [],
      "name": "REG",
      "outputs": [
        {
          "name": "",
          "type": "address"
        }
      ],
      "payable": false,
      "stateMutability": "view",
      "type": "function"
    },
    {
      "constant": true,
      "inputs": [],
      "name": "GOV_NAME",
      "outputs": [
        {
          "name": "",
          "type": "bytes32"
        }
      ],
      "payable": false,
      "stateMutability": "view",
      "type": "function"
    },
    {
      "constant": false,
      "inputs": [],
      "name": "renounceOwnership",
      "outputs": [],
      "payable": false,
      "stateMutability": "nonpayable",
      "type": "function"
    },
    {
      "constant": true,
      "inputs": [],
      "name": "owner",
      "outputs": [
        {
          "name": "",
          "type": "address"
        }
      ],
      "payable": false,
      "stateMutability": "view",
      "type": "function"
    },
    {
      "constant": true,
      "inputs": [],
      "name": "isOwner",
      "outputs": [
        {
          "name": "",
          "type": "bool"
        }
      ],
      "payable": false,
      "stateMutability": "view",
      "type": "function"
    },
    {
      "constant": false,
      "inputs": [
        {
          "name": "_addr",
          "type": "address"
        }
      ],
      "name": "setRegistry",
      "outputs": [],
      "payable": false,
      "stateMutability": "nonpayable",
      "type": "function"
    },
    {
      "constant": false,
      "inputs": [
        {
          "name": "newOwner",
          "type": "address"
        }
      ],
      "name": "transferOwnership",
      "outputs": [],
      "payable": false,
      "stateMutability": "nonpayable",
      "type": "function"
    },
    {
      "anonymous": false,
      "inputs": [
        {
          "indexed": true,
          "name": "_name",
          "type": "bytes32"
        },
        {
          "indexed": true,
          "name": "_type",
          "type": "uint256"
        },
        {
          "indexed": false,
          "name": "_value",
          "type": "string"
        }
      ],
      "name": "VarableAdded",
      "type": "event"
    },
    {
      "anonymous": false,
      "inputs": [
        {
          "indexed": true,
          "name": "_name",
          "type": "bytes32"
        },
        {
          "indexed": true,
          "name": "_type",
          "type": "uint256"
        },
        {
          "indexed": false,
          "name": "_value",
          "type": "string"
        }
      ],
      "name": "VarableChanged",
      "type": "event"
    },
    {
      "anonymous": false,
      "inputs": [
        {
          "indexed": true,
          "name": "previousOwner",
          "type": "address"
        },
        {
          "indexed": true,
          "name": "newOwner",
          "type": "address"
        }
      ],
      "name": "OwnershipTransferred",
      "type": "event"
    },
    {
      "constant": true,
      "inputs": [
        {
          "name": "_h",
          "type": "bytes32"
        }
      ],
      "name": "get",
      "outputs": [
        {
          "name": "varType",
          "type": "uint256"
        },
        {
          "name": "varVal",
          "type": "string"
        }
      ],
      "payable": false,
      "stateMutability": "view",
      "type": "function"
    },
    {
      "constant": true,
      "inputs": [
        {
          "name": "_h",
          "type": "bytes32"
        }
      ],
      "name": "getType",
      "outputs": [
        {
          "name": "",
          "type": "uint256"
        }
      ],
      "payable": false,
      "stateMutability": "view",
      "type": "function"
    },
    {
      "constant": true,
      "inputs": [
        {
          "name": "_h",
          "type": "bytes32"
        }
      ],
      "name": "getValue",
      "outputs": [
        {
          "name": "",
          "type": "string"
        }
      ],
      "payable": false,
      "stateMutability": "view",
      "type": "function"
    }
  ],
  "bytecode": "0x60806040527f476f7665726e616e6365436f6e74726163740000000000000000000000000000600290600019169055336000806101000a81548173ffffffffffffffffffffffffffffffffffffffff021916908373ffffffffffffffffffffffffffffffffffffffff1602179055506000809054906101000a900473ffffffffffffffffffffffffffffffffffffffff1673ffffffffffffffffffffffffffffffffffffffff16600073ffffffffffffffffffffffffffffffffffffffff167f8be0079c531659141344cd1fd0a4f28419497f9722a3daafe3b4186f6b6457e060405160405180910390a36108de806100f96000396000f3006080604052600436106100a4576000357c0100000000000000000000000000000000000000000000000000000000900463ffffffff16806339363112146100a957806369843940146101005780636c78d2cf146101aa578063715018a6146101dd5780637f2aeea4146101f45780638da5cb5b146102395780638eaa6ac0146102905780638f32d59b14610341578063a91ee0dc14610370578063f2fde38b146103b3575b600080fd5b3480156100b557600080fd5b506100be6103f6565b604051808273ffffffffffffffffffffffffffffffffffffffff1673ffffffffffffffffffffffffffffffffffffffff16815260200191505060405180910390f35b34801561010c57600080fd5b5061012f600480360381019080803560001916906020019092919050505061041c565b6040518080602001828103825283818151815260200191508051906020019080838360005b8381101561016f578082015181840152602081019050610154565b50505050905090810190601f16801561019c5780820380516001836020036101000a031916815260200191505b509250505060405180910390f35b3480156101b657600080fd5b506101bf6104dc565b60405180826000191660001916815260200191505060405180910390f35b3480156101e957600080fd5b506101f26104e2565b005b34801561020057600080fd5b5061022360048036038101908080356000191690602001909291905050506105b4565b6040518082815260200191505060405180910390f35b34801561024557600080fd5b5061024e6105dc565b604051808273ffffffffffffffffffffffffffffffffffffffff1673ffffffffffffffffffffffffffffffffffffffff16815260200191505060405180910390f35b34801561029c57600080fd5b506102bf6004803603810190808035600019169060200190929190505050610605565b6040518083815260200180602001828103825283818151815260200191508051906020019080838360005b838110156103055780820151818401526020810190506102ea565b50505050905090810190601f1680156103325780820380516001836020036101000a031916815260200191505b50935050505060405180910390f35b34801561034d57600080fd5b506103566106eb565b604051808215151515815260200191505060405180910390f35b34801561037c57600080fd5b506103b1600480360381019080803573ffffffffffffffffffffffffffffffffffffffff169060200190929190505050610742565b005b3480156103bf57600080fd5b506103f4600480360381019080803573ffffffffffffffffffffffffffffffffffffffff169060200190929190505050610799565b005b600160009054906101000a900473ffffffffffffffffffffffffffffffffffffffff1681565b60606003600083600019166000191681526020019081526020016000206002018054600181600116156101000203166002900480601f0160208091040260200160405190810160405280929190818152602001828054600181600116156101000203166002900480156104d05780601f106104a5576101008083540402835291602001916104d0565b820191906000526020600020905b8154815290600101906020018083116104b357829003601f168201915b50505050509050919050565b60025481565b6104ea6106eb565b15156104f557600080fd5b600073ffffffffffffffffffffffffffffffffffffffff166000809054906101000a900473ffffffffffffffffffffffffffffffffffffffff1673ffffffffffffffffffffffffffffffffffffffff167f8be0079c531659141344cd1fd0a4f28419497f9722a3daafe3b4186f6b6457e060405160405180910390a360008060006101000a81548173ffffffffffffffffffffffffffffffffffffffff021916908373ffffffffffffffffffffffffffffffffffffffff160217905550565b6000600360008360001916600019168152602001908152602001600020600101549050919050565b60008060009054906101000a900473ffffffffffffffffffffffffffffffffffffffff16905090565b6000606060036000846000191660001916815260200190815260200160002060010154600360008560001916600019168152602001908152602001600020600201808054600181600116156101000203166002900480601f0160208091040260200160405190810160405280929190818152602001828054600181600116156101000203166002900480156106db5780601f106106b0576101008083540402835291602001916106db565b820191906000526020600020905b8154815290600101906020018083116106be57829003601f168201915b5050505050905091509150915091565b60008060009054906101000a900473ffffffffffffffffffffffffffffffffffffffff1673ffffffffffffffffffffffffffffffffffffffff163373ffffffffffffffffffffffffffffffffffffffff1614905090565b61074a6106eb565b151561075557600080fd5b80600160006101000a81548173ffffffffffffffffffffffffffffffffffffffff021916908373ffffffffffffffffffffffffffffffffffffffff16021790555050565b6107a16106eb565b15156107ac57600080fd5b6107b5816107b8565b50565b600073ffffffffffffffffffffffffffffffffffffffff168173ffffffffffffffffffffffffffffffffffffffff16141515156107f457600080fd5b8073ffffffffffffffffffffffffffffffffffffffff166000809054906101000a900473ffffffffffffffffffffffffffffffffffffffff1673ffffffffffffffffffffffffffffffffffffffff167f8be0079c531659141344cd1fd0a4f28419497f9722a3daafe3b4186f6b6457e060405160405180910390a3806000806101000a81548173ffffffffffffffffffffffffffffffffffffffff021916908373ffffffffffffffffffffffffffffffffffffffff160217905550505600a165627a7a723058206e9a14866519c0de97d8f6cc0801d86458fb1daa2940de8372206ecb8c6d134b0029",
  "source": "pragma solidity ^0.4.24;\n\nimport \"../GovChecker.sol\";\n\n\ncontract AEnvStorage is GovChecker {\n    struct Variable {\n        bytes32 _name;\n        uint256 _type;\n        string _value;\n    }\n   \n    event VarableAdded ( \n        bytes32 indexed _name,\n        uint256 indexed _type,\n        string _value\n    );\n    event VarableChanged ( \n        bytes32 indexed _name,\n        uint256 indexed _type,\n        string _value\n    );\n   \n    mapping(bytes32 => Variable) internal s;\n \n    /**\n    * @dev Add a new variable .\n    * @param _h The keccak256 hash of the variable name\n    * @param _t The type of value\n    * @param _v The value to be stored\n    */\n    function _add(bytes32 _h, uint256 _t, string _v) internal  {\n        require(s[_h]._name == \"\",\"not found\");\n        s[_h] = Variable(_h,_t,_v);\n        emit VarableAdded(_h,_t,_v);\n    }\n    /**\n    * @dev Update a new variable .\n    * @param _h The keccak256 hash of the variable name\n    * @param _t The type of value\n    * @param _v The value to be stored\n    */\n    function _change(bytes32 _h, uint256 _t, string _v) internal {\n        require(s[_h]._name == _h,\"not found\");\n        Variable storage v = s[_h];\n        v._name = _h;\n        v._type = _t;\n        v._value = _v;\n        emit VarableChanged(_h,_t,_v);\n\n    }\n    /**\n    * @dev Get the type & value stored of a string variable by the hash name\n    * @param _h The keccak256 hash of the variable name\n    */\n    function get(bytes32 _h) public view returns (uint256 varType, string varVal){\n        //require(s[_h]._name == _h,\"not found\");\n        return (s[_h]._type, s[_h]._value);\n    }\n    /**\n    * @dev Get the type stored of a string variable by the hash name\n    * @param _h The keccak256 hash of the variable name\n    */\n    function getType(bytes32 _h) public view returns (uint256){\n        //require(s[_h]._name == _h,\"not found\");\n        return s[_h]._type;\n    }\n    /**\n    * @dev Get the value stored of a string variable by the hash name\n    * @param _h The keccak256 hash of the variable name\n    */\n    function getValue(bytes32 _h) public view returns (string){\n        //require(s[_h]._name == _h,\"not found\");\n        return s[_h]._value;\n    }\n}",
  "sourcePath": "/Users/ywshin/Documents/WS/truffle/governance-contract-blueisle/contracts/storage/AEnvStorage.sol",
  "compiler": {
    "name": "solc",
    "version": "0.4.24+commit.e67f0147.Emscripten.clang"
  },
  "schemaVersion": "2.0.1",
  "updatedAt": "2019-01-30T06:47:20.770Z"
}