{
  "contractName": "BallotStorage",
  "abi": [
    {
      "constant": true,
      "inputs": [],
      "name": "REG",
      "outputs": [
        {
          "name": "",
          "type": "address"
        }
      ],
      "payable": false,
      "stateMutability": "view",
      "type": "function"
    },
    {
      "constant": true,
      "inputs": [],
      "name": "GOV_NAME",
      "outputs": [
        {
          "name": "",
          "type": "bytes32"
        }
      ],
      "payable": false,
      "stateMutability": "view",
      "type": "function"
    },
    {
      "constant": false,
      "inputs": [],
      "name": "renounceOwnership",
      "outputs": [],
      "payable": false,
      "stateMutability": "nonpayable",
      "type": "function"
    },
    {
      "constant": true,
      "inputs": [],
      "name": "owner",
      "outputs": [
        {
          "name": "",
          "type": "address"
        }
      ],
      "payable": false,
      "stateMutability": "view",
      "type": "function"
    },
    {
      "constant": true,
      "inputs": [],
      "name": "isOwner",
      "outputs": [
        {
          "name": "",
          "type": "bool"
        }
      ],
      "payable": false,
      "stateMutability": "view",
      "type": "function"
    },
    {
      "constant": false,
      "inputs": [
        {
          "name": "_addr",
          "type": "address"
        }
      ],
      "name": "setRegistry",
      "outputs": [],
      "payable": false,
      "stateMutability": "nonpayable",
      "type": "function"
    },
    {
      "constant": false,
      "inputs": [
        {
          "name": "newOwner",
          "type": "address"
        }
      ],
      "name": "transferOwnership",
      "outputs": [],
      "payable": false,
      "stateMutability": "nonpayable",
      "type": "function"
    },
    {
      "inputs": [
        {
          "name": "_registry",
          "type": "address"
        }
      ],
      "payable": false,
      "stateMutability": "nonpayable",
      "type": "constructor"
    },
    {
      "anonymous": false,
      "inputs": [
        {
          "indexed": true,
          "name": "ballotId",
          "type": "uint256"
        },
        {
          "indexed": true,
          "name": "ballotType",
          "type": "uint256"
        },
        {
          "indexed": true,
          "name": "creator",
          "type": "address"
        }
      ],
      "name": "BallotCreated",
      "type": "event"
    },
    {
      "anonymous": false,
      "inputs": [
        {
          "indexed": true,
          "name": "ballotId",
          "type": "uint256"
        },
        {
          "indexed": true,
          "name": "startTime",
          "type": "uint256"
        },
        {
          "indexed": true,
          "name": "endTime",
          "type": "uint256"
        }
      ],
      "name": "BallotStarted",
      "type": "event"
    },
    {
      "anonymous": false,
      "inputs": [
        {
          "indexed": true,
          "name": "voteid",
          "type": "uint256"
        },
        {
          "indexed": true,
          "name": "ballotId",
          "type": "uint256"
        },
        {
          "indexed": true,
          "name": "voter",
          "type": "address"
        },
        {
          "indexed": false,
          "name": "decision",
          "type": "uint256"
        }
      ],
      "name": "Voted",
      "type": "event"
    },
    {
      "anonymous": false,
      "inputs": [
        {
          "indexed": true,
          "name": "ballotId",
          "type": "uint256"
        },
        {
          "indexed": false,
          "name": "state",
          "type": "uint256"
        }
      ],
      "name": "BallotFinalized",
      "type": "event"
    },
    {
      "anonymous": false,
      "inputs": [
        {
          "indexed": true,
          "name": "previousOwner",
          "type": "address"
        },
        {
          "indexed": true,
          "name": "newOwner",
          "type": "address"
        }
      ],
      "name": "OwnershipTransferred",
      "type": "event"
    },
    {
      "constant": true,
      "inputs": [],
      "name": "getTime",
      "outputs": [
        {
          "name": "",
          "type": "uint256"
        }
      ],
      "payable": false,
      "stateMutability": "view",
      "type": "function"
    },
    {
      "constant": true,
      "inputs": [
        {
          "name": "_id",
          "type": "uint256"
        }
      ],
      "name": "getBallotBasic",
      "outputs": [
        {
          "name": "id",
          "type": "uint256"
        },
        {
          "name": "startTime",
          "type": "uint256"
        },
        {
          "name": "endTime",
          "type": "uint256"
        },
        {
          "name": "ballotType",
          "type": "uint256"
        },
        {
          "name": "creator",
          "type": "address"
        },
        {
          "name": "memo",
          "type": "bytes"
        },
        {
          "name": "totalVoters",
          "type": "uint256"
        },
        {
          "name": "powerOfAccepts",
          "type": "uint256"
        },
        {
          "name": "powerOfRejects",
          "type": "uint256"
        },
        {
          "name": "state",
          "type": "uint256"
        },
        {
          "name": "isFinalized",
          "type": "bool"
        }
      ],
      "payable": false,
      "stateMutability": "view",
      "type": "function"
    },
    {
      "constant": true,
      "inputs": [
        {
          "name": "_id",
          "type": "uint256"
        }
      ],
      "name": "getBallotMember",
      "outputs": [
        {
          "name": "id",
          "type": "uint256"
        },
        {
          "name": "oldMemeberAddress",
          "type": "address"
        },
        {
          "name": "newMemeberAddress",
          "type": "address"
        },
        {
          "name": "newNodeId",
          "type": "bytes"
        },
        {
          "name": "newNodeIp",
          "type": "bytes"
        },
        {
          "name": "newNodePort",
          "type": "uint256"
        }
      ],
      "payable": false,
      "stateMutability": "view",
      "type": "function"
    },
    {
      "constant": true,
      "inputs": [
        {
          "name": "_id",
          "type": "uint256"
        }
      ],
      "name": "getBallotAddress",
      "outputs": [
        {
          "name": "id",
          "type": "uint256"
        },
        {
          "name": "newGovernanceAddress",
          "type": "address"
        }
      ],
      "payable": false,
      "stateMutability": "view",
      "type": "function"
    },
    {
      "constant": true,
      "inputs": [
        {
          "name": "_id",
          "type": "uint256"
        }
      ],
      "name": "getBallotVariable",
      "outputs": [
        {
          "name": "id",
          "type": "uint256"
        },
        {
          "name": "envVariableName",
          "type": "bytes32"
        },
        {
          "name": "envVariableType",
          "type": "uint256"
        },
        {
          "name": "envVariableValue",
          "type": "string"
        }
      ],
      "payable": false,
      "stateMutability": "view",
      "type": "function"
    },
    {
      "constant": false,
      "inputs": [
        {
          "name": "_id",
          "type": "uint256"
        },
        {
          "name": "_ballotType",
          "type": "uint256"
        },
        {
          "name": "_creator",
          "type": "address"
        },
        {
          "name": "_oldMemeberAddress",
          "type": "address"
        },
        {
          "name": "_newMemeberAddress",
          "type": "address"
        },
        {
          "name": "_newNodeId",
          "type": "bytes"
        },
        {
          "name": "_newNodeIp",
          "type": "bytes"
        },
        {
          "name": "_newNodePort",
          "type": "uint256"
        }
      ],
      "name": "createBallotForMemeber",
      "outputs": [
        {
          "name": "",
          "type": "uint256"
        }
      ],
      "payable": false,
      "stateMutability": "nonpayable",
      "type": "function"
    },
    {
      "constant": false,
      "inputs": [
        {
          "name": "_id",
          "type": "uint256"
        },
        {
          "name": "_ballotType",
          "type": "uint256"
        },
        {
          "name": "_creator",
          "type": "address"
        },
        {
          "name": "_memo",
          "type": "bytes"
        },
        {
          "name": "_newGovernanceAddress",
          "type": "address"
        }
      ],
      "name": "createBallotForAddress",
      "outputs": [
        {
          "name": "",
          "type": "uint256"
        }
      ],
      "payable": false,
      "stateMutability": "nonpayable",
      "type": "function"
    },
    {
      "constant": false,
      "inputs": [
        {
          "name": "_id",
          "type": "uint256"
        },
        {
          "name": "_ballotType",
          "type": "uint256"
        },
        {
          "name": "_creator",
          "type": "address"
        },
        {
          "name": "_envVariableName",
          "type": "bytes32"
        },
        {
          "name": "_envVariableType",
          "type": "uint256"
        },
        {
          "name": "_envVariableValue",
          "type": "string"
        }
      ],
      "name": "createBallotForVariable",
      "outputs": [
        {
          "name": "",
          "type": "uint256"
        }
      ],
      "payable": false,
      "stateMutability": "nonpayable",
      "type": "function"
    },
    {
      "constant": false,
      "inputs": [
        {
          "name": "_voteId",
          "type": "uint256"
        },
        {
          "name": "_ballotId",
          "type": "uint256"
        },
        {
          "name": "_voter",
          "type": "address"
        },
        {
          "name": "_decision",
          "type": "uint256"
        },
        {
          "name": "_power",
          "type": "uint256"
        }
      ],
      "name": "createVote",
      "outputs": [
        {
          "name": "",
          "type": "uint256"
        }
      ],
      "payable": false,
      "stateMutability": "nonpayable",
      "type": "function"
    },
    {
      "constant": true,
      "inputs": [
        {
          "name": "_voteId",
          "type": "uint256"
        }
      ],
      "name": "getVote",
      "outputs": [
        {
          "name": "voteId",
          "type": "uint256"
        },
        {
          "name": "ballotId",
          "type": "uint256"
        },
        {
          "name": "voter",
          "type": "address"
        },
        {
          "name": "decision",
          "type": "uint256"
        },
        {
          "name": "power",
          "type": "uint256"
        },
        {
          "name": "time",
          "type": "uint256"
        }
      ],
      "payable": false,
      "stateMutability": "view",
      "type": "function"
    },
    {
      "constant": false,
      "inputs": [
        {
          "name": "_ballotId",
          "type": "uint256"
        },
        {
          "name": "_ballotState",
          "type": "uint256"
        }
      ],
      "name": "finalizeBallot",
      "outputs": [],
      "payable": false,
      "stateMutability": "nonpayable",
      "type": "function"
    },
    {
      "constant": true,
      "inputs": [
        {
          "name": "_ballotId",
          "type": "uint56"
        },
        {
          "name": "_voter",
          "type": "address"
        }
      ],
      "name": "hasAlreadyVoted",
      "outputs": [
        {
          "name": "",
          "type": "bool"
        }
      ],
      "payable": false,
      "stateMutability": "view",
      "type": "function"
    },
    {
      "constant": false,
      "inputs": [
        {
          "name": "_ballotId",
          "type": "uint256"
        },
        {
          "name": "_startTime",
          "type": "uint256"
        },
        {
          "name": "_endTime",
          "type": "uint256"
        }
      ],
      "name": "startBallot",
      "outputs": [],
      "payable": false,
      "stateMutability": "nonpayable",
      "type": "function"
    },
    {
      "constant": false,
      "inputs": [
        {
          "name": "_ballotId",
          "type": "uint256"
        },
        {
          "name": "_memo",
          "type": "bytes"
        }
      ],
      "name": "updateBallotMemo",
      "outputs": [],
      "payable": false,
      "stateMutability": "nonpayable",
      "type": "function"
    }
  ],
  "bytecode": "0x60806040527f476f7665726e616e6365436f6e747261637400000000000000000000000000006002906000191690553480156200003b57600080fd5b50604051602080620045a883398101806040528101908080519060200190929190505050336000806101000a81548173ffffffffffffffffffffffffffffffffffffffff021916908373ffffffffffffffffffffffffffffffffffffffff1602179055506000809054906101000a900473ffffffffffffffffffffffffffffffffffffffff1673ffffffffffffffffffffffffffffffffffffffff16600073ffffffffffffffffffffffffffffffffffffffff167f8be0079c531659141344cd1fd0a4f28419497f9722a3daafe3b4186f6b6457e060405160405180910390a362000135816200013c640100000000026401000000009004565b50620001fc565b62000155620001a5640100000000026401000000009004565b15156200016157600080fd5b80600160006101000a81548173ffffffffffffffffffffffffffffffffffffffff021916908373ffffffffffffffffffffffffffffffffffffffff16021790555050565b60008060009054906101000a900473ffffffffffffffffffffffffffffffffffffffff1673ffffffffffffffffffffffffffffffffffffffff163373ffffffffffffffffffffffffffffffffffffffff1614905090565b61439c806200020c6000396000f30060806040526004361061011d576000357c0100000000000000000000000000000000000000000000000000000000900463ffffffff16806302b385fb146101225780631d940da21461023e5780633936311214610301578063557ed1ba14610358578063563c93ce146103835780635a55c1f0146104545780636c78d2cf146104e4578063715018a61461051757806373df4e011461052e5780637efa9ae3146106b45780638da5cb5b146107285780638f32d59b1461077f57806396462b9c146107ae57806399e929a31461082d578063a91e59ba1461096e578063a91ee0dc146109a5578063bce0dbc1146109e8578063c0b6f18614610a5b578063c351e2ea14610a9c578063f2fde38b14610b65578063f680e55514610ba8575b600080fd5b34801561012e57600080fd5b5061014d60048036038101908080359060200190929190505050610c16565b604051808c81526020018b81526020018a81526020018981526020018873ffffffffffffffffffffffffffffffffffffffff1673ffffffffffffffffffffffffffffffffffffffff1681526020018060200187815260200186815260200185815260200184815260200183151515158152602001828103825288818151815260200191508051906020019080838360005b838110156101f95780820151818401526020810190506101de565b50505050905090810190601f1680156102265780820380516001836020036101000a031916815260200191505b509c5050505050505050505050505060405180910390f35b34801561024a57600080fd5b5061026960048036038101908080359060200190929190505050610e15565b60405180858152602001846000191660001916815260200183815260200180602001828103825283818151815260200191508051906020019080838360005b838110156102c35780820151818401526020810190506102a8565b50505050905090810190601f1680156102f05780820380516001836020036101000a031916815260200191505b509550505050505060405180910390f35b34801561030d57600080fd5b50610316610eef565b604051808273ffffffffffffffffffffffffffffffffffffffff1673ffffffffffffffffffffffffffffffffffffffff16815260200191505060405180910390f35b34801561036457600080fd5b5061036d610f15565b6040518082815260200191505060405180910390f35b34801561038f57600080fd5b5061043e6004803603810190808035906020019092919080359060200190929190803573ffffffffffffffffffffffffffffffffffffffff169060200190929190803590602001908201803590602001908080601f0160208091040260200160405190810160405280939291908181526020018383808284378201915050505050509192919290803573ffffffffffffffffffffffffffffffffffffffff169060200190929190505050610f1d565b6040518082815260200191505060405180910390f35b34801561046057600080fd5b5061047f6004803603810190808035906020019092919050505061128e565b604051808781526020018681526020018573ffffffffffffffffffffffffffffffffffffffff1673ffffffffffffffffffffffffffffffffffffffff168152602001848152602001838152602001828152602001965050505050505060405180910390f35b3480156104f057600080fd5b506104f9611409565b60405180826000191660001916815260200191505060405180910390f35b34801561052357600080fd5b5061052c61140f565b005b34801561053a57600080fd5b50610559600480360381019080803590602001909291905050506114e1565b604051808781526020018673ffffffffffffffffffffffffffffffffffffffff1673ffffffffffffffffffffffffffffffffffffffff1681526020018573ffffffffffffffffffffffffffffffffffffffff1673ffffffffffffffffffffffffffffffffffffffff1681526020018060200180602001848152602001838103835286818151815260200191508051906020019080838360005b8381101561060d5780820151818401526020810190506105f2565b50505050905090810190601f16801561063a5780820380516001836020036101000a031916815260200191505b50838103825285818151815260200191508051906020019080838360005b83811015610673578082015181840152602081019050610658565b50505050905090810190601f1680156106a05780820380516001836020036101000a031916815260200191505b509850505050505050505060405180910390f35b3480156106c057600080fd5b506106df600480360381019080803590602001909291905050506116a5565b604051808381526020018273ffffffffffffffffffffffffffffffffffffffff1673ffffffffffffffffffffffffffffffffffffffff1681526020019250505060405180910390f35b34801561073457600080fd5b5061073d6116f3565b604051808273ffffffffffffffffffffffffffffffffffffffff1673ffffffffffffffffffffffffffffffffffffffff16815260200191505060405180910390f35b34801561078b57600080fd5b5061079461171c565b604051808215151515815260200191505060405180910390f35b3480156107ba57600080fd5b506108176004803603810190808035906020019092919080359060200190929190803573ffffffffffffffffffffffffffffffffffffffff1690602001909291908035906020019092919080359060200190929190505050611773565b6040518082815260200191505060405180910390f35b34801561083957600080fd5b506109586004803603810190808035906020019092919080359060200190929190803573ffffffffffffffffffffffffffffffffffffffff169060200190929190803573ffffffffffffffffffffffffffffffffffffffff169060200190929190803573ffffffffffffffffffffffffffffffffffffffff169060200190929190803590602001908201803590602001908080601f0160208091040260200160405190810160405280939291908181526020018383808284378201915050505050509192919290803590602001908201803590602001908080601f016020809104026020016040519081016040528093929190818152602001838380828437820191505050505050919291929080359060200190929190505050611d4c565b6040518082815260200191505060405180910390f35b34801561097a57600080fd5b506109a36004803603810190808035906020019092919080359060200190929190505050612109565b005b3480156109b157600080fd5b506109e6600480360381019080803573ffffffffffffffffffffffffffffffffffffffff1690602001909291905050506124bf565b005b3480156109f457600080fd5b50610a5960048036038101908080359060200190929190803590602001908201803590602001908080601f0160208091040260200160405190810160405280939291908181526020018383808284378201915050505050509192919290505050612516565b005b348015610a6757600080fd5b50610a9a6004803603810190808035906020019092919080359060200190929190803590602001909291905050506127ef565b005b348015610aa857600080fd5b50610b4f6004803603810190808035906020019092919080359060200190929190803573ffffffffffffffffffffffffffffffffffffffff169060200190929190803560001916906020019092919080359060200190929190803590602001908201803590602001908080601f0160208091040260200160405190810160405280939291908181526020018383808284378201915050505050509192919290505050612bde565b6040518082815260200191505060405180910390f35b348015610b7157600080fd5b50610ba6600480360381019080803573ffffffffffffffffffffffffffffffffffffffff169060200190929190505050612e97565b005b348015610bb457600080fd5b50610bfc600480360381019080803566ffffffffffffff169060200190929190803573ffffffffffffffffffffffffffffffffffffffff169060200190929190505050612eb6565b604051808215151515815260200191505060405180910390f35b600080600080600060606000806000806000610c3061404c565b600360008e81526020019081526020016000206101606040519081016040529081600082015481526020016001820154815260200160028201548152602001600382015481526020016004820160009054906101000a900473ffffffffffffffffffffffffffffffffffffffff1673ffffffffffffffffffffffffffffffffffffffff1673ffffffffffffffffffffffffffffffffffffffff168152602001600582018054600181600116156101000203166002900480601f016020809104026020016040519081016040528092919081815260200182805460018160011615610100020316600290048015610d675780601f10610d3c57610100808354040283529160200191610d67565b820191906000526020600020905b815481529060010190602001808311610d4a57829003601f168201915b5050505050815260200160068201548152602001600782015481526020016008820154815260200160098201548152602001600a820160009054906101000a900460ff161515151581525050905080600001519b5080602001519a508060400151995080606001519850806080015197508060a0015196508060c0015195508060e0015194508061010001519350806101200151925080610140015191505091939597999b90929496989a50565b600080600060606000600660008781526020019081526020016000209050806000015494508060010154935080600201549250806003018054600181600116156101000203166002900480601f016020809104026020016040519081016040528092919081815260200182805460018160011615610100020316600290048015610ee05780601f10610eb557610100808354040283529160200191610ee0565b820191906000526020600020905b815481529060010190602001808311610ec357829003601f168201915b50505050509150509193509193565b600160009054906101000a900473ffffffffffffffffffffffffffffffffffffffff1681565b600042905090565b600080610f286140bf565b3373ffffffffffffffffffffffffffffffffffffffff16600160009054906101000a900473ffffffffffffffffffffffffffffffffffffffff1673ffffffffffffffffffffffffffffffffffffffff16630d2020dd6002546040518263ffffffff167c0100000000000000000000000000000000000000000000000000000000028152600401808260001916600019168152602001915050602060405180830381600087803b158015610fda57600080fd5b505af1158015610fee573d6000803e3d6000fd5b505050506040513d602081101561100457600080fd5b810190808051906020019092919050505073ffffffffffffffffffffffffffffffffffffffff161415156110a0576040517f08c379a000000000000000000000000000000000000000000000000000000000815260040180806020018281038252600d8152602001807f4e6f205065726d697373696f6e0000000000000000000000000000000000000081525060200191505060405180910390fd5b600460058111156110ad57fe5b87141515611123576040517f08c379a00000000000000000000000000000000000000000000000000000000081526004018080602001828103825260138152602001807f496e76616c69642042616c6c6f7420547970650000000000000000000000000081525060200191505060405180910390fd5b600073ffffffffffffffffffffffffffffffffffffffff168473ffffffffffffffffffffffffffffffffffffffff16141515156111c8576040517f08c379a00000000000000000000000000000000000000000000000000000000081526004018080602001828103825260118152602001807f496e76616c696420506172616d6574657200000000000000000000000000000081525060200191505060405180910390fd5b6111d488888888612f27565b91508181600001818152505083816020019073ffffffffffffffffffffffffffffffffffffffff16908173ffffffffffffffffffffffffffffffffffffffff168152505080600560008481526020019081526020016000206000820151816000015560208201518160010160006101000a81548173ffffffffffffffffffffffffffffffffffffffff021916908373ffffffffffffffffffffffffffffffffffffffff160217905550905050819250505095945050505050565b60008060008060008061129f6140ef565b87600760008a81526020019081526020016000206000015414151561132c576040517f08c379a00000000000000000000000000000000000000000000000000000000081526004018080602001828103825260128152602001807f6e6f74206578697374656420766f74654964000000000000000000000000000081525060200191505060405180910390fd5b6007600089815260200190815260200160002060c0604051908101604052908160008201548152602001600182015481526020016002820160009054906101000a900473ffffffffffffffffffffffffffffffffffffffff1673ffffffffffffffffffffffffffffffffffffffff1673ffffffffffffffffffffffffffffffffffffffff1681526020016003820154815260200160048201548152602001600582015481525050905080600001519650806020015195508060400151945080606001519350806080015192508060a0015191505091939550919395565b60025481565b61141761171c565b151561142257600080fd5b600073ffffffffffffffffffffffffffffffffffffffff166000809054906101000a900473ffffffffffffffffffffffffffffffffffffffff1673ffffffffffffffffffffffffffffffffffffffff167f8be0079c531659141344cd1fd0a4f28419497f9722a3daafe3b4186f6b6457e060405160405180910390a360008060006101000a81548173ffffffffffffffffffffffffffffffffffffffff021916908373ffffffffffffffffffffffffffffffffffffffff160217905550565b6000806000606080600080600460008981526020019081526020016000209050806000015496508060010160009054906101000a900473ffffffffffffffffffffffffffffffffffffffff1695508060020160009054906101000a900473ffffffffffffffffffffffffffffffffffffffff169450806003018054600181600116156101000203166002900480601f0160208091040260200160405190810160405280929190818152602001828054600181600116156101000203166002900480156115ee5780601f106115c3576101008083540402835291602001916115ee565b820191906000526020600020905b8154815290600101906020018083116115d157829003601f168201915b50505050509350806004018054600181600116156101000203166002900480601f01602080910402602001604051908101604052809291908181526020018280546001816001161561010002031660029004801561168d5780601f106116625761010080835404028352916020019161168d565b820191906000526020600020905b81548152906001019060200180831161167057829003601f168201915b50505050509250806005015491505091939550919395565b6000806000600560008581526020019081526020016000209050806000015492508060010160009054906101000a900473ffffffffffffffffffffffffffffffffffffffff16915050915091565b60008060009054906101000a900473ffffffffffffffffffffffffffffffffffffffff16905090565b60008060009054906101000a900473ffffffffffffffffffffffffffffffffffffffff1673ffffffffffffffffffffffffffffffffffffffff163373ffffffffffffffffffffffffffffffffffffffff1614905090565b60003373ffffffffffffffffffffffffffffffffffffffff16600160009054906101000a900473ffffffffffffffffffffffffffffffffffffffff1673ffffffffffffffffffffffffffffffffffffffff16630d2020dd6002546040518263ffffffff167c0100000000000000000000000000000000000000000000000000000000028152600401808260001916600019168152602001915050602060405180830381600087803b15801561182757600080fd5b505af115801561183b573d6000803e3d6000fd5b505050506040513d602081101561185157600080fd5b810190808051906020019092919050505073ffffffffffffffffffffffffffffffffffffffff161415156118ed576040517f08c379a000000000000000000000000000000000000000000000000000000000815260040180806020018281038252600d8152602001807f4e6f205065726d697373696f6e0000000000000000000000000000000000000081525060200191505060405180910390fd5b600160028111156118fa57fe5b831480611912575060028081111561190e57fe5b8311155b1515611986576040517f08c379a00000000000000000000000000000000000000000000000000000000081526004018080602001828103825260108152602001807f496e76616c6964206465636973696f6e0000000000000000000000000000000081525060200191505060405180910390fd5b846003600087815260200190815260200160002060000154141515611a13576040517f08c379a00000000000000000000000000000000000000000000000000000000081526004018080602001828103825260128152602001807f6e6f7420657869737465642042616c6c6f74000000000000000000000000000081525060200191505060405180910390fd5b85600760008881526020019081526020016000206000015414151515611aa1576040517f08c379a00000000000000000000000000000000000000000000000000000000081526004018080602001828103825260168152602001807f616c7265616479206578697374656420766f746549640000000000000000000081525060200191505060405180910390fd5b6008600086815260200190815260200160002060008573ffffffffffffffffffffffffffffffffffffffff1673ffffffffffffffffffffffffffffffffffffffff16815260200190815260200160002060009054906101000a900460ff16151515611b74576040517f08c379a000000000000000000000000000000000000000000000000000000000815260040180806020018281038252600d8152602001807f616c726561647920766f7465640000000000000000000000000000000000000081525060200191505060405180910390fd5b60026004811115611b8157fe5b6003600087815260200190815260200160002060090154141515611c0d576040517f08c379a00000000000000000000000000000000000000000000000000000000081526004018080602001828103825260148152602001807f4e6f7420496e50726f677265737320537461746500000000000000000000000081525060200191505060405180910390fd5b60c0604051908101604052808781526020018681526020018573ffffffffffffffffffffffffffffffffffffffff168152602001848152602001838152602001611c55610f15565b81525060076000888152602001908152602001600020600082015181600001556020820151816001015560408201518160020160006101000a81548173ffffffffffffffffffffffffffffffffffffffff021916908373ffffffffffffffffffffffffffffffffffffffff160217905550606082015181600301556080820151816004015560a08201518160050155905050611cf38585858561316b565b8373ffffffffffffffffffffffffffffffffffffffff1685877f41df84b3b467b06744e40c92613c666324e7c640ce0a41ec06efdf602d367606866040518082815260200191505060405180910390a495945050505050565b600080611d5761413c565b3373ffffffffffffffffffffffffffffffffffffffff16600160009054906101000a900473ffffffffffffffffffffffffffffffffffffffff1673ffffffffffffffffffffffffffffffffffffffff16630d2020dd6002546040518263ffffffff167c0100000000000000000000000000000000000000000000000000000000028152600401808260001916600019168152602001915050602060405180830381600087803b158015611e0957600080fd5b505af1158015611e1d573d6000803e3d6000fd5b505050506040513d6020811015611e3357600080fd5b810190808051906020019092919050505073ffffffffffffffffffffffffffffffffffffffff16141515611ecf576040517f08c379a000000000000000000000000000000000000000000000000000000000815260040180806020018281038252600d8152602001807f4e6f205065726d697373696f6e0000000000000000000000000000000000000081525060200191505060405180910390fd5b611edd8a8989898989613468565b1515611f51576040517f08c379a00000000000000000000000000000000000000000000000000000000081526004018080602001828103825260118152602001807f496e76616c696420506172616d6574657200000000000000000000000000000081525060200191505060405180910390fd5b611f6d8b8b8b6020604051908101604052806000815250612f27565b91508181600001818152505087816020019073ffffffffffffffffffffffffffffffffffffffff16908173ffffffffffffffffffffffffffffffffffffffff168152505086816040019073ffffffffffffffffffffffffffffffffffffffff16908173ffffffffffffffffffffffffffffffffffffffff1681525050858160600181905250848160800181905250838160a001818152505080600460008481526020019081526020016000206000820151816000015560208201518160010160006101000a81548173ffffffffffffffffffffffffffffffffffffffff021916908373ffffffffffffffffffffffffffffffffffffffff16021790555060408201518160020160006101000a81548173ffffffffffffffffffffffffffffffffffffffff021916908373ffffffffffffffffffffffffffffffffffffffff16021790555060608201518160030190805190602001906120cd92919061419f565b5060808201518160040190805190602001906120ea92919061419f565b5060a08201518160050155905050819250505098975050505050505050565b60003373ffffffffffffffffffffffffffffffffffffffff16600160009054906101000a900473ffffffffffffffffffffffffffffffffffffffff1673ffffffffffffffffffffffffffffffffffffffff16630d2020dd6002546040518263ffffffff167c0100000000000000000000000000000000000000000000000000000000028152600401808260001916600019168152602001915050602060405180830381600087803b1580156121bd57600080fd5b505af11580156121d1573d6000803e3d6000fd5b505050506040513d60208110156121e757600080fd5b810190808051906020019092919050505073ffffffffffffffffffffffffffffffffffffffff16141515612283576040517f08c379a000000000000000000000000000000000000000000000000000000000815260040180806020018281038252600d8152602001807f4e6f205065726d697373696f6e0000000000000000000000000000000000000081525060200191505060405180910390fd5b826003600085815260200190815260200160002060000154141515612310576040517f08c379a00000000000000000000000000000000000000000000000000000000081526004018080602001828103825260128152602001807f6e6f7420657869737465642042616c6c6f74000000000000000000000000000081525060200191505060405180910390fd5b6000151560036000858152602001908152602001600020600a0160009054906101000a900460ff1615151415156123af576040517f08c379a00000000000000000000000000000000000000000000000000000000081526004018080602001828103825260118152602001807f616c72656164792066696e616c697a656400000000000000000000000000000081525060200191505060405180910390fd5b600360048111156123bc57fe5b8214806123d357506004808111156123d057fe5b82145b1515612447576040517f08c379a00000000000000000000000000000000000000000000000000000000081526004018080602001828103825260148152602001807f496e76616c69642042616c6c6f7420537461746500000000000000000000000081525060200191505060405180910390fd5b600360008481526020019081526020016000209050818160090181905550600181600a0160006101000a81548160ff021916908315150217905550827fdc921f027328d7238b58d77649ebcbd0c8b1c494c66ba53dfe53e0de65f6dd9f836040518082815260200191505060405180910390a2505050565b6124c761171c565b15156124d257600080fd5b80600160006101000a81548173ffffffffffffffffffffffffffffffffffffffff021916908373ffffffffffffffffffffffffffffffffffffffff16021790555050565b60003373ffffffffffffffffffffffffffffffffffffffff16600160009054906101000a900473ffffffffffffffffffffffffffffffffffffffff1673ffffffffffffffffffffffffffffffffffffffff16630d2020dd6002546040518263ffffffff167c0100000000000000000000000000000000000000000000000000000000028152600401808260001916600019168152602001915050602060405180830381600087803b1580156125ca57600080fd5b505af11580156125de573d6000803e3d6000fd5b505050506040513d60208110156125f457600080fd5b810190808051906020019092919050505073ffffffffffffffffffffffffffffffffffffffff16141515612690576040517f08c379a000000000000000000000000000000000000000000000000000000000815260040180806020018281038252600d8152602001807f4e6f205065726d697373696f6e0000000000000000000000000000000000000081525060200191505060405180910390fd5b82600360008581526020019081526020016000206000015414151561271d576040517f08c379a00000000000000000000000000000000000000000000000000000000081526004018080602001828103825260128152602001807f6e6f7420657869737465642042616c6c6f74000000000000000000000000000081525060200191505060405180910390fd5b6000151560036000858152602001908152602001600020600a0160009054906101000a900460ff1615151415156127bc576040517f08c379a00000000000000000000000000000000000000000000000000000000081526004018080602001828103825260118152602001807f616c72656164792066696e616c697a656400000000000000000000000000000081525060200191505060405180910390fd5b600360008481526020019081526020016000209050818160050190805190602001906127e992919061421f565b50505050565b60003373ffffffffffffffffffffffffffffffffffffffff16600160009054906101000a900473ffffffffffffffffffffffffffffffffffffffff1673ffffffffffffffffffffffffffffffffffffffff16630d2020dd6002546040518263ffffffff167c0100000000000000000000000000000000000000000000000000000000028152600401808260001916600019168152602001915050602060405180830381600087803b1580156128a357600080fd5b505af11580156128b7573d6000803e3d6000fd5b505050506040513d60208110156128cd57600080fd5b810190808051906020019092919050505073ffffffffffffffffffffffffffffffffffffffff16141515612969576040517f08c379a000000000000000000000000000000000000000000000000000000000815260040180806020018281038252600d8152602001807f4e6f205065726d697373696f6e0000000000000000000000000000000000000081525060200191505060405180910390fd5b828260008211801561297b5750600081115b151561298657600080fd5b818111801561299b5750612998610f15565b82115b15156129a657600080fd5b856003600088815260200190815260200160002060000154141515612a33576040517f08c379a00000000000000000000000000000000000000000000000000000000081526004018080602001828103825260128152602001807f6e6f7420657869737465642042616c6c6f74000000000000000000000000000081525060200191505060405180910390fd5b6000151560036000888152602001908152602001600020600a0160009054906101000a900460ff161515141515612ad2576040517f08c379a00000000000000000000000000000000000000000000000000000000081526004018080602001828103825260118152602001807f616c72656164792066696e616c697a656400000000000000000000000000000081525060200191505060405180910390fd5b60016004811115612adf57fe5b6003600088815260200190815260200160002060090154141515612b6b576040517f08c379a000000000000000000000000000000000000000000000000000000000815260040180806020018281038252600f8152602001807f4e6f74205265616479205374617465000000000000000000000000000000000081525060200191505060405180910390fd5b60036000878152602001908152602001600020925084836001018190555083836002018190555060026004811115612b9f57fe5b83600901819055508385877fd9938a514dab5cdce149a77493f694bd70c24a4833a278fd4d86fbdf859099c560405160405180910390a4505050505050565b600080612be961429f565b3373ffffffffffffffffffffffffffffffffffffffff16600160009054906101000a900473ffffffffffffffffffffffffffffffffffffffff1673ffffffffffffffffffffffffffffffffffffffff16630d2020dd6002546040518263ffffffff167c0100000000000000000000000000000000000000000000000000000000028152600401808260001916600019168152602001915050602060405180830381600087803b158015612c9b57600080fd5b505af1158015612caf573d6000803e3d6000fd5b505050506040513d6020811015612cc557600080fd5b810190808051906020019092919050505073ffffffffffffffffffffffffffffffffffffffff16141515612d61576040517f08c379a000000000000000000000000000000000000000000000000000000000815260040180806020018281038252600d8152602001807f4e6f205065726d697373696f6e0000000000000000000000000000000000000081525060200191505060405180910390fd5b612d6d88878787613c0d565b1515612de1576040517f08c379a00000000000000000000000000000000000000000000000000000000081526004018080602001828103825260118152602001807f496e76616c696420506172616d6574657200000000000000000000000000000081525060200191505060405180910390fd5b612dfd8989896020604051908101604052806000815250612f27565b91508181600001818152505085816020019060001916908160001916815250508481604001818152505083816060018190525080600660008481526020019081526020016000206000820151816000015560208201518160010190600019169055604082015181600201556060820151816003019080519060200190612e849291906142cb565b5090505081925050509695505050505050565b612e9f61171c565b1515612eaa57600080fd5b612eb381613f31565b50565b6000600860008466ffffffffffffff16815260200190815260200160002060008373ffffffffffffffffffffffffffffffffffffffff1673ffffffffffffffffffffffffffffffffffffffff16815260200190815260200160002060009054906101000a900460ff16905092915050565b600084600360008781526020019081526020016000206000015414151515612fb7576040517f08c379a00000000000000000000000000000000000000000000000000000000081526004018080602001828103825260168152602001807f616c726561647920657869737465642062616c6c6f740000000000000000000081525060200191505060405180910390fd5b6101606040519081016040528086815260200160008152602001600081526020018581526020018473ffffffffffffffffffffffffffffffffffffffff1681526020018381526020016000815260200160008152602001600081526020016001600481111561302257fe5b815260200160001515815250600360008781526020019081526020016000206000820151816000015560208201518160010155604082015181600201556060820151816003015560808201518160040160006101000a81548173ffffffffffffffffffffffffffffffffffffffff021916908373ffffffffffffffffffffffffffffffffffffffff16021790555060a08201518160050190805190602001906130cc92919061419f565b5060c0820151816006015560e082015181600701556101008201518160080155610120820151816009015561014082015181600a0160006101000a81548160ff0219169083151502179055509050508273ffffffffffffffffffffffffffffffffffffffff1684867fd1ba591c76ef71222e2d30b8277758713cc6eef1de29efaf98a716744ac2420b60405160405180910390a4849050949350505050565b60006001600281111561317a57fe5b831480613191575060028081111561318e57fe5b83145b1515613205576040517f08c379a00000000000000000000000000000000000000000000000000000000081526004018080602001828103825260108152602001807f496e76616c6964206465636973696f6e0000000000000000000000000000000081525060200191505060405180910390fd5b846003600087815260200190815260200160002060000154141515613292576040517f08c379a00000000000000000000000000000000000000000000000000000000081526004018080602001828103825260128152602001807f6e6f7420657869737465642042616c6c6f74000000000000000000000000000081525060200191505060405180910390fd5b600015156008600087815260200190815260200160002060008673ffffffffffffffffffffffffffffffffffffffff1673ffffffffffffffffffffffffffffffffffffffff16815260200190815260200160002060009054906101000a900460ff16151514151561336b576040517f08c379a000000000000000000000000000000000000000000000000000000000815260040180806020018281038252600d8152602001807f616c726561647920766f7465640000000000000000000000000000000000000081525060200191505060405180910390fd5b60036000868152602001908152602001600020905060016008600087815260200190815260200160002060008673ffffffffffffffffffffffffffffffffffffffff1673ffffffffffffffffffffffffffffffffffffffff16815260200190815260200160002060006101000a81548160ff0219169083151502179055506134016001826006015461402b90919063ffffffff16565b81600601819055506001600281111561341657fe5b8314156134415761343482826007015461402b90919063ffffffff16565b8160070181905550613461565b61345882826008015461402b90919063ffffffff16565b81600801819055505b5050505050565b60006001600581111561347757fe5b871015801561349257506003600581111561348e57fe5b8711155b1515613506576040517f08c379a00000000000000000000000000000000000000000000000000000000081526004018080602001828103825260138152602001807f496e76616c69642042616c6c6f7420547970650000000000000000000000000081525060200191505060405180910390fd5b6002600581111561351357fe5b8714156137d257600073ffffffffffffffffffffffffffffffffffffffff168673ffffffffffffffffffffffffffffffffffffffff16141515156135bf576040517f08c379a000000000000000000000000000000000000000000000000000000000815260040180806020018281038252601a8152602001807f496e76616c6964206f6c64206d656d626572206164647265737300000000000081525060200191505060405180910390fd5b600073ffffffffffffffffffffffffffffffffffffffff168573ffffffffffffffffffffffffffffffffffffffff16141515613663576040517f08c379a000000000000000000000000000000000000000000000000000000000815260040180806020018281038252601a8152602001807f496e76616c6964206e6577206d656d626572206164647265737300000000000081525060200191505060405180910390fd5b600084511415156136dc576040517f08c379a00000000000000000000000000000000000000000000000000000000081526004018080602001828103825260138152602001807f496e76616c6964206e6577206e6f64652069640000000000000000000000000081525060200191505060405180910390fd5b60008351141515613755576040517f08c379a00000000000000000000000000000000000000000000000000000000081526004018080602001828103825260138152602001807f496e76616c6964206e6577206e6f64652049500000000000000000000000000081525060200191505060405180910390fd5b6000821415156137cd576040517f08c379a00000000000000000000000000000000000000000000000000000000081526004018080602001828103825260158152602001807f496e76616c6964206e6577206e6f646520506f7274000000000000000000000081525060200191505060405180910390fd5b613bff565b6040845114151561384b576040517f08c379a00000000000000000000000000000000000000000000000000000000081526004018080602001828103825260138152602001807f496e76616c6964206e6577206e6f64652069640000000000000000000000000081525060200191505060405180910390fd5b600083511115156138c4576040517f08c379a00000000000000000000000000000000000000000000000000000000081526004018080602001828103825260138152602001807f496e76616c6964206e6577206e6f64652049500000000000000000000000000081525060200191505060405180910390fd5b60008211151561393c576040517f08c379a00000000000000000000000000000000000000000000000000000000081526004018080602001828103825260158152602001807f496e76616c6964206e6577206e6f646520506f7274000000000000000000000081525060200191505060405180910390fd5b6001600581111561394957fe5b871415613a9e57600073ffffffffffffffffffffffffffffffffffffffff168673ffffffffffffffffffffffffffffffffffffffff161415156139f4576040517f08c379a000000000000000000000000000000000000000000000000000000000815260040180806020018281038252601a8152602001807f496e76616c6964206f6c64206d656d626572206164647265737300000000000081525060200191505060405180910390fd5b600073ffffffffffffffffffffffffffffffffffffffff168573ffffffffffffffffffffffffffffffffffffffff1614151515613a99576040517f08c379a000000000000000000000000000000000000000000000000000000000815260040180806020018281038252601a8152602001807f496e76616c6964206e6577206d656d626572206164647265737300000000000081525060200191505060405180910390fd5b613bfe565b60036005811115613aab57fe5b871415613bfd57600073ffffffffffffffffffffffffffffffffffffffff168673ffffffffffffffffffffffffffffffffffffffff1614151515613b57576040517f08c379a000000000000000000000000000000000000000000000000000000000815260040180806020018281038252601a8152602001807f496e76616c6964206f6c64206d656d626572206164647265737300000000000081525060200191505060405180910390fd5b600073ffffffffffffffffffffffffffffffffffffffff168573ffffffffffffffffffffffffffffffffffffffff1614151515613bfc576040517f08c379a000000000000000000000000000000000000000000000000000000000815260040180806020018281038252601a8152602001807f496e76616c6964206e6577206d656d626572206164647265737300000000000081525060200191505060405180910390fd5b5b5b5b600190509695505050505050565b6000600580811115613c1b57fe5b85141515613c91576040517f08c379a00000000000000000000000000000000000000000000000000000000081526004018080602001828103825260138152602001807f496e76616c69642042616c6c6f7420547970650000000000000000000000000081525060200191505060405180910390fd5b6000602060ff16111515613d33576040517f08c379a00000000000000000000000000000000000000000000000000000000081526004018080602001828103825260218152602001807f496e76616c696420656e7669726f6e6d656e74207661726961626c65206e616d81526020017f650000000000000000000000000000000000000000000000000000000000000081525060400191505060405180910390fd5b60016006811115613d4057fe5b8310151515613ddd576040517f08c379a00000000000000000000000000000000000000000000000000000000081526004018080602001828103825260218152602001807f496e76616c696420656e7669726f6e6d656e74207661726961626c652054797081526020017f650000000000000000000000000000000000000000000000000000000000000081525060400191505060405180910390fd5b600680811115613de957fe5b8311151515613e86576040517f08c379a00000000000000000000000000000000000000000000000000000000081526004018080602001828103825260218152602001807f496e76616c696420656e7669726f6e6d656e74207661726961626c652054797081526020017f650000000000000000000000000000000000000000000000000000000000000081525060400191505060405180910390fd5b60008251111515613f25576040517f08c379a00000000000000000000000000000000000000000000000000000000081526004018080602001828103825260228152602001807f496e76616c696420656e7669726f6e6d656e74207661726961626c652076616c81526020017f756500000000000000000000000000000000000000000000000000000000000081525060400191505060405180910390fd5b60019050949350505050565b600073ffffffffffffffffffffffffffffffffffffffff168173ffffffffffffffffffffffffffffffffffffffff1614151515613f6d57600080fd5b8073ffffffffffffffffffffffffffffffffffffffff166000809054906101000a900473ffffffffffffffffffffffffffffffffffffffff1673ffffffffffffffffffffffffffffffffffffffff167f8be0079c531659141344cd1fd0a4f28419497f9722a3daafe3b4186f6b6457e060405160405180910390a3806000806101000a81548173ffffffffffffffffffffffffffffffffffffffff021916908373ffffffffffffffffffffffffffffffffffffffff16021790555050565b600080828401905083811015151561404257600080fd5b8091505092915050565b6101606040519081016040528060008152602001600081526020016000815260200160008152602001600073ffffffffffffffffffffffffffffffffffffffff16815260200160608152602001600081526020016000815260200160008152602001600081526020016000151581525090565b604080519081016040528060008152602001600073ffffffffffffffffffffffffffffffffffffffff1681525090565b60c0604051908101604052806000815260200160008152602001600073ffffffffffffffffffffffffffffffffffffffff1681526020016000815260200160008152602001600081525090565b60c06040519081016040528060008152602001600073ffffffffffffffffffffffffffffffffffffffff168152602001600073ffffffffffffffffffffffffffffffffffffffff1681526020016060815260200160608152602001600081525090565b828054600181600116156101000203166002900490600052602060002090601f016020900481019282601f106141e057805160ff191683800117855561420e565b8280016001018555821561420e579182015b8281111561420d5782518255916020019190600101906141f2565b5b50905061421b919061434b565b5090565b828054600181600116156101000203166002900490600052602060002090601f016020900481019282601f1061426057805160ff191683800117855561428e565b8280016001018555821561428e579182015b8281111561428d578251825591602001919060010190614272565b5b50905061429b919061434b565b5090565b608060405190810160405280600081526020016000801916815260200160008152602001606081525090565b828054600181600116156101000203166002900490600052602060002090601f016020900481019282601f1061430c57805160ff191683800117855561433a565b8280016001018555821561433a579182015b8281111561433957825182559160200191906001019061431e565b5b509050614347919061434b565b5090565b61436d91905b80821115614369576000816000905550600101614351565b5090565b905600a165627a7a72305820c1680ed7e5a271139e062b6b9a8be71b788ce13d11e0b0b9425887117301aecc0029",
  "source": "pragma solidity ^0.4.24;\n\nimport \"openzeppelin-solidity/contracts/math/SafeMath.sol\";\nimport \"../abstract/EnumVariableTypes.sol\";\nimport \"../abstract/BallotEnums.sol\";\nimport \"../GovChecker.sol\";\n\n\ncontract BallotStorage is  GovChecker, EnumVariableTypes, BallotEnums {\n    using SafeMath for uint256;\n    \n    struct BallotBasic {\n        //Ballot ID\n        uint256 id;\n        // \n        uint256 startTime;\n        //  \n        uint256 endTime;\n        //  \n        uint256 ballotType;\n        // \n        address creator;\n        //  \n        bytes memo;\n        //   \n        uint256 totalVoters;\n        // \n        uint256 powerOfAccepts;\n        // \n        uint256 powerOfRejects;\n        //  \n        uint256 state;\n        // \n        bool isFinalized;\n        \n    }\n\n    //For MemberAdding/MemberRemoval/MemberSwap\n    struct BallotMember {\n        uint256 id;    \n        address oldMemeberAddress;\n        address newMemeberAddress;\n        bytes newNodeId; // admin.nodeInfo.id is 512 bit public key\n        bytes newNodeIp;\n        uint newNodePort;\n    }\n\n    //For GovernanceChange \n    struct BallotAddress {\n        uint256 id;\n        address newGovernanceAddress;\n    }\n\n    //For EnvValChange\n    struct BallotVariable {\n    //Ballot ID\n        uint256 id; \n        bytes32 envVariableName;\n        uint256 envVariableType;\n        string envVariableValue;\n    }\n\n    struct Vote{\n        uint256  voteId;\n        uint256  ballotId;\n        address voter;\n        uint256 decision;\n        uint256 power;\n        uint256 time;\n    }\n\n    event BallotCreated(\n        uint256 indexed ballotId,\n        uint256 indexed ballotType,\n        address indexed creator\n    );\n    \n    event BallotStarted(\n        uint256 indexed ballotId,\n        uint256 indexed startTime,\n        uint256 indexed endTime\n    );\n\n    event Voted(\n        uint256 indexed voteid,\n        uint256 indexed ballotId,\n        address indexed voter,\n        uint256 decision       \n    );\n\n    event BallotFinalized(\n        uint256 indexed ballotId,\n        uint256 state\n    );\n    \n    mapping(uint=>BallotBasic) internal ballotBasicMap;\n    mapping(uint=>BallotMember) internal ballotMemberMap;\n    mapping(uint=>BallotAddress) internal ballotAddressMap;\n    mapping(uint=>BallotVariable) internal ballotVariableMap;\n    \n    mapping(uint=>Vote) internal voteMap;\n    mapping(uint=>mapping(address=>bool)) internal hasVotedMap;\n\n    address prevImp;\n\n    modifier onlyValidTime(uint256 _startTime, uint256 _endTime) {\n        require(_startTime > 0 && _endTime > 0);\n        require(_endTime > _startTime && _startTime > getTime());\n        //uint256 diffTime = _endTime.sub(_startTime);\n        // require(diffTime > minBallotDuration());\n        // require(diffTime <= maxBallotDuration());\n        _;\n    }\n\n    function getTime() public view returns(uint256) {\n        return now;\n    }\n\n    constructor(address _registry) public {\n        setRegistry(_registry);\n    }\n\n    function getBallotBasic(uint256 _id) public view returns (\n        uint256 id,\n        uint256 startTime,\n        uint256 endTime,\n        uint256 ballotType,\n        address creator,\n        bytes memo,\n        uint256 totalVoters,\n        uint256 powerOfAccepts,\n        uint256 powerOfRejects,\n        uint256 state,\n        bool isFinalized\n    )\n    {\n        BallotBasic memory tBallot = ballotBasicMap[_id];\n        id = tBallot.id;\n        startTime = tBallot.startTime;\n        endTime = tBallot.endTime;\n        ballotType = tBallot.ballotType;\n        creator = tBallot.creator;\n        memo = tBallot.memo;\n        totalVoters = tBallot.totalVoters;\n        powerOfAccepts = tBallot.powerOfAccepts;\n        powerOfRejects = tBallot.powerOfRejects;\n        state = tBallot.state;\n        isFinalized = tBallot.isFinalized;\n        \n    }\n\n    function getBallotMember(uint256 _id) public view returns (\n        uint256 id,\n        address oldMemeberAddress,\n        address newMemeberAddress,\n        bytes newNodeId, // admin.nodeInfo.id is 512 bit public key\n        bytes newNodeIp,\n        uint newNodePort\n    )\n    {\n        BallotMember storage tBallot = ballotMemberMap[_id];\n        id=tBallot.id;\n        oldMemeberAddress = tBallot.oldMemeberAddress;\n        newMemeberAddress = tBallot.newMemeberAddress;\n        newNodeId = tBallot.newNodeId;\n        newNodeIp = tBallot.newNodeIp;\n        newNodePort = tBallot.newNodePort;\n    }\n\n    function getBallotAddress(uint256 _id) public view returns (\n        uint256 id,\n        address newGovernanceAddress\n    )\n    {\n        BallotAddress storage tBallot = ballotAddressMap[_id];\n        id = tBallot.id;\n        newGovernanceAddress = tBallot.newGovernanceAddress;\n    }\n\n    function getBallotVariable(uint256 _id) public view returns (\n        uint256 id,\n        bytes32 envVariableName,\n        uint256 envVariableType,\n        string envVariableValue \n    )\n    {\n        BallotVariable storage tBallot = ballotVariableMap[_id];\n        id = tBallot.id;\n        envVariableName = tBallot.envVariableName;\n        envVariableType = tBallot.envVariableType;\n        envVariableValue = tBallot.envVariableValue;\n    }\n\n    function _createBallot(\n        uint256 _id,\n        // uint256 _startTime,\n        // uint256 _endTime,\n        uint256 _ballotType,\n        address _creator,\n        bytes _memo\n        \n    )\n        internal\n        returns(uint256)\n    {\n        require(ballotBasicMap[_id].id != _id , \"already existed ballot\");\n        ballotBasicMap[_id] = BallotBasic( _id, 0, 0, _ballotType, _creator, _memo, 0, 0, 0, uint256(BallotStates.Ready), false);\n        emit BallotCreated(_id, _ballotType, _creator);\n        return _id;\n    }\n\n    function _areMemberBallotParamValid(\n        uint256 _ballotType,\n        address _oldMemeberAddress,\n        address _newMemeberAddress,\n        bytes _newNodeId, // admin.nodeInfo.id is 512 bit public key\n        bytes _newNodeIp,\n        uint _newNodePort\n    )\n        internal\n        pure\n        returns(bool)\n    {\n        require((_ballotType >= uint256(BallotTypes.MemberAdd)) && (_ballotType <= uint256(BallotTypes.MemberChange)), \"Invalid Ballot Type\");\n\n        if (_ballotType == uint256(BallotTypes.MemberRemoval)){\n            require(_oldMemeberAddress != address(0),\"Invalid old member address\");\n            require(_newMemeberAddress == address(0),\"Invalid new member address\");\n            require(_newNodeId.length == 0, \"Invalid new node id\");\n            require(_newNodeIp.length == 0, \"Invalid new node IP\");\n            require(_newNodePort == 0, \"Invalid new node Port\");\n        }else {\n            require(_newNodeId.length == 64, \"Invalid new node id\");\n            require(_newNodeIp.length > 0, \"Invalid new node IP\");\n            require(_newNodePort > 0, \"Invalid new node Port\");\n            if (_ballotType == uint256(BallotTypes.MemberAdd)) {\n                require(_oldMemeberAddress == address(0),\"Invalid old member address\");\n                require(_newMemeberAddress != address(0),\"Invalid new member address\");\n            }else if (_ballotType == uint256(BallotTypes.MemberChange)){\n                require(_oldMemeberAddress != address(0),\"Invalid old member address\");\n                require(_newMemeberAddress != address(0),\"Invalid new member address\");\n            }\n        }\n\n        return true;\n    }\n\n    //For MemberAdding/MemberRemoval/MemberSwap\n    function createBallotForMemeber(\n        uint256 _id,\n        uint256 _ballotType,\n        address _creator,\n        address _oldMemeberAddress,\n        address _newMemeberAddress,\n        bytes _newNodeId, // admin.nodeInfo.id is 512 bit public key\n        bytes _newNodeIp,\n        uint _newNodePort\n    )\n        public\n        onlyGov\n        returns (uint256)\n    {\n        require(\n            _areMemberBallotParamValid(_ballotType,_oldMemeberAddress,_newMemeberAddress,_newNodeId,_newNodeIp,_newNodePort),\n            \"Invalid Parameter\"\n        );\n        uint256 ballotId = _createBallot(_id, _ballotType, _creator, '');\n        BallotMember memory newBallot;\n        newBallot.id = ballotId;\n        newBallot.oldMemeberAddress = _oldMemeberAddress;\n        newBallot.newMemeberAddress = _newMemeberAddress;\n        newBallot.newNodeId = _newNodeId;\n        newBallot.newNodeIp = _newNodeIp;\n        newBallot.newNodePort = _newNodePort;\n        ballotMemberMap[ballotId] = newBallot;\n        return ballotId;\n    }\n\n    \n    function createBallotForAddress(\n        uint256 _id,\n        uint256 _ballotType,\n        address _creator,\n        bytes _memo,\n        address _newGovernanceAddress\n    )\n        public\n        onlyGov\n        returns (uint256)\n    {\n        require(_ballotType == uint256(BallotTypes.GovernanceChange), \"Invalid Ballot Type\");\n        require(_newGovernanceAddress != address(0), \"Invalid Parameter\");\n        \n        uint256 ballotId = _createBallot(_id, _ballotType, _creator, _memo);\n        BallotAddress memory newBallot;\n        newBallot.id = ballotId;\n        newBallot.newGovernanceAddress = _newGovernanceAddress;\n        ballotAddressMap[ballotId] = newBallot;\n        return ballotId;\n    }\n\n    function _areVariableBallotParamValid(\n        uint256 _ballotType,\n        bytes32 _envVariableName,\n        uint256 _envVariableType,\n        string _envVariableValue \n    )\n        internal\n        pure\n        returns(bool)\n    {\n        require(_ballotType == uint256(BallotTypes.EnvValChange), \"Invalid Ballot Type\");\n        require(_envVariableName.length > 0, \"Invalid environment variable name\");\n        require(_envVariableType >= uint256(VariableTypes.Int), \"Invalid environment variable Type\");\n        require(_envVariableType <= uint256(VariableTypes.String), \"Invalid environment variable Type\");\n        require(bytes(_envVariableValue).length > 0, \"Invalid environment variable value\");\n\n        return true;\n    }\n\n    function createBallotForVariable(\n        uint256 _id,\n        uint256 _ballotType,\n        address _creator,\n        bytes32 _envVariableName,\n        uint256 _envVariableType,\n        string _envVariableValue \n    )\n        public\n        onlyGov\n        returns (uint256)\n    {\n        require(\n            _areVariableBallotParamValid(_ballotType, _envVariableName, _envVariableType, _envVariableValue),\n            \"Invalid Parameter\"\n        );\n        uint256 ballotId = _createBallot(_id, _ballotType, _creator, '');\n        BallotVariable memory newBallot;\n        newBallot.id = ballotId;\n        newBallot.envVariableName = _envVariableName;\n        newBallot.envVariableType = _envVariableType;\n        newBallot.envVariableValue = _envVariableValue;\n        ballotVariableMap[ballotId] = newBallot;\n        return ballotId;\n    }\n\n    function createVote(\n        uint256 _voteId,\n        uint256 _ballotId,\n        address _voter,\n        uint256 _decision,\n        uint256 _power\n    )\n        public\n        onlyGov\n        returns (uint256)\n    {\n        //1. msg.sender member\n        //2. actionType  \n        require((_decision == uint256(DecisionTypes.Accept)) || (_decision <= uint256(DecisionTypes.Reject)), \"Invalid decision\");\n        \n        //3. ballotId    \n        require(ballotBasicMap[_ballotId].id == _ballotId, \"not existed Ballot\");\n        //4. voteId  \n        require(voteMap[_voteId].voteId != _voteId, \"already existed voteId\");\n        //5.  vote   \n        require(!hasVotedMap[_ballotId][_voter], \"already voted\");\n        require(ballotBasicMap[_ballotId].state == uint256(BallotStates.InProgress), \"Not InProgress State\");\n       //require((ballotBasicMap[_ballotId].startTime <= getTime()) && (getTime() <= ballotBasicMap[_ballotId].startTime), \"not voting time\");\n\n        //1. \n        voteMap[_voteId] = Vote(_voteId, _ballotId, _voter, _decision, _power, getTime());\n        \n        //2.   \n        _updateBallotForVote(_ballotId, _voter, _decision, _power);\n\n        //3. event  \n        emit Voted(_voteId,_ballotId,_voter,_decision);\n    }\n\n    function getVote(uint256 _voteId) public view returns (\n        uint256 voteId,\n        uint256 ballotId,\n        address voter,\n        uint256 decision,\n        uint256 power,\n        uint256 time\n    )\n    {\n        require(voteMap[_voteId].voteId == _voteId, \"not existed voteId\");\n        Vote memory _vote = voteMap[_voteId];\n        voteId = _vote.voteId;\n        ballotId = _vote.ballotId;\n        voter = _vote.voter;\n        decision = _vote.decision;\n        power = _vote.power;\n        time = _vote.time;\n    }\n\n    // update ballot \n    function _updateBallotForVote(\n        uint256 _ballotId,\n        address _voter,\n        uint256 _decision,\n        uint256 _power\n    )\n        internal\n    {\n        // c1. actionType  \n        require((_decision == uint256(DecisionTypes.Accept)) || (_decision == uint256(DecisionTypes.Reject)), \"Invalid decision\");\n        // c2. ballotId    \n        require(ballotBasicMap[_ballotId].id == _ballotId, \"not existed Ballot\");\n        // c3.  vote   \n        require(hasVotedMap[_ballotId][_voter] == false, \"already voted\");\n\n        //1.get ballotBasic\n        BallotBasic storage _ballot = ballotBasicMap[_ballotId];\n        //2.   \n        hasVotedMap[_ballotId][_voter] = true;\n        //3. update totalVoters\n        _ballot.totalVoters = _ballot.totalVoters.add(1);\n        //4. Update power of accept/reject\n        if (_decision == uint256(DecisionTypes.Accept)){\n            _ballot.powerOfAccepts = _ballot.powerOfAccepts.add(_power);\n        } else {\n            _ballot.powerOfRejects = _ballot.powerOfRejects.add(_power);\n        }\n    }\n\n    // finalize ballot info.\n    function finalizeBallot(uint256 _ballotId, uint256 _ballotState) public onlyGov {\n        require(ballotBasicMap[_ballotId].id == _ballotId, \"not existed Ballot\");\n        require(ballotBasicMap[_ballotId].isFinalized == false, \"already finalized\");\n        require((_ballotState == uint256(BallotStates.Accepted)) || (_ballotState == uint256(BallotStates.Rejected)), \"Invalid Ballot State\");\n\n        BallotBasic storage _ballot = ballotBasicMap[_ballotId];\n        _ballot.state = _ballotState;\n        _ballot.isFinalized = true;\n        emit BallotFinalized (_ballotId,_ballotState);\n    }\n\n    function hasAlreadyVoted(uint56 _ballotId, address _voter) public view returns (bool) {\n        return hasVotedMap[_ballotId][_voter];\n    }\n\n    //start/end /state \n    function startBallot(\n        uint256 _ballotId,\n        uint256 _startTime,\n        uint256 _endTime\n    )\n        public\n        onlyGov\n        onlyValidTime(_startTime,_endTime)\n    {\n        require(ballotBasicMap[_ballotId].id == _ballotId, \"not existed Ballot\");\n        require(ballotBasicMap[_ballotId].isFinalized == false, \"already finalized\");\n        require(ballotBasicMap[_ballotId].state == uint256(BallotStates.Ready), \"Not Ready State\");\n        BallotBasic storage _ballot = ballotBasicMap[_ballotId];\n        _ballot.startTime = _startTime;\n        _ballot.endTime = _endTime;\n        _ballot.state = uint256(BallotStates.InProgress);\n        emit BallotStarted(_ballotId, _startTime, _endTime);\n    }\n    function updateBallotMemo(\n        uint256 _ballotId,\n        bytes _memo\n    ) public onlyGov\n    {\n        require(ballotBasicMap[_ballotId].id == _ballotId, \"not existed Ballot\");\n        require(ballotBasicMap[_ballotId].isFinalized == false, \"already finalized\");\n        BallotBasic storage _ballot = ballotBasicMap[_ballotId];\n        _ballot.memo = _memo;\n    }\n}",
  "sourcePath": "/Users/ywshin/Documents/WS/truffle/governance-contract-blueisle/contracts/storage/BallotStorage.sol",
  "compiler": {
    "name": "solc",
    "version": "0.4.24+commit.e67f0147.Emscripten.clang"
  },
  "schemaVersion": "2.0.1",
  "updatedAt": "2019-01-29T05:35:19.849Z"
}