{
  "contractName": "BallotStorage",
  "abi": [
    {
      "constant": true,
      "inputs": [],
      "name": "REG",
      "outputs": [
        {
          "name": "",
          "type": "address"
        }
      ],
      "payable": false,
      "stateMutability": "view",
      "type": "function"
    },
    {
      "constant": true,
      "inputs": [],
      "name": "GOV_NAME",
      "outputs": [
        {
          "name": "",
          "type": "bytes32"
        }
      ],
      "payable": false,
      "stateMutability": "view",
      "type": "function"
    },
    {
      "constant": false,
      "inputs": [],
      "name": "renounceOwnership",
      "outputs": [],
      "payable": false,
      "stateMutability": "nonpayable",
      "type": "function"
    },
    {
      "constant": true,
      "inputs": [],
      "name": "owner",
      "outputs": [
        {
          "name": "",
          "type": "address"
        }
      ],
      "payable": false,
      "stateMutability": "view",
      "type": "function"
    },
    {
      "constant": true,
      "inputs": [],
      "name": "isOwner",
      "outputs": [
        {
          "name": "",
          "type": "bool"
        }
      ],
      "payable": false,
      "stateMutability": "view",
      "type": "function"
    },
    {
      "constant": false,
      "inputs": [
        {
          "name": "_addr",
          "type": "address"
        }
      ],
      "name": "setRegistry",
      "outputs": [],
      "payable": false,
      "stateMutability": "nonpayable",
      "type": "function"
    },
    {
      "constant": false,
      "inputs": [
        {
          "name": "newOwner",
          "type": "address"
        }
      ],
      "name": "transferOwnership",
      "outputs": [],
      "payable": false,
      "stateMutability": "nonpayable",
      "type": "function"
    },
    {
      "inputs": [
        {
          "name": "_registry",
          "type": "address"
        }
      ],
      "payable": false,
      "stateMutability": "nonpayable",
      "type": "constructor"
    },
    {
      "anonymous": false,
      "inputs": [
        {
          "indexed": true,
          "name": "ballotId",
          "type": "uint256"
        },
        {
          "indexed": true,
          "name": "ballotType",
          "type": "uint256"
        },
        {
          "indexed": true,
          "name": "creator",
          "type": "address"
        }
      ],
      "name": "BallotCreated",
      "type": "event"
    },
    {
      "anonymous": false,
      "inputs": [
        {
          "indexed": true,
          "name": "ballotId",
          "type": "uint256"
        },
        {
          "indexed": true,
          "name": "startTime",
          "type": "uint256"
        },
        {
          "indexed": true,
          "name": "endTime",
          "type": "uint256"
        }
      ],
      "name": "BallotStarted",
      "type": "event"
    },
    {
      "anonymous": false,
      "inputs": [
        {
          "indexed": true,
          "name": "voteid",
          "type": "uint256"
        },
        {
          "indexed": true,
          "name": "ballotId",
          "type": "uint256"
        },
        {
          "indexed": true,
          "name": "voter",
          "type": "address"
        },
        {
          "indexed": false,
          "name": "decision",
          "type": "uint256"
        }
      ],
      "name": "Voted",
      "type": "event"
    },
    {
      "anonymous": false,
      "inputs": [
        {
          "indexed": true,
          "name": "ballotId",
          "type": "uint256"
        },
        {
          "indexed": false,
          "name": "state",
          "type": "uint256"
        }
      ],
      "name": "BallotFinalized",
      "type": "event"
    },
    {
      "anonymous": false,
      "inputs": [
        {
          "indexed": true,
          "name": "previousOwner",
          "type": "address"
        },
        {
          "indexed": true,
          "name": "newOwner",
          "type": "address"
        }
      ],
      "name": "OwnershipTransferred",
      "type": "event"
    },
    {
      "constant": true,
      "inputs": [],
      "name": "getTime",
      "outputs": [
        {
          "name": "",
          "type": "uint256"
        }
      ],
      "payable": false,
      "stateMutability": "view",
      "type": "function"
    },
    {
      "constant": true,
      "inputs": [
        {
          "name": "_id",
          "type": "uint256"
        }
      ],
      "name": "getBallotBasic",
      "outputs": [
        {
          "name": "id",
          "type": "uint256"
        },
        {
          "name": "startTime",
          "type": "uint256"
        },
        {
          "name": "endTime",
          "type": "uint256"
        },
        {
          "name": "ballotType",
          "type": "uint256"
        },
        {
          "name": "creator",
          "type": "address"
        },
        {
          "name": "memo",
          "type": "bytes"
        },
        {
          "name": "totalVoters",
          "type": "uint256"
        },
        {
          "name": "powerOfAccepts",
          "type": "uint256"
        },
        {
          "name": "powerOfRejects",
          "type": "uint256"
        },
        {
          "name": "state",
          "type": "uint256"
        },
        {
          "name": "isFinalized",
          "type": "bool"
        },
        {
          "name": "duration",
          "type": "uint256"
        }
      ],
      "payable": false,
      "stateMutability": "view",
      "type": "function"
    },
    {
      "constant": true,
      "inputs": [
        {
          "name": "_id",
          "type": "uint256"
        }
      ],
      "name": "getBallotMember",
      "outputs": [
        {
          "name": "id",
          "type": "uint256"
        },
        {
          "name": "oldMemeberAddress",
          "type": "address"
        },
        {
          "name": "newMemeberAddress",
          "type": "address"
        },
        {
          "name": "newNodeId",
          "type": "bytes"
        },
        {
          "name": "newNodeIp",
          "type": "bytes"
        },
        {
          "name": "newNodePort",
          "type": "uint256"
        }
      ],
      "payable": false,
      "stateMutability": "view",
      "type": "function"
    },
    {
      "constant": true,
      "inputs": [
        {
          "name": "_id",
          "type": "uint256"
        }
      ],
      "name": "getBallotAddress",
      "outputs": [
        {
          "name": "id",
          "type": "uint256"
        },
        {
          "name": "newGovernanceAddress",
          "type": "address"
        }
      ],
      "payable": false,
      "stateMutability": "view",
      "type": "function"
    },
    {
      "constant": true,
      "inputs": [
        {
          "name": "_id",
          "type": "uint256"
        }
      ],
      "name": "getBallotVariable",
      "outputs": [
        {
          "name": "id",
          "type": "uint256"
        },
        {
          "name": "envVariableName",
          "type": "bytes32"
        },
        {
          "name": "envVariableType",
          "type": "uint256"
        },
        {
          "name": "envVariableValue",
          "type": "string"
        }
      ],
      "payable": false,
      "stateMutability": "view",
      "type": "function"
    },
    {
      "constant": false,
      "inputs": [
        {
          "name": "_id",
          "type": "uint256"
        },
        {
          "name": "_ballotType",
          "type": "uint256"
        },
        {
          "name": "_creator",
          "type": "address"
        },
        {
          "name": "_oldMemeberAddress",
          "type": "address"
        },
        {
          "name": "_newMemeberAddress",
          "type": "address"
        },
        {
          "name": "_newNodeId",
          "type": "bytes"
        },
        {
          "name": "_newNodeIp",
          "type": "bytes"
        },
        {
          "name": "_newNodePort",
          "type": "uint256"
        }
      ],
      "name": "createBallotForMemeber",
      "outputs": [],
      "payable": false,
      "stateMutability": "nonpayable",
      "type": "function"
    },
    {
      "constant": false,
      "inputs": [
        {
          "name": "_id",
          "type": "uint256"
        },
        {
          "name": "_ballotType",
          "type": "uint256"
        },
        {
          "name": "_creator",
          "type": "address"
        },
        {
          "name": "_newGovernanceAddress",
          "type": "address"
        }
      ],
      "name": "createBallotForAddress",
      "outputs": [
        {
          "name": "",
          "type": "uint256"
        }
      ],
      "payable": false,
      "stateMutability": "nonpayable",
      "type": "function"
    },
    {
      "constant": false,
      "inputs": [
        {
          "name": "_id",
          "type": "uint256"
        },
        {
          "name": "_ballotType",
          "type": "uint256"
        },
        {
          "name": "_creator",
          "type": "address"
        },
        {
          "name": "_envVariableName",
          "type": "bytes32"
        },
        {
          "name": "_envVariableType",
          "type": "uint256"
        },
        {
          "name": "_envVariableValue",
          "type": "string"
        }
      ],
      "name": "createBallotForVariable",
      "outputs": [
        {
          "name": "",
          "type": "uint256"
        }
      ],
      "payable": false,
      "stateMutability": "nonpayable",
      "type": "function"
    },
    {
      "constant": false,
      "inputs": [
        {
          "name": "_voteId",
          "type": "uint256"
        },
        {
          "name": "_ballotId",
          "type": "uint256"
        },
        {
          "name": "_voter",
          "type": "address"
        },
        {
          "name": "_decision",
          "type": "uint256"
        },
        {
          "name": "_power",
          "type": "uint256"
        }
      ],
      "name": "createVote",
      "outputs": [
        {
          "name": "",
          "type": "uint256"
        }
      ],
      "payable": false,
      "stateMutability": "nonpayable",
      "type": "function"
    },
    {
      "constant": true,
      "inputs": [
        {
          "name": "_voteId",
          "type": "uint256"
        }
      ],
      "name": "getVote",
      "outputs": [
        {
          "name": "voteId",
          "type": "uint256"
        },
        {
          "name": "ballotId",
          "type": "uint256"
        },
        {
          "name": "voter",
          "type": "address"
        },
        {
          "name": "decision",
          "type": "uint256"
        },
        {
          "name": "power",
          "type": "uint256"
        },
        {
          "name": "time",
          "type": "uint256"
        }
      ],
      "payable": false,
      "stateMutability": "view",
      "type": "function"
    },
    {
      "constant": false,
      "inputs": [
        {
          "name": "_ballotId",
          "type": "uint256"
        },
        {
          "name": "_ballotState",
          "type": "uint256"
        }
      ],
      "name": "finalizeBallot",
      "outputs": [],
      "payable": false,
      "stateMutability": "nonpayable",
      "type": "function"
    },
    {
      "constant": true,
      "inputs": [
        {
          "name": "_ballotId",
          "type": "uint56"
        },
        {
          "name": "_voter",
          "type": "address"
        }
      ],
      "name": "hasAlreadyVoted",
      "outputs": [
        {
          "name": "",
          "type": "bool"
        }
      ],
      "payable": false,
      "stateMutability": "view",
      "type": "function"
    },
    {
      "constant": false,
      "inputs": [
        {
          "name": "_ballotId",
          "type": "uint256"
        },
        {
          "name": "_startTime",
          "type": "uint256"
        },
        {
          "name": "_endTime",
          "type": "uint256"
        }
      ],
      "name": "startBallot",
      "outputs": [],
      "payable": false,
      "stateMutability": "nonpayable",
      "type": "function"
    },
    {
      "constant": false,
      "inputs": [
        {
          "name": "_ballotId",
          "type": "uint256"
        },
        {
          "name": "_memo",
          "type": "bytes"
        }
      ],
      "name": "updateBallotMemo",
      "outputs": [],
      "payable": false,
      "stateMutability": "nonpayable",
      "type": "function"
    },
    {
      "constant": false,
      "inputs": [
        {
          "name": "_ballotId",
          "type": "uint256"
        },
        {
          "name": "_duration",
          "type": "uint256"
        }
      ],
      "name": "updateBallotDuration",
      "outputs": [],
      "payable": false,
      "stateMutability": "nonpayable",
      "type": "function"
    },
    {
      "constant": true,
      "inputs": [
        {
          "name": "_id",
          "type": "uint256"
        }
      ],
      "name": "getBallotPeriod",
      "outputs": [
        {
          "name": "startTime",
          "type": "uint256"
        },
        {
          "name": "endTime",
          "type": "uint256"
        },
        {
          "name": "duration",
          "type": "uint256"
        }
      ],
      "payable": false,
      "stateMutability": "view",
      "type": "function"
    },
    {
      "constant": true,
      "inputs": [
        {
          "name": "_id",
          "type": "uint256"
        }
      ],
      "name": "getBallotVotingInfo",
      "outputs": [
        {
          "name": "totalVoters",
          "type": "uint256"
        },
        {
          "name": "powerOfAccepts",
          "type": "uint256"
        },
        {
          "name": "powerOfRejects",
          "type": "uint256"
        }
      ],
      "payable": false,
      "stateMutability": "view",
      "type": "function"
    },
    {
      "constant": true,
      "inputs": [
        {
          "name": "_id",
          "type": "uint256"
        }
      ],
      "name": "getBallotState",
      "outputs": [
        {
          "name": "ballotType",
          "type": "uint256"
        },
        {
          "name": "state",
          "type": "uint256"
        },
        {
          "name": "isFinalized",
          "type": "bool"
        }
      ],
      "payable": false,
      "stateMutability": "view",
      "type": "function"
    }
  ],
  "bytecode": "0x60806040527f476f7665726e616e6365436f6e747261637400000000000000000000000000006002906000191690553480156200003b57600080fd5b5060405160208062004fe883398101806040528101908080519060200190929190505050336000806101000a81548173ffffffffffffffffffffffffffffffffffffffff021916908373ffffffffffffffffffffffffffffffffffffffff1602179055506000809054906101000a900473ffffffffffffffffffffffffffffffffffffffff1673ffffffffffffffffffffffffffffffffffffffff16600073ffffffffffffffffffffffffffffffffffffffff167f8be0079c531659141344cd1fd0a4f28419497f9722a3daafe3b4186f6b6457e060405160405180910390a362000135816200013c640100000000026401000000009004565b50620001fc565b62000155620001a5640100000000026401000000009004565b15156200016157600080fd5b80600160006101000a81548173ffffffffffffffffffffffffffffffffffffffff021916908373ffffffffffffffffffffffffffffffffffffffff16021790555050565b60008060009054906101000a900473ffffffffffffffffffffffffffffffffffffffff1673ffffffffffffffffffffffffffffffffffffffff163373ffffffffffffffffffffffffffffffffffffffff1614905090565b614ddc806200020c6000396000f300608060405260043610610149576000357c0100000000000000000000000000000000000000000000000000000000900463ffffffff16806302b385fb1461014e57806309970688146102715780631d940da2146102c057806339363112146103835780634a4af013146103da578063557ed1ba1461046557806356ba988e146104905780635a55c1f0146104df578063656bc6331461056f578063688ca5b2146105a65780636c78d2cf146105f9578063715018a61461062c57806373df4e01146106435780637efa9ae3146107c95780638da5cb5b1461083d5780638f32d59b1461089457806396462b9c146108c357806399e929a314610942578063a91e59ba14610a6f578063a91ee0dc14610aa6578063bce0dbc114610ae9578063c0b6f18614610b5c578063c351e2ea14610b9d578063f2fde38b14610c66578063f680e55514610ca9575b600080fd5b34801561015a57600080fd5b5061017960048036038101908080359060200190929190505050610d17565b604051808d81526020018c81526020018b81526020018a81526020018973ffffffffffffffffffffffffffffffffffffffff1673ffffffffffffffffffffffffffffffffffffffff1681526020018060200188815260200187815260200186815260200185815260200184151515158152602001838152602001828103825289818151815260200191508051906020019080838360005b8381101561022b578082015181840152602081019050610210565b50505050905090810190601f1680156102585780820380516001836020036101000a031916815260200191505b509d505050505050505050505050505060405180910390f35b34801561027d57600080fd5b5061029c60048036038101908080359060200190929190505050610f29565b60405180848152602001838152602001828152602001935050505060405180910390f35b3480156102cc57600080fd5b506102eb600480360381019080803590602001909291905050506110e3565b60405180858152602001846000191660001916815260200183815260200180602001828103825283818151815260200191508051906020019080838360005b8381101561034557808201518184015260208101905061032a565b50505050905090810190601f1680156103725780820380516001836020036101000a031916815260200191505b509550505050505060405180910390f35b34801561038f57600080fd5b506103986111bd565b604051808273ffffffffffffffffffffffffffffffffffffffff1673ffffffffffffffffffffffffffffffffffffffff16815260200191505060405180910390f35b3480156103e657600080fd5b5061044f6004803603810190808035906020019092919080359060200190929190803573ffffffffffffffffffffffffffffffffffffffff169060200190929190803573ffffffffffffffffffffffffffffffffffffffff1690602001909291905050506111e3565b6040518082815260200191505060405180910390f35b34801561047157600080fd5b5061047a61154e565b6040518082815260200191505060405180910390f35b34801561049c57600080fd5b506104bb60048036038101908080359060200190929190505050611556565b60405180848152602001838152602001828152602001935050505060405180910390f35b3480156104eb57600080fd5b5061050a60048036038101908080359060200190929190505050611710565b604051808781526020018681526020018573ffffffffffffffffffffffffffffffffffffffff1673ffffffffffffffffffffffffffffffffffffffff168152602001848152602001838152602001828152602001965050505050505060405180910390f35b34801561057b57600080fd5b506105a4600480360381019080803590602001909291908035906020019092919050505061188b565b005b3480156105b257600080fd5b506105d160048036038101908080359060200190929190505050611bed565b6040518084815260200183815260200182151515158152602001935050505060405180910390f35b34801561060557600080fd5b5061060e611da8565b60405180826000191660001916815260200191505060405180910390f35b34801561063857600080fd5b50610641611dae565b005b34801561064f57600080fd5b5061066e60048036038101908080359060200190929190505050611e80565b604051808781526020018673ffffffffffffffffffffffffffffffffffffffff1673ffffffffffffffffffffffffffffffffffffffff1681526020018573ffffffffffffffffffffffffffffffffffffffff1673ffffffffffffffffffffffffffffffffffffffff1681526020018060200180602001848152602001838103835286818151815260200191508051906020019080838360005b83811015610722578082015181840152602081019050610707565b50505050905090810190601f16801561074f5780820380516001836020036101000a031916815260200191505b50838103825285818151815260200191508051906020019080838360005b8381101561078857808201518184015260208101905061076d565b50505050905090810190601f1680156107b55780820380516001836020036101000a031916815260200191505b509850505050505050505060405180910390f35b3480156107d557600080fd5b506107f460048036038101908080359060200190929190505050612044565b604051808381526020018273ffffffffffffffffffffffffffffffffffffffff1673ffffffffffffffffffffffffffffffffffffffff1681526020019250505060405180910390f35b34801561084957600080fd5b50610852612092565b604051808273ffffffffffffffffffffffffffffffffffffffff1673ffffffffffffffffffffffffffffffffffffffff16815260200191505060405180910390f35b3480156108a057600080fd5b506108a96120bb565b604051808215151515815260200191505060405180910390f35b3480156108cf57600080fd5b5061092c6004803603810190808035906020019092919080359060200190929190803573ffffffffffffffffffffffffffffffffffffffff1690602001909291908035906020019092919080359060200190929190505050612112565b6040518082815260200191505060405180910390f35b34801561094e57600080fd5b50610a6d6004803603810190808035906020019092919080359060200190929190803573ffffffffffffffffffffffffffffffffffffffff169060200190929190803573ffffffffffffffffffffffffffffffffffffffff169060200190929190803573ffffffffffffffffffffffffffffffffffffffff169060200190929190803590602001908201803590602001908080601f0160208091040260200160405190810160405280939291908181526020018383808284378201915050505050509192919290803590602001908201803590602001908080601f0160208091040260200160405190810160405280939291908181526020018383808284378201915050505050509192919290803590602001909291905050506126eb565b005b348015610a7b57600080fd5b50610aa46004803603810190808035906020019092919080359060200190929190505050612a8c565b005b348015610ab257600080fd5b50610ae7600480360381019080803573ffffffffffffffffffffffffffffffffffffffff169060200190929190505050612e42565b005b348015610af557600080fd5b50610b5a60048036038101908080359060200190929190803590602001908201803590602001908080601f0160208091040260200160405190810160405280939291908181526020018383808284378201915050505050509192919290505050612e99565b005b348015610b6857600080fd5b50610b9b600480360381019080803590602001909291908035906020019092919080359060200190929190505050613172565b005b348015610ba957600080fd5b50610c506004803603810190808035906020019092919080359060200190929190803573ffffffffffffffffffffffffffffffffffffffff169060200190929190803560001916906020019092919080359060200190929190803590602001908201803590602001908080601f0160208091040260200160405190810160405280939291908181526020018383808284378201915050505050509192919290505050613621565b6040518082815260200191505060405180910390f35b348015610c7257600080fd5b50610ca7600480360381019080803573ffffffffffffffffffffffffffffffffffffffff1690602001909291905050506138c5565b005b348015610cb557600080fd5b50610cfd600480360381019080803566ffffffffffffff169060200190929190803573ffffffffffffffffffffffffffffffffffffffff1690602001909291905050506138e4565b604051808215151515815260200191505060405180910390f35b60008060008060006060600080600080600080610d32614a85565b600360008f81526020019081526020016000206101806040519081016040529081600082015481526020016001820154815260200160028201548152602001600382015481526020016004820160009054906101000a900473ffffffffffffffffffffffffffffffffffffffff1673ffffffffffffffffffffffffffffffffffffffff1673ffffffffffffffffffffffffffffffffffffffff168152602001600582018054600181600116156101000203166002900480601f016020809104026020016040519081016040528092919081815260200182805460018160011615610100020316600290048015610e695780601f10610e3e57610100808354040283529160200191610e69565b820191906000526020600020905b815481529060010190602001808311610e4c57829003601f168201915b5050505050815260200160068201548152602001600782015481526020016008820154815260200160098201548152602001600a820160009054906101000a900460ff16151515158152602001600b82015481525050905080600001519c5080602001519b5080604001519a5080606001519950806080015198508060a0015197508060c0015196508060e00151955080610100015194508061012001519350806101400151925080610160015191505091939597999b5091939597999b565b6000806000610f36614a85565b600360008681526020019081526020016000206101806040519081016040529081600082015481526020016001820154815260200160028201548152602001600382015481526020016004820160009054906101000a900473ffffffffffffffffffffffffffffffffffffffff1673ffffffffffffffffffffffffffffffffffffffff1673ffffffffffffffffffffffffffffffffffffffff168152602001600582018054600181600116156101000203166002900480601f01602080910402602001604051908101604052809291908181526020018280546001816001161561010002031660029004801561106d5780601f106110425761010080835404028352916020019161106d565b820191906000526020600020905b81548152906001019060200180831161105057829003601f168201915b5050505050815260200160068201548152602001600782015481526020016008820154815260200160098201548152602001600a820160009054906101000a900460ff16151515158152602001600b82015481525050905080602001519350806040015192508061016001519150509193909250565b600080600060606000600660008781526020019081526020016000209050806000015494508060010154935080600201549250806003018054600181600116156101000203166002900480601f0160208091040260200160405190810160405280929190818152602001828054600181600116156101000203166002900480156111ae5780601f10611183576101008083540402835291602001916111ae565b820191906000526020600020905b81548152906001019060200180831161119157829003601f168201915b50505050509150509193509193565b600160009054906101000a900473ffffffffffffffffffffffffffffffffffffffff1681565b60006111ed614aff565b3373ffffffffffffffffffffffffffffffffffffffff16600160009054906101000a900473ffffffffffffffffffffffffffffffffffffffff1673ffffffffffffffffffffffffffffffffffffffff16630d2020dd6002546040518263ffffffff167c0100000000000000000000000000000000000000000000000000000000028152600401808260001916600019168152602001915050602060405180830381600087803b15801561129f57600080fd5b505af11580156112b3573d6000803e3d6000fd5b505050506040513d60208110156112c957600080fd5b810190808051906020019092919050505073ffffffffffffffffffffffffffffffffffffffff16141515611365576040517f08c379a000000000000000000000000000000000000000000000000000000000815260040180806020018281038252600d8152602001807f4e6f205065726d697373696f6e0000000000000000000000000000000000000081525060200191505060405180910390fd5b6004600581111561137257fe5b851415156113e8576040517f08c379a00000000000000000000000000000000000000000000000000000000081526004018080602001828103825260138152602001807f496e76616c69642042616c6c6f7420547970650000000000000000000000000081525060200191505060405180910390fd5b600073ffffffffffffffffffffffffffffffffffffffff168373ffffffffffffffffffffffffffffffffffffffff161415151561148d576040517f08c379a00000000000000000000000000000000000000000000000000000000081526004018080602001828103825260118152602001807f496e76616c696420506172616d6574657200000000000000000000000000000081525060200191505060405180910390fd5b611498868686613955565b8581600001818152505082816020019073ffffffffffffffffffffffffffffffffffffffff16908173ffffffffffffffffffffffffffffffffffffffff168152505080600560008881526020019081526020016000206000820151816000015560208201518160010160006101000a81548173ffffffffffffffffffffffffffffffffffffffff021916908373ffffffffffffffffffffffffffffffffffffffff16021790555090505085915050949350505050565b600042905090565b6000806000611563614a85565b600360008681526020019081526020016000206101806040519081016040529081600082015481526020016001820154815260200160028201548152602001600382015481526020016004820160009054906101000a900473ffffffffffffffffffffffffffffffffffffffff1673ffffffffffffffffffffffffffffffffffffffff1673ffffffffffffffffffffffffffffffffffffffff168152602001600582018054600181600116156101000203166002900480601f01602080910402602001604051908101604052809291908181526020018280546001816001161561010002031660029004801561169a5780601f1061166f5761010080835404028352916020019161169a565b820191906000526020600020905b81548152906001019060200180831161167d57829003601f168201915b5050505050815260200160068201548152602001600782015481526020016008820154815260200160098201548152602001600a820160009054906101000a900460ff16151515158152602001600b8201548152505090508060c0015193508060e0015192508061010001519150509193909250565b600080600080600080611721614b2f565b87600760008a8152602001908152602001600020600001541415156117ae576040517f08c379a00000000000000000000000000000000000000000000000000000000081526004018080602001828103825260128152602001807f6e6f74206578697374656420766f74654964000000000000000000000000000081525060200191505060405180910390fd5b6007600089815260200190815260200160002060c0604051908101604052908160008201548152602001600182015481526020016002820160009054906101000a900473ffffffffffffffffffffffffffffffffffffffff1673ffffffffffffffffffffffffffffffffffffffff1673ffffffffffffffffffffffffffffffffffffffff1681526020016003820154815260200160048201548152602001600582015481525050905080600001519650806020015195508060400151945080606001519350806080015192508060a0015191505091939550919395565b60003373ffffffffffffffffffffffffffffffffffffffff16600160009054906101000a900473ffffffffffffffffffffffffffffffffffffffff1673ffffffffffffffffffffffffffffffffffffffff16630d2020dd6002546040518263ffffffff167c0100000000000000000000000000000000000000000000000000000000028152600401808260001916600019168152602001915050602060405180830381600087803b15801561193f57600080fd5b505af1158015611953573d6000803e3d6000fd5b505050506040513d602081101561196957600080fd5b810190808051906020019092919050505073ffffffffffffffffffffffffffffffffffffffff16141515611a05576040517f08c379a000000000000000000000000000000000000000000000000000000000815260040180806020018281038252600d8152602001807f4e6f205065726d697373696f6e0000000000000000000000000000000000000081525060200191505060405180910390fd5b826003600085815260200190815260200160002060000154141515611a92576040517f08c379a00000000000000000000000000000000000000000000000000000000081526004018080602001828103825260128152602001807f6e6f7420657869737465642042616c6c6f74000000000000000000000000000081525060200191505060405180910390fd5b6000151560036000858152602001908152602001600020600a0160009054906101000a900460ff161515141515611b31576040517f08c379a00000000000000000000000000000000000000000000000000000000081526004018080602001828103825260118152602001807f616c72656164792066696e616c697a656400000000000000000000000000000081525060200191505060405180910390fd5b60016004811115611b3e57fe5b6003600085815260200190815260200160002060090154141515611bca576040517f08c379a000000000000000000000000000000000000000000000000000000000815260040180806020018281038252600f8152602001807f4e6f74205265616479205374617465000000000000000000000000000000000081525060200191505060405180910390fd5b6003600084815260200190815260200160002090508181600b0181905550505050565b6000806000611bfa614a85565b600360008681526020019081526020016000206101806040519081016040529081600082015481526020016001820154815260200160028201548152602001600382015481526020016004820160009054906101000a900473ffffffffffffffffffffffffffffffffffffffff1673ffffffffffffffffffffffffffffffffffffffff1673ffffffffffffffffffffffffffffffffffffffff168152602001600582018054600181600116156101000203166002900480601f016020809104026020016040519081016040528092919081815260200182805460018160011615610100020316600290048015611d315780601f10611d0657610100808354040283529160200191611d31565b820191906000526020600020905b815481529060010190602001808311611d1457829003601f168201915b5050505050815260200160068201548152602001600782015481526020016008820154815260200160098201548152602001600a820160009054906101000a900460ff16151515158152602001600b8201548152505090508060600151935080610120015192508061014001519150509193909250565b60025481565b611db66120bb565b1515611dc157600080fd5b600073ffffffffffffffffffffffffffffffffffffffff166000809054906101000a900473ffffffffffffffffffffffffffffffffffffffff1673ffffffffffffffffffffffffffffffffffffffff167f8be0079c531659141344cd1fd0a4f28419497f9722a3daafe3b4186f6b6457e060405160405180910390a360008060006101000a81548173ffffffffffffffffffffffffffffffffffffffff021916908373ffffffffffffffffffffffffffffffffffffffff160217905550565b6000806000606080600080600460008981526020019081526020016000209050806000015496508060010160009054906101000a900473ffffffffffffffffffffffffffffffffffffffff1695508060020160009054906101000a900473ffffffffffffffffffffffffffffffffffffffff169450806003018054600181600116156101000203166002900480601f016020809104026020016040519081016040528092919081815260200182805460018160011615610100020316600290048015611f8d5780601f10611f6257610100808354040283529160200191611f8d565b820191906000526020600020905b815481529060010190602001808311611f7057829003601f168201915b50505050509350806004018054600181600116156101000203166002900480601f01602080910402602001604051908101604052809291908181526020018280546001816001161561010002031660029004801561202c5780601f106120015761010080835404028352916020019161202c565b820191906000526020600020905b81548152906001019060200180831161200f57829003601f168201915b50505050509250806005015491505091939550919395565b6000806000600560008581526020019081526020016000209050806000015492508060010160009054906101000a900473ffffffffffffffffffffffffffffffffffffffff16915050915091565b60008060009054906101000a900473ffffffffffffffffffffffffffffffffffffffff16905090565b60008060009054906101000a900473ffffffffffffffffffffffffffffffffffffffff1673ffffffffffffffffffffffffffffffffffffffff163373ffffffffffffffffffffffffffffffffffffffff1614905090565b60003373ffffffffffffffffffffffffffffffffffffffff16600160009054906101000a900473ffffffffffffffffffffffffffffffffffffffff1673ffffffffffffffffffffffffffffffffffffffff16630d2020dd6002546040518263ffffffff167c0100000000000000000000000000000000000000000000000000000000028152600401808260001916600019168152602001915050602060405180830381600087803b1580156121c657600080fd5b505af11580156121da573d6000803e3d6000fd5b505050506040513d60208110156121f057600080fd5b810190808051906020019092919050505073ffffffffffffffffffffffffffffffffffffffff1614151561228c576040517f08c379a000000000000000000000000000000000000000000000000000000000815260040180806020018281038252600d8152602001807f4e6f205065726d697373696f6e0000000000000000000000000000000000000081525060200191505060405180910390fd5b6001600281111561229957fe5b8314806122b157506002808111156122ad57fe5b8311155b1515612325576040517f08c379a00000000000000000000000000000000000000000000000000000000081526004018080602001828103825260108152602001807f496e76616c6964206465636973696f6e0000000000000000000000000000000081525060200191505060405180910390fd5b8460036000878152602001908152602001600020600001541415156123b2576040517f08c379a00000000000000000000000000000000000000000000000000000000081526004018080602001828103825260128152602001807f6e6f7420657869737465642042616c6c6f74000000000000000000000000000081525060200191505060405180910390fd5b85600760008881526020019081526020016000206000015414151515612440576040517f08c379a00000000000000000000000000000000000000000000000000000000081526004018080602001828103825260168152602001807f616c7265616479206578697374656420766f746549640000000000000000000081525060200191505060405180910390fd5b6008600086815260200190815260200160002060008573ffffffffffffffffffffffffffffffffffffffff1673ffffffffffffffffffffffffffffffffffffffff16815260200190815260200160002060009054906101000a900460ff16151515612513576040517f08c379a000000000000000000000000000000000000000000000000000000000815260040180806020018281038252600d8152602001807f616c726561647920766f7465640000000000000000000000000000000000000081525060200191505060405180910390fd5b6002600481111561252057fe5b60036000878152602001908152602001600020600901541415156125ac576040517f08c379a00000000000000000000000000000000000000000000000000000000081526004018080602001828103825260148152602001807f4e6f7420496e50726f677265737320537461746500000000000000000000000081525060200191505060405180910390fd5b60c0604051908101604052808781526020018681526020018573ffffffffffffffffffffffffffffffffffffffff1681526020018481526020018381526020016125f461154e565b81525060076000888152602001908152602001600020600082015181600001556020820151816001015560408201518160020160006101000a81548173ffffffffffffffffffffffffffffffffffffffff021916908373ffffffffffffffffffffffffffffffffffffffff160217905550606082015181600301556080820151816004015560a0820151816005015590505061269285858585613ba4565b8373ffffffffffffffffffffffffffffffffffffffff1685877f41df84b3b467b06744e40c92613c666324e7c640ce0a41ec06efdf602d367606866040518082815260200191505060405180910390a495945050505050565b6126f3614b7c565b3373ffffffffffffffffffffffffffffffffffffffff16600160009054906101000a900473ffffffffffffffffffffffffffffffffffffffff1673ffffffffffffffffffffffffffffffffffffffff16630d2020dd6002546040518263ffffffff167c0100000000000000000000000000000000000000000000000000000000028152600401808260001916600019168152602001915050602060405180830381600087803b1580156127a557600080fd5b505af11580156127b9573d6000803e3d6000fd5b505050506040513d60208110156127cf57600080fd5b810190808051906020019092919050505073ffffffffffffffffffffffffffffffffffffffff1614151561286b576040517f08c379a000000000000000000000000000000000000000000000000000000000815260040180806020018281038252600d8152602001807f4e6f205065726d697373696f6e0000000000000000000000000000000000000081525060200191505060405180910390fd5b612879888787878787613ea1565b15156128ed576040517f08c379a00000000000000000000000000000000000000000000000000000000081526004018080602001828103825260118152602001807f496e76616c696420506172616d6574657200000000000000000000000000000081525060200191505060405180910390fd5b6128f8898989613955565b8881600001818152505085816020019073ffffffffffffffffffffffffffffffffffffffff16908173ffffffffffffffffffffffffffffffffffffffff168152505084816040019073ffffffffffffffffffffffffffffffffffffffff16908173ffffffffffffffffffffffffffffffffffffffff1681525050838160600181905250828160800181905250818160a001818152505080600460008b81526020019081526020016000206000820151816000015560208201518160010160006101000a81548173ffffffffffffffffffffffffffffffffffffffff021916908373ffffffffffffffffffffffffffffffffffffffff16021790555060408201518160020160006101000a81548173ffffffffffffffffffffffffffffffffffffffff021916908373ffffffffffffffffffffffffffffffffffffffff1602179055506060820151816003019080519060200190612a56929190614bdf565b506080820151816004019080519060200190612a73929190614bdf565b5060a08201518160050155905050505050505050505050565b60003373ffffffffffffffffffffffffffffffffffffffff16600160009054906101000a900473ffffffffffffffffffffffffffffffffffffffff1673ffffffffffffffffffffffffffffffffffffffff16630d2020dd6002546040518263ffffffff167c0100000000000000000000000000000000000000000000000000000000028152600401808260001916600019168152602001915050602060405180830381600087803b158015612b4057600080fd5b505af1158015612b54573d6000803e3d6000fd5b505050506040513d6020811015612b6a57600080fd5b810190808051906020019092919050505073ffffffffffffffffffffffffffffffffffffffff16141515612c06576040517f08c379a000000000000000000000000000000000000000000000000000000000815260040180806020018281038252600d8152602001807f4e6f205065726d697373696f6e0000000000000000000000000000000000000081525060200191505060405180910390fd5b826003600085815260200190815260200160002060000154141515612c93576040517f08c379a00000000000000000000000000000000000000000000000000000000081526004018080602001828103825260128152602001807f6e6f7420657869737465642042616c6c6f74000000000000000000000000000081525060200191505060405180910390fd5b6000151560036000858152602001908152602001600020600a0160009054906101000a900460ff161515141515612d32576040517f08c379a00000000000000000000000000000000000000000000000000000000081526004018080602001828103825260118152602001807f616c72656164792066696e616c697a656400000000000000000000000000000081525060200191505060405180910390fd5b60036004811115612d3f57fe5b821480612d565750600480811115612d5357fe5b82145b1515612dca576040517f08c379a00000000000000000000000000000000000000000000000000000000081526004018080602001828103825260148152602001807f496e76616c69642042616c6c6f7420537461746500000000000000000000000081525060200191505060405180910390fd5b600360008481526020019081526020016000209050818160090181905550600181600a0160006101000a81548160ff021916908315150217905550827fdc921f027328d7238b58d77649ebcbd0c8b1c494c66ba53dfe53e0de65f6dd9f836040518082815260200191505060405180910390a2505050565b612e4a6120bb565b1515612e5557600080fd5b80600160006101000a81548173ffffffffffffffffffffffffffffffffffffffff021916908373ffffffffffffffffffffffffffffffffffffffff16021790555050565b60003373ffffffffffffffffffffffffffffffffffffffff16600160009054906101000a900473ffffffffffffffffffffffffffffffffffffffff1673ffffffffffffffffffffffffffffffffffffffff16630d2020dd6002546040518263ffffffff167c0100000000000000000000000000000000000000000000000000000000028152600401808260001916600019168152602001915050602060405180830381600087803b158015612f4d57600080fd5b505af1158015612f61573d6000803e3d6000fd5b505050506040513d6020811015612f7757600080fd5b810190808051906020019092919050505073ffffffffffffffffffffffffffffffffffffffff16141515613013576040517f08c379a000000000000000000000000000000000000000000000000000000000815260040180806020018281038252600d8152602001807f4e6f205065726d697373696f6e0000000000000000000000000000000000000081525060200191505060405180910390fd5b8260036000858152602001908152602001600020600001541415156130a0576040517f08c379a00000000000000000000000000000000000000000000000000000000081526004018080602001828103825260128152602001807f6e6f7420657869737465642042616c6c6f74000000000000000000000000000081525060200191505060405180910390fd5b6000151560036000858152602001908152602001600020600a0160009054906101000a900460ff16151514151561313f576040517f08c379a00000000000000000000000000000000000000000000000000000000081526004018080602001828103825260118152602001807f616c72656164792066696e616c697a656400000000000000000000000000000081525060200191505060405180910390fd5b6003600084815260200190815260200160002090508181600501908051906020019061316c929190614c5f565b50505050565b60003373ffffffffffffffffffffffffffffffffffffffff16600160009054906101000a900473ffffffffffffffffffffffffffffffffffffffff1673ffffffffffffffffffffffffffffffffffffffff16630d2020dd6002546040518263ffffffff167c0100000000000000000000000000000000000000000000000000000000028152600401808260001916600019168152602001915050602060405180830381600087803b15801561322657600080fd5b505af115801561323a573d6000803e3d6000fd5b505050506040513d602081101561325057600080fd5b810190808051906020019092919050505073ffffffffffffffffffffffffffffffffffffffff161415156132ec576040517f08c379a000000000000000000000000000000000000000000000000000000000815260040180806020018281038252600d8152602001807f4e6f205065726d697373696f6e0000000000000000000000000000000000000081525060200191505060405180910390fd5b82826000821180156132fe5750600081115b1515613372576040517f08c379a00000000000000000000000000000000000000000000000000000000081526004018080602001828103825260118152602001807f7374617274206f7220656e64206973203000000000000000000000000000000081525060200191505060405180910390fd5b81811115156133e9576040517f08c379a000000000000000000000000000000000000000000000000000000000815260040180806020018281038252600c8152602001807f7374617274203e3d20656e64000000000000000000000000000000000000000081525060200191505060405180910390fd5b856003600088815260200190815260200160002060000154141515613476576040517f08c379a00000000000000000000000000000000000000000000000000000000081526004018080602001828103825260128152602001807f6e6f7420657869737465642042616c6c6f74000000000000000000000000000081525060200191505060405180910390fd5b6000151560036000888152602001908152602001600020600a0160009054906101000a900460ff161515141515613515576040517f08c379a00000000000000000000000000000000000000000000000000000000081526004018080602001828103825260118152602001807f616c72656164792066696e616c697a656400000000000000000000000000000081525060200191505060405180910390fd5b6001600481111561352257fe5b60036000888152602001908152602001600020600901541415156135ae576040517f08c379a000000000000000000000000000000000000000000000000000000000815260040180806020018281038252600f8152602001807f4e6f74205265616479205374617465000000000000000000000000000000000081525060200191505060405180910390fd5b600360008781526020019081526020016000209250848360010181905550838360020181905550600260048111156135e257fe5b83600901819055508385877fd9938a514dab5cdce149a77493f694bd70c24a4833a278fd4d86fbdf859099c560405160405180910390a4505050505050565b600061362b614cdf565b3373ffffffffffffffffffffffffffffffffffffffff16600160009054906101000a900473ffffffffffffffffffffffffffffffffffffffff1673ffffffffffffffffffffffffffffffffffffffff16630d2020dd6002546040518263ffffffff167c0100000000000000000000000000000000000000000000000000000000028152600401808260001916600019168152602001915050602060405180830381600087803b1580156136dd57600080fd5b505af11580156136f1573d6000803e3d6000fd5b505050506040513d602081101561370757600080fd5b810190808051906020019092919050505073ffffffffffffffffffffffffffffffffffffffff161415156137a3576040517f08c379a000000000000000000000000000000000000000000000000000000000815260040180806020018281038252600d8152602001807f4e6f205065726d697373696f6e0000000000000000000000000000000000000081525060200191505060405180910390fd5b6137af87868686614646565b1515613823576040517f08c379a00000000000000000000000000000000000000000000000000000000081526004018080602001828103825260118152602001807f496e76616c696420506172616d6574657200000000000000000000000000000081525060200191505060405180910390fd5b61382e888888613955565b8781600001818152505084816020019060001916908160001916815250508381604001818152505082816060018190525080600660008a815260200190815260200160002060008201518160000155602082015181600101906000191690556040820151816002015560608201518160030190805190602001906138b3929190614d0b565b50905050879150509695505050505050565b6138cd6120bb565b15156138d857600080fd5b6138e18161496a565b50565b6000600860008466ffffffffffffff16815260200190815260200160002060008373ffffffffffffffffffffffffffffffffffffffff1673ffffffffffffffffffffffffffffffffffffffff16815260200190815260200160002060009054906101000a900460ff16905092915050565b61395d614a85565b836003600086815260200190815260200160002060000154141515156139eb576040517f08c379a00000000000000000000000000000000000000000000000000000000081526004018080602001828103825260168152602001807f416c726561647920657869737465642062616c6c6f740000000000000000000081525060200191505060405180910390fd5b838160000181815250508281606001818152505081816080019073ffffffffffffffffffffffffffffffffffffffff16908173ffffffffffffffffffffffffffffffffffffffff168152505060016004811115613a4457fe5b8161012001818152505060008161014001901515908115158152505080600360008681526020019081526020016000206000820151816000015560208201518160010155604082015181600201556060820151816003015560808201518160040160006101000a81548173ffffffffffffffffffffffffffffffffffffffff021916908373ffffffffffffffffffffffffffffffffffffffff16021790555060a0820151816005019080519060200190613aff929190614bdf565b5060c0820151816006015560e082015181600701556101008201518160080155610120820151816009015561014082015181600a0160006101000a81548160ff02191690831515021790555061016082015181600b01559050508173ffffffffffffffffffffffffffffffffffffffff1683857fd1ba591c76ef71222e2d30b8277758713cc6eef1de29efaf98a716744ac2420b60405160405180910390a450505050565b600060016002811115613bb357fe5b831480613bca5750600280811115613bc757fe5b83145b1515613c3e576040517f08c379a00000000000000000000000000000000000000000000000000000000081526004018080602001828103825260108152602001807f496e76616c6964206465636973696f6e0000000000000000000000000000000081525060200191505060405180910390fd5b846003600087815260200190815260200160002060000154141515613ccb576040517f08c379a00000000000000000000000000000000000000000000000000000000081526004018080602001828103825260128152602001807f6e6f7420657869737465642042616c6c6f74000000000000000000000000000081525060200191505060405180910390fd5b600015156008600087815260200190815260200160002060008673ffffffffffffffffffffffffffffffffffffffff1673ffffffffffffffffffffffffffffffffffffffff16815260200190815260200160002060009054906101000a900460ff161515141515613da4576040517f08c379a000000000000000000000000000000000000000000000000000000000815260040180806020018281038252600d8152602001807f616c726561647920766f7465640000000000000000000000000000000000000081525060200191505060405180910390fd5b60036000868152602001908152602001600020905060016008600087815260200190815260200160002060008673ffffffffffffffffffffffffffffffffffffffff1673ffffffffffffffffffffffffffffffffffffffff16815260200190815260200160002060006101000a81548160ff021916908315150217905550613e3a60018260060154614a6490919063ffffffff16565b816006018190555060016002811115613e4f57fe5b831415613e7a57613e6d828260070154614a6490919063ffffffff16565b8160070181905550613e9a565b613e91828260080154614a6490919063ffffffff16565b81600801819055505b5050505050565b600060016005811115613eb057fe5b8710158015613ecb575060036005811115613ec757fe5b8711155b1515613f3f576040517f08c379a00000000000000000000000000000000000000000000000000000000081526004018080602001828103825260138152602001807f496e76616c69642042616c6c6f7420547970650000000000000000000000000081525060200191505060405180910390fd5b60026005811115613f4c57fe5b87141561420b57600073ffffffffffffffffffffffffffffffffffffffff168673ffffffffffffffffffffffffffffffffffffffff1614151515613ff8576040517f08c379a000000000000000000000000000000000000000000000000000000000815260040180806020018281038252601a8152602001807f496e76616c6964206f6c64206d656d626572206164647265737300000000000081525060200191505060405180910390fd5b600073ffffffffffffffffffffffffffffffffffffffff168573ffffffffffffffffffffffffffffffffffffffff1614151561409c576040517f08c379a000000000000000000000000000000000000000000000000000000000815260040180806020018281038252601a8152602001807f496e76616c6964206e6577206d656d626572206164647265737300000000000081525060200191505060405180910390fd5b60008451141515614115576040517f08c379a00000000000000000000000000000000000000000000000000000000081526004018080602001828103825260138152602001807f496e76616c6964206e6577206e6f64652069640000000000000000000000000081525060200191505060405180910390fd5b6000835114151561418e576040517f08c379a00000000000000000000000000000000000000000000000000000000081526004018080602001828103825260138152602001807f496e76616c6964206e6577206e6f64652049500000000000000000000000000081525060200191505060405180910390fd5b600082141515614206576040517f08c379a00000000000000000000000000000000000000000000000000000000081526004018080602001828103825260158152602001807f496e76616c6964206e6577206e6f646520506f7274000000000000000000000081525060200191505060405180910390fd5b614638565b60408451141515614284576040517f08c379a00000000000000000000000000000000000000000000000000000000081526004018080602001828103825260138152602001807f496e76616c6964206e6577206e6f64652069640000000000000000000000000081525060200191505060405180910390fd5b600083511115156142fd576040517f08c379a00000000000000000000000000000000000000000000000000000000081526004018080602001828103825260138152602001807f496e76616c6964206e6577206e6f64652049500000000000000000000000000081525060200191505060405180910390fd5b600082111515614375576040517f08c379a00000000000000000000000000000000000000000000000000000000081526004018080602001828103825260158152602001807f496e76616c6964206e6577206e6f646520506f7274000000000000000000000081525060200191505060405180910390fd5b6001600581111561438257fe5b8714156144d757600073ffffffffffffffffffffffffffffffffffffffff168673ffffffffffffffffffffffffffffffffffffffff1614151561442d576040517f08c379a000000000000000000000000000000000000000000000000000000000815260040180806020018281038252601a8152602001807f496e76616c6964206f6c64206d656d626572206164647265737300000000000081525060200191505060405180910390fd5b600073ffffffffffffffffffffffffffffffffffffffff168573ffffffffffffffffffffffffffffffffffffffff16141515156144d2576040517f08c379a000000000000000000000000000000000000000000000000000000000815260040180806020018281038252601a8152602001807f496e76616c6964206e6577206d656d626572206164647265737300000000000081525060200191505060405180910390fd5b614637565b600360058111156144e457fe5b87141561463657600073ffffffffffffffffffffffffffffffffffffffff168673ffffffffffffffffffffffffffffffffffffffff1614151515614590576040517f08c379a000000000000000000000000000000000000000000000000000000000815260040180806020018281038252601a8152602001807f496e76616c6964206f6c64206d656d626572206164647265737300000000000081525060200191505060405180910390fd5b600073ffffffffffffffffffffffffffffffffffffffff168573ffffffffffffffffffffffffffffffffffffffff1614151515614635576040517f08c379a000000000000000000000000000000000000000000000000000000000815260040180806020018281038252601a8152602001807f496e76616c6964206e6577206d656d626572206164647265737300000000000081525060200191505060405180910390fd5b5b5b5b600190509695505050505050565b600060058081111561465457fe5b851415156146ca576040517f08c379a00000000000000000000000000000000000000000000000000000000081526004018080602001828103825260138152602001807f496e76616c69642042616c6c6f7420547970650000000000000000000000000081525060200191505060405180910390fd5b6000602060ff1611151561476c576040517f08c379a00000000000000000000000000000000000000000000000000000000081526004018080602001828103825260218152602001807f496e76616c696420656e7669726f6e6d656e74207661726961626c65206e616d81526020017f650000000000000000000000000000000000000000000000000000000000000081525060400191505060405180910390fd5b6001600681111561477957fe5b8310151515614816576040517f08c379a00000000000000000000000000000000000000000000000000000000081526004018080602001828103825260218152602001807f496e76616c696420656e7669726f6e6d656e74207661726961626c652054797081526020017f650000000000000000000000000000000000000000000000000000000000000081525060400191505060405180910390fd5b60068081111561482257fe5b83111515156148bf576040517f08c379a00000000000000000000000000000000000000000000000000000000081526004018080602001828103825260218152602001807f496e76616c696420656e7669726f6e6d656e74207661726961626c652054797081526020017f650000000000000000000000000000000000000000000000000000000000000081525060400191505060405180910390fd5b6000825111151561495e576040517f08c379a00000000000000000000000000000000000000000000000000000000081526004018080602001828103825260228152602001807f496e76616c696420656e7669726f6e6d656e74207661726961626c652076616c81526020017f756500000000000000000000000000000000000000000000000000000000000081525060400191505060405180910390fd5b60019050949350505050565b600073ffffffffffffffffffffffffffffffffffffffff168173ffffffffffffffffffffffffffffffffffffffff16141515156149a657600080fd5b8073ffffffffffffffffffffffffffffffffffffffff166000809054906101000a900473ffffffffffffffffffffffffffffffffffffffff1673ffffffffffffffffffffffffffffffffffffffff167f8be0079c531659141344cd1fd0a4f28419497f9722a3daafe3b4186f6b6457e060405160405180910390a3806000806101000a81548173ffffffffffffffffffffffffffffffffffffffff021916908373ffffffffffffffffffffffffffffffffffffffff16021790555050565b6000808284019050838110151515614a7b57600080fd5b8091505092915050565b6101806040519081016040528060008152602001600081526020016000815260200160008152602001600073ffffffffffffffffffffffffffffffffffffffff1681526020016060815260200160008152602001600081526020016000815260200160008152602001600015158152602001600081525090565b604080519081016040528060008152602001600073ffffffffffffffffffffffffffffffffffffffff1681525090565b60c0604051908101604052806000815260200160008152602001600073ffffffffffffffffffffffffffffffffffffffff1681526020016000815260200160008152602001600081525090565b60c06040519081016040528060008152602001600073ffffffffffffffffffffffffffffffffffffffff168152602001600073ffffffffffffffffffffffffffffffffffffffff1681526020016060815260200160608152602001600081525090565b828054600181600116156101000203166002900490600052602060002090601f016020900481019282601f10614c2057805160ff1916838001178555614c4e565b82800160010185558215614c4e579182015b82811115614c4d578251825591602001919060010190614c32565b5b509050614c5b9190614d8b565b5090565b828054600181600116156101000203166002900490600052602060002090601f016020900481019282601f10614ca057805160ff1916838001178555614cce565b82800160010185558215614cce579182015b82811115614ccd578251825591602001919060010190614cb2565b5b509050614cdb9190614d8b565b5090565b608060405190810160405280600081526020016000801916815260200160008152602001606081525090565b828054600181600116156101000203166002900490600052602060002090601f016020900481019282601f10614d4c57805160ff1916838001178555614d7a565b82800160010185558215614d7a579182015b82811115614d79578251825591602001919060010190614d5e565b5b509050614d879190614d8b565b5090565b614dad91905b80821115614da9576000816000905550600101614d91565b5090565b905600a165627a7a7230582022ee5e866ba7514943d4ba3bb2ec72cb2e157a42d59df30e6dd9a85339c89b400029",
  "source": "pragma solidity ^0.4.24;\n\nimport \"openzeppelin-solidity/contracts/math/SafeMath.sol\";\nimport \"../abstract/EnvConstants.sol\";\nimport \"../abstract/BallotEnums.sol\";\nimport \"../GovChecker.sol\";\n\n\ncontract BallotStorage is  GovChecker, EnvConstants, BallotEnums {\n    using SafeMath for uint256;\n    \n    struct BallotBasic {\n        //Ballot ID\n        uint256 id;\n        // \n        uint256 startTime;\n        //  \n        uint256 endTime;\n        //  \n        uint256 ballotType;\n        // \n        address creator;\n        //  \n        bytes memo;\n        //   \n        uint256 totalVoters;\n        // \n        uint256 powerOfAccepts;\n        // \n        uint256 powerOfRejects;\n        //  \n        uint256 state;\n        // \n        bool isFinalized;\n        //  \n        uint256 duration;\n        \n    }\n\n    //For MemberAdding/MemberRemoval/MemberSwap\n    struct BallotMember {\n        uint256 id;    \n        address oldMemeberAddress;\n        address newMemeberAddress;\n        bytes newNodeId; // admin.nodeInfo.id is 512 bit public key\n        bytes newNodeIp;\n        uint newNodePort;\n    }\n\n    //For GovernanceChange \n    struct BallotAddress {\n        uint256 id;\n        address newGovernanceAddress;\n    }\n\n    //For EnvValChange\n    struct BallotVariable {\n    //Ballot ID\n        uint256 id; \n        bytes32 envVariableName;\n        uint256 envVariableType;\n        string envVariableValue;\n    }\n\n    struct Vote{\n        uint256  voteId;\n        uint256  ballotId;\n        address voter;\n        uint256 decision;\n        uint256 power;\n        uint256 time;\n    }\n\n    event BallotCreated(\n        uint256 indexed ballotId,\n        uint256 indexed ballotType,\n        address indexed creator\n    );\n    \n    event BallotStarted(\n        uint256 indexed ballotId,\n        uint256 indexed startTime,\n        uint256 indexed endTime\n    );\n\n    event Voted(\n        uint256 indexed voteid,\n        uint256 indexed ballotId,\n        address indexed voter,\n        uint256 decision       \n    );\n\n    event BallotFinalized(\n        uint256 indexed ballotId,\n        uint256 state\n    );\n    \n    mapping(uint=>BallotBasic) internal ballotBasicMap;\n    mapping(uint=>BallotMember) internal ballotMemberMap;\n    mapping(uint=>BallotAddress) internal ballotAddressMap;\n    mapping(uint=>BallotVariable) internal ballotVariableMap;\n    \n    mapping(uint=>Vote) internal voteMap;\n    mapping(uint=>mapping(address=>bool)) internal hasVotedMap;\n\n    address prevImp;\n\n    modifier onlyValidTime(uint256 _startTime, uint256 _endTime) {\n        require(_startTime > 0 && _endTime > 0, \"start or end is 0\");\n        require(_endTime > _startTime, \"start >= end\"); // && _startTime > getTime()\n        //uint256 diffTime = _endTime.sub(_startTime);\n        // require(diffTime > minBallotDuration());\n        // require(diffTime <= maxBallotDuration());\n        _;\n    }\n\n    function getTime() public view returns(uint256) {\n        return now;\n    }\n\n    constructor(address _registry) public {\n        setRegistry(_registry);\n    }\n\n    function getBallotBasic(uint256 _id) public view returns (\n        uint256 id,\n        uint256 startTime,\n        uint256 endTime,\n        uint256 ballotType,\n        address creator,\n        bytes memo,\n        uint256 totalVoters,\n        uint256 powerOfAccepts,\n        uint256 powerOfRejects,\n        uint256 state,\n        bool isFinalized,\n        uint256 duration\n    )\n    {\n        BallotBasic memory tBallot = ballotBasicMap[_id];\n        id = tBallot.id;\n        startTime = tBallot.startTime;\n        endTime = tBallot.endTime;\n        ballotType = tBallot.ballotType;\n        creator = tBallot.creator;\n        memo = tBallot.memo;\n        totalVoters = tBallot.totalVoters;\n        powerOfAccepts = tBallot.powerOfAccepts;\n        powerOfRejects = tBallot.powerOfRejects;\n        state = tBallot.state;\n        isFinalized = tBallot.isFinalized;\n        duration = tBallot.duration;\n    }\n\n    function getBallotMember(uint256 _id) public view returns (\n        uint256 id,\n        address oldMemeberAddress,\n        address newMemeberAddress,\n        bytes newNodeId, // admin.nodeInfo.id is 512 bit public key\n        bytes newNodeIp,\n        uint newNodePort\n    )\n    {\n        BallotMember storage tBallot = ballotMemberMap[_id];\n        id = tBallot.id;\n        oldMemeberAddress = tBallot.oldMemeberAddress;\n        newMemeberAddress = tBallot.newMemeberAddress;\n        newNodeId = tBallot.newNodeId;\n        newNodeIp = tBallot.newNodeIp;\n        newNodePort = tBallot.newNodePort;\n    }\n\n    function getBallotAddress(uint256 _id) public view returns (\n        uint256 id,\n        address newGovernanceAddress\n    )\n    {\n        BallotAddress storage tBallot = ballotAddressMap[_id];\n        id = tBallot.id;\n        newGovernanceAddress = tBallot.newGovernanceAddress;\n    }\n\n    function getBallotVariable(uint256 _id) public view returns (\n        uint256 id,\n        bytes32 envVariableName,\n        uint256 envVariableType,\n        string envVariableValue \n    )\n    {\n        BallotVariable storage tBallot = ballotVariableMap[_id];\n        id = tBallot.id;\n        envVariableName = tBallot.envVariableName;\n        envVariableType = tBallot.envVariableType;\n        envVariableValue = tBallot.envVariableValue;\n    }\n\n    function _createBallot(\n        uint256 _id,\n        uint256 _ballotType,\n        address _creator\n    )\n        internal\n    {\n        require(ballotBasicMap[_id].id != _id, \"Already existed ballot\");\n        \n        //ballotBasicMap[_id] = BallotBasic(_id, 0, 0, _ballotType, _creator, _memo, 0, 0, 0, uint256(BallotStates.Ready), false, _duration);\n\n        BallotBasic memory newBallot;\n        newBallot.id = _id;\n        newBallot.ballotType = _ballotType;\n        newBallot.creator = _creator;\n//        newBallot.memo = _memo;\n        newBallot.state = uint256(BallotStates.Ready);\n        newBallot.isFinalized = false;\n//        newBallot.duration = _duration;\n        ballotBasicMap[_id] = newBallot;\n        emit BallotCreated(_id, _ballotType, _creator);\n    }\n\n    function _areMemberBallotParamValid(\n        uint256 _ballotType,\n        address _oldMemeberAddress,\n        address _newMemeberAddress,\n        bytes _newNodeId, // admin.nodeInfo.id is 512 bit public key\n        bytes _newNodeIp,\n        uint _newNodePort\n    )\n        internal\n        pure\n        returns(bool)\n    {\n        require((_ballotType >= uint256(BallotTypes.MemberAdd)) && (_ballotType <= uint256(BallotTypes.MemberChange)), \"Invalid Ballot Type\");\n\n        if (_ballotType == uint256(BallotTypes.MemberRemoval)){\n            require(_oldMemeberAddress != address(0),\"Invalid old member address\");\n            require(_newMemeberAddress == address(0),\"Invalid new member address\");\n            require(_newNodeId.length == 0, \"Invalid new node id\");\n            require(_newNodeIp.length == 0, \"Invalid new node IP\");\n            require(_newNodePort == 0, \"Invalid new node Port\");\n        }else {\n            require(_newNodeId.length == 64, \"Invalid new node id\");\n            require(_newNodeIp.length > 0, \"Invalid new node IP\");\n            require(_newNodePort > 0, \"Invalid new node Port\");\n            if (_ballotType == uint256(BallotTypes.MemberAdd)) {\n                require(_oldMemeberAddress == address(0),\"Invalid old member address\");\n                require(_newMemeberAddress != address(0),\"Invalid new member address\");\n            }else if (_ballotType == uint256(BallotTypes.MemberChange)){\n                require(_oldMemeberAddress != address(0),\"Invalid old member address\");\n                require(_newMemeberAddress != address(0),\"Invalid new member address\");\n            }\n        }\n\n        return true;\n    }\n\n    //For MemberAdding/MemberRemoval/MemberSwap\n    function createBallotForMemeber(\n        uint256 _id,\n        uint256 _ballotType,\n        address _creator,\n        address _oldMemeberAddress,\n        address _newMemeberAddress,\n        bytes _newNodeId, // admin.nodeInfo.id is 512 bit public key\n        bytes _newNodeIp,\n        uint _newNodePort\n    )\n        public\n        onlyGov\n    {\n        require(\n            _areMemberBallotParamValid(_ballotType,_oldMemeberAddress,_newMemeberAddress,_newNodeId,_newNodeIp,_newNodePort),\n            \"Invalid Parameter\"\n        );\n        _createBallot(_id, _ballotType, _creator);\n        BallotMember memory newBallot;\n        newBallot.id = _id;\n        newBallot.oldMemeberAddress = _oldMemeberAddress;\n        newBallot.newMemeberAddress = _newMemeberAddress;\n        newBallot.newNodeId = _newNodeId;\n        newBallot.newNodeIp = _newNodeIp;\n        newBallot.newNodePort = _newNodePort;\n        ballotMemberMap[_id] = newBallot;\n\n    }\n\n    \n    function createBallotForAddress(\n        uint256 _id,\n        uint256 _ballotType,\n        address _creator,\n        address _newGovernanceAddress\n    )\n        public\n        onlyGov\n        returns (uint256)\n    {\n        require(_ballotType == uint256(BallotTypes.GovernanceChange), \"Invalid Ballot Type\");\n        require(_newGovernanceAddress != address(0), \"Invalid Parameter\");\n        \n        _createBallot(_id, _ballotType, _creator);\n        BallotAddress memory newBallot;\n        newBallot.id = _id;\n        newBallot.newGovernanceAddress = _newGovernanceAddress;\n        ballotAddressMap[_id] = newBallot;\n        return _id;\n    }\n\n    function _areVariableBallotParamValid(\n        uint256 _ballotType,\n        bytes32 _envVariableName,\n        uint256 _envVariableType,\n        string _envVariableValue \n    )\n        internal\n        pure\n        returns(bool)\n    {\n        require(_ballotType == uint256(BallotTypes.EnvValChange), \"Invalid Ballot Type\");\n        require(_envVariableName.length > 0, \"Invalid environment variable name\");\n        require(_envVariableType >= uint256(VariableTypes.Int), \"Invalid environment variable Type\");\n        require(_envVariableType <= uint256(VariableTypes.String), \"Invalid environment variable Type\");\n        require(bytes(_envVariableValue).length > 0, \"Invalid environment variable value\");\n\n        return true;\n    }\n\n    function createBallotForVariable(\n        uint256 _id,\n        uint256 _ballotType,\n        address _creator,\n        bytes32 _envVariableName,\n        uint256 _envVariableType,\n        string _envVariableValue \n    )\n        public\n        onlyGov\n        returns (uint256)\n    {\n        require(\n            _areVariableBallotParamValid(_ballotType, _envVariableName, _envVariableType, _envVariableValue),\n            \"Invalid Parameter\"\n        );\n        _createBallot(_id, _ballotType, _creator);\n        BallotVariable memory newBallot;\n        newBallot.id = _id;\n        newBallot.envVariableName = _envVariableName;\n        newBallot.envVariableType = _envVariableType;\n        newBallot.envVariableValue = _envVariableValue;\n        ballotVariableMap[_id] = newBallot;\n        return _id;\n    }\n\n    function createVote(\n        uint256 _voteId,\n        uint256 _ballotId,\n        address _voter,\n        uint256 _decision,\n        uint256 _power\n    )\n        public\n        onlyGov\n        returns (uint256)\n    {\n        //1. msg.sender member\n        //2. actionType  \n        require((_decision == uint256(DecisionTypes.Accept)) || (_decision <= uint256(DecisionTypes.Reject)), \"Invalid decision\");\n        \n        //3. ballotId    \n        require(ballotBasicMap[_ballotId].id == _ballotId, \"not existed Ballot\");\n        //4. voteId  \n        require(voteMap[_voteId].voteId != _voteId, \"already existed voteId\");\n        //5.  vote   \n        require(!hasVotedMap[_ballotId][_voter], \"already voted\");\n        require(ballotBasicMap[_ballotId].state == uint256(BallotStates.InProgress), \"Not InProgress State\");\n       //require((ballotBasicMap[_ballotId].startTime <= getTime()) && (getTime() <= ballotBasicMap[_ballotId].startTime), \"not voting time\");\n\n        //1. \n        voteMap[_voteId] = Vote(_voteId, _ballotId, _voter, _decision, _power, getTime());\n        \n        //2.   \n        _updateBallotForVote(_ballotId, _voter, _decision, _power);\n\n        //3. event  \n        emit Voted(_voteId,_ballotId,_voter,_decision);\n    }\n\n    function getVote(uint256 _voteId) public view returns (\n        uint256 voteId,\n        uint256 ballotId,\n        address voter,\n        uint256 decision,\n        uint256 power,\n        uint256 time\n    )\n    {\n        require(voteMap[_voteId].voteId == _voteId, \"not existed voteId\");\n        Vote memory _vote = voteMap[_voteId];\n        voteId = _vote.voteId;\n        ballotId = _vote.ballotId;\n        voter = _vote.voter;\n        decision = _vote.decision;\n        power = _vote.power;\n        time = _vote.time;\n    }\n\n    // update ballot \n    function _updateBallotForVote(\n        uint256 _ballotId,\n        address _voter,\n        uint256 _decision,\n        uint256 _power\n    )\n        internal\n    {\n        // c1. actionType  \n        require((_decision == uint256(DecisionTypes.Accept)) || (_decision == uint256(DecisionTypes.Reject)), \"Invalid decision\");\n        // c2. ballotId    \n        require(ballotBasicMap[_ballotId].id == _ballotId, \"not existed Ballot\");\n        // c3.  vote   \n        require(hasVotedMap[_ballotId][_voter] == false, \"already voted\");\n\n        //1.get ballotBasic\n        BallotBasic storage _ballot = ballotBasicMap[_ballotId];\n        //2.   \n        hasVotedMap[_ballotId][_voter] = true;\n        //3. update totalVoters\n        _ballot.totalVoters = _ballot.totalVoters.add(1);\n        //4. Update power of accept/reject\n        if (_decision == uint256(DecisionTypes.Accept)){\n            _ballot.powerOfAccepts = _ballot.powerOfAccepts.add(_power);\n        } else {\n            _ballot.powerOfRejects = _ballot.powerOfRejects.add(_power);\n        }\n    }\n\n    // finalize ballot info.\n    function finalizeBallot(uint256 _ballotId, uint256 _ballotState) public onlyGov {\n        require(ballotBasicMap[_ballotId].id == _ballotId, \"not existed Ballot\");\n        require(ballotBasicMap[_ballotId].isFinalized == false, \"already finalized\");\n        require((_ballotState == uint256(BallotStates.Accepted)) || (_ballotState == uint256(BallotStates.Rejected)), \"Invalid Ballot State\");\n\n        BallotBasic storage _ballot = ballotBasicMap[_ballotId];\n        _ballot.state = _ballotState;\n        _ballot.isFinalized = true;\n        emit BallotFinalized (_ballotId,_ballotState);\n    }\n\n    function hasAlreadyVoted(uint56 _ballotId, address _voter) public view returns (bool) {\n        return hasVotedMap[_ballotId][_voter];\n    }\n\n    //start/end /state \n    function startBallot(\n        uint256 _ballotId,\n        uint256 _startTime,\n        uint256 _endTime\n    )\n        public\n        onlyGov\n        onlyValidTime(_startTime,_endTime)\n    {\n        require(ballotBasicMap[_ballotId].id == _ballotId, \"not existed Ballot\");\n        require(ballotBasicMap[_ballotId].isFinalized == false, \"already finalized\");\n        require(ballotBasicMap[_ballotId].state == uint256(BallotStates.Ready), \"Not Ready State\");\n        BallotBasic storage _ballot = ballotBasicMap[_ballotId];\n        _ballot.startTime = _startTime;\n        _ballot.endTime = _endTime;\n        _ballot.state = uint256(BallotStates.InProgress);\n        emit BallotStarted(_ballotId, _startTime, _endTime);\n    }\n    function updateBallotMemo(\n        uint256 _ballotId,\n        bytes _memo\n    ) public onlyGov\n    {\n        require(ballotBasicMap[_ballotId].id == _ballotId, \"not existed Ballot\");\n        require(ballotBasicMap[_ballotId].isFinalized == false, \"already finalized\");\n        BallotBasic storage _ballot = ballotBasicMap[_ballotId];\n        _ballot.memo = _memo;\n    }\n    function updateBallotDuration(\n        uint256 _ballotId,\n        uint256 _duration\n    ) public onlyGov\n    {\n        require(ballotBasicMap[_ballotId].id == _ballotId, \"not existed Ballot\");\n        require(ballotBasicMap[_ballotId].isFinalized == false, \"already finalized\");\n        require(ballotBasicMap[_ballotId].state == uint256(BallotStates.Ready), \"Not Ready State\");\n        BallotBasic storage _ballot = ballotBasicMap[_ballotId];\n        _ballot.duration = _duration;\n    }\n\n    function getBallotPeriod (uint256 _id) public view returns (\n        uint256 startTime,\n        uint256 endTime,\n        uint256 duration\n    )\n    {\n        BallotBasic memory tBallot = ballotBasicMap[_id];\n        startTime = tBallot.startTime;\n        endTime = tBallot.endTime; \n        duration = tBallot.duration;\n    }\n    function getBallotVotingInfo(uint256 _id) public view returns (\n        uint256 totalVoters,\n        uint256 powerOfAccepts,\n        uint256 powerOfRejects\n\n    )\n    {\n        BallotBasic memory tBallot = ballotBasicMap[_id];\n        totalVoters = tBallot.totalVoters;\n        powerOfAccepts = tBallot.powerOfAccepts;\n        powerOfRejects = tBallot.powerOfRejects;        \n    }\n    function getBallotState(uint256 _id) public view returns (\n        uint256 ballotType,\n        uint256 state,\n        bool isFinalized\n    )\n    {\n        BallotBasic memory tBallot = ballotBasicMap[_id];\n        ballotType = tBallot.ballotType;\n        state = tBallot.state;\n        isFinalized = tBallot.isFinalized;\n    }\n}",
  "sourcePath": "/Users/ywshin/Documents/WS/truffle/governance-contract-blueisle/contracts/storage/BallotStorage.sol",
  "compiler": {
    "name": "solc",
    "version": "0.4.24+commit.e67f0147.Emscripten.clang"
  },
  "schemaVersion": "2.0.1",
  "updatedAt": "2019-01-29T08:19:45.759Z"
}