{
  "contractName": "BallotStorage",
  "abi": [
    {
      "constant": true,
      "inputs": [],
      "name": "STAKING_NAME",
      "outputs": [
        {
          "name": "",
          "type": "bytes32"
        }
      ],
      "payable": false,
      "stateMutability": "view",
      "type": "function"
    },
    {
      "constant": true,
      "inputs": [],
      "name": "GOV_NAME",
      "outputs": [
        {
          "name": "",
          "type": "bytes32"
        }
      ],
      "payable": false,
      "stateMutability": "view",
      "type": "function"
    },
    {
      "constant": false,
      "inputs": [],
      "name": "renounceOwnership",
      "outputs": [],
      "payable": false,
      "stateMutability": "nonpayable",
      "type": "function"
    },
    {
      "constant": true,
      "inputs": [],
      "name": "reg",
      "outputs": [
        {
          "name": "",
          "type": "address"
        }
      ],
      "payable": false,
      "stateMutability": "view",
      "type": "function"
    },
    {
      "constant": true,
      "inputs": [],
      "name": "ENV_STORAGE_NAME",
      "outputs": [
        {
          "name": "",
          "type": "bytes32"
        }
      ],
      "payable": false,
      "stateMutability": "view",
      "type": "function"
    },
    {
      "constant": true,
      "inputs": [],
      "name": "owner",
      "outputs": [
        {
          "name": "",
          "type": "address"
        }
      ],
      "payable": false,
      "stateMutability": "view",
      "type": "function"
    },
    {
      "constant": true,
      "inputs": [],
      "name": "isOwner",
      "outputs": [
        {
          "name": "",
          "type": "bool"
        }
      ],
      "payable": false,
      "stateMutability": "view",
      "type": "function"
    },
    {
      "constant": true,
      "inputs": [],
      "name": "BALLOT_STORAGE_NAME",
      "outputs": [
        {
          "name": "",
          "type": "bytes32"
        }
      ],
      "payable": false,
      "stateMutability": "view",
      "type": "function"
    },
    {
      "constant": false,
      "inputs": [
        {
          "name": "_addr",
          "type": "address"
        }
      ],
      "name": "setRegistry",
      "outputs": [],
      "payable": false,
      "stateMutability": "nonpayable",
      "type": "function"
    },
    {
      "constant": false,
      "inputs": [
        {
          "name": "newOwner",
          "type": "address"
        }
      ],
      "name": "transferOwnership",
      "outputs": [],
      "payable": false,
      "stateMutability": "nonpayable",
      "type": "function"
    },
    {
      "inputs": [
        {
          "name": "_registry",
          "type": "address"
        }
      ],
      "payable": false,
      "stateMutability": "nonpayable",
      "type": "constructor"
    },
    {
      "anonymous": false,
      "inputs": [
        {
          "indexed": true,
          "name": "ballotId",
          "type": "uint256"
        },
        {
          "indexed": true,
          "name": "ballotType",
          "type": "uint256"
        },
        {
          "indexed": true,
          "name": "creator",
          "type": "address"
        }
      ],
      "name": "BallotCreated",
      "type": "event"
    },
    {
      "anonymous": false,
      "inputs": [
        {
          "indexed": true,
          "name": "ballotId",
          "type": "uint256"
        },
        {
          "indexed": true,
          "name": "startTime",
          "type": "uint256"
        },
        {
          "indexed": true,
          "name": "endTime",
          "type": "uint256"
        }
      ],
      "name": "BallotStarted",
      "type": "event"
    },
    {
      "anonymous": false,
      "inputs": [
        {
          "indexed": true,
          "name": "voteid",
          "type": "uint256"
        },
        {
          "indexed": true,
          "name": "ballotId",
          "type": "uint256"
        },
        {
          "indexed": true,
          "name": "voter",
          "type": "address"
        },
        {
          "indexed": false,
          "name": "decision",
          "type": "uint256"
        }
      ],
      "name": "Voted",
      "type": "event"
    },
    {
      "anonymous": false,
      "inputs": [
        {
          "indexed": true,
          "name": "ballotId",
          "type": "uint256"
        },
        {
          "indexed": false,
          "name": "state",
          "type": "uint256"
        }
      ],
      "name": "BallotFinalized",
      "type": "event"
    },
    {
      "anonymous": false,
      "inputs": [
        {
          "indexed": true,
          "name": "previousOwner",
          "type": "address"
        },
        {
          "indexed": true,
          "name": "newOwner",
          "type": "address"
        }
      ],
      "name": "OwnershipTransferred",
      "type": "event"
    },
    {
      "constant": true,
      "inputs": [],
      "name": "getTime",
      "outputs": [
        {
          "name": "",
          "type": "uint256"
        }
      ],
      "payable": false,
      "stateMutability": "view",
      "type": "function"
    },
    {
      "constant": true,
      "inputs": [],
      "name": "getPreviousBallotStorage",
      "outputs": [
        {
          "name": "",
          "type": "address"
        }
      ],
      "payable": false,
      "stateMutability": "view",
      "type": "function"
    },
    {
      "constant": true,
      "inputs": [],
      "name": "isDisabled",
      "outputs": [
        {
          "name": "",
          "type": "bool"
        }
      ],
      "payable": false,
      "stateMutability": "view",
      "type": "function"
    },
    {
      "constant": true,
      "inputs": [
        {
          "name": "_id",
          "type": "uint256"
        }
      ],
      "name": "getBallotBasic",
      "outputs": [
        {
          "name": "startTime",
          "type": "uint256"
        },
        {
          "name": "endTime",
          "type": "uint256"
        },
        {
          "name": "ballotType",
          "type": "uint256"
        },
        {
          "name": "creator",
          "type": "address"
        },
        {
          "name": "memo",
          "type": "bytes"
        },
        {
          "name": "totalVoters",
          "type": "uint256"
        },
        {
          "name": "powerOfAccepts",
          "type": "uint256"
        },
        {
          "name": "powerOfRejects",
          "type": "uint256"
        },
        {
          "name": "state",
          "type": "uint256"
        },
        {
          "name": "isFinalized",
          "type": "bool"
        },
        {
          "name": "duration",
          "type": "uint256"
        }
      ],
      "payable": false,
      "stateMutability": "view",
      "type": "function"
    },
    {
      "constant": true,
      "inputs": [
        {
          "name": "_id",
          "type": "uint256"
        }
      ],
      "name": "getBallotMember",
      "outputs": [
        {
          "name": "oldMemeberAddress",
          "type": "address"
        },
        {
          "name": "newMemeberAddress",
          "type": "address"
        },
        {
          "name": "newNodeId",
          "type": "bytes"
        },
        {
          "name": "newNodeIp",
          "type": "bytes"
        },
        {
          "name": "newNodePort",
          "type": "uint256"
        },
        {
          "name": "lockAmount",
          "type": "uint256"
        }
      ],
      "payable": false,
      "stateMutability": "view",
      "type": "function"
    },
    {
      "constant": true,
      "inputs": [
        {
          "name": "_id",
          "type": "uint256"
        }
      ],
      "name": "getBallotAddress",
      "outputs": [
        {
          "name": "newGovernanceAddress",
          "type": "address"
        }
      ],
      "payable": false,
      "stateMutability": "view",
      "type": "function"
    },
    {
      "constant": true,
      "inputs": [
        {
          "name": "_id",
          "type": "uint256"
        }
      ],
      "name": "getBallotVariable",
      "outputs": [
        {
          "name": "envVariableName",
          "type": "bytes32"
        },
        {
          "name": "envVariableType",
          "type": "uint256"
        },
        {
          "name": "envVariableValue",
          "type": "bytes"
        }
      ],
      "payable": false,
      "stateMutability": "view",
      "type": "function"
    },
    {
      "constant": false,
      "inputs": [
        {
          "name": "_address",
          "type": "address"
        }
      ],
      "name": "setPreviousBallotStorage",
      "outputs": [],
      "payable": false,
      "stateMutability": "nonpayable",
      "type": "function"
    },
    {
      "constant": false,
      "inputs": [
        {
          "name": "_id",
          "type": "uint256"
        },
        {
          "name": "_ballotType",
          "type": "uint256"
        },
        {
          "name": "_creator",
          "type": "address"
        },
        {
          "name": "_oldMemeberAddress",
          "type": "address"
        },
        {
          "name": "_newMemeberAddress",
          "type": "address"
        },
        {
          "name": "_newNodeId",
          "type": "bytes"
        },
        {
          "name": "_newNodeIp",
          "type": "bytes"
        },
        {
          "name": "_newNodePort",
          "type": "uint256"
        }
      ],
      "name": "createBallotForMemeber",
      "outputs": [],
      "payable": false,
      "stateMutability": "nonpayable",
      "type": "function"
    },
    {
      "constant": false,
      "inputs": [
        {
          "name": "_id",
          "type": "uint256"
        },
        {
          "name": "_ballotType",
          "type": "uint256"
        },
        {
          "name": "_creator",
          "type": "address"
        },
        {
          "name": "_newGovernanceAddress",
          "type": "address"
        }
      ],
      "name": "createBallotForAddress",
      "outputs": [
        {
          "name": "",
          "type": "uint256"
        }
      ],
      "payable": false,
      "stateMutability": "nonpayable",
      "type": "function"
    },
    {
      "constant": false,
      "inputs": [
        {
          "name": "_id",
          "type": "uint256"
        },
        {
          "name": "_ballotType",
          "type": "uint256"
        },
        {
          "name": "_creator",
          "type": "address"
        },
        {
          "name": "_envVariableName",
          "type": "bytes32"
        },
        {
          "name": "_envVariableType",
          "type": "uint256"
        },
        {
          "name": "_envVariableValue",
          "type": "bytes"
        }
      ],
      "name": "createBallotForVariable",
      "outputs": [
        {
          "name": "",
          "type": "uint256"
        }
      ],
      "payable": false,
      "stateMutability": "nonpayable",
      "type": "function"
    },
    {
      "constant": false,
      "inputs": [
        {
          "name": "_voteId",
          "type": "uint256"
        },
        {
          "name": "_ballotId",
          "type": "uint256"
        },
        {
          "name": "_voter",
          "type": "address"
        },
        {
          "name": "_decision",
          "type": "uint256"
        },
        {
          "name": "_power",
          "type": "uint256"
        }
      ],
      "name": "createVote",
      "outputs": [
        {
          "name": "",
          "type": "uint256"
        }
      ],
      "payable": false,
      "stateMutability": "nonpayable",
      "type": "function"
    },
    {
      "constant": false,
      "inputs": [
        {
          "name": "_ballotId",
          "type": "uint256"
        },
        {
          "name": "_startTime",
          "type": "uint256"
        },
        {
          "name": "_endTime",
          "type": "uint256"
        }
      ],
      "name": "startBallot",
      "outputs": [],
      "payable": false,
      "stateMutability": "nonpayable",
      "type": "function"
    },
    {
      "constant": false,
      "inputs": [
        {
          "name": "_ballotId",
          "type": "uint256"
        },
        {
          "name": "_memo",
          "type": "bytes"
        }
      ],
      "name": "updateBallotMemo",
      "outputs": [],
      "payable": false,
      "stateMutability": "nonpayable",
      "type": "function"
    },
    {
      "constant": false,
      "inputs": [
        {
          "name": "_ballotId",
          "type": "uint256"
        },
        {
          "name": "_duration",
          "type": "uint256"
        }
      ],
      "name": "updateBallotDuration",
      "outputs": [],
      "payable": false,
      "stateMutability": "nonpayable",
      "type": "function"
    },
    {
      "constant": false,
      "inputs": [
        {
          "name": "_ballotId",
          "type": "uint256"
        },
        {
          "name": "_lockAmount",
          "type": "uint256"
        }
      ],
      "name": "updateBallotMemberLockAmount",
      "outputs": [],
      "payable": false,
      "stateMutability": "nonpayable",
      "type": "function"
    },
    {
      "constant": false,
      "inputs": [
        {
          "name": "_ballotId",
          "type": "uint256"
        },
        {
          "name": "_ballotState",
          "type": "uint256"
        }
      ],
      "name": "finalizeBallot",
      "outputs": [],
      "payable": false,
      "stateMutability": "nonpayable",
      "type": "function"
    },
    {
      "constant": true,
      "inputs": [
        {
          "name": "_ballotId",
          "type": "uint56"
        },
        {
          "name": "_voter",
          "type": "address"
        }
      ],
      "name": "hasAlreadyVoted",
      "outputs": [
        {
          "name": "",
          "type": "bool"
        }
      ],
      "payable": false,
      "stateMutability": "view",
      "type": "function"
    },
    {
      "constant": true,
      "inputs": [
        {
          "name": "_voteId",
          "type": "uint256"
        }
      ],
      "name": "getVote",
      "outputs": [
        {
          "name": "voteId",
          "type": "uint256"
        },
        {
          "name": "ballotId",
          "type": "uint256"
        },
        {
          "name": "voter",
          "type": "address"
        },
        {
          "name": "decision",
          "type": "uint256"
        },
        {
          "name": "power",
          "type": "uint256"
        },
        {
          "name": "time",
          "type": "uint256"
        }
      ],
      "payable": false,
      "stateMutability": "view",
      "type": "function"
    },
    {
      "constant": true,
      "inputs": [
        {
          "name": "_id",
          "type": "uint256"
        }
      ],
      "name": "getBallotPeriod",
      "outputs": [
        {
          "name": "startTime",
          "type": "uint256"
        },
        {
          "name": "endTime",
          "type": "uint256"
        },
        {
          "name": "duration",
          "type": "uint256"
        }
      ],
      "payable": false,
      "stateMutability": "view",
      "type": "function"
    },
    {
      "constant": true,
      "inputs": [
        {
          "name": "_id",
          "type": "uint256"
        }
      ],
      "name": "getBallotVotingInfo",
      "outputs": [
        {
          "name": "totalVoters",
          "type": "uint256"
        },
        {
          "name": "powerOfAccepts",
          "type": "uint256"
        },
        {
          "name": "powerOfRejects",
          "type": "uint256"
        }
      ],
      "payable": false,
      "stateMutability": "view",
      "type": "function"
    },
    {
      "constant": true,
      "inputs": [
        {
          "name": "_id",
          "type": "uint256"
        }
      ],
      "name": "getBallotState",
      "outputs": [
        {
          "name": "ballotType",
          "type": "uint256"
        },
        {
          "name": "state",
          "type": "uint256"
        },
        {
          "name": "isFinalized",
          "type": "bool"
        }
      ],
      "payable": false,
      "stateMutability": "view",
      "type": "function"
    }
  ],
  "bytecode": "0x60806040523480156200001157600080fd5b50604051602080620057d483398101806040528101908080519060200190929190505050336000806101000a81548173ffffffffffffffffffffffffffffffffffffffff021916908373ffffffffffffffffffffffffffffffffffffffff1602179055506000809054906101000a900473ffffffffffffffffffffffffffffffffffffffff1673ffffffffffffffffffffffffffffffffffffffff16600073ffffffffffffffffffffffffffffffffffffffff167f8be0079c531659141344cd1fd0a4f28419497f9722a3daafe3b4186f6b6457e060405160405180910390a36200010b8162000112640100000000026401000000009004565b50620001d2565b6200012b6200017b640100000000026401000000009004565b15156200013757600080fd5b80600160006101000a81548173ffffffffffffffffffffffffffffffffffffffff021916908373ffffffffffffffffffffffffffffffffffffffff16021790555050565b60008060009054906101000a900473ffffffffffffffffffffffffffffffffffffffff1673ffffffffffffffffffffffffffffffffffffffff163373ffffffffffffffffffffffffffffffffffffffff1614905090565b6155f280620001e26000396000f300608060405260043610610196576000357c0100000000000000000000000000000000000000000000000000000000900463ffffffff16806302b385fb1461019b57806309970688146102b75780631d940da2146103065780631e0cba0d146103c25780632a74f38c146103f55780634a4af01314610438578063557ed1ba146104c357806356ba988e146104ee5780635a55c1f01461053d578063656bc633146105cd578063688ca5b2146106045780636c57f5a9146106575780636c78d2cf14610686578063715018a6146106b957806372d0ec92146106d0578063738fdd1a1461070757806373df4e011461075e5780637bf46530146108e45780637efa9ae3146109175780637f5b7ab3146109845780638da5cb5b14610a4d5780638f32d59b14610aa457806396462b9c14610ad35780639986e4b914610b5257806399e929a314610b85578063a91e59ba14610cb2578063a91ee0dc14610ce9578063b23c676c14610d2c578063bce0dbc114610d83578063c0b6f18614610df6578063f2fde38b14610e37578063f680e55514610e7a575b600080fd5b3480156101a757600080fd5b506101c660048036038101908080359060200190929190505050610ee8565b604051808c81526020018b81526020018a81526020018973ffffffffffffffffffffffffffffffffffffffff1673ffffffffffffffffffffffffffffffffffffffff1681526020018060200188815260200187815260200186815260200185815260200184151515158152602001838152602001828103825289818151815260200191508051906020019080838360005b83811015610272578082015181840152602081019050610257565b50505050905090810190601f16801561029f5780820380516001836020036101000a031916815260200191505b509c5050505050505050505050505060405180910390f35b3480156102c357600080fd5b506102e2600480360381019080803590602001909291905050506110f1565b60405180848152602001838152602001828152602001935050505060405180910390f35b34801561031257600080fd5b50610331600480360381019080803590602001909291905050506112ab565b60405180846000191660001916815260200183815260200180602001828103825283818151815260200191508051906020019080838360005b8381101561038557808201518184015260208101905061036a565b50505050905090810190601f1680156103b25780820380516001836020036101000a031916815260200191505b5094505050505060405180910390f35b3480156103ce57600080fd5b506103d761137c565b60405180826000191660001916815260200191505060405180910390f35b34801561040157600080fd5b50610436600480360381019080803573ffffffffffffffffffffffffffffffffffffffff1690602001909291905050506113a0565b005b34801561044457600080fd5b506104ad6004803603810190808035906020019092919080359060200190929190803573ffffffffffffffffffffffffffffffffffffffff169060200190929190803573ffffffffffffffffffffffffffffffffffffffff16906020019092919050505061149c565b6040518082815260200191505060405180910390f35b3480156104cf57600080fd5b506104d8611804565b6040518082815260200191505060405180910390f35b3480156104fa57600080fd5b506105196004803603810190808035906020019092919050505061180c565b60405180848152602001838152602001828152602001935050505060405180910390f35b34801561054957600080fd5b50610568600480360381019080803590602001909291905050506119c6565b604051808781526020018681526020018573ffffffffffffffffffffffffffffffffffffffff1673ffffffffffffffffffffffffffffffffffffffff168152602001848152602001838152602001828152602001965050505050505060405180910390f35b3480156105d957600080fd5b506106026004803603810190808035906020019092919080359060200190929190505050611b41565b005b34801561061057600080fd5b5061062f60048036038101908080359060200190929190505050611ea0565b6040518084815260200183815260200182151515158152602001935050505060405180910390f35b34801561066357600080fd5b5061066c61205b565b604051808215151515815260200191505060405180910390f35b34801561069257600080fd5b5061069b612099565b60405180826000191660001916815260200191505060405180910390f35b3480156106c557600080fd5b506106ce6120bd565b005b3480156106dc57600080fd5b50610705600480360381019080803590602001909291908035906020019092919050505061218f565b005b34801561071357600080fd5b5061071c61257b565b604051808273ffffffffffffffffffffffffffffffffffffffff1673ffffffffffffffffffffffffffffffffffffffff16815260200191505060405180910390f35b34801561076a57600080fd5b50610789600480360381019080803590602001909291905050506125a1565b604051808773ffffffffffffffffffffffffffffffffffffffff1673ffffffffffffffffffffffffffffffffffffffff1681526020018673ffffffffffffffffffffffffffffffffffffffff1673ffffffffffffffffffffffffffffffffffffffff1681526020018060200180602001858152602001848152602001838103835287818151815260200191508051906020019080838360005b8381101561083d578082015181840152602081019050610822565b50505050905090810190601f16801561086a5780820380516001836020036101000a031916815260200191505b50838103825286818151815260200191508051906020019080838360005b838110156108a3578082015181840152602081019050610888565b50505050905090810190601f1680156108d05780820380516001836020036101000a031916815260200191505b509850505050505050505060405180910390f35b3480156108f057600080fd5b506108f9612765565b60405180826000191660001916815260200191505060405180910390f35b34801561092357600080fd5b5061094260048036038101908080359060200190929190505050612789565b604051808273ffffffffffffffffffffffffffffffffffffffff1673ffffffffffffffffffffffffffffffffffffffff16815260200191505060405180910390f35b34801561099057600080fd5b50610a376004803603810190808035906020019092919080359060200190929190803573ffffffffffffffffffffffffffffffffffffffff169060200190929190803560001916906020019092919080359060200190929190803590602001908201803590602001908080601f01602080910402602001604051908101604052809392919081815260200183838082843782019150505050505091929192905050506127ce565b6040518082815260200191505060405180910390f35b348015610a5957600080fd5b50610a62612a6f565b604051808273ffffffffffffffffffffffffffffffffffffffff1673ffffffffffffffffffffffffffffffffffffffff16815260200191505060405180910390f35b348015610ab057600080fd5b50610ab9612a98565b604051808215151515815260200191505060405180910390f35b348015610adf57600080fd5b50610b3c6004803603810190808035906020019092919080359060200190929190803573ffffffffffffffffffffffffffffffffffffffff1690602001909291908035906020019092919080359060200190929190505050612aef565b6040518082815260200191505060405180910390f35b348015610b5e57600080fd5b50610b676130c5565b60405180826000191660001916815260200191505060405180910390f35b348015610b9157600080fd5b50610cb06004803603810190808035906020019092919080359060200190929190803573ffffffffffffffffffffffffffffffffffffffff169060200190929190803573ffffffffffffffffffffffffffffffffffffffff169060200190929190803573ffffffffffffffffffffffffffffffffffffffff169060200190929190803590602001908201803590602001908080601f0160208091040260200160405190810160405280939291908181526020018383808284378201915050505050509192919290803590602001908201803590602001908080601f0160208091040260200160405190810160405280939291908181526020018383808284378201915050505050509192919290803590602001909291905050506130e9565b005b348015610cbe57600080fd5b50610ce76004803603810190808035906020019092919080359060200190929190505050613491565b005b348015610cf557600080fd5b50610d2a600480360381019080803573ffffffffffffffffffffffffffffffffffffffff169060200190929190505050613844565b005b348015610d3857600080fd5b50610d4161389b565b604051808273ffffffffffffffffffffffffffffffffffffffff1673ffffffffffffffffffffffffffffffffffffffff16815260200191505060405180910390f35b348015610d8f57600080fd5b50610df460048036038101908080359060200190929190803590602001908201803590602001908080601f01602080910402602001604051908101604052809392919081815260200183838082843782019150505050505091929192905050506138c5565b005b348015610e0257600080fd5b50610e35600480360381019080803590602001909291908035906020019092919080359060200190929190505050613b9b565b005b348015610e4357600080fd5b50610e78600480360381019080803573ffffffffffffffffffffffffffffffffffffffff169060200190929190505050614047565b005b348015610e8657600080fd5b50610ece600480360381019080803566ffffffffffffff169060200190929190803573ffffffffffffffffffffffffffffffffffffffff169060200190929190505050614066565b604051808215151515815260200191505060405180910390f35b6000806000806060600080600080600080610f01615314565b600260008e81526020019081526020016000206101806040519081016040529081600082015481526020016001820154815260200160028201548152602001600382015481526020016004820160009054906101000a900473ffffffffffffffffffffffffffffffffffffffff1673ffffffffffffffffffffffffffffffffffffffff1673ffffffffffffffffffffffffffffffffffffffff168152602001600582018054600181600116156101000203166002900480601f0160208091040260200160405190810160405280929190818152602001828054600181600116156101000203166002900480156110385780601f1061100d57610100808354040283529160200191611038565b820191906000526020600020905b81548152906001019060200180831161101b57829003601f168201915b5050505050815260200160068201548152602001600782015481526020016008820154815260200160098201548152602001600a820160009054906101000a900460ff16151515158152602001600b82015481525050905080602001519b5080604001519a5080606001519950806080015198508060a0015197508060c0015196508060e00151955080610100015194508061012001519350806101400151925080610160015191505091939597999b90929496989a50565b60008060006110fe615314565b600260008681526020019081526020016000206101806040519081016040529081600082015481526020016001820154815260200160028201548152602001600382015481526020016004820160009054906101000a900473ffffffffffffffffffffffffffffffffffffffff1673ffffffffffffffffffffffffffffffffffffffff1673ffffffffffffffffffffffffffffffffffffffff168152602001600582018054600181600116156101000203166002900480601f0160208091040260200160405190810160405280929190818152602001828054600181600116156101000203166002900480156112355780601f1061120a57610100808354040283529160200191611235565b820191906000526020600020905b81548152906001019060200180831161121857829003601f168201915b5050505050815260200160068201548152602001600782015481526020016008820154815260200160098201548152602001600a820160009054906101000a900460ff16151515158152602001600b82015481525050905080602001519350806040015192508061016001519150509193909250565b600080606060006005600086815260200190815260200160002090508060010154935080600201549250806003018054600181600116156101000203166002900480601f01602080910402602001604051908101604052809291908181526020018280546001816001161561010002031660029004801561136d5780601f106113425761010080835404028352916020019161136d565b820191906000526020600020905b81548152906001019060200180831161135057829003601f168201915b50505050509150509193909250565b7f5374616b696e670000000000000000000000000000000000000000000000000081565b6113a8612a98565b15156113b357600080fd5b600073ffffffffffffffffffffffffffffffffffffffff168173ffffffffffffffffffffffffffffffffffffffff1614151515611458576040517f08c379a000000000000000000000000000000000000000000000000000000000815260040180806020018281038252600f8152602001807f496e76616c69642061646472657373000000000000000000000000000000000081525060200191505060405180910390fd5b80600860006101000a81548173ffffffffffffffffffffffffffffffffffffffff021916908373ffffffffffffffffffffffffffffffffffffffff16021790555050565b60006114a661538e565b3373ffffffffffffffffffffffffffffffffffffffff166114e67f476f7665726e616e6365436f6e747261637400000000000000000000000000006140d7565b73ffffffffffffffffffffffffffffffffffffffff16141515611571576040517f08c379a000000000000000000000000000000000000000000000000000000000815260040180806020018281038252600d8152602001807f4e6f205065726d697373696f6e0000000000000000000000000000000000000081525060200191505060405180910390fd5b6115796141b4565b73ffffffffffffffffffffffffffffffffffffffff163073ffffffffffffffffffffffffffffffffffffffff1614151561161b576040517f08c379a000000000000000000000000000000000000000000000000000000000815260040180806020018281038252600b8152602001807f49732044697361626c656400000000000000000000000000000000000000000081525060200191505060405180910390fd5b6004600581111561162857fe5b8514151561169e576040517f08c379a00000000000000000000000000000000000000000000000000000000081526004018080602001828103825260138152602001807f496e76616c69642042616c6c6f7420547970650000000000000000000000000081525060200191505060405180910390fd5b600073ffffffffffffffffffffffffffffffffffffffff168373ffffffffffffffffffffffffffffffffffffffff1614151515611743576040517f08c379a00000000000000000000000000000000000000000000000000000000081526004018080602001828103825260118152602001807f496e76616c696420506172616d6574657200000000000000000000000000000081525060200191505060405180910390fd5b61174e8686866141e4565b8581600001818152505082816020019073ffffffffffffffffffffffffffffffffffffffff16908173ffffffffffffffffffffffffffffffffffffffff168152505080600460008881526020019081526020016000206000820151816000015560208201518160010160006101000a81548173ffffffffffffffffffffffffffffffffffffffff021916908373ffffffffffffffffffffffffffffffffffffffff16021790555090505085915050949350505050565b600042905090565b6000806000611819615314565b600260008681526020019081526020016000206101806040519081016040529081600082015481526020016001820154815260200160028201548152602001600382015481526020016004820160009054906101000a900473ffffffffffffffffffffffffffffffffffffffff1673ffffffffffffffffffffffffffffffffffffffff1673ffffffffffffffffffffffffffffffffffffffff168152602001600582018054600181600116156101000203166002900480601f0160208091040260200160405190810160405280929190818152602001828054600181600116156101000203166002900480156119505780601f1061192557610100808354040283529160200191611950565b820191906000526020600020905b81548152906001019060200180831161193357829003601f168201915b5050505050815260200160068201548152602001600782015481526020016008820154815260200160098201548152602001600a820160009054906101000a900460ff16151515158152602001600b8201548152505090508060c0015193508060e0015192508061010001519150509193909250565b6000806000806000806119d76153be565b87600660008a815260200190815260200160002060000154141515611a64576040517f08c379a00000000000000000000000000000000000000000000000000000000081526004018080602001828103825260128152602001807f6e6f74206578697374656420766f74654964000000000000000000000000000081525060200191505060405180910390fd5b6006600089815260200190815260200160002060c0604051908101604052908160008201548152602001600182015481526020016002820160009054906101000a900473ffffffffffffffffffffffffffffffffffffffff1673ffffffffffffffffffffffffffffffffffffffff1673ffffffffffffffffffffffffffffffffffffffff1681526020016003820154815260200160048201548152602001600582015481525050905080600001519650806020015195508060400151945080606001519350806080015192508060a0015191505091939550919395565b60003373ffffffffffffffffffffffffffffffffffffffff16611b837f476f7665726e616e6365436f6e747261637400000000000000000000000000006140d7565b73ffffffffffffffffffffffffffffffffffffffff16141515611c0e576040517f08c379a000000000000000000000000000000000000000000000000000000000815260040180806020018281038252600d8152602001807f4e6f205065726d697373696f6e0000000000000000000000000000000000000081525060200191505060405180910390fd5b611c166141b4565b73ffffffffffffffffffffffffffffffffffffffff163073ffffffffffffffffffffffffffffffffffffffff16141515611cb8576040517f08c379a000000000000000000000000000000000000000000000000000000000815260040180806020018281038252600b8152602001807f49732044697361626c656400000000000000000000000000000000000000000081525060200191505060405180910390fd5b826002600085815260200190815260200160002060000154141515611d45576040517f08c379a00000000000000000000000000000000000000000000000000000000081526004018080602001828103825260128152602001807f6e6f7420657869737465642042616c6c6f74000000000000000000000000000081525060200191505060405180910390fd5b6000151560026000858152602001908152602001600020600a0160009054906101000a900460ff161515141515611de4576040517f08c379a00000000000000000000000000000000000000000000000000000000081526004018080602001828103825260118152602001807f616c72656164792066696e616c697a656400000000000000000000000000000081525060200191505060405180910390fd5b60016004811115611df157fe5b6002600085815260200190815260200160002060090154141515611e7d576040517f08c379a000000000000000000000000000000000000000000000000000000000815260040180806020018281038252600f8152602001807f4e6f74205265616479205374617465000000000000000000000000000000000081525060200191505060405180910390fd5b6002600084815260200190815260200160002090508181600b0181905550505050565b6000806000611ead615314565b600260008681526020019081526020016000206101806040519081016040529081600082015481526020016001820154815260200160028201548152602001600382015481526020016004820160009054906101000a900473ffffffffffffffffffffffffffffffffffffffff1673ffffffffffffffffffffffffffffffffffffffff1673ffffffffffffffffffffffffffffffffffffffff168152602001600582018054600181600116156101000203166002900480601f016020809104026020016040519081016040528092919081815260200182805460018160011615610100020316600290048015611fe45780601f10611fb957610100808354040283529160200191611fe4565b820191906000526020600020905b815481529060010190602001808311611fc757829003601f168201915b5050505050815260200160068201548152602001600782015481526020016008820154815260200160098201548152602001600a820160009054906101000a900460ff16151515158152602001600b8201548152505090508060600151935080610120015192508061014001519150509193909250565b60006120656141b4565b73ffffffffffffffffffffffffffffffffffffffff163073ffffffffffffffffffffffffffffffffffffffff161415905090565b7f476f7665726e616e6365436f6e7472616374000000000000000000000000000081565b6120c5612a98565b15156120d057600080fd5b600073ffffffffffffffffffffffffffffffffffffffff166000809054906101000a900473ffffffffffffffffffffffffffffffffffffffff1673ffffffffffffffffffffffffffffffffffffffff167f8be0079c531659141344cd1fd0a4f28419497f9722a3daafe3b4186f6b6457e060405160405180910390a360008060006101000a81548173ffffffffffffffffffffffffffffffffffffffff021916908373ffffffffffffffffffffffffffffffffffffffff160217905550565b60003373ffffffffffffffffffffffffffffffffffffffff166121d17f476f7665726e616e6365436f6e747261637400000000000000000000000000006140d7565b73ffffffffffffffffffffffffffffffffffffffff1614151561225c576040517f08c379a000000000000000000000000000000000000000000000000000000000815260040180806020018281038252600d8152602001807f4e6f205065726d697373696f6e0000000000000000000000000000000000000081525060200191505060405180910390fd5b6122646141b4565b73ffffffffffffffffffffffffffffffffffffffff163073ffffffffffffffffffffffffffffffffffffffff16141515612306576040517f08c379a000000000000000000000000000000000000000000000000000000000815260040180806020018281038252600b8152602001807f49732044697361626c656400000000000000000000000000000000000000000081525060200191505060405180910390fd5b826002600085815260200190815260200160002060000154141515612393576040517f08c379a00000000000000000000000000000000000000000000000000000000081526004018080602001828103825260128152602001807f6e6f7420657869737465642042616c6c6f74000000000000000000000000000081525060200191505060405180910390fd5b826003600085815260200190815260200160002060000154141515612420576040517f08c379a00000000000000000000000000000000000000000000000000000000081526004018080602001828103825260188152602001807f6e6f7420657869737465642042616c6c6f744d656d626572000000000000000081525060200191505060405180910390fd5b6000151560026000858152602001908152602001600020600a0160009054906101000a900460ff1615151415156124bf576040517f08c379a00000000000000000000000000000000000000000000000000000000081526004018080602001828103825260118152602001807f616c72656164792066696e616c697a656400000000000000000000000000000081525060200191505060405180910390fd5b600160048111156124cc57fe5b6002600085815260200190815260200160002060090154141515612558576040517f08c379a000000000000000000000000000000000000000000000000000000000815260040180806020018281038252600f8152602001807f4e6f74205265616479205374617465000000000000000000000000000000000081525060200191505060405180910390fd5b600360008481526020019081526020016000209050818160060181905550505050565b600160009054906101000a900473ffffffffffffffffffffffffffffffffffffffff1681565b60008060608060008060006003600089815260200190815260200160002090508060010160009054906101000a900473ffffffffffffffffffffffffffffffffffffffff1696508060020160009054906101000a900473ffffffffffffffffffffffffffffffffffffffff169550806003018054600181600116156101000203166002900480601f0160208091040260200160405190810160405280929190818152602001828054600181600116156101000203166002900480156126a75780601f1061267c576101008083540402835291602001916126a7565b820191906000526020600020905b81548152906001019060200180831161268a57829003601f168201915b50505050509450806004018054600181600116156101000203166002900480601f0160208091040260200160405190810160405280929190818152602001828054600181600116156101000203166002900480156127465780601f1061271b57610100808354040283529160200191612746565b820191906000526020600020905b81548152906001019060200180831161272957829003601f168201915b5050505050935080600501549250806006015491505091939550919395565b7f456e7653746f726167650000000000000000000000000000000000000000000081565b6000806004600084815260200190815260200160002090508060010160009054906101000a900473ffffffffffffffffffffffffffffffffffffffff16915050919050565b60006127d861540b565b3373ffffffffffffffffffffffffffffffffffffffff166128187f476f7665726e616e6365436f6e747261637400000000000000000000000000006140d7565b73ffffffffffffffffffffffffffffffffffffffff161415156128a3576040517f08c379a000000000000000000000000000000000000000000000000000000000815260040180806020018281038252600d8152602001807f4e6f205065726d697373696f6e0000000000000000000000000000000000000081525060200191505060405180910390fd5b6128ab6141b4565b73ffffffffffffffffffffffffffffffffffffffff163073ffffffffffffffffffffffffffffffffffffffff1614151561294d576040517f08c379a000000000000000000000000000000000000000000000000000000000815260040180806020018281038252600b8152602001807f49732044697361626c656400000000000000000000000000000000000000000081525060200191505060405180910390fd5b61295987868686614433565b15156129cd576040517f08c379a00000000000000000000000000000000000000000000000000000000081526004018080602001828103825260118152602001807f496e76616c696420506172616d6574657200000000000000000000000000000081525060200191505060405180910390fd5b6129d88888886141e4565b8781600001818152505084816020019060001916908160001916815250508381604001818152505082816060018190525080600560008a81526020019081526020016000206000820151816000015560208201518160010190600019169055604082015181600201556060820151816003019080519060200190612a5d929190615437565b50905050879150509695505050505050565b60008060009054906101000a900473ffffffffffffffffffffffffffffffffffffffff16905090565b60008060009054906101000a900473ffffffffffffffffffffffffffffffffffffffff1673ffffffffffffffffffffffffffffffffffffffff163373ffffffffffffffffffffffffffffffffffffffff1614905090565b60003373ffffffffffffffffffffffffffffffffffffffff16612b317f476f7665726e616e6365436f6e747261637400000000000000000000000000006140d7565b73ffffffffffffffffffffffffffffffffffffffff16141515612bbc576040517f08c379a000000000000000000000000000000000000000000000000000000000815260040180806020018281038252600d8152602001807f4e6f205065726d697373696f6e0000000000000000000000000000000000000081525060200191505060405180910390fd5b612bc46141b4565b73ffffffffffffffffffffffffffffffffffffffff163073ffffffffffffffffffffffffffffffffffffffff16141515612c66576040517f08c379a000000000000000000000000000000000000000000000000000000000815260040180806020018281038252600b8152602001807f49732044697361626c656400000000000000000000000000000000000000000081525060200191505060405180910390fd5b60016002811115612c7357fe5b831480612c8b5750600280811115612c8757fe5b8311155b1515612cff576040517f08c379a00000000000000000000000000000000000000000000000000000000081526004018080602001828103825260108152602001807f496e76616c6964206465636973696f6e0000000000000000000000000000000081525060200191505060405180910390fd5b846002600087815260200190815260200160002060000154141515612d8c576040517f08c379a00000000000000000000000000000000000000000000000000000000081526004018080602001828103825260128152602001807f6e6f7420657869737465642042616c6c6f74000000000000000000000000000081525060200191505060405180910390fd5b85600660008881526020019081526020016000206000015414151515612e1a576040517f08c379a00000000000000000000000000000000000000000000000000000000081526004018080602001828103825260168152602001807f616c7265616479206578697374656420766f746549640000000000000000000081525060200191505060405180910390fd5b6007600086815260200190815260200160002060008573ffffffffffffffffffffffffffffffffffffffff1673ffffffffffffffffffffffffffffffffffffffff16815260200190815260200160002060009054906101000a900460ff16151515612eed576040517f08c379a000000000000000000000000000000000000000000000000000000000815260040180806020018281038252600d8152602001807f616c726561647920766f7465640000000000000000000000000000000000000081525060200191505060405180910390fd5b60026004811115612efa57fe5b6002600087815260200190815260200160002060090154141515612f86576040517f08c379a00000000000000000000000000000000000000000000000000000000081526004018080602001828103825260148152602001807f4e6f7420496e50726f677265737320537461746500000000000000000000000081525060200191505060405180910390fd5b60c0604051908101604052808781526020018681526020018573ffffffffffffffffffffffffffffffffffffffff168152602001848152602001838152602001612fce611804565b81525060066000888152602001908152602001600020600082015181600001556020820151816001015560408201518160020160006101000a81548173ffffffffffffffffffffffffffffffffffffffff021916908373ffffffffffffffffffffffffffffffffffffffff160217905550606082015181600301556080820151816004015560a0820151816005015590505061306c85858585614757565b8373ffffffffffffffffffffffffffffffffffffffff1685877f41df84b3b467b06744e40c92613c666324e7c640ce0a41ec06efdf602d367606866040518082815260200191505060405180910390a495945050505050565b7f42616c6c6f7453746f726167650000000000000000000000000000000000000081565b6130f16154b7565b3373ffffffffffffffffffffffffffffffffffffffff166131317f476f7665726e616e6365436f6e747261637400000000000000000000000000006140d7565b73ffffffffffffffffffffffffffffffffffffffff161415156131bc576040517f08c379a000000000000000000000000000000000000000000000000000000000815260040180806020018281038252600d8152602001807f4e6f205065726d697373696f6e0000000000000000000000000000000000000081525060200191505060405180910390fd5b6131c46141b4565b73ffffffffffffffffffffffffffffffffffffffff163073ffffffffffffffffffffffffffffffffffffffff16141515613266576040517f08c379a000000000000000000000000000000000000000000000000000000000815260040180806020018281038252600b8152602001807f49732044697361626c656400000000000000000000000000000000000000000081525060200191505060405180910390fd5b613274888787878787614a54565b15156132e8576040517f08c379a00000000000000000000000000000000000000000000000000000000081526004018080602001828103825260118152602001807f496e76616c696420506172616d6574657200000000000000000000000000000081525060200191505060405180910390fd5b6132f38989896141e4565b8881600001818152505085816020019073ffffffffffffffffffffffffffffffffffffffff16908173ffffffffffffffffffffffffffffffffffffffff168152505084816040019073ffffffffffffffffffffffffffffffffffffffff16908173ffffffffffffffffffffffffffffffffffffffff1681525050838160600181905250828160800181905250818160a001818152505080600360008b81526020019081526020016000206000820151816000015560208201518160010160006101000a81548173ffffffffffffffffffffffffffffffffffffffff021916908373ffffffffffffffffffffffffffffffffffffffff16021790555060408201518160020160006101000a81548173ffffffffffffffffffffffffffffffffffffffff021916908373ffffffffffffffffffffffffffffffffffffffff1602179055506060820151816003019080519060200190613451929190615437565b50608082015181600401908051906020019061346e929190615437565b5060a0820151816005015560c08201518160060155905050505050505050505050565b60003373ffffffffffffffffffffffffffffffffffffffff166134d37f476f7665726e616e6365436f6e747261637400000000000000000000000000006140d7565b73ffffffffffffffffffffffffffffffffffffffff1614151561355e576040517f08c379a000000000000000000000000000000000000000000000000000000000815260040180806020018281038252600d8152602001807f4e6f205065726d697373696f6e0000000000000000000000000000000000000081525060200191505060405180910390fd5b6135666141b4565b73ffffffffffffffffffffffffffffffffffffffff163073ffffffffffffffffffffffffffffffffffffffff16141515613608576040517f08c379a000000000000000000000000000000000000000000000000000000000815260040180806020018281038252600b8152602001807f49732044697361626c656400000000000000000000000000000000000000000081525060200191505060405180910390fd5b826002600085815260200190815260200160002060000154141515613695576040517f08c379a00000000000000000000000000000000000000000000000000000000081526004018080602001828103825260128152602001807f6e6f7420657869737465642042616c6c6f74000000000000000000000000000081525060200191505060405180910390fd5b6000151560026000858152602001908152602001600020600a0160009054906101000a900460ff161515141515613734576040517f08c379a00000000000000000000000000000000000000000000000000000000081526004018080602001828103825260118152602001807f616c72656164792066696e616c697a656400000000000000000000000000000081525060200191505060405180910390fd5b6003600481111561374157fe5b821480613758575060048081111561375557fe5b82145b15156137cc576040517f08c379a00000000000000000000000000000000000000000000000000000000081526004018080602001828103825260148152602001807f496e76616c69642042616c6c6f7420537461746500000000000000000000000081525060200191505060405180910390fd5b600260008481526020019081526020016000209050818160090181905550600181600a0160006101000a81548160ff021916908315150217905550827fdc921f027328d7238b58d77649ebcbd0c8b1c494c66ba53dfe53e0de65f6dd9f836040518082815260200191505060405180910390a2505050565b61384c612a98565b151561385757600080fd5b80600160006101000a81548173ffffffffffffffffffffffffffffffffffffffff021916908373ffffffffffffffffffffffffffffffffffffffff16021790555050565b6000600860009054906101000a900473ffffffffffffffffffffffffffffffffffffffff16905090565b60003373ffffffffffffffffffffffffffffffffffffffff166139077f476f7665726e616e6365436f6e747261637400000000000000000000000000006140d7565b73ffffffffffffffffffffffffffffffffffffffff16141515613992576040517f08c379a000000000000000000000000000000000000000000000000000000000815260040180806020018281038252600d8152602001807f4e6f205065726d697373696f6e0000000000000000000000000000000000000081525060200191505060405180910390fd5b61399a6141b4565b73ffffffffffffffffffffffffffffffffffffffff163073ffffffffffffffffffffffffffffffffffffffff16141515613a3c576040517f08c379a000000000000000000000000000000000000000000000000000000000815260040180806020018281038252600b8152602001807f49732044697361626c656400000000000000000000000000000000000000000081525060200191505060405180910390fd5b826002600085815260200190815260200160002060000154141515613ac9576040517f08c379a00000000000000000000000000000000000000000000000000000000081526004018080602001828103825260128152602001807f6e6f7420657869737465642042616c6c6f74000000000000000000000000000081525060200191505060405180910390fd5b6000151560026000858152602001908152602001600020600a0160009054906101000a900460ff161515141515613b68576040517f08c379a00000000000000000000000000000000000000000000000000000000081526004018080602001828103825260118152602001807f616c72656164792066696e616c697a656400000000000000000000000000000081525060200191505060405180910390fd5b60026000848152602001908152602001600020905081816005019080519060200190613b95929190615521565b50505050565b60003373ffffffffffffffffffffffffffffffffffffffff16613bdd7f476f7665726e616e6365436f6e747261637400000000000000000000000000006140d7565b73ffffffffffffffffffffffffffffffffffffffff16141515613c68576040517f08c379a000000000000000000000000000000000000000000000000000000000815260040180806020018281038252600d8152602001807f4e6f205065726d697373696f6e0000000000000000000000000000000000000081525060200191505060405180910390fd5b613c706141b4565b73ffffffffffffffffffffffffffffffffffffffff163073ffffffffffffffffffffffffffffffffffffffff16141515613d12576040517f08c379a000000000000000000000000000000000000000000000000000000000815260040180806020018281038252600b8152602001807f49732044697361626c656400000000000000000000000000000000000000000081525060200191505060405180910390fd5b8282600082118015613d245750600081115b1515613d98576040517f08c379a00000000000000000000000000000000000000000000000000000000081526004018080602001828103825260118152602001807f7374617274206f7220656e64206973203000000000000000000000000000000081525060200191505060405180910390fd5b8181111515613e0f576040517f08c379a000000000000000000000000000000000000000000000000000000000815260040180806020018281038252600c8152602001807f7374617274203e3d20656e64000000000000000000000000000000000000000081525060200191505060405180910390fd5b856002600088815260200190815260200160002060000154141515613e9c576040517f08c379a00000000000000000000000000000000000000000000000000000000081526004018080602001828103825260128152602001807f6e6f7420657869737465642042616c6c6f74000000000000000000000000000081525060200191505060405180910390fd5b6000151560026000888152602001908152602001600020600a0160009054906101000a900460ff161515141515613f3b576040517f08c379a00000000000000000000000000000000000000000000000000000000081526004018080602001828103825260118152602001807f616c72656164792066696e616c697a656400000000000000000000000000000081525060200191505060405180910390fd5b60016004811115613f4857fe5b6002600088815260200190815260200160002060090154141515613fd4576040517f08c379a000000000000000000000000000000000000000000000000000000000815260040180806020018281038252600f8152602001807f4e6f74205265616479205374617465000000000000000000000000000000000081525060200191505060405180910390fd5b6002600087815260200190815260200160002092508483600101819055508383600201819055506002600481111561400857fe5b83600901819055508385877fd9938a514dab5cdce149a77493f694bd70c24a4833a278fd4d86fbdf859099c560405160405180910390a4505050505050565b61404f612a98565b151561405a57600080fd5b614063816151f9565b50565b6000600760008466ffffffffffffff16815260200190815260200160002060008373ffffffffffffffffffffffffffffffffffffffff1673ffffffffffffffffffffffffffffffffffffffff16815260200190815260200160002060009054906101000a900460ff16905092915050565b6000600160009054906101000a900473ffffffffffffffffffffffffffffffffffffffff1673ffffffffffffffffffffffffffffffffffffffff16630d2020dd836040518263ffffffff167c0100000000000000000000000000000000000000000000000000000000028152600401808260001916600019168152602001915050602060405180830381600087803b15801561417257600080fd5b505af1158015614186573d6000803e3d6000fd5b505050506040513d602081101561419c57600080fd5b81019080805190602001909291905050509050919050565b60006141df7f42616c6c6f7453746f72616765000000000000000000000000000000000000006140d7565b905090565b6141ec615314565b8360026000868152602001908152602001600020600001541415151561427a576040517f08c379a00000000000000000000000000000000000000000000000000000000081526004018080602001828103825260168152602001807f416c726561647920657869737465642062616c6c6f740000000000000000000081525060200191505060405180910390fd5b838160000181815250508281606001818152505081816080019073ffffffffffffffffffffffffffffffffffffffff16908173ffffffffffffffffffffffffffffffffffffffff1681525050600160048111156142d357fe5b8161012001818152505060008161014001901515908115158152505080600260008681526020019081526020016000206000820151816000015560208201518160010155604082015181600201556060820151816003015560808201518160040160006101000a81548173ffffffffffffffffffffffffffffffffffffffff021916908373ffffffffffffffffffffffffffffffffffffffff16021790555060a082015181600501908051906020019061438e929190615437565b5060c0820151816006015560e082015181600701556101008201518160080155610120820151816009015561014082015181600a0160006101000a81548160ff02191690831515021790555061016082015181600b01559050508173ffffffffffffffffffffffffffffffffffffffff1683857fd1ba591c76ef71222e2d30b8277758713cc6eef1de29efaf98a716744ac2420b60405160405180910390a450505050565b600060058081111561444157fe5b851415156144b7576040517f08c379a00000000000000000000000000000000000000000000000000000000081526004018080602001828103825260138152602001807f496e76616c69642042616c6c6f7420547970650000000000000000000000000081525060200191505060405180910390fd5b6000602060ff16111515614559576040517f08c379a00000000000000000000000000000000000000000000000000000000081526004018080602001828103825260218152602001807f496e76616c696420656e7669726f6e6d656e74207661726961626c65206e616d81526020017f650000000000000000000000000000000000000000000000000000000000000081525060400191505060405180910390fd5b6001600681111561456657fe5b8310151515614603576040517f08c379a00000000000000000000000000000000000000000000000000000000081526004018080602001828103825260218152602001807f496e76616c696420656e7669726f6e6d656e74207661726961626c652054797081526020017f650000000000000000000000000000000000000000000000000000000000000081525060400191505060405180910390fd5b60068081111561460f57fe5b83111515156146ac576040517f08c379a00000000000000000000000000000000000000000000000000000000081526004018080602001828103825260218152602001807f496e76616c696420656e7669726f6e6d656e74207661726961626c652054797081526020017f650000000000000000000000000000000000000000000000000000000000000081525060400191505060405180910390fd5b6000825111151561474b576040517f08c379a00000000000000000000000000000000000000000000000000000000081526004018080602001828103825260228152602001807f496e76616c696420656e7669726f6e6d656e74207661726961626c652076616c81526020017f756500000000000000000000000000000000000000000000000000000000000081525060400191505060405180910390fd5b60019050949350505050565b60006001600281111561476657fe5b83148061477d575060028081111561477a57fe5b83145b15156147f1576040517f08c379a00000000000000000000000000000000000000000000000000000000081526004018080602001828103825260108152602001807f496e76616c6964206465636973696f6e0000000000000000000000000000000081525060200191505060405180910390fd5b84600260008781526020019081526020016000206000015414151561487e576040517f08c379a00000000000000000000000000000000000000000000000000000000081526004018080602001828103825260128152602001807f6e6f7420657869737465642042616c6c6f74000000000000000000000000000081525060200191505060405180910390fd5b600015156007600087815260200190815260200160002060008673ffffffffffffffffffffffffffffffffffffffff1673ffffffffffffffffffffffffffffffffffffffff16815260200190815260200160002060009054906101000a900460ff161515141515614957576040517f08c379a000000000000000000000000000000000000000000000000000000000815260040180806020018281038252600d8152602001807f616c726561647920766f7465640000000000000000000000000000000000000081525060200191505060405180910390fd5b60026000868152602001908152602001600020905060016007600087815260200190815260200160002060008673ffffffffffffffffffffffffffffffffffffffff1673ffffffffffffffffffffffffffffffffffffffff16815260200190815260200160002060006101000a81548160ff0219169083151502179055506149ed600182600601546152f390919063ffffffff16565b816006018190555060016002811115614a0257fe5b831415614a2d57614a208282600701546152f390919063ffffffff16565b8160070181905550614a4d565b614a448282600801546152f390919063ffffffff16565b81600801819055505b5050505050565b600060016005811115614a6357fe5b8710158015614a7e575060036005811115614a7a57fe5b8711155b1515614af2576040517f08c379a00000000000000000000000000000000000000000000000000000000081526004018080602001828103825260138152602001807f496e76616c69642042616c6c6f7420547970650000000000000000000000000081525060200191505060405180910390fd5b60026005811115614aff57fe5b871415614dbe57600073ffffffffffffffffffffffffffffffffffffffff168673ffffffffffffffffffffffffffffffffffffffff1614151515614bab576040517f08c379a000000000000000000000000000000000000000000000000000000000815260040180806020018281038252601a8152602001807f496e76616c6964206f6c64206d656d626572206164647265737300000000000081525060200191505060405180910390fd5b600073ffffffffffffffffffffffffffffffffffffffff168573ffffffffffffffffffffffffffffffffffffffff16141515614c4f576040517f08c379a000000000000000000000000000000000000000000000000000000000815260040180806020018281038252601a8152602001807f496e76616c6964206e6577206d656d626572206164647265737300000000000081525060200191505060405180910390fd5b60008451141515614cc8576040517f08c379a00000000000000000000000000000000000000000000000000000000081526004018080602001828103825260138152602001807f496e76616c6964206e6577206e6f64652069640000000000000000000000000081525060200191505060405180910390fd5b60008351141515614d41576040517f08c379a00000000000000000000000000000000000000000000000000000000081526004018080602001828103825260138152602001807f496e76616c6964206e6577206e6f64652049500000000000000000000000000081525060200191505060405180910390fd5b600082141515614db9576040517f08c379a00000000000000000000000000000000000000000000000000000000081526004018080602001828103825260158152602001807f496e76616c6964206e6577206e6f646520506f7274000000000000000000000081525060200191505060405180910390fd5b6151eb565b60408451141515614e37576040517f08c379a00000000000000000000000000000000000000000000000000000000081526004018080602001828103825260138152602001807f496e76616c6964206e6577206e6f64652069640000000000000000000000000081525060200191505060405180910390fd5b60008351111515614eb0576040517f08c379a00000000000000000000000000000000000000000000000000000000081526004018080602001828103825260138152602001807f496e76616c6964206e6577206e6f64652049500000000000000000000000000081525060200191505060405180910390fd5b600082111515614f28576040517f08c379a00000000000000000000000000000000000000000000000000000000081526004018080602001828103825260158152602001807f496e76616c6964206e6577206e6f646520506f7274000000000000000000000081525060200191505060405180910390fd5b60016005811115614f3557fe5b87141561508a57600073ffffffffffffffffffffffffffffffffffffffff168673ffffffffffffffffffffffffffffffffffffffff16141515614fe0576040517f08c379a000000000000000000000000000000000000000000000000000000000815260040180806020018281038252601a8152602001807f496e76616c6964206f6c64206d656d626572206164647265737300000000000081525060200191505060405180910390fd5b600073ffffffffffffffffffffffffffffffffffffffff168573ffffffffffffffffffffffffffffffffffffffff1614151515615085576040517f08c379a000000000000000000000000000000000000000000000000000000000815260040180806020018281038252601a8152602001807f496e76616c6964206e6577206d656d626572206164647265737300000000000081525060200191505060405180910390fd5b6151ea565b6003600581111561509757fe5b8714156151e957600073ffffffffffffffffffffffffffffffffffffffff168673ffffffffffffffffffffffffffffffffffffffff1614151515615143576040517f08c379a000000000000000000000000000000000000000000000000000000000815260040180806020018281038252601a8152602001807f496e76616c6964206f6c64206d656d626572206164647265737300000000000081525060200191505060405180910390fd5b600073ffffffffffffffffffffffffffffffffffffffff168573ffffffffffffffffffffffffffffffffffffffff16141515156151e8576040517f08c379a000000000000000000000000000000000000000000000000000000000815260040180806020018281038252601a8152602001807f496e76616c6964206e6577206d656d626572206164647265737300000000000081525060200191505060405180910390fd5b5b5b5b600190509695505050505050565b600073ffffffffffffffffffffffffffffffffffffffff168173ffffffffffffffffffffffffffffffffffffffff161415151561523557600080fd5b8073ffffffffffffffffffffffffffffffffffffffff166000809054906101000a900473ffffffffffffffffffffffffffffffffffffffff1673ffffffffffffffffffffffffffffffffffffffff167f8be0079c531659141344cd1fd0a4f28419497f9722a3daafe3b4186f6b6457e060405160405180910390a3806000806101000a81548173ffffffffffffffffffffffffffffffffffffffff021916908373ffffffffffffffffffffffffffffffffffffffff16021790555050565b600080828401905083811015151561530a57600080fd5b8091505092915050565b6101806040519081016040528060008152602001600081526020016000815260200160008152602001600073ffffffffffffffffffffffffffffffffffffffff1681526020016060815260200160008152602001600081526020016000815260200160008152602001600015158152602001600081525090565b604080519081016040528060008152602001600073ffffffffffffffffffffffffffffffffffffffff1681525090565b60c0604051908101604052806000815260200160008152602001600073ffffffffffffffffffffffffffffffffffffffff1681526020016000815260200160008152602001600081525090565b608060405190810160405280600081526020016000801916815260200160008152602001606081525090565b828054600181600116156101000203166002900490600052602060002090601f016020900481019282601f1061547857805160ff19168380011785556154a6565b828001600101855582156154a6579182015b828111156154a557825182559160200191906001019061548a565b5b5090506154b391906155a1565b5090565b60e06040519081016040528060008152602001600073ffffffffffffffffffffffffffffffffffffffff168152602001600073ffffffffffffffffffffffffffffffffffffffff168152602001606081526020016060815260200160008152602001600081525090565b828054600181600116156101000203166002900490600052602060002090601f016020900481019282601f1061556257805160ff1916838001178555615590565b82800160010185558215615590579182015b8281111561558f578251825591602001919060010190615574565b5b50905061559d91906155a1565b5090565b6155c391905b808211156155bf5760008160009055506001016155a7565b5090565b905600a165627a7a72305820169c88dd8fe2dfec06532bd7ab467d35d7e13511a1feca36ec918bc7689e1f140029",
  "source": "pragma solidity ^0.4.24;\n\nimport \"openzeppelin-solidity/contracts/math/SafeMath.sol\";\nimport \"../abstract/EnvConstants.sol\";\nimport \"../abstract/BallotEnums.sol\";\nimport \"../GovChecker.sol\";\n\n\ncontract BallotStorage is  GovChecker, EnvConstants, BallotEnums {\n    using SafeMath for uint256;\n    \n    struct BallotBasic {\n        //Ballot ID\n        uint256 id;\n        // \n        uint256 startTime;\n        //  \n        uint256 endTime;\n        //  \n        uint256 ballotType;\n        // \n        address creator;\n        //  \n        bytes memo;\n        //   \n        uint256 totalVoters;\n        // \n        uint256 powerOfAccepts;\n        // \n        uint256 powerOfRejects;\n        //  \n        uint256 state;\n        // \n        bool isFinalized;\n        //  \n        uint256 duration;\n        \n    }\n\n    //For MemberAdding/MemberRemoval/MemberSwap\n    struct BallotMember {\n        uint256 id;    \n        address oldMemeberAddress;\n        address newMemeberAddress;\n        bytes newNodeId; // admin.nodeInfo.id is 512 bit public key\n        bytes newNodeIp;\n        uint256 newNodePort;\n        uint256 lockAmount;\n    }\n\n    //For GovernanceChange \n    struct BallotAddress {\n        uint256 id;\n        address newGovernanceAddress;\n    }\n\n    //For EnvValChange\n    struct BallotVariable {\n    //Ballot ID\n        uint256 id; \n        bytes32 envVariableName;\n        uint256 envVariableType;\n        bytes envVariableValue;\n    }\n\n    struct Vote {\n        uint256 voteId;\n        uint256 ballotId;\n        address voter;\n        uint256 decision;\n        uint256 power;\n        uint256 time;\n    }\n\n    event BallotCreated(\n        uint256 indexed ballotId,\n        uint256 indexed ballotType,\n        address indexed creator\n    );\n    \n    event BallotStarted(\n        uint256 indexed ballotId,\n        uint256 indexed startTime,\n        uint256 indexed endTime\n    );\n\n    event Voted(\n        uint256 indexed voteid,\n        uint256 indexed ballotId,\n        address indexed voter,\n        uint256 decision       \n    );\n\n    event BallotFinalized(\n        uint256 indexed ballotId,\n        uint256 state\n    );\n    \n    mapping(uint=>BallotBasic) internal ballotBasicMap;\n    mapping(uint=>BallotMember) internal ballotMemberMap;\n    mapping(uint=>BallotAddress) internal ballotAddressMap;\n    mapping(uint=>BallotVariable) internal ballotVariableMap;\n    \n    mapping(uint=>Vote) internal voteMap;\n    mapping(uint=>mapping(address=>bool)) internal hasVotedMap;\n\n    address internal previousBallotStorage;\n\n    constructor(address _registry) public {\n        setRegistry(_registry);\n    }\n\n    modifier onlyValidTime(uint256 _startTime, uint256 _endTime) {\n        require(_startTime > 0 && _endTime > 0, \"start or end is 0\");\n        require(_endTime > _startTime, \"start >= end\"); // && _startTime > getTime()\n        //uint256 diffTime = _endTime.sub(_startTime);\n        // require(diffTime > minBallotDuration());\n        // require(diffTime <= maxBallotDuration());\n        _;\n    }\n\n    modifier notDisabled() {\n        require(address(this) == getBallotStorageAddress(), \"Is Disabled\");\n        _;\n    }\n\n    function getTime() public view returns(uint256) {\n        return now;\n    }\n\n    function getPreviousBallotStorage() public view returns(address) {\n        return previousBallotStorage;\n    }\n    function isDisabled() public view returns(bool) {\n        return (address(this) != getBallotStorageAddress());\n    }\n    function getBallotBasic(uint256 _id) public view returns (\n        uint256 startTime,\n        uint256 endTime,\n        uint256 ballotType,\n        address creator,\n        bytes memo,\n        uint256 totalVoters,\n        uint256 powerOfAccepts,\n        uint256 powerOfRejects,\n        uint256 state,\n        bool isFinalized,\n        uint256 duration\n    )\n    {\n        BallotBasic memory tBallot = ballotBasicMap[_id];\n        startTime = tBallot.startTime;\n        endTime = tBallot.endTime;\n        ballotType = tBallot.ballotType;\n        creator = tBallot.creator;\n        memo = tBallot.memo;\n        totalVoters = tBallot.totalVoters;\n        powerOfAccepts = tBallot.powerOfAccepts;\n        powerOfRejects = tBallot.powerOfRejects;\n        state = tBallot.state;\n        isFinalized = tBallot.isFinalized;\n        duration = tBallot.duration;\n    }\n\n    function getBallotMember(uint256 _id) public view returns (\n        address oldMemeberAddress,\n        address newMemeberAddress,\n        bytes newNodeId, // admin.nodeInfo.id is 512 bit public key\n        bytes newNodeIp,\n        uint256 newNodePort,\n        uint256 lockAmount\n    )\n    {\n        BallotMember storage tBallot = ballotMemberMap[_id];\n        oldMemeberAddress = tBallot.oldMemeberAddress;\n        newMemeberAddress = tBallot.newMemeberAddress;\n        newNodeId = tBallot.newNodeId;\n        newNodeIp = tBallot.newNodeIp;\n        newNodePort = tBallot.newNodePort;\n        lockAmount = tBallot.lockAmount;\n    }\n\n    function getBallotAddress(uint256 _id) public view returns (\n        address newGovernanceAddress\n    )\n    {\n        BallotAddress storage tBallot = ballotAddressMap[_id];\n        newGovernanceAddress = tBallot.newGovernanceAddress;\n    }\n\n    function getBallotVariable(uint256 _id) public view returns (\n        bytes32 envVariableName,\n        uint256 envVariableType,\n        bytes envVariableValue \n    )\n    {\n        BallotVariable storage tBallot = ballotVariableMap[_id];\n        envVariableName = tBallot.envVariableName;\n        envVariableType = tBallot.envVariableType;\n        envVariableValue = tBallot.envVariableValue;\n    }\n\n    function setPreviousBallotStorage(address _address) public onlyOwner {\n        require(_address != address(0), \"Invalid address\");\n        previousBallotStorage = _address;\n    }\n\n    //For MemberAdding/MemberRemoval/MemberSwap\n    function createBallotForMemeber(\n        uint256 _id,\n        uint256 _ballotType,\n        address _creator,\n        address _oldMemeberAddress,\n        address _newMemeberAddress,\n        bytes _newNodeId, // admin.nodeInfo.id is 512 bit public key\n        bytes _newNodeIp,\n        uint _newNodePort\n    )\n        public\n        onlyGov\n        notDisabled\n    {\n        require(\n            _areMemberBallotParamValid(\n                _ballotType,\n                _oldMemeberAddress,\n                _newMemeberAddress,\n                _newNodeId,\n                _newNodeIp,\n                _newNodePort\n            ),\n            \"Invalid Parameter\"\n        );\n        _createBallot(_id, _ballotType, _creator);\n        BallotMember memory newBallot;\n        newBallot.id = _id;\n        newBallot.oldMemeberAddress = _oldMemeberAddress;\n        newBallot.newMemeberAddress = _newMemeberAddress;\n        newBallot.newNodeId = _newNodeId;\n        newBallot.newNodeIp = _newNodeIp;\n        newBallot.newNodePort = _newNodePort;\n        ballotMemberMap[_id] = newBallot;\n\n    }\n\n    function createBallotForAddress(\n        uint256 _id,\n        uint256 _ballotType,\n        address _creator,\n        address _newGovernanceAddress\n    )\n        public\n        onlyGov\n        notDisabled\n        returns (uint256)\n    {\n        require(_ballotType == uint256(BallotTypes.GovernanceChange), \"Invalid Ballot Type\");\n        require(_newGovernanceAddress != address(0), \"Invalid Parameter\");\n        \n        _createBallot(_id, _ballotType, _creator);\n        BallotAddress memory newBallot;\n        newBallot.id = _id;\n        newBallot.newGovernanceAddress = _newGovernanceAddress;\n        ballotAddressMap[_id] = newBallot;\n        return _id;\n    }\n\n    function createBallotForVariable(\n        uint256 _id,\n        uint256 _ballotType,\n        address _creator,\n        bytes32 _envVariableName,\n        uint256 _envVariableType,\n        bytes _envVariableValue \n    )\n        public\n        onlyGov\n        notDisabled\n        returns (uint256)\n    {\n        require(\n            _areVariableBallotParamValid(_ballotType, _envVariableName, _envVariableType, _envVariableValue),\n            \"Invalid Parameter\"\n        );\n        _createBallot(_id, _ballotType, _creator);\n        BallotVariable memory newBallot;\n        newBallot.id = _id;\n        newBallot.envVariableName = _envVariableName;\n        newBallot.envVariableType = _envVariableType;\n        newBallot.envVariableValue = _envVariableValue;\n        ballotVariableMap[_id] = newBallot;\n        return _id;\n    }\n\n    function createVote(\n        uint256 _voteId,\n        uint256 _ballotId,\n        address _voter,\n        uint256 _decision,\n        uint256 _power\n    )\n        public\n        onlyGov\n        notDisabled\n        returns (uint256)\n    {\n        //1. msg.sender member\n        //2. actionType  \n        require((_decision == uint256(DecisionTypes.Accept))\n            || (_decision <= uint256(DecisionTypes.Reject)), \"Invalid decision\");\n        \n        //3. ballotId    \n        require(ballotBasicMap[_ballotId].id == _ballotId, \"not existed Ballot\");\n        //4. voteId  \n        require(voteMap[_voteId].voteId != _voteId, \"already existed voteId\");\n        //5.  vote   \n        require(!hasVotedMap[_ballotId][_voter], \"already voted\");\n        require(ballotBasicMap[_ballotId].state\n            == uint256(BallotStates.InProgress), \"Not InProgress State\");\n        // require((ballotBasicMap[_ballotId].startTime <= getTime()) \n        //     && (getTime() <= ballotBasicMap[_ballotId].startTime), \"not voting time\");\n\n        //1. \n        voteMap[_voteId] = Vote(_voteId, _ballotId, _voter, _decision, _power, getTime());\n        \n        //2.   \n        _updateBallotForVote(_ballotId, _voter, _decision, _power);\n\n        //3. event  \n        emit Voted(_voteId, _ballotId, _voter, _decision);\n    }\n\n    //start/end /state \n    function startBallot(\n        uint256 _ballotId,\n        uint256 _startTime,\n        uint256 _endTime\n    )\n        public\n        onlyGov\n        notDisabled\n        onlyValidTime(_startTime, _endTime)\n    {\n        require(ballotBasicMap[_ballotId].id == _ballotId, \"not existed Ballot\");\n        require(ballotBasicMap[_ballotId].isFinalized == false, \"already finalized\");\n        require(ballotBasicMap[_ballotId].state == uint256(BallotStates.Ready), \"Not Ready State\");\n        BallotBasic storage _ballot = ballotBasicMap[_ballotId];\n        _ballot.startTime = _startTime;\n        _ballot.endTime = _endTime;\n        _ballot.state = uint256(BallotStates.InProgress);\n        emit BallotStarted(_ballotId, _startTime, _endTime);\n    }\n\n    function updateBallotMemo(\n        uint256 _ballotId,\n        bytes _memo\n    )\n        public \n        onlyGov\n        notDisabled\n    {\n        require(ballotBasicMap[_ballotId].id == _ballotId, \"not existed Ballot\");\n        require(ballotBasicMap[_ballotId].isFinalized == false, \"already finalized\");\n        BallotBasic storage _ballot = ballotBasicMap[_ballotId];\n        _ballot.memo = _memo;\n    }\n\n    function updateBallotDuration(\n        uint256 _ballotId,\n        uint256 _duration\n    )\n        public \n        onlyGov\n        notDisabled\n    {\n        require(ballotBasicMap[_ballotId].id == _ballotId, \"not existed Ballot\");\n        require(ballotBasicMap[_ballotId].isFinalized == false, \"already finalized\");\n        require(ballotBasicMap[_ballotId].state == uint256(BallotStates.Ready), \"Not Ready State\");\n        BallotBasic storage _ballot = ballotBasicMap[_ballotId];\n        _ballot.duration = _duration;\n    }\n\n    function updateBallotMemberLockAmount(\n        uint256 _ballotId,\n        uint256 _lockAmount\n    )\n        public \n        onlyGov\n        notDisabled\n    {\n        require(ballotBasicMap[_ballotId].id == _ballotId, \"not existed Ballot\");\n        require(ballotMemberMap[_ballotId].id == _ballotId, \"not existed BallotMember\");\n        require(ballotBasicMap[_ballotId].isFinalized == false, \"already finalized\");\n        require(ballotBasicMap[_ballotId].state == uint256(BallotStates.Ready), \"Not Ready State\");\n        BallotMember storage _ballot = ballotMemberMap[_ballotId];\n        _ballot.lockAmount = _lockAmount;\n    }\n\n    // finalize ballot info.\n    function finalizeBallot(uint256 _ballotId, uint256 _ballotState) public onlyGov notDisabled {\n        require(ballotBasicMap[_ballotId].id == _ballotId, \"not existed Ballot\");\n        require(ballotBasicMap[_ballotId].isFinalized == false, \"already finalized\");\n        require((_ballotState == uint256(BallotStates.Accepted))\n            || (_ballotState == uint256(BallotStates.Rejected)), \"Invalid Ballot State\");\n\n        BallotBasic storage _ballot = ballotBasicMap[_ballotId];\n        _ballot.state = _ballotState;\n        _ballot.isFinalized = true;\n        emit BallotFinalized (_ballotId, _ballotState);\n    }\n\n    function hasAlreadyVoted(uint56 _ballotId, address _voter) public view returns (bool) {\n        return hasVotedMap[_ballotId][_voter];\n    }\n\n    function getVote(uint256 _voteId) public view returns (\n        uint256 voteId,\n        uint256 ballotId,\n        address voter,\n        uint256 decision,\n        uint256 power,\n        uint256 time\n    )\n    {\n        require(voteMap[_voteId].voteId == _voteId, \"not existed voteId\");\n        Vote memory _vote = voteMap[_voteId];\n        voteId = _vote.voteId;\n        ballotId = _vote.ballotId;\n        voter = _vote.voter;\n        decision = _vote.decision;\n        power = _vote.power;\n        time = _vote.time;\n    }\n\n    function getBallotPeriod(uint256 _id) public view returns (\n        uint256 startTime,\n        uint256 endTime,\n        uint256 duration\n    )\n    {\n        BallotBasic memory tBallot = ballotBasicMap[_id];\n        startTime = tBallot.startTime;\n        endTime = tBallot.endTime; \n        duration = tBallot.duration;\n    }\n\n    function getBallotVotingInfo(uint256 _id) public view returns (\n        uint256 totalVoters,\n        uint256 powerOfAccepts,\n        uint256 powerOfRejects\n\n    )\n    {\n        BallotBasic memory tBallot = ballotBasicMap[_id];\n        totalVoters = tBallot.totalVoters;\n        powerOfAccepts = tBallot.powerOfAccepts;\n        powerOfRejects = tBallot.powerOfRejects;        \n    }\n\n    function getBallotState(uint256 _id) public view returns (\n        uint256 ballotType,\n        uint256 state,\n        bool isFinalized\n    )\n    {\n        BallotBasic memory tBallot = ballotBasicMap[_id];\n        ballotType = tBallot.ballotType;\n        state = tBallot.state;\n        isFinalized = tBallot.isFinalized;\n    }\n\n    function _createBallot(\n        uint256 _id,\n        uint256 _ballotType,\n        address _creator\n    )\n        internal\n    {\n        require(ballotBasicMap[_id].id != _id, \"Already existed ballot\");\n        \n        BallotBasic memory newBallot;\n        newBallot.id = _id;\n        newBallot.ballotType = _ballotType;\n        newBallot.creator = _creator;\n//        newBallot.memo = _memo;\n        newBallot.state = uint256(BallotStates.Ready);\n        newBallot.isFinalized = false;\n//        newBallot.duration = _duration;\n        ballotBasicMap[_id] = newBallot;\n        emit BallotCreated(_id, _ballotType, _creator);\n    }\n\n    function _areMemberBallotParamValid(\n        uint256 _ballotType,\n        address _oldMemeberAddress,\n        address _newMemeberAddress,\n        bytes _newNodeId, // admin.nodeInfo.id is 512 bit public key\n        bytes _newNodeIp,\n        uint _newNodePort\n    )\n        internal\n        pure\n        returns(bool)\n    {\n        require((_ballotType >= uint256(BallotTypes.MemberAdd))\n            && (_ballotType <= uint256(BallotTypes.MemberChange)), \"Invalid Ballot Type\");\n\n        if (_ballotType == uint256(BallotTypes.MemberRemoval)){\n            require(_oldMemeberAddress != address(0), \"Invalid old member address\");\n            require(_newMemeberAddress == address(0), \"Invalid new member address\");\n            require(_newNodeId.length == 0, \"Invalid new node id\");\n            require(_newNodeIp.length == 0, \"Invalid new node IP\");\n            require(_newNodePort == 0, \"Invalid new node Port\");\n        }else {\n            require(_newNodeId.length == 64, \"Invalid new node id\");\n            require(_newNodeIp.length > 0, \"Invalid new node IP\");\n            require(_newNodePort > 0, \"Invalid new node Port\");\n            if (_ballotType == uint256(BallotTypes.MemberAdd)) {\n                require(_oldMemeberAddress == address(0), \"Invalid old member address\");\n                require(_newMemeberAddress != address(0), \"Invalid new member address\");\n            } else if (_ballotType == uint256(BallotTypes.MemberChange)) {\n                require(_oldMemeberAddress != address(0), \"Invalid old member address\");\n                require(_newMemeberAddress != address(0), \"Invalid new member address\");\n            }\n        }\n\n        return true;\n    }\n\n    function _areVariableBallotParamValid(\n        uint256 _ballotType,\n        bytes32 _envVariableName,\n        uint256 _envVariableType,\n        bytes _envVariableValue \n    )\n        internal\n        pure\n        returns(bool)\n    {\n        require(_ballotType == uint256(BallotTypes.EnvValChange), \"Invalid Ballot Type\");\n        require(_envVariableName.length > 0, \"Invalid environment variable name\");\n        require(_envVariableType >= uint256(VariableTypes.Int), \"Invalid environment variable Type\");\n        require(_envVariableType <= uint256(VariableTypes.String), \"Invalid environment variable Type\");\n        require(_envVariableValue.length > 0, \"Invalid environment variable value\");\n\n        return true;\n    }\n\n    // update ballot \n    function _updateBallotForVote(\n        uint256 _ballotId,\n        address _voter,\n        uint256 _decision,\n        uint256 _power\n    )\n        internal\n    {\n        // c1. actionType  \n        require((_decision == uint256(DecisionTypes.Accept))\n            || (_decision == uint256(DecisionTypes.Reject)), \"Invalid decision\");\n        // c2. ballotId    \n        require(ballotBasicMap[_ballotId].id == _ballotId, \"not existed Ballot\");\n        // c3.  vote   \n        require(hasVotedMap[_ballotId][_voter] == false, \"already voted\");\n\n        //1.get ballotBasic\n        BallotBasic storage _ballot = ballotBasicMap[_ballotId];\n        //2.   \n        hasVotedMap[_ballotId][_voter] = true;\n        //3. update totalVoters\n        _ballot.totalVoters = _ballot.totalVoters.add(1);\n        //4. Update power of accept/reject\n        if (_decision == uint256(DecisionTypes.Accept)){\n            _ballot.powerOfAccepts = _ballot.powerOfAccepts.add(_power);\n        } else {\n            _ballot.powerOfRejects = _ballot.powerOfRejects.add(_power);\n        }\n    }\n}",
  "sourcePath": "/Users/hexoul/Documents/Metadium/governance/governance-contract/contracts/storage/BallotStorage.sol",
  "compiler": {
    "name": "solc",
    "version": "0.4.24+commit.e67f0147.Emscripten.clang"
  },
  "schemaVersion": "2.0.1",
  "updatedAt": "2019-02-01T07:15:27.053Z"
}