{
  "contractName": "CoinVesting",
  "abi": [
    {
      "constant": true,
      "inputs": [],
      "name": "duration",
      "outputs": [
        {
          "name": "",
          "type": "uint256"
        }
      ],
      "payable": false,
      "stateMutability": "view",
      "type": "function"
    },
    {
      "constant": true,
      "inputs": [],
      "name": "cliff",
      "outputs": [
        {
          "name": "",
          "type": "uint256"
        }
      ],
      "payable": false,
      "stateMutability": "view",
      "type": "function"
    },
    {
      "constant": true,
      "inputs": [],
      "name": "beneficiary",
      "outputs": [
        {
          "name": "",
          "type": "address"
        }
      ],
      "payable": false,
      "stateMutability": "view",
      "type": "function"
    },
    {
      "constant": true,
      "inputs": [],
      "name": "revoked",
      "outputs": [
        {
          "name": "",
          "type": "bool"
        }
      ],
      "payable": false,
      "stateMutability": "view",
      "type": "function"
    },
    {
      "constant": true,
      "inputs": [],
      "name": "revocable",
      "outputs": [
        {
          "name": "",
          "type": "bool"
        }
      ],
      "payable": false,
      "stateMutability": "view",
      "type": "function"
    },
    {
      "constant": true,
      "inputs": [],
      "name": "owner",
      "outputs": [
        {
          "name": "",
          "type": "address"
        }
      ],
      "payable": false,
      "stateMutability": "view",
      "type": "function"
    },
    {
      "constant": true,
      "inputs": [],
      "name": "released",
      "outputs": [
        {
          "name": "",
          "type": "uint256"
        }
      ],
      "payable": false,
      "stateMutability": "view",
      "type": "function"
    },
    {
      "constant": true,
      "inputs": [],
      "name": "start",
      "outputs": [
        {
          "name": "",
          "type": "uint256"
        }
      ],
      "payable": false,
      "stateMutability": "view",
      "type": "function"
    },
    {
      "constant": false,
      "inputs": [
        {
          "name": "newOwner",
          "type": "address"
        }
      ],
      "name": "transferOwnership",
      "outputs": [],
      "payable": false,
      "stateMutability": "nonpayable",
      "type": "function"
    },
    {
      "inputs": [
        {
          "name": "_beneficiary",
          "type": "address"
        },
        {
          "name": "_start",
          "type": "uint256"
        },
        {
          "name": "_cliff",
          "type": "uint256"
        },
        {
          "name": "_duration",
          "type": "uint256"
        },
        {
          "name": "_revocable",
          "type": "bool"
        }
      ],
      "payable": false,
      "stateMutability": "nonpayable",
      "type": "constructor"
    },
    {
      "payable": true,
      "stateMutability": "payable",
      "type": "fallback"
    },
    {
      "anonymous": false,
      "inputs": [
        {
          "indexed": false,
          "name": "amount",
          "type": "uint256"
        }
      ],
      "name": "Released",
      "type": "event"
    },
    {
      "anonymous": false,
      "inputs": [],
      "name": "Revoked",
      "type": "event"
    },
    {
      "anonymous": false,
      "inputs": [
        {
          "indexed": true,
          "name": "previousOwner",
          "type": "address"
        },
        {
          "indexed": true,
          "name": "newOwner",
          "type": "address"
        }
      ],
      "name": "OwnershipTransferred",
      "type": "event"
    },
    {
      "constant": false,
      "inputs": [],
      "name": "release",
      "outputs": [],
      "payable": false,
      "stateMutability": "nonpayable",
      "type": "function"
    },
    {
      "constant": false,
      "inputs": [],
      "name": "revoke",
      "outputs": [],
      "payable": false,
      "stateMutability": "nonpayable",
      "type": "function"
    },
    {
      "constant": true,
      "inputs": [],
      "name": "releasableAmount",
      "outputs": [
        {
          "name": "",
          "type": "uint256"
        }
      ],
      "payable": false,
      "stateMutability": "view",
      "type": "function"
    },
    {
      "constant": true,
      "inputs": [],
      "name": "vestedAmount",
      "outputs": [
        {
          "name": "",
          "type": "uint256"
        }
      ],
      "payable": false,
      "stateMutability": "view",
      "type": "function"
    }
  ],
  "bytecode": "0x608060405260008060146101000a81548160ff02191690831515021790555060006006556000600760006101000a81548160ff02191690831515021790555034801561004a57600080fd5b5060405160a080610b6d8339810180604052810190808051906020019092919080519060200190929190805190602001909291908051906020019092919080519060200190929190505050336000806101000a81548173ffffffffffffffffffffffffffffffffffffffff021916908373ffffffffffffffffffffffffffffffffffffffff160217905550600073ffffffffffffffffffffffffffffffffffffffff168573ffffffffffffffffffffffffffffffffffffffff161415151561011157600080fd5b81831115151561012057600080fd5b84600160006101000a81548173ffffffffffffffffffffffffffffffffffffffff021916908373ffffffffffffffffffffffffffffffffffffffff16021790555080600560006101000a81548160ff021916908315150217905550816004819055506101a283856101b9640100000000026108ce179091906401000000009004565b6002819055508360038190555050505050506101d7565b60008082840190508381101515156101cd57fe5b8091505092915050565b610987806101e66000396000f3006080604052600436106100c5576000357c0100000000000000000000000000000000000000000000000000000000900463ffffffff1680630fb5a6b41461011857806313d033c01461014357806338af3eed1461016e57806344b1231f146101c55780635b940081146101f057806363d256ce1461021b57806386d1a69f1461024a578063872a7810146102615780638da5cb5b1461029057806396132521146102e7578063b6549f7514610312578063be9a655514610329578063f2fde38b14610354575b600060149054906101000a900460ff161515156100e157600080fd5b6001600060146101000a81548160ff02191690831515021790555060008060146101000a81548160ff021916908315150217905550005b34801561012457600080fd5b5061012d610397565b6040518082815260200191505060405180910390f35b34801561014f57600080fd5b5061015861039d565b6040518082815260200191505060405180910390f35b34801561017a57600080fd5b506101836103a3565b604051808273ffffffffffffffffffffffffffffffffffffffff1673ffffffffffffffffffffffffffffffffffffffff16815260200191505060405180910390f35b3480156101d157600080fd5b506101da6103c9565b6040518082815260200191505060405180910390f35b3480156101fc57600080fd5b50610205610493565b6040518082815260200191505060405180910390f35b34801561022757600080fd5b506102306104b6565b604051808215151515815260200191505060405180910390f35b34801561025657600080fd5b5061025f6104c9565b005b34801561026d57600080fd5b506102766105a2565b604051808215151515815260200191505060405180910390f35b34801561029c57600080fd5b506102a56105b5565b604051808273ffffffffffffffffffffffffffffffffffffffff1673ffffffffffffffffffffffffffffffffffffffff16815260200191505060405180910390f35b3480156102f357600080fd5b506102fc6105da565b6040518082815260200191505060405180910390f35b34801561031e57600080fd5b506103276105e0565b005b34801561033557600080fd5b5061033e610773565b6040518082815260200191505060405180910390f35b34801561036057600080fd5b50610395600480360381019080803573ffffffffffffffffffffffffffffffffffffffff169060200190929190505050610779565b005b60045481565b60025481565b600160009054906101000a900473ffffffffffffffffffffffffffffffffffffffff1681565b60008060003073ffffffffffffffffffffffffffffffffffffffff163191506103fd600654836108ce90919063ffffffff16565b9050600254421015610412576000925061048e565b6104296004546003546108ce90919063ffffffff16565b421015806104435750600760009054906101000a900460ff165b156104505780925061048e565b61048b60045461047d61046e600354426108ec90919063ffffffff16565b8461090590919063ffffffff16565b61094090919063ffffffff16565b92505b505090565b60006104b16006546104a36103c9565b6108ec90919063ffffffff16565b905090565b600760009054906101000a900460ff1681565b60006104d3610493565b90506000811115156104e457600080fd5b6104f9816006546108ce90919063ffffffff16565b600681905550600160009054906101000a900473ffffffffffffffffffffffffffffffffffffffff1673ffffffffffffffffffffffffffffffffffffffff166108fc829081150290604051600060405180830381858888f19350505050158015610567573d6000803e3d6000fd5b507ffb81f9b30d73d830c3544b34d827c08142579ee75710b490bab0b3995468c565816040518082815260200191505060405180910390a150565b600560009054906101000a900460ff1681565b6000809054906101000a900473ffffffffffffffffffffffffffffffffffffffff1681565b60065481565b60008060008060009054906101000a900473ffffffffffffffffffffffffffffffffffffffff1673ffffffffffffffffffffffffffffffffffffffff163373ffffffffffffffffffffffffffffffffffffffff1614151561064057600080fd5b600560009054906101000a900460ff16151561065b57600080fd5b600760009054906101000a900460ff1615151561067757600080fd5b3073ffffffffffffffffffffffffffffffffffffffff16319250610699610493565b91506106ae82846108ec90919063ffffffff16565b90506001600760006101000a81548160ff0219169083151502179055506000811115156106da57600080fd5b6000809054906101000a900473ffffffffffffffffffffffffffffffffffffffff1673ffffffffffffffffffffffffffffffffffffffff166108fc829081150290604051600060405180830381858888f19350505050158015610741573d6000803e3d6000fd5b507f44825a4b2df8acb19ce4e1afba9aa850c8b65cdb7942e2078f27d0b0960efee660405160405180910390a1505050565b60035481565b6000809054906101000a900473ffffffffffffffffffffffffffffffffffffffff1673ffffffffffffffffffffffffffffffffffffffff163373ffffffffffffffffffffffffffffffffffffffff161415156107d457600080fd5b600073ffffffffffffffffffffffffffffffffffffffff168173ffffffffffffffffffffffffffffffffffffffff161415151561081057600080fd5b8073ffffffffffffffffffffffffffffffffffffffff166000809054906101000a900473ffffffffffffffffffffffffffffffffffffffff1673ffffffffffffffffffffffffffffffffffffffff167f8be0079c531659141344cd1fd0a4f28419497f9722a3daafe3b4186f6b6457e060405160405180910390a3806000806101000a81548173ffffffffffffffffffffffffffffffffffffffff021916908373ffffffffffffffffffffffffffffffffffffffff16021790555050565b60008082840190508381101515156108e257fe5b8091505092915050565b60008282111515156108fa57fe5b818303905092915050565b600080600084141561091a5760009150610939565b828402905082848281151561092b57fe5b0414151561093557fe5b8091505b5092915050565b600080828481151561094e57fe5b04905080915050929150505600a165627a7a72305820fdfc507951af9fb7293886c2e3d9da69276d1280e63442b1ac7578a580ee865a0029",
  "source": "pragma solidity ^0.4.18;\n\nimport \"./ERC20Basic.sol\";\nimport \"./SafeERC20.sol\";\nimport \"../../ownership/Ownable.sol\";\nimport \"../../math/SafeMath.sol\";\n\nimport \"./ReentrancyGuard.sol\";\n\n\n/**\n * @title TokenVesting\n * @dev A token holder contract that can release its token balance gradually like a\n * typical vesting scheme, with a cliff and vesting period. Optionally revocable by the\n * owner.\n */\n contract CoinVesting is Ownable, ReentrancyGuard {\n   using SafeMath for uint256;\n\n   event Released(uint256 amount);\n   event Revoked();\n\n   // beneficiary of tokens after they are released\n   address public beneficiary;\n\n   uint256 public cliff;\n   uint256 public start;\n   uint256 public duration;\n\n   bool public revocable;\n\n   uint256 public released = 0;\n   bool public revoked = false;\n\n   /**\n    * @dev Creates a vesting contract that vests its balance of any ERC20 token to the\n    * _beneficiary, gradually in a linear fashion until _start + _duration. By then all\n    * of the balance will have vested.\n    * @param _beneficiary address of the beneficiary to whom vested tokens are transferred\n    * @param _cliff duration in seconds of the cliff in which tokens will begin to vest\n    * @param _duration duration in seconds of the period in which the tokens will vest\n    * @param _revocable whether the vesting is revocable or not\n    */\n   function CoinVesting(address _beneficiary, uint256 _start, uint256 _cliff, uint256 _duration, bool _revocable) public {\n     require(_beneficiary != address(0));\n     require(_cliff <= _duration);\n\n     beneficiary = _beneficiary;\n     revocable = _revocable;\n     duration = _duration;\n     cliff = _start.add(_cliff);\n     start = _start;\n   }\n\n   /**\n    * @notice fallback function\n    */\n   function () payable nonReentrant public {\n\n   }\n\n   /**\n    * @notice Transfers vested tokens to beneficiary.\n    */\n   function release() public {\n     uint256 unreleased = releasableAmount();\n\n     require(unreleased > 0);\n\n     released = released.add(unreleased);\n\n     beneficiary.transfer(unreleased);\n\n     Released(unreleased);\n   }\n\n   /**\n    * @notice Allows the owner to revoke the vesting. Tokens already vested\n    * remain in the contract, the rest are returned to the owner.\n    */\n   function revoke() public onlyOwner {\n     require(revocable);\n     require(!revoked);\n\n     uint256 balance = address(this).balance;\n\n     uint256 unreleased = releasableAmount();\n     uint256 refund = balance.sub(unreleased);\n\n     revoked = true;\n\n     require(refund > 0);\n     owner.transfer(refund);\n\n     Revoked();\n   }\n\n   /**\n    * @dev Calculates the amount that has already vested but hasn't been released yet.\n    */\n   function releasableAmount() public view returns (uint256) {\n\n     return vestedAmount().sub(released);\n   }\n\n   /**\n    * @dev Calculates the amount that has already vested.\n    */\n   function vestedAmount() public view returns (uint256) {\n\n     uint256 currentBalance = address(this).balance;\n     uint256 totalBalance = currentBalance.add(released);\n\n     if (now < cliff) {\n         return 0;\n     } else if (now >= start.add(duration) || revoked) {\n         return totalBalance;\n     } else {\n         return totalBalance.mul(now.sub(start)).div(duration);\n     }\n   }\n }\n",
  "sourcePath": "zeppelin-solidity/contracts/token/ERC20/CoinVesting.sol",
  "compiler": {
    "name": "solc",
    "version": "0.4.24+commit.e67f0147.Emscripten.clang"
  },
  "schemaVersion": "2.0.1",
  "updatedAt": "2019-02-08T11:55:18.060Z"
}