{
  "contractName": "EnvStorageImp",
  "abi": [
    {
      "constant": true,
      "inputs": [],
      "name": "REG",
      "outputs": [
        {
          "name": "",
          "type": "address"
        }
      ],
      "payable": false,
      "stateMutability": "view",
      "type": "function"
    },
    {
      "constant": true,
      "inputs": [
        {
          "name": "_h",
          "type": "bytes32"
        }
      ],
      "name": "getValue",
      "outputs": [
        {
          "name": "",
          "type": "string"
        }
      ],
      "payable": false,
      "stateMutability": "view",
      "type": "function"
    },
    {
      "constant": true,
      "inputs": [],
      "name": "GOV_NAME",
      "outputs": [
        {
          "name": "",
          "type": "bytes32"
        }
      ],
      "payable": false,
      "stateMutability": "view",
      "type": "function"
    },
    {
      "constant": false,
      "inputs": [],
      "name": "renounceOwnership",
      "outputs": [],
      "payable": false,
      "stateMutability": "nonpayable",
      "type": "function"
    },
    {
      "constant": true,
      "inputs": [
        {
          "name": "_h",
          "type": "bytes32"
        }
      ],
      "name": "getType",
      "outputs": [
        {
          "name": "",
          "type": "uint256"
        }
      ],
      "payable": false,
      "stateMutability": "view",
      "type": "function"
    },
    {
      "constant": true,
      "inputs": [],
      "name": "owner",
      "outputs": [
        {
          "name": "",
          "type": "address"
        }
      ],
      "payable": false,
      "stateMutability": "view",
      "type": "function"
    },
    {
      "constant": true,
      "inputs": [
        {
          "name": "_h",
          "type": "bytes32"
        }
      ],
      "name": "get",
      "outputs": [
        {
          "name": "varType",
          "type": "uint256"
        },
        {
          "name": "varVal",
          "type": "string"
        }
      ],
      "payable": false,
      "stateMutability": "view",
      "type": "function"
    },
    {
      "constant": true,
      "inputs": [],
      "name": "isOwner",
      "outputs": [
        {
          "name": "",
          "type": "bool"
        }
      ],
      "payable": false,
      "stateMutability": "view",
      "type": "function"
    },
    {
      "constant": false,
      "inputs": [
        {
          "name": "_addr",
          "type": "address"
        }
      ],
      "name": "setRegistry",
      "outputs": [],
      "payable": false,
      "stateMutability": "nonpayable",
      "type": "function"
    },
    {
      "constant": false,
      "inputs": [
        {
          "name": "newOwner",
          "type": "address"
        }
      ],
      "name": "transferOwnership",
      "outputs": [],
      "payable": false,
      "stateMutability": "nonpayable",
      "type": "function"
    },
    {
      "anonymous": false,
      "inputs": [
        {
          "indexed": true,
          "name": "_name",
          "type": "bytes32"
        },
        {
          "indexed": true,
          "name": "_type",
          "type": "uint256"
        },
        {
          "indexed": false,
          "name": "_value",
          "type": "string"
        }
      ],
      "name": "VarableAdded",
      "type": "event"
    },
    {
      "anonymous": false,
      "inputs": [
        {
          "indexed": true,
          "name": "_name",
          "type": "bytes32"
        },
        {
          "indexed": true,
          "name": "_type",
          "type": "uint256"
        },
        {
          "indexed": false,
          "name": "_value",
          "type": "string"
        }
      ],
      "name": "VarableChanged",
      "type": "event"
    },
    {
      "anonymous": false,
      "inputs": [
        {
          "indexed": true,
          "name": "previousOwner",
          "type": "address"
        },
        {
          "indexed": true,
          "name": "newOwner",
          "type": "address"
        }
      ],
      "name": "OwnershipTransferred",
      "type": "event"
    },
    {
      "constant": true,
      "inputs": [],
      "name": "getBlockPer",
      "outputs": [
        {
          "name": "varType",
          "type": "uint256"
        },
        {
          "name": "varVal",
          "type": "string"
        }
      ],
      "payable": false,
      "stateMutability": "view",
      "type": "function"
    },
    {
      "constant": true,
      "inputs": [],
      "name": "getBlockPerType",
      "outputs": [
        {
          "name": "",
          "type": "uint256"
        }
      ],
      "payable": false,
      "stateMutability": "view",
      "type": "function"
    },
    {
      "constant": true,
      "inputs": [],
      "name": "getBlockPerValue",
      "outputs": [
        {
          "name": "",
          "type": "string"
        }
      ],
      "payable": false,
      "stateMutability": "view",
      "type": "function"
    },
    {
      "constant": false,
      "inputs": [
        {
          "name": "_value",
          "type": "string"
        }
      ],
      "name": "setBlockPer",
      "outputs": [],
      "payable": false,
      "stateMutability": "nonpayable",
      "type": "function"
    }
  ],
  "bytecode": "0x60806040527f476f7665726e616e6365436f6e74726163740000000000000000000000000000600290600019169055336000806101000a81548173ffffffffffffffffffffffffffffffffffffffff021916908373ffffffffffffffffffffffffffffffffffffffff1602179055506000809054906101000a900473ffffffffffffffffffffffffffffffffffffffff1673ffffffffffffffffffffffffffffffffffffffff16600073ffffffffffffffffffffffffffffffffffffffff167f8be0079c531659141344cd1fd0a4f28419497f9722a3daafe3b4186f6b6457e060405160405180910390a3611543806100f96000396000f3006080604052600436106100d0576000357c0100000000000000000000000000000000000000000000000000000000900463ffffffff16806320a6c613146100d55780632f809ee114610100578063393631121461019757806369843940146101ee5780636c78d2cf14610298578063715018a6146102cb5780637f2aeea4146102e2578063835d1b12146103275780638da5cb5b146103905780638eaa6ac0146103e75780638f32d59b14610498578063a91ee0dc146104c7578063b99e34f01461050a578063f2fde38b1461059a575b600080fd5b3480156100e157600080fd5b506100ea6105dd565b6040518082815260200191505060405180910390f35b34801561010c57600080fd5b50610115610622565b6040518083815260200180602001828103825283818151815260200191508051906020019080838360005b8381101561015b578082015181840152602081019050610140565b50505050905090810190601f1680156101885780820380516001836020036101000a031916815260200191505b50935050505060405180910390f35b3480156101a357600080fd5b506101ac61063e565b604051808273ffffffffffffffffffffffffffffffffffffffff1673ffffffffffffffffffffffffffffffffffffffff16815260200191505060405180910390f35b3480156101fa57600080fd5b5061021d6004803603810190808035600019169060200190929190505050610664565b6040518080602001828103825283818151815260200191508051906020019080838360005b8381101561025d578082015181840152602081019050610242565b50505050905090810190601f16801561028a5780820380516001836020036101000a031916815260200191505b509250505060405180910390f35b3480156102a457600080fd5b506102ad6107c1565b60405180826000191660001916815260200191505060405180910390f35b3480156102d757600080fd5b506102e06107c7565b005b3480156102ee57600080fd5b506103116004803603810190808035600019169060200190929190505050610899565b6040518082815260200191505060405180910390f35b34801561033357600080fd5b5061038e600480360381019080803590602001908201803590602001908080601f016020809104026020016040519081016040528093929190818152602001838380828437820191505050505050919291929050505061095e565b005b34801561039c57600080fd5b506103a5610b25565b604051808273ffffffffffffffffffffffffffffffffffffffff1673ffffffffffffffffffffffffffffffffffffffff16815260200191505060405180910390f35b3480156103f357600080fd5b506104166004803603810190808035600019169060200190929190505050610b4e565b6040518083815260200180602001828103825283818151815260200191508051906020019080838360005b8381101561045c578082015181840152602081019050610441565b50505050905090810190601f1680156104895780820380516001836020036101000a031916815260200191505b50935050505060405180910390f35b3480156104a457600080fd5b506104ad610cd1565b604051808215151515815260200191505060405180910390f35b3480156104d357600080fd5b50610508600480360381019080803573ffffffffffffffffffffffffffffffffffffffff169060200190929190505050610d28565b005b34801561051657600080fd5b5061051f610d7f565b6040518080602001828103825283818151815260200191508051906020019080838360005b8381101561055f578082015181840152602081019050610544565b50505050905090810190601f16801561058c5780820380516001836020036101000a031916815260200191505b509250505060405180910390f35b3480156105a657600080fd5b506105db600480360381019080803573ffffffffffffffffffffffffffffffffffffffff169060200190929190505050610dc4565b005b600061061d60405180807f626c6f636b50657200000000000000000000000000000000000000000000000081525060080190506040518091039020610899565b905090565b6000606061062e6105dd565b9150610638610d7f565b90509091565b600160009054906101000a900473ffffffffffffffffffffffffffffffffffffffff1681565b606081600019166003600084600019166000191681526020019081526020016000206000015460001916141515610703576040517f08c379a00000000000000000000000000000000000000000000000000000000081526004018080602001828103825260098152602001807f6e6f7420666f756e64000000000000000000000000000000000000000000000081525060200191505060405180910390fd5b6003600083600019166000191681526020019081526020016000206002018054600181600116156101000203166002900480601f0160208091040260200160405190810160405280929190818152602001828054600181600116156101000203166002900480156107b55780601f1061078a576101008083540402835291602001916107b5565b820191906000526020600020905b81548152906001019060200180831161079857829003601f168201915b50505050509050919050565b60025481565b6107cf610cd1565b15156107da57600080fd5b600073ffffffffffffffffffffffffffffffffffffffff166000809054906101000a900473ffffffffffffffffffffffffffffffffffffffff1673ffffffffffffffffffffffffffffffffffffffff167f8be0079c531659141344cd1fd0a4f28419497f9722a3daafe3b4186f6b6457e060405160405180910390a360008060006101000a81548173ffffffffffffffffffffffffffffffffffffffff021916908373ffffffffffffffffffffffffffffffffffffffff160217905550565b600081600019166003600084600019166000191681526020019081526020016000206000015460001916141515610938576040517f08c379a00000000000000000000000000000000000000000000000000000000081526004018080602001828103825260098152602001807f6e6f7420666f756e64000000000000000000000000000000000000000000000081525060200191505060405180910390fd5b600360008360001916600019168152602001908152602001600020600101549050919050565b3373ffffffffffffffffffffffffffffffffffffffff16600160009054906101000a900473ffffffffffffffffffffffffffffffffffffffff1673ffffffffffffffffffffffffffffffffffffffff16630d2020dd6002546040518263ffffffff167c0100000000000000000000000000000000000000000000000000000000028152600401808260001916600019168152602001915050602060405180830381600087803b158015610a1057600080fd5b505af1158015610a24573d6000803e3d6000fd5b505050506040513d6020811015610a3a57600080fd5b810190808051906020019092919050505073ffffffffffffffffffffffffffffffffffffffff16141515610ad6576040517f08c379a000000000000000000000000000000000000000000000000000000000815260040180806020018281038252600d8152602001807f4e6f205065726d697373696f6e0000000000000000000000000000000000000081525060200191505060405180910390fd5b610b2260405180807f626c6f636b5065720000000000000000000000000000000000000000000000008152506008019050604051809103902060026006811115610b1c57fe5b83610de3565b50565b60008060009054906101000a900473ffffffffffffffffffffffffffffffffffffffff16905090565b6000606082600019166003600085600019166000191681526020019081526020016000206000015460001916141515610bef576040517f08c379a00000000000000000000000000000000000000000000000000000000081526004018080602001828103825260098152602001807f6e6f7420666f756e64000000000000000000000000000000000000000000000081525060200191505060405180910390fd5b60036000846000191660001916815260200190815260200160002060010154600360008560001916600019168152602001908152602001600020600201808054600181600116156101000203166002900480601f016020809104026020016040519081016040528092919081815260200182805460018160011615610100020316600290048015610cc15780601f10610c9657610100808354040283529160200191610cc1565b820191906000526020600020905b815481529060010190602001808311610ca457829003601f168201915b5050505050905091509150915091565b60008060009054906101000a900473ffffffffffffffffffffffffffffffffffffffff1673ffffffffffffffffffffffffffffffffffffffff163373ffffffffffffffffffffffffffffffffffffffff1614905090565b610d30610cd1565b1515610d3b57600080fd5b80600160006101000a81548173ffffffffffffffffffffffffffffffffffffffff021916908373ffffffffffffffffffffffffffffffffffffffff16021790555050565b6060610dbf60405180807f626c6f636b50657200000000000000000000000000000000000000000000000081525060080190506040518091039020610664565b905090565b610dcc610cd1565b1515610dd757600080fd5b610de081610faf565b50565b60016006811115610df057fe5b8210151515610e67576040517f08c379a00000000000000000000000000000000000000000000000000000000081526004018080602001828103825260158152602001807f496e76616c6964205661726961626c652054797065000000000000000000000081525060200191505060405180910390fd5b600680811115610e7357fe5b8211151515610eea576040517f08c379a00000000000000000000000000000000000000000000000000000000081526004018080602001828103825260158152602001807f496e76616c6964205661726961626c652054797065000000000000000000000081525060200191505060405180910390fd5b60008151111515610f63576040517f08c379a000000000000000000000000000000000000000000000000000000000815260040180806020018281038252600b8152602001807f656d7074792076616c756500000000000000000000000000000000000000000081525060200191505060405180910390fd5b600060036000856000191660001916815260200190815260200160002060000154600019161415610f9e57610f998383836110a9565b610faa565b610fa983838361125f565b5b505050565b600073ffffffffffffffffffffffffffffffffffffffff168173ffffffffffffffffffffffffffffffffffffffff1614151515610feb57600080fd5b8073ffffffffffffffffffffffffffffffffffffffff166000809054906101000a900473ffffffffffffffffffffffffffffffffffffffff1673ffffffffffffffffffffffffffffffffffffffff167f8be0079c531659141344cd1fd0a4f28419497f9722a3daafe3b4186f6b6457e060405160405180910390a3806000806101000a81548173ffffffffffffffffffffffffffffffffffffffff021916908373ffffffffffffffffffffffffffffffffffffffff16021790555050565b60006003600085600019166000191681526020019081526020016000206000015460001916141515611143576040517f08c379a00000000000000000000000000000000000000000000000000000000081526004018080602001828103825260098152602001807f6e6f7420666f756e64000000000000000000000000000000000000000000000081525060200191505060405180910390fd5b6060604051908101604052808460001916815260200183815260200182815250600360008560001916600019168152602001908152602001600020600082015181600001906000191690556020820151816001015560408201518160020190805190602001906111b49291906113f2565b509050508183600019167f06989848fcfd6af9d79fb4c74cb1224dec4873038ea5d67f4a93935167b66217836040518080602001828103825283818151815260200191508051906020019080838360005b83811015611220578082015181840152602081019050611205565b50505050905090810190601f16801561124d5780820380516001836020036101000a031916815260200191505b509250505060405180910390a3505050565b6000836000191660036000866000191660001916815260200190815260200160002060000154600019161415156112fe576040517f08c379a00000000000000000000000000000000000000000000000000000000081526004018080602001828103825260098152602001807f6e6f7420666f756e64000000000000000000000000000000000000000000000081525060200191505060405180910390fd5b60036000856000191660001916815260200190815260200160002090508381600001816000191690555082816001018190555081816002019080519060200190611349929190611472565b508284600019167f60841501cd68d1c6414ed8f47a579de24c7e2f9da7e97f10c4932196d92df402846040518080602001828103825283818151815260200191508051906020019080838360005b838110156113b2578082015181840152602081019050611397565b50505050905090810190601f1680156113df5780820380516001836020036101000a031916815260200191505b509250505060405180910390a350505050565b828054600181600116156101000203166002900490600052602060002090601f016020900481019282601f1061143357805160ff1916838001178555611461565b82800160010185558215611461579182015b82811115611460578251825591602001919060010190611445565b5b50905061146e91906114f2565b5090565b828054600181600116156101000203166002900490600052602060002090601f016020900481019282601f106114b357805160ff19168380011785556114e1565b828001600101855582156114e1579182015b828111156114e05782518255916020019190600101906114c5565b5b5090506114ee91906114f2565b5090565b61151491905b808211156115105760008160009055506001016114f8565b5090565b905600a165627a7a72305820c02a20a6dcaa64d7f3bb9d73787c7ffb1fbbe32c86c134744574bc6e8cecccbc0029",
  "source": "pragma solidity ^0.4.24;\n\nimport \"../abstract/EnumVariableTypes.sol\";\nimport \"./AEnvStorage.sol\";\n\n\ncontract EnvStorageImp is AEnvStorage, EnumVariableTypes {\n    bytes32 internal constant BLOCK_PER_NAME = keccak256(\"blockPer\"); \n    uint256 internal constant BLOCK_PER_TYPE = uint256(VariableTypes.Uint);\n\n    function getBlockPer() public view returns (uint256 varType, string varVal) {\n        varType = getBlockPerType();\n        varVal = getBlockPerValue();\n    }\n    function getBlockPerType() public view returns (uint256) {\n        return getType(BLOCK_PER_NAME);\n    }\n    function getBlockPerValue() public view returns (string) {\n        return getValue(BLOCK_PER_NAME);\n    }\n    function setBlockPer(string _value) public onlyGov { \n        _set(BLOCK_PER_NAME, BLOCK_PER_TYPE, _value);\n    }\n    /**\n    * @dev set a value for a string variable.\n    * @param _h The keccak256 hash of the variable name\n    * @param _t The type of value\n    * @param _v The value to be stored\n    */\n    function _set(bytes32 _h, uint256 _t,string _v) internal {\n        require(_t >= uint256(VariableTypes.Int), \"Invalid Variable Type\");\n        require(_t <= uint256(VariableTypes.String), \"Invalid Variable Type\");\n        require(bytes(_v).length > 0, \"empty value\");\n        if(s[_h]._name == \"\") {\n            _add(_h, _t, _v);\n        }else{\n            _change(_h, _t, _v);\n        }\n    }\n}",
  "sourcePath": "/Users/hexoul/Documents/Metadium/governance/governance-contract/contracts/storage/EnvStorageImp.sol",
  "compiler": {
    "name": "solc",
    "version": "0.4.24+commit.e67f0147.Emscripten.clang"
  },
  "schemaVersion": "2.0.1",
  "updatedAt": "2019-01-29T01:43:14.791Z"
}