{
  "contractName": "EnvStorageImp",
  "abi": [
    {
      "constant": true,
      "inputs": [],
      "name": "REG",
      "outputs": [
        {
          "name": "",
          "type": "address"
        }
      ],
      "payable": false,
      "stateMutability": "view",
      "type": "function"
    },
    {
      "constant": true,
      "inputs": [
        {
          "name": "_h",
          "type": "bytes32"
        }
      ],
      "name": "getValue",
      "outputs": [
        {
          "name": "",
          "type": "string"
        }
      ],
      "payable": false,
      "stateMutability": "view",
      "type": "function"
    },
    {
      "constant": true,
      "inputs": [],
      "name": "GOV_NAME",
      "outputs": [
        {
          "name": "",
          "type": "bytes32"
        }
      ],
      "payable": false,
      "stateMutability": "view",
      "type": "function"
    },
    {
      "constant": false,
      "inputs": [],
      "name": "renounceOwnership",
      "outputs": [],
      "payable": false,
      "stateMutability": "nonpayable",
      "type": "function"
    },
    {
      "constant": true,
      "inputs": [
        {
          "name": "_h",
          "type": "bytes32"
        }
      ],
      "name": "getType",
      "outputs": [
        {
          "name": "",
          "type": "uint256"
        }
      ],
      "payable": false,
      "stateMutability": "view",
      "type": "function"
    },
    {
      "constant": true,
      "inputs": [],
      "name": "owner",
      "outputs": [
        {
          "name": "",
          "type": "address"
        }
      ],
      "payable": false,
      "stateMutability": "view",
      "type": "function"
    },
    {
      "constant": true,
      "inputs": [
        {
          "name": "_h",
          "type": "bytes32"
        }
      ],
      "name": "get",
      "outputs": [
        {
          "name": "varType",
          "type": "uint256"
        },
        {
          "name": "varVal",
          "type": "string"
        }
      ],
      "payable": false,
      "stateMutability": "view",
      "type": "function"
    },
    {
      "constant": true,
      "inputs": [],
      "name": "isOwner",
      "outputs": [
        {
          "name": "",
          "type": "bool"
        }
      ],
      "payable": false,
      "stateMutability": "view",
      "type": "function"
    },
    {
      "constant": false,
      "inputs": [
        {
          "name": "_addr",
          "type": "address"
        }
      ],
      "name": "setRegistry",
      "outputs": [],
      "payable": false,
      "stateMutability": "nonpayable",
      "type": "function"
    },
    {
      "constant": false,
      "inputs": [
        {
          "name": "newOwner",
          "type": "address"
        }
      ],
      "name": "transferOwnership",
      "outputs": [],
      "payable": false,
      "stateMutability": "nonpayable",
      "type": "function"
    },
    {
      "anonymous": false,
      "inputs": [
        {
          "indexed": true,
          "name": "_name",
          "type": "bytes32"
        },
        {
          "indexed": true,
          "name": "_type",
          "type": "uint256"
        },
        {
          "indexed": false,
          "name": "_value",
          "type": "string"
        }
      ],
      "name": "VarableAdded",
      "type": "event"
    },
    {
      "anonymous": false,
      "inputs": [
        {
          "indexed": true,
          "name": "_name",
          "type": "bytes32"
        },
        {
          "indexed": true,
          "name": "_type",
          "type": "uint256"
        },
        {
          "indexed": false,
          "name": "_value",
          "type": "string"
        }
      ],
      "name": "VarableChanged",
      "type": "event"
    },
    {
      "anonymous": false,
      "inputs": [
        {
          "indexed": true,
          "name": "previousOwner",
          "type": "address"
        },
        {
          "indexed": true,
          "name": "newOwner",
          "type": "address"
        }
      ],
      "name": "OwnershipTransferred",
      "type": "event"
    },
    {
      "constant": false,
      "inputs": [],
      "name": "initialize",
      "outputs": [],
      "payable": false,
      "stateMutability": "nonpayable",
      "type": "function"
    },
    {
      "constant": true,
      "inputs": [],
      "name": "getBlockPer",
      "outputs": [
        {
          "name": "varType",
          "type": "uint256"
        },
        {
          "name": "varVal",
          "type": "string"
        }
      ],
      "payable": false,
      "stateMutability": "view",
      "type": "function"
    },
    {
      "constant": true,
      "inputs": [],
      "name": "getBlockPerType",
      "outputs": [
        {
          "name": "",
          "type": "uint256"
        }
      ],
      "payable": false,
      "stateMutability": "view",
      "type": "function"
    },
    {
      "constant": true,
      "inputs": [],
      "name": "getBlockPerValue",
      "outputs": [
        {
          "name": "",
          "type": "string"
        }
      ],
      "payable": false,
      "stateMutability": "view",
      "type": "function"
    },
    {
      "constant": false,
      "inputs": [
        {
          "name": "_value",
          "type": "string"
        }
      ],
      "name": "setBlockPer",
      "outputs": [],
      "payable": false,
      "stateMutability": "nonpayable",
      "type": "function"
    },
    {
      "constant": true,
      "inputs": [],
      "name": "getBallotDurationMin",
      "outputs": [
        {
          "name": "varType",
          "type": "uint256"
        },
        {
          "name": "varVal",
          "type": "string"
        }
      ],
      "payable": false,
      "stateMutability": "view",
      "type": "function"
    },
    {
      "constant": true,
      "inputs": [],
      "name": "getBallotDurationMinType",
      "outputs": [
        {
          "name": "",
          "type": "uint256"
        }
      ],
      "payable": false,
      "stateMutability": "view",
      "type": "function"
    },
    {
      "constant": true,
      "inputs": [],
      "name": "getBallotDurationMinValue",
      "outputs": [
        {
          "name": "",
          "type": "string"
        }
      ],
      "payable": false,
      "stateMutability": "view",
      "type": "function"
    },
    {
      "constant": false,
      "inputs": [
        {
          "name": "_value",
          "type": "string"
        }
      ],
      "name": "setBallotDurationMin",
      "outputs": [],
      "payable": false,
      "stateMutability": "nonpayable",
      "type": "function"
    },
    {
      "constant": true,
      "inputs": [],
      "name": "getBallotDurationMax",
      "outputs": [
        {
          "name": "varType",
          "type": "uint256"
        },
        {
          "name": "varVal",
          "type": "string"
        }
      ],
      "payable": false,
      "stateMutability": "view",
      "type": "function"
    },
    {
      "constant": true,
      "inputs": [],
      "name": "getBallotDurationMaxType",
      "outputs": [
        {
          "name": "",
          "type": "uint256"
        }
      ],
      "payable": false,
      "stateMutability": "view",
      "type": "function"
    },
    {
      "constant": true,
      "inputs": [],
      "name": "getBallotDurationMaxValue",
      "outputs": [
        {
          "name": "",
          "type": "string"
        }
      ],
      "payable": false,
      "stateMutability": "view",
      "type": "function"
    },
    {
      "constant": false,
      "inputs": [
        {
          "name": "_value",
          "type": "string"
        }
      ],
      "name": "setBallotDurationMax",
      "outputs": [],
      "payable": false,
      "stateMutability": "nonpayable",
      "type": "function"
    },
    {
      "constant": true,
      "inputs": [],
      "name": "getStakingMin",
      "outputs": [
        {
          "name": "varType",
          "type": "uint256"
        },
        {
          "name": "varVal",
          "type": "string"
        }
      ],
      "payable": false,
      "stateMutability": "view",
      "type": "function"
    },
    {
      "constant": true,
      "inputs": [],
      "name": "getStakingMinType",
      "outputs": [
        {
          "name": "",
          "type": "uint256"
        }
      ],
      "payable": false,
      "stateMutability": "view",
      "type": "function"
    },
    {
      "constant": true,
      "inputs": [],
      "name": "getStakingMinValue",
      "outputs": [
        {
          "name": "",
          "type": "string"
        }
      ],
      "payable": false,
      "stateMutability": "view",
      "type": "function"
    },
    {
      "constant": false,
      "inputs": [
        {
          "name": "_value",
          "type": "string"
        }
      ],
      "name": "setStakingMin",
      "outputs": [],
      "payable": false,
      "stateMutability": "nonpayable",
      "type": "function"
    },
    {
      "constant": true,
      "inputs": [],
      "name": "getStakingMax",
      "outputs": [
        {
          "name": "varType",
          "type": "uint256"
        },
        {
          "name": "varVal",
          "type": "string"
        }
      ],
      "payable": false,
      "stateMutability": "view",
      "type": "function"
    },
    {
      "constant": true,
      "inputs": [],
      "name": "getStakingMaxType",
      "outputs": [
        {
          "name": "",
          "type": "uint256"
        }
      ],
      "payable": false,
      "stateMutability": "view",
      "type": "function"
    },
    {
      "constant": true,
      "inputs": [],
      "name": "getStakingMaxValue",
      "outputs": [
        {
          "name": "",
          "type": "string"
        }
      ],
      "payable": false,
      "stateMutability": "view",
      "type": "function"
    },
    {
      "constant": false,
      "inputs": [
        {
          "name": "_value",
          "type": "string"
        }
      ],
      "name": "setStakingMax",
      "outputs": [],
      "payable": false,
      "stateMutability": "nonpayable",
      "type": "function"
    }
  ],
  "bytecode": "0x60806040527f476f7665726e616e6365436f6e74726163740000000000000000000000000000600290600019169055336000806101000a81548173ffffffffffffffffffffffffffffffffffffffff021916908373ffffffffffffffffffffffffffffffffffffffff1602179055506000809054906101000a900473ffffffffffffffffffffffffffffffffffffffff1673ffffffffffffffffffffffffffffffffffffffff16600073ffffffffffffffffffffffffffffffffffffffff167f8be0079c531659141344cd1fd0a4f28419497f9722a3daafe3b4186f6b6457e060405160405180910390a36127ed806100f96000396000f30060806040526004361061018a576000357c0100000000000000000000000000000000000000000000000000000000900463ffffffff168062fd2e9f1461018f578063076cd77f146101ba578063101c7e78146102515780631b27e01b1461027c57806320a6c613146103135780632f809ee11461033e57806333be496e146103d5578063393631121461046c57806346cba2ea146104c35780635a4cdca9146104ee57806369843940146105575780636c78d2cf14610601578063715018a614610634578063737c59b81461064b5780637ca9166d146106e25780637effdacf146107725780637f2aeea4146108025780638129fc1c14610847578063835d1b121461085e5780638da5cb5b146108c75780638eaa6ac01461091e5780638f32d59b146109cf5780639085f7e4146109fe578063a3c0beac14610a29578063a91ee0dc14610ab9578063ab8be42714610afc578063b165ca9514610b65578063b1da963114610bf5578063b4bacdab14610c5e578063b99e34f014610cc7578063f2fde38b14610d57575b600080fd5b34801561019b57600080fd5b506101a4610d9a565b6040518082815260200191505060405180910390f35b3480156101c657600080fd5b506101cf610ddf565b6040518083815260200180602001828103825283818151815260200191508051906020019080838360005b838110156102155780820151818401526020810190506101fa565b50505050905090810190601f1680156102425780820380516001836020036101000a031916815260200191505b50935050505060405180910390f35b34801561025d57600080fd5b50610266610dfb565b6040518082815260200191505060405180910390f35b34801561028857600080fd5b50610291610e40565b6040518083815260200180602001828103825283818151815260200191508051906020019080838360005b838110156102d75780820151818401526020810190506102bc565b50505050905090810190601f1680156103045780820380516001836020036101000a031916815260200191505b50935050505060405180910390f35b34801561031f57600080fd5b50610328610e5c565b6040518082815260200191505060405180910390f35b34801561034a57600080fd5b50610353610ea1565b6040518083815260200180602001828103825283818151815260200191508051906020019080838360005b8381101561039957808201518184015260208101905061037e565b50505050905090810190601f1680156103c65780820380516001836020036101000a031916815260200191505b50935050505060405180910390f35b3480156103e157600080fd5b506103ea610ebd565b6040518083815260200180602001828103825283818151815260200191508051906020019080838360005b83811015610430578082015181840152602081019050610415565b50505050905090810190601f16801561045d5780820380516001836020036101000a031916815260200191505b50935050505060405180910390f35b34801561047857600080fd5b50610481610ed9565b604051808273ffffffffffffffffffffffffffffffffffffffff1673ffffffffffffffffffffffffffffffffffffffff16815260200191505060405180910390f35b3480156104cf57600080fd5b506104d8610eff565b6040518082815260200191505060405180910390f35b3480156104fa57600080fd5b50610555600480360381019080803590602001908201803590602001908080601f0160208091040260200160405190810160405280939291908181526020018383808284378201915050505050509192919290505050610f44565b005b34801561056357600080fd5b50610586600480360381019080803560001916906020019092919050505061110b565b6040518080602001828103825283818151815260200191508051906020019080838360005b838110156105c65780820151818401526020810190506105ab565b50505050905090810190601f1680156105f35780820380516001836020036101000a031916815260200191505b509250505060405180910390f35b34801561060d57600080fd5b506106166111cb565b60405180826000191660001916815260200191505060405180910390f35b34801561064057600080fd5b506106496111d1565b005b34801561065757600080fd5b506106606112a3565b6040518083815260200180602001828103825283818151815260200191508051906020019080838360005b838110156106a657808201518184015260208101905061068b565b50505050905090810190601f1680156106d35780820380516001836020036101000a031916815260200191505b50935050505060405180910390f35b3480156106ee57600080fd5b506106f76112bf565b6040518080602001828103825283818151815260200191508051906020019080838360005b8381101561073757808201518184015260208101905061071c565b50505050905090810190601f1680156107645780820380516001836020036101000a031916815260200191505b509250505060405180910390f35b34801561077e57600080fd5b50610787611304565b6040518080602001828103825283818151815260200191508051906020019080838360005b838110156107c75780820151818401526020810190506107ac565b50505050905090810190601f1680156107f45780820380516001836020036101000a031916815260200191505b509250505060405180910390f35b34801561080e57600080fd5b506108316004803603810190808035600019169060200190929190505050611349565b6040518082815260200191505060405180910390f35b34801561085357600080fd5b5061085c611371565b005b34801561086a57600080fd5b506108c5600480360381019080803590602001908201803590602001908080601f0160208091040260200160405190810160405280939291908181526020018383808284378201915050505050509192919290505050611681565b005b3480156108d357600080fd5b506108dc611848565b604051808273ffffffffffffffffffffffffffffffffffffffff1673ffffffffffffffffffffffffffffffffffffffff16815260200191505060405180910390f35b34801561092a57600080fd5b5061094d6004803603810190808035600019169060200190929190505050611871565b6040518083815260200180602001828103825283818151815260200191508051906020019080838360005b83811015610993578082015181840152602081019050610978565b50505050905090810190601f1680156109c05780820380516001836020036101000a031916815260200191505b50935050505060405180910390f35b3480156109db57600080fd5b506109e4611957565b604051808215151515815260200191505060405180910390f35b348015610a0a57600080fd5b50610a136119ae565b6040518082815260200191505060405180910390f35b348015610a3557600080fd5b50610a3e6119f3565b6040518080602001828103825283818151815260200191508051906020019080838360005b83811015610a7e578082015181840152602081019050610a63565b50505050905090810190601f168015610aab5780820380516001836020036101000a031916815260200191505b509250505060405180910390f35b348015610ac557600080fd5b50610afa600480360381019080803573ffffffffffffffffffffffffffffffffffffffff169060200190929190505050611a38565b005b348015610b0857600080fd5b50610b63600480360381019080803590602001908201803590602001908080601f0160208091040260200160405190810160405280939291908181526020018383808284378201915050505050509192919290505050611a8f565b005b348015610b7157600080fd5b50610b7a611c56565b6040518080602001828103825283818151815260200191508051906020019080838360005b83811015610bba578082015181840152602081019050610b9f565b50505050905090810190601f168015610be75780820380516001836020036101000a031916815260200191505b509250505060405180910390f35b348015610c0157600080fd5b50610c5c600480360381019080803590602001908201803590602001908080601f0160208091040260200160405190810160405280939291908181526020018383808284378201915050505050509192919290505050611c9b565b005b348015610c6a57600080fd5b50610cc5600480360381019080803590602001908201803590602001908080601f0160208091040260200160405190810160405280939291908181526020018383808284378201915050505050509192919290505050611e62565b005b348015610cd357600080fd5b50610cdc612029565b6040518080602001828103825283818151815260200191508051906020019080838360005b83811015610d1c578082015181840152602081019050610d01565b50505050905090810190601f168015610d495780820380516001836020036101000a031916815260200191505b509250505060405180910390f35b348015610d6357600080fd5b50610d98600480360381019080803573ffffffffffffffffffffffffffffffffffffffff16906020019092919050505061206e565b005b6000610dda60405180807f7374616b696e674d696e00000000000000000000000000000000000000000000815250600a0190506040518091039020611349565b905090565b60006060610deb610d9a565b9150610df5611304565b90509091565b6000610e3b60405180807f62616c6c6f744475726174696f6e4d617800000000000000000000000000000081525060110190506040518091039020611349565b905090565b60006060610e4c610dfb565b9150610e566119f3565b90509091565b6000610e9c60405180807f626c6f636b50657200000000000000000000000000000000000000000000000081525060080190506040518091039020611349565b905090565b60006060610ead610e5c565b9150610eb7612029565b90509091565b60006060610ec96119ae565b9150610ed3611c56565b90509091565b600160009054906101000a900473ffffffffffffffffffffffffffffffffffffffff1681565b6000610f3f60405180807f7374616b696e674d617800000000000000000000000000000000000000000000815250600a0190506040518091039020611349565b905090565b3373ffffffffffffffffffffffffffffffffffffffff16600160009054906101000a900473ffffffffffffffffffffffffffffffffffffffff1673ffffffffffffffffffffffffffffffffffffffff16630d2020dd6002546040518263ffffffff167c0100000000000000000000000000000000000000000000000000000000028152600401808260001916600019168152602001915050602060405180830381600087803b158015610ff657600080fd5b505af115801561100a573d6000803e3d6000fd5b505050506040513d602081101561102057600080fd5b810190808051906020019092919050505073ffffffffffffffffffffffffffffffffffffffff161415156110bc576040517f08c379a000000000000000000000000000000000000000000000000000000000815260040180806020018281038252600d8152602001807f4e6f205065726d697373696f6e0000000000000000000000000000000000000081525060200191505060405180910390fd5b61110860405180807f7374616b696e674d696e00000000000000000000000000000000000000000000815250600a01905060405180910390206002600681111561110257fe5b8361208d565b50565b60606003600083600019166000191681526020019081526020016000206002018054600181600116156101000203166002900480601f0160208091040260200160405190810160405280929190818152602001828054600181600116156101000203166002900480156111bf5780601f10611194576101008083540402835291602001916111bf565b820191906000526020600020905b8154815290600101906020018083116111a257829003601f168201915b50505050509050919050565b60025481565b6111d9611957565b15156111e457600080fd5b600073ffffffffffffffffffffffffffffffffffffffff166000809054906101000a900473ffffffffffffffffffffffffffffffffffffffff1673ffffffffffffffffffffffffffffffffffffffff167f8be0079c531659141344cd1fd0a4f28419497f9722a3daafe3b4186f6b6457e060405160405180910390a360008060006101000a81548173ffffffffffffffffffffffffffffffffffffffff021916908373ffffffffffffffffffffffffffffffffffffffff160217905550565b600060606112af610eff565b91506112b96112bf565b90509091565b60606112ff60405180807f7374616b696e674d617800000000000000000000000000000000000000000000815250600a019050604051809103902061110b565b905090565b606061134460405180807f7374616b696e674d696e00000000000000000000000000000000000000000000815250600a019050604051809103902061110b565b905090565b6000600360008360001916600019168152602001908152602001600020600101549050919050565b6060806060806060611381611957565b151561138c57600080fd5b611394612029565b945061139e611c56565b93506113a86119f3565b92506113b2611304565b91506113bc6112bf565b905060008551141561144a5761144960405180807f626c6f636b506572000000000000000000000000000000000000000000000000815250600801905060405180910390206002600681111561140e57fe5b6040805190810160405280600481526020017f313030300000000000000000000000000000000000000000000000000000000081525061208d565b5b6000845114156114d6576114d560405180807f62616c6c6f744475726174696f6e4d696e000000000000000000000000000000815250601101905060405180910390206002600681111561149a57fe5b6040805190810160405280600581526020017f313030303000000000000000000000000000000000000000000000000000000081525061208d565b5b6000835114156115625761156160405180807f62616c6c6f744475726174696f6e4d6178000000000000000000000000000000815250601101905060405180910390206002600681111561152657fe5b6040805190810160405280600581526020017f323030303000000000000000000000000000000000000000000000000000000081525061208d565b5b6000825114156115ee576115ed60405180807f7374616b696e674d696e00000000000000000000000000000000000000000000815250600a0190506040518091039020600260068111156115b257fe5b6040805190810160405280600b81526020017f313030303030303030303000000000000000000000000000000000000000000081525061208d565b5b60008151141561167a5761167960405180807f7374616b696e674d617800000000000000000000000000000000000000000000815250600a01905060405180910390206002600681111561163e57fe5b6040805190810160405280600b81526020017f323030303030303030303000000000000000000000000000000000000000000081525061208d565b5b5050505050565b3373ffffffffffffffffffffffffffffffffffffffff16600160009054906101000a900473ffffffffffffffffffffffffffffffffffffffff1673ffffffffffffffffffffffffffffffffffffffff16630d2020dd6002546040518263ffffffff167c0100000000000000000000000000000000000000000000000000000000028152600401808260001916600019168152602001915050602060405180830381600087803b15801561173357600080fd5b505af1158015611747573d6000803e3d6000fd5b505050506040513d602081101561175d57600080fd5b810190808051906020019092919050505073ffffffffffffffffffffffffffffffffffffffff161415156117f9576040517f08c379a000000000000000000000000000000000000000000000000000000000815260040180806020018281038252600d8152602001807f4e6f205065726d697373696f6e0000000000000000000000000000000000000081525060200191505060405180910390fd5b61184560405180807f626c6f636b506572000000000000000000000000000000000000000000000000815250600801905060405180910390206002600681111561183f57fe5b8361208d565b50565b60008060009054906101000a900473ffffffffffffffffffffffffffffffffffffffff16905090565b6000606060036000846000191660001916815260200190815260200160002060010154600360008560001916600019168152602001908152602001600020600201808054600181600116156101000203166002900480601f0160208091040260200160405190810160405280929190818152602001828054600181600116156101000203166002900480156119475780601f1061191c57610100808354040283529160200191611947565b820191906000526020600020905b81548152906001019060200180831161192a57829003601f168201915b5050505050905091509150915091565b60008060009054906101000a900473ffffffffffffffffffffffffffffffffffffffff1673ffffffffffffffffffffffffffffffffffffffff163373ffffffffffffffffffffffffffffffffffffffff1614905090565b60006119ee60405180807f62616c6c6f744475726174696f6e4d696e00000000000000000000000000000081525060110190506040518091039020611349565b905090565b6060611a3360405180807f62616c6c6f744475726174696f6e4d61780000000000000000000000000000008152506011019050604051809103902061110b565b905090565b611a40611957565b1515611a4b57600080fd5b80600160006101000a81548173ffffffffffffffffffffffffffffffffffffffff021916908373ffffffffffffffffffffffffffffffffffffffff16021790555050565b3373ffffffffffffffffffffffffffffffffffffffff16600160009054906101000a900473ffffffffffffffffffffffffffffffffffffffff1673ffffffffffffffffffffffffffffffffffffffff16630d2020dd6002546040518263ffffffff167c0100000000000000000000000000000000000000000000000000000000028152600401808260001916600019168152602001915050602060405180830381600087803b158015611b4157600080fd5b505af1158015611b55573d6000803e3d6000fd5b505050506040513d6020811015611b6b57600080fd5b810190808051906020019092919050505073ffffffffffffffffffffffffffffffffffffffff16141515611c07576040517f08c379a000000000000000000000000000000000000000000000000000000000815260040180806020018281038252600d8152602001807f4e6f205065726d697373696f6e0000000000000000000000000000000000000081525060200191505060405180910390fd5b611c5360405180807f62616c6c6f744475726174696f6e4d696e0000000000000000000000000000008152506011019050604051809103902060026006811115611c4d57fe5b8361208d565b50565b6060611c9660405180807f62616c6c6f744475726174696f6e4d696e0000000000000000000000000000008152506011019050604051809103902061110b565b905090565b3373ffffffffffffffffffffffffffffffffffffffff16600160009054906101000a900473ffffffffffffffffffffffffffffffffffffffff1673ffffffffffffffffffffffffffffffffffffffff16630d2020dd6002546040518263ffffffff167c0100000000000000000000000000000000000000000000000000000000028152600401808260001916600019168152602001915050602060405180830381600087803b158015611d4d57600080fd5b505af1158015611d61573d6000803e3d6000fd5b505050506040513d6020811015611d7757600080fd5b810190808051906020019092919050505073ffffffffffffffffffffffffffffffffffffffff16141515611e13576040517f08c379a000000000000000000000000000000000000000000000000000000000815260040180806020018281038252600d8152602001807f4e6f205065726d697373696f6e0000000000000000000000000000000000000081525060200191505060405180910390fd5b611e5f60405180807f62616c6c6f744475726174696f6e4d61780000000000000000000000000000008152506011019050604051809103902060026006811115611e5957fe5b8361208d565b50565b3373ffffffffffffffffffffffffffffffffffffffff16600160009054906101000a900473ffffffffffffffffffffffffffffffffffffffff1673ffffffffffffffffffffffffffffffffffffffff16630d2020dd6002546040518263ffffffff167c0100000000000000000000000000000000000000000000000000000000028152600401808260001916600019168152602001915050602060405180830381600087803b158015611f1457600080fd5b505af1158015611f28573d6000803e3d6000fd5b505050506040513d6020811015611f3e57600080fd5b810190808051906020019092919050505073ffffffffffffffffffffffffffffffffffffffff16141515611fda576040517f08c379a000000000000000000000000000000000000000000000000000000000815260040180806020018281038252600d8152602001807f4e6f205065726d697373696f6e0000000000000000000000000000000000000081525060200191505060405180910390fd5b61202660405180807f7374616b696e674d617800000000000000000000000000000000000000000000815250600a01905060405180910390206002600681111561202057fe5b8361208d565b50565b606061206960405180807f626c6f636b5065720000000000000000000000000000000000000000000000008152506008019050604051809103902061110b565b905090565b612076611957565b151561208157600080fd5b61208a81612259565b50565b6001600681111561209a57fe5b8210151515612111576040517f08c379a00000000000000000000000000000000000000000000000000000000081526004018080602001828103825260158152602001807f496e76616c6964205661726961626c652054797065000000000000000000000081525060200191505060405180910390fd5b60068081111561211d57fe5b8211151515612194576040517f08c379a00000000000000000000000000000000000000000000000000000000081526004018080602001828103825260158152602001807f496e76616c6964205661726961626c652054797065000000000000000000000081525060200191505060405180910390fd5b6000815111151561220d576040517f08c379a000000000000000000000000000000000000000000000000000000000815260040180806020018281038252600b8152602001807f656d7074792076616c756500000000000000000000000000000000000000000081525060200191505060405180910390fd5b60006003600085600019166000191681526020019081526020016000206000015460001916141561224857612243838383612353565b612254565b612253838383612509565b5b505050565b600073ffffffffffffffffffffffffffffffffffffffff168173ffffffffffffffffffffffffffffffffffffffff161415151561229557600080fd5b8073ffffffffffffffffffffffffffffffffffffffff166000809054906101000a900473ffffffffffffffffffffffffffffffffffffffff1673ffffffffffffffffffffffffffffffffffffffff167f8be0079c531659141344cd1fd0a4f28419497f9722a3daafe3b4186f6b6457e060405160405180910390a3806000806101000a81548173ffffffffffffffffffffffffffffffffffffffff021916908373ffffffffffffffffffffffffffffffffffffffff16021790555050565b600060036000856000191660001916815260200190815260200160002060000154600019161415156123ed576040517f08c379a00000000000000000000000000000000000000000000000000000000081526004018080602001828103825260098152602001807f6e6f7420666f756e64000000000000000000000000000000000000000000000081525060200191505060405180910390fd5b60606040519081016040528084600019168152602001838152602001828152506003600085600019166000191681526020019081526020016000206000820151816000019060001916905560208201518160010155604082015181600201908051906020019061245e92919061269c565b509050508183600019167f06989848fcfd6af9d79fb4c74cb1224dec4873038ea5d67f4a93935167b66217836040518080602001828103825283818151815260200191508051906020019080838360005b838110156124ca5780820151818401526020810190506124af565b50505050905090810190601f1680156124f75780820380516001836020036101000a031916815260200191505b509250505060405180910390a3505050565b6000836000191660036000866000191660001916815260200190815260200160002060000154600019161415156125a8576040517f08c379a00000000000000000000000000000000000000000000000000000000081526004018080602001828103825260098152602001807f6e6f7420666f756e64000000000000000000000000000000000000000000000081525060200191505060405180910390fd5b600360008560001916600019168152602001908152602001600020905083816000018160001916905550828160010181905550818160020190805190602001906125f392919061271c565b508284600019167f60841501cd68d1c6414ed8f47a579de24c7e2f9da7e97f10c4932196d92df402846040518080602001828103825283818151815260200191508051906020019080838360005b8381101561265c578082015181840152602081019050612641565b50505050905090810190601f1680156126895780820380516001836020036101000a031916815260200191505b509250505060405180910390a350505050565b828054600181600116156101000203166002900490600052602060002090601f016020900481019282601f106126dd57805160ff191683800117855561270b565b8280016001018555821561270b579182015b8281111561270a5782518255916020019190600101906126ef565b5b509050612718919061279c565b5090565b828054600181600116156101000203166002900490600052602060002090601f016020900481019282601f1061275d57805160ff191683800117855561278b565b8280016001018555821561278b579182015b8281111561278a57825182559160200191906001019061276f565b5b509050612798919061279c565b5090565b6127be91905b808211156127ba5760008160009055506001016127a2565b5090565b905600a165627a7a723058206b50c8d515657c635f22a66818b6eb4ee0dd3ef33d7d48c56a7d84bfa00f95450029",
  "source": "pragma solidity ^0.4.24;\n\nimport \"../abstract/EnvConstants.sol\";\nimport \"./AEnvStorage.sol\";\n\n\ncontract EnvStorageImp is AEnvStorage, EnvConstants {\n    function initialize() public onlyOwner{\n        string memory blockPerVal = getBlockPerValue();\n        string memory BallotDurationMin = getBallotDurationMinValue();\n        string memory BallotDurationMax = getBallotDurationMaxValue();\n        string memory StakingMin = getStakingMinValue();\n        string memory StakingMax = getStakingMaxValue();\n        if( bytes(blockPerVal).length == 0){\n            _set(BLOCK_PER_NAME, BLOCK_PER_TYPE, \"1000\");\n        }\n        if( bytes(BallotDurationMin).length == 0){\n            _set(BALLOT_DURATION_MIN_NAME, BALLOT_DURATION_MIN_TYPE, \"10000\");\n        }\n        if( bytes(BallotDurationMax).length == 0 ){\n            _set(BALLOT_DURATION_MAX_NAME, BALLOT_DURATION_MAX_TYPE, \"20000\");\n        }\n        if( bytes(StakingMin).length == 0 ){\n            _set(STAKING_MIN_NAME, STAKING_MIN_TYPE, \"10000000000\");\n        }\n        if( bytes(StakingMax).length == 0 ){\n           \n            _set(STAKING_MAX_NAME, STAKING_MAX_TYPE, \"20000000000\");\n        }\n        \n    }\n    function getBlockPer() public view returns (uint256 varType, string varVal) {\n        varType = getBlockPerType();\n        varVal = getBlockPerValue();\n    }\n    function getBlockPerType() public view returns (uint256) {\n        return getType(BLOCK_PER_NAME);\n    }\n    function getBlockPerValue() public view returns (string) {\n        return getValue(BLOCK_PER_NAME);\n    }\n    function setBlockPer(string _value) public onlyGov { \n        _set(BLOCK_PER_NAME, BLOCK_PER_TYPE, _value);\n    }\n    \n    function getBallotDurationMin() public view returns (uint256 varType, string varVal) {\n        varType = getBallotDurationMinType();\n        varVal = getBallotDurationMinValue();\n    }\n    function getBallotDurationMinType() public view returns (uint256) {\n        return getType(BALLOT_DURATION_MIN_NAME);\n    }\n    function getBallotDurationMinValue() public view returns (string) {\n        return getValue(BALLOT_DURATION_MIN_NAME);\n    }\n    function setBallotDurationMin(string _value) public onlyGov { \n        _set(BALLOT_DURATION_MIN_NAME, BALLOT_DURATION_MIN_TYPE, _value);\n    }\n\n    function getBallotDurationMax() public view returns (uint256 varType, string varVal) {\n        varType = getBallotDurationMaxType();\n        varVal = getBallotDurationMaxValue();\n    }\n    function getBallotDurationMaxType() public view returns (uint256) {\n        return getType(BALLOT_DURATION_MAX_NAME);\n    }\n    function getBallotDurationMaxValue() public view returns (string) {\n        return getValue(BALLOT_DURATION_MAX_NAME);\n    }\n    function setBallotDurationMax(string _value) public onlyGov { \n        _set(BALLOT_DURATION_MAX_NAME, BALLOT_DURATION_MAX_TYPE, _value);\n    }\n\n    function getStakingMin() public view returns (uint256 varType, string varVal) {\n        varType = getStakingMinType();\n        varVal = getStakingMinValue();\n    }\n    function getStakingMinType() public view returns (uint256) {\n        return getType(STAKING_MIN_NAME);\n    }\n    function getStakingMinValue() public view returns (string) {\n        return getValue(STAKING_MIN_NAME);\n    }\n    function setStakingMin(string _value) public onlyGov { \n        _set(STAKING_MIN_NAME, STAKING_MIN_TYPE, _value);\n    }\n\n    function getStakingMax() public view returns (uint256 varType, string varVal) {\n        varType = getStakingMaxType();\n        varVal = getStakingMaxValue();\n    }\n    function getStakingMaxType() public view returns (uint256) {\n        return getType(STAKING_MAX_NAME);\n    }\n    function getStakingMaxValue() public view returns (string) {\n        return getValue(STAKING_MAX_NAME);\n    }\n    function setStakingMax(string _value) public onlyGov { \n        _set(STAKING_MAX_NAME, STAKING_MAX_TYPE, _value);\n    }\n\n\n    /**\n    * @dev set a value for a string variable.\n    * @param _h The keccak256 hash of the variable name\n    * @param _t The type of value\n    * @param _v The value to be stored\n    */\n    function _set(bytes32 _h, uint256 _t,string _v) internal {\n        require(_t >= uint256(VariableTypes.Int), \"Invalid Variable Type\");\n        require(_t <= uint256(VariableTypes.String), \"Invalid Variable Type\");\n        require(bytes(_v).length > 0, \"empty value\");\n        if(s[_h]._name == \"\") {\n            _add(_h, _t, _v);\n        }else{\n            _change(_h, _t, _v);\n        }\n    }\n}",
  "sourcePath": "/Users/ywshin/Documents/WS/truffle/governance-contract-blueisle/contracts/storage/EnvStorageImp.sol",
  "compiler": {
    "name": "solc",
    "version": "0.4.24+commit.e67f0147.Emscripten.clang"
  },
  "schemaVersion": "2.0.1",
  "updatedAt": "2019-01-30T06:47:20.782Z"
}