{
  "contractName": "EnvStorageImp",
  "abi": [
    {
      "constant": true,
      "inputs": [],
      "name": "STAKING_NAME",
      "outputs": [
        {
          "name": "",
          "type": "bytes32"
        }
      ],
      "payable": false,
      "stateMutability": "view",
      "type": "function"
    },
    {
      "constant": true,
      "inputs": [
        {
          "name": "h",
          "type": "bytes32"
        }
      ],
      "name": "getAddress",
      "outputs": [
        {
          "name": "",
          "type": "address"
        }
      ],
      "payable": false,
      "stateMutability": "view",
      "type": "function"
    },
    {
      "constant": true,
      "inputs": [
        {
          "name": "h",
          "type": "bytes32"
        }
      ],
      "name": "getBoolean",
      "outputs": [
        {
          "name": "",
          "type": "bool"
        }
      ],
      "payable": false,
      "stateMutability": "view",
      "type": "function"
    },
    {
      "constant": true,
      "inputs": [],
      "name": "GOV_NAME",
      "outputs": [
        {
          "name": "",
          "type": "bytes32"
        }
      ],
      "payable": false,
      "stateMutability": "view",
      "type": "function"
    },
    {
      "constant": false,
      "inputs": [],
      "name": "renounceOwnership",
      "outputs": [],
      "payable": false,
      "stateMutability": "nonpayable",
      "type": "function"
    },
    {
      "constant": true,
      "inputs": [],
      "name": "reg",
      "outputs": [
        {
          "name": "",
          "type": "address"
        }
      ],
      "payable": false,
      "stateMutability": "view",
      "type": "function"
    },
    {
      "constant": true,
      "inputs": [],
      "name": "ENV_STORAGE_NAME",
      "outputs": [
        {
          "name": "",
          "type": "bytes32"
        }
      ],
      "payable": false,
      "stateMutability": "view",
      "type": "function"
    },
    {
      "constant": true,
      "inputs": [],
      "name": "owner",
      "outputs": [
        {
          "name": "",
          "type": "address"
        }
      ],
      "payable": false,
      "stateMutability": "view",
      "type": "function"
    },
    {
      "constant": true,
      "inputs": [],
      "name": "isOwner",
      "outputs": [
        {
          "name": "",
          "type": "bool"
        }
      ],
      "payable": false,
      "stateMutability": "view",
      "type": "function"
    },
    {
      "constant": true,
      "inputs": [
        {
          "name": "h",
          "type": "bytes32"
        }
      ],
      "name": "getString",
      "outputs": [
        {
          "name": "",
          "type": "string"
        }
      ],
      "payable": false,
      "stateMutability": "view",
      "type": "function"
    },
    {
      "constant": true,
      "inputs": [],
      "name": "BALLOT_STORAGE_NAME",
      "outputs": [
        {
          "name": "",
          "type": "bytes32"
        }
      ],
      "payable": false,
      "stateMutability": "view",
      "type": "function"
    },
    {
      "constant": true,
      "inputs": [
        {
          "name": "h",
          "type": "bytes32"
        }
      ],
      "name": "getBytes32",
      "outputs": [
        {
          "name": "",
          "type": "bytes32"
        }
      ],
      "payable": false,
      "stateMutability": "view",
      "type": "function"
    },
    {
      "constant": false,
      "inputs": [
        {
          "name": "_addr",
          "type": "address"
        }
      ],
      "name": "setRegistry",
      "outputs": [],
      "payable": false,
      "stateMutability": "nonpayable",
      "type": "function"
    },
    {
      "constant": true,
      "inputs": [
        {
          "name": "h",
          "type": "bytes32"
        }
      ],
      "name": "getUint",
      "outputs": [
        {
          "name": "",
          "type": "uint256"
        }
      ],
      "payable": false,
      "stateMutability": "view",
      "type": "function"
    },
    {
      "constant": true,
      "inputs": [
        {
          "name": "h",
          "type": "bytes32"
        }
      ],
      "name": "getBytes",
      "outputs": [
        {
          "name": "",
          "type": "bytes"
        }
      ],
      "payable": false,
      "stateMutability": "view",
      "type": "function"
    },
    {
      "constant": true,
      "inputs": [
        {
          "name": "h",
          "type": "bytes32"
        }
      ],
      "name": "getInt",
      "outputs": [
        {
          "name": "",
          "type": "int256"
        }
      ],
      "payable": false,
      "stateMutability": "view",
      "type": "function"
    },
    {
      "constant": false,
      "inputs": [
        {
          "name": "newOwner",
          "type": "address"
        }
      ],
      "name": "transferOwnership",
      "outputs": [],
      "payable": false,
      "stateMutability": "nonpayable",
      "type": "function"
    },
    {
      "anonymous": false,
      "inputs": [
        {
          "indexed": true,
          "name": "_name",
          "type": "bytes32"
        },
        {
          "indexed": false,
          "name": "_value",
          "type": "string"
        }
      ],
      "name": "StringVarableChanged",
      "type": "event"
    },
    {
      "anonymous": false,
      "inputs": [
        {
          "indexed": true,
          "name": "_name",
          "type": "bytes32"
        },
        {
          "indexed": false,
          "name": "_value",
          "type": "uint256"
        }
      ],
      "name": "UintVarableChanged",
      "type": "event"
    },
    {
      "anonymous": false,
      "inputs": [
        {
          "indexed": true,
          "name": "_name",
          "type": "bytes32"
        },
        {
          "indexed": false,
          "name": "_value",
          "type": "int256"
        }
      ],
      "name": "IntVarableChanged",
      "type": "event"
    },
    {
      "anonymous": false,
      "inputs": [
        {
          "indexed": true,
          "name": "_name",
          "type": "bytes32"
        },
        {
          "indexed": false,
          "name": "_value",
          "type": "address"
        }
      ],
      "name": "AddressVarableChanged",
      "type": "event"
    },
    {
      "anonymous": false,
      "inputs": [
        {
          "indexed": true,
          "name": "_name",
          "type": "bytes32"
        },
        {
          "indexed": false,
          "name": "_value",
          "type": "bytes32"
        }
      ],
      "name": "Bytes32VarableChanged",
      "type": "event"
    },
    {
      "anonymous": false,
      "inputs": [
        {
          "indexed": true,
          "name": "_name",
          "type": "bytes32"
        },
        {
          "indexed": false,
          "name": "_value",
          "type": "bytes"
        }
      ],
      "name": "BytesVarableChanged",
      "type": "event"
    },
    {
      "anonymous": false,
      "inputs": [
        {
          "indexed": true,
          "name": "_name",
          "type": "bytes32"
        },
        {
          "indexed": true,
          "name": "_type",
          "type": "uint256"
        },
        {
          "indexed": false,
          "name": "_value",
          "type": "string"
        }
      ],
      "name": "VarableChanged",
      "type": "event"
    },
    {
      "anonymous": false,
      "inputs": [
        {
          "indexed": true,
          "name": "previousOwner",
          "type": "address"
        },
        {
          "indexed": true,
          "name": "newOwner",
          "type": "address"
        }
      ],
      "name": "OwnershipTransferred",
      "type": "event"
    },
    {
      "constant": false,
      "inputs": [],
      "name": "initialize",
      "outputs": [],
      "payable": false,
      "stateMutability": "nonpayable",
      "type": "function"
    },
    {
      "constant": true,
      "inputs": [],
      "name": "getBlockPer",
      "outputs": [
        {
          "name": "",
          "type": "uint256"
        }
      ],
      "payable": false,
      "stateMutability": "view",
      "type": "function"
    },
    {
      "constant": true,
      "inputs": [],
      "name": "getBallotDurationMin",
      "outputs": [
        {
          "name": "",
          "type": "uint256"
        }
      ],
      "payable": false,
      "stateMutability": "view",
      "type": "function"
    },
    {
      "constant": true,
      "inputs": [],
      "name": "getBallotDurationMax",
      "outputs": [
        {
          "name": "",
          "type": "uint256"
        }
      ],
      "payable": false,
      "stateMutability": "view",
      "type": "function"
    },
    {
      "constant": true,
      "inputs": [],
      "name": "getStakingMin",
      "outputs": [
        {
          "name": "",
          "type": "uint256"
        }
      ],
      "payable": false,
      "stateMutability": "view",
      "type": "function"
    },
    {
      "constant": true,
      "inputs": [],
      "name": "getStakingMax",
      "outputs": [
        {
          "name": "",
          "type": "uint256"
        }
      ],
      "payable": false,
      "stateMutability": "view",
      "type": "function"
    },
    {
      "constant": false,
      "inputs": [
        {
          "name": "_value",
          "type": "uint256"
        }
      ],
      "name": "setBlockPer",
      "outputs": [],
      "payable": false,
      "stateMutability": "nonpayable",
      "type": "function"
    },
    {
      "constant": false,
      "inputs": [
        {
          "name": "_value",
          "type": "uint256"
        }
      ],
      "name": "setBallotDurationMin",
      "outputs": [],
      "payable": false,
      "stateMutability": "nonpayable",
      "type": "function"
    },
    {
      "constant": false,
      "inputs": [
        {
          "name": "_value",
          "type": "uint256"
        }
      ],
      "name": "setBallotDurationMax",
      "outputs": [],
      "payable": false,
      "stateMutability": "nonpayable",
      "type": "function"
    },
    {
      "constant": false,
      "inputs": [
        {
          "name": "_value",
          "type": "uint256"
        }
      ],
      "name": "setStakingMin",
      "outputs": [],
      "payable": false,
      "stateMutability": "nonpayable",
      "type": "function"
    },
    {
      "constant": false,
      "inputs": [
        {
          "name": "_value",
          "type": "uint256"
        }
      ],
      "name": "setStakingMax",
      "outputs": [],
      "payable": false,
      "stateMutability": "nonpayable",
      "type": "function"
    },
    {
      "constant": false,
      "inputs": [
        {
          "name": "_value",
          "type": "bytes"
        }
      ],
      "name": "setBlockPerByBytes",
      "outputs": [],
      "payable": false,
      "stateMutability": "nonpayable",
      "type": "function"
    },
    {
      "constant": false,
      "inputs": [
        {
          "name": "_value",
          "type": "bytes"
        }
      ],
      "name": "setBallotDurationMinByBytes",
      "outputs": [],
      "payable": false,
      "stateMutability": "nonpayable",
      "type": "function"
    },
    {
      "constant": false,
      "inputs": [
        {
          "name": "_value",
          "type": "bytes"
        }
      ],
      "name": "setBallotDurationMaxByBytes",
      "outputs": [],
      "payable": false,
      "stateMutability": "nonpayable",
      "type": "function"
    },
    {
      "constant": false,
      "inputs": [
        {
          "name": "_value",
          "type": "bytes"
        }
      ],
      "name": "setStakingMinByBytes",
      "outputs": [],
      "payable": false,
      "stateMutability": "nonpayable",
      "type": "function"
    },
    {
      "constant": false,
      "inputs": [
        {
          "name": "_value",
          "type": "bytes"
        }
      ],
      "name": "setStakingMaxByBytes",
      "outputs": [],
      "payable": false,
      "stateMutability": "nonpayable",
      "type": "function"
    },
    {
      "constant": true,
      "inputs": [],
      "name": "getTestInt",
      "outputs": [
        {
          "name": "",
          "type": "int256"
        }
      ],
      "payable": false,
      "stateMutability": "view",
      "type": "function"
    },
    {
      "constant": true,
      "inputs": [],
      "name": "getTestAddress",
      "outputs": [
        {
          "name": "",
          "type": "address"
        }
      ],
      "payable": false,
      "stateMutability": "view",
      "type": "function"
    },
    {
      "constant": true,
      "inputs": [],
      "name": "getTestBytes32",
      "outputs": [
        {
          "name": "",
          "type": "bytes32"
        }
      ],
      "payable": false,
      "stateMutability": "view",
      "type": "function"
    },
    {
      "constant": true,
      "inputs": [],
      "name": "getTestBytes",
      "outputs": [
        {
          "name": "",
          "type": "bytes"
        }
      ],
      "payable": false,
      "stateMutability": "view",
      "type": "function"
    },
    {
      "constant": true,
      "inputs": [],
      "name": "getTestString",
      "outputs": [
        {
          "name": "",
          "type": "string"
        }
      ],
      "payable": false,
      "stateMutability": "view",
      "type": "function"
    },
    {
      "constant": false,
      "inputs": [
        {
          "name": "_value",
          "type": "bytes"
        }
      ],
      "name": "setTestIntByBytes",
      "outputs": [],
      "payable": false,
      "stateMutability": "nonpayable",
      "type": "function"
    },
    {
      "constant": false,
      "inputs": [
        {
          "name": "_value",
          "type": "bytes"
        }
      ],
      "name": "setTestAddressByBytes",
      "outputs": [],
      "payable": false,
      "stateMutability": "nonpayable",
      "type": "function"
    },
    {
      "constant": false,
      "inputs": [
        {
          "name": "_value",
          "type": "bytes"
        }
      ],
      "name": "setTestBytes32ByBytes",
      "outputs": [],
      "payable": false,
      "stateMutability": "nonpayable",
      "type": "function"
    },
    {
      "constant": false,
      "inputs": [
        {
          "name": "_value",
          "type": "bytes"
        }
      ],
      "name": "setTestBytesByBytes",
      "outputs": [],
      "payable": false,
      "stateMutability": "nonpayable",
      "type": "function"
    },
    {
      "constant": false,
      "inputs": [
        {
          "name": "_value",
          "type": "bytes"
        }
      ],
      "name": "setTestStringByBytes",
      "outputs": [],
      "payable": false,
      "stateMutability": "nonpayable",
      "type": "function"
    }
  ],
  "bytecode": "0x608060405233600760006101000a81548173ffffffffffffffffffffffffffffffffffffffff021916908373ffffffffffffffffffffffffffffffffffffffff160217905550600760009054906101000a900473ffffffffffffffffffffffffffffffffffffffff1673ffffffffffffffffffffffffffffffffffffffff16600073ffffffffffffffffffffffffffffffffffffffff167f8be0079c531659141344cd1fd0a4f28419497f9722a3daafe3b4186f6b6457e060405160405180910390a3612ed9806100d16000396000f30060806040526004361061020f576000357c0100000000000000000000000000000000000000000000000000000000900463ffffffff168063076cd77f14610214578063081800351461023f5780630a61b0ba146102a8578063124cea371461031157806315bf4b051461037a5780631b27e01b1461040a5780631e0cba0d1461043557806321f8a721146104685780632eb57c65146104d95780632eccd832146105065780632f809ee11461056f5780632f91be481461059a57806333be496e1461062a5780633848207a146106555780633c3456041461069e57806346e1d553146106cb5780635f5a4f661461073457806368cb4da31461079d5780636c78d2cf146107d0578063715018a61461080357806371c6960d1461081a578063737c59b814610883578063738fdd1a146108ae5780637bf46530146109055780638129fc1c14610938578063852cf38f1461094f5780638a523b6b1461097c5780638da5cb5b146109e55780638f32d59b14610a3c578063986e791a14610a6b5780639986e4b914610b15578063a36f259b14610b48578063a5d6a58114610b75578063a6ed563e14610bde578063a91ee0dc14610c2b578063bd02d0f514610c6e578063c031a18014610cb3578063d614781414610d5d578063dc97d96214610db4578063dd46cb8114610df9578063e60308db14610e62578063f2fde38b14610e8d578063f821459114610ed0575b600080fd5b34801561022057600080fd5b50610229610efd565b6040518082815260200191505060405180910390f35b34801561024b57600080fd5b506102a6600480360381019080803590602001908201803590602001908080601f0160208091040260200160405190810160405280939291908181526020018383808284378201915050505050509192919290505050610f42565b005b3480156102b457600080fd5b5061030f600480360381019080803590602001908201803590602001908080601f016020809104026020016040519081016040528093929190818152602001838380828437820191505050505050919291929050505061104f565b005b34801561031d57600080fd5b50610378600480360381019080803590602001908201803590602001908080601f016020809104026020016040519081016040528093929190818152602001838380828437820191505050505050919291929050505061112e565b005b34801561038657600080fd5b5061038f61120d565b6040518080602001828103825283818151815260200191508051906020019080838360005b838110156103cf5780820151818401526020810190506103b4565b50505050905090810190601f1680156103fc5780820380516001836020036101000a031916815260200191505b509250505060405180910390f35b34801561041657600080fd5b5061041f611252565b6040518082815260200191505060405180910390f35b34801561044157600080fd5b5061044a611297565b60405180826000191660001916815260200191505060405180910390f35b34801561047457600080fd5b5061049760048036038101908080356000191690602001909291905050506112bb565b604051808273ffffffffffffffffffffffffffffffffffffffff1673ffffffffffffffffffffffffffffffffffffffff16815260200191505060405180910390f35b3480156104e557600080fd5b5061050460048036038101908080359060200190929190505050611302565b005b34801561051257600080fd5b5061056d600480360381019080803590602001908201803590602001908080601f016020809104026020016040519081016040528093929190818152602001838380828437820191505050505050919291929050505061140f565b005b34801561057b57600080fd5b506105846114ee565b6040518082815260200191505060405180910390f35b3480156105a657600080fd5b506105af611533565b6040518080602001828103825283818151815260200191508051906020019080838360005b838110156105ef5780820151818401526020810190506105d4565b50505050905090810190601f16801561061c5780820380516001836020036101000a031916815260200191505b509250505060405180910390f35b34801561063657600080fd5b5061063f611578565b6040518082815260200191505060405180910390f35b34801561066157600080fd5b5061068460048036038101908080356000191690602001909291905050506115bd565b604051808215151515815260200191505060405180910390f35b3480156106aa57600080fd5b506106c9600480360381019080803590602001909291905050506115f1565b005b3480156106d757600080fd5b50610732600480360381019080803590602001908201803590602001908080601f01602080910402602001604051908101604052809392919081815260200183838082843782019150505050505091929192905050506116fe565b005b34801561074057600080fd5b5061079b600480360381019080803590602001908201803590602001908080601f0160208091040260200160405190810160405280939291908181526020018383808284378201915050505050509192919290505050611813565b005b3480156107a957600080fd5b506107b2611928565b60405180826000191660001916815260200191505060405180910390f35b3480156107dc57600080fd5b506107e561196d565b60405180826000191660001916815260200191505060405180910390f35b34801561080f57600080fd5b50610818611991565b005b34801561082657600080fd5b50610881600480360381019080803590602001908201803590602001908080601f0160208091040260200160405190810160405280939291908181526020018383808284378201915050505050509192919290505050611a65565b005b34801561088f57600080fd5b50610898611b44565b6040518082815260200191505060405180910390f35b3480156108ba57600080fd5b506108c3611b89565b604051808273ffffffffffffffffffffffffffffffffffffffff1673ffffffffffffffffffffffffffffffffffffffff16815260200191505060405180910390f35b34801561091157600080fd5b5061091a611baf565b60405180826000191660001916815260200191505060405180910390f35b34801561094457600080fd5b5061094d611bd3565b005b34801561095b57600080fd5b5061097a60048036038101908080359060200190929190505050611db2565b005b34801561098857600080fd5b506109e3600480360381019080803590602001908201803590602001908080601f0160208091040260200160405190810160405280939291908181526020018383808284378201915050505050509192919290505050611ebf565b005b3480156109f157600080fd5b506109fa611fcc565b604051808273ffffffffffffffffffffffffffffffffffffffff1673ffffffffffffffffffffffffffffffffffffffff16815260200191505060405180910390f35b348015610a4857600080fd5b50610a51611ff6565b604051808215151515815260200191505060405180910390f35b348015610a7757600080fd5b50610a9a600480360381019080803560001916906020019092919050505061204e565b6040518080602001828103825283818151815260200191508051906020019080838360005b83811015610ada578082015181840152602081019050610abf565b50505050905090810190601f168015610b075780820380516001836020036101000a031916815260200191505b509250505060405180910390f35b348015610b2157600080fd5b50610b2a61210e565b60405180826000191660001916815260200191505060405180910390f35b348015610b5457600080fd5b50610b7360048036038101908080359060200190929190505050612132565b005b348015610b8157600080fd5b50610bdc600480360381019080803590602001908201803590602001908080601f016020809104026020016040519081016040528093929190818152602001838380828437820191505050505050919291929050505061223f565b005b348015610bea57600080fd5b50610c0d600480360381019080803560001916906020019092919050505061231e565b60405180826000191660001916815260200191505060405180910390f35b348015610c3757600080fd5b50610c6c600480360381019080803573ffffffffffffffffffffffffffffffffffffffff169060200190929190505050612345565b005b348015610c7a57600080fd5b50610c9d600480360381019080803560001916906020019092919050505061239c565b6040518082815260200191505060405180910390f35b348015610cbf57600080fd5b50610ce260048036038101908080356000191690602001909291905050506123c3565b6040518080602001828103825283818151815260200191508051906020019080838360005b83811015610d22578082015181840152602081019050610d07565b50505050905090810190601f168015610d4f5780820380516001836020036101000a031916815260200191505b509250505060405180910390f35b348015610d6957600080fd5b50610d72612483565b604051808273ffffffffffffffffffffffffffffffffffffffff1673ffffffffffffffffffffffffffffffffffffffff16815260200191505060405180910390f35b348015610dc057600080fd5b50610de360048036038101908080356000191690602001909291905050506124c8565b6040518082815260200191505060405180910390f35b348015610e0557600080fd5b50610e60600480360381019080803590602001908201803590602001908080601f01602080910402602001604051908101604052809392919081815260200183838082843782019150505050505091929192905050506124ef565b005b348015610e6e57600080fd5b50610e77612604565b6040518082815260200191505060405180910390f35b348015610e9957600080fd5b50610ece600480360381019080803573ffffffffffffffffffffffffffffffffffffffff169060200190929190505050612649565b005b348015610edc57600080fd5b50610efb60048036038101908080359060200190929190505050612668565b005b6000610f3d60405180807f7374616b696e674d696e00000000000000000000000000000000000000000000815250600a019050604051809103902061239c565b905090565b3373ffffffffffffffffffffffffffffffffffffffff16610f827f476f7665726e616e6365436f6e74726163740000000000000000000000000000612775565b73ffffffffffffffffffffffffffffffffffffffff1614151561100d576040517f08c379a000000000000000000000000000000000000000000000000000000000815260040180806020018281038252600d8152602001807f4e6f205065726d697373696f6e0000000000000000000000000000000000000081525060200191505060405180910390fd5b61104c60405180807f544553545f425954455300000000000000000000000000000000000000000000815250600a019050604051809103902082612852565b50565b3373ffffffffffffffffffffffffffffffffffffffff1661108f7f476f7665726e616e6365436f6e74726163740000000000000000000000000000612775565b73ffffffffffffffffffffffffffffffffffffffff1614151561111a576040517f08c379a000000000000000000000000000000000000000000000000000000000815260040180806020018281038252600d8152602001807f4e6f205065726d697373696f6e0000000000000000000000000000000000000081525060200191505060405180910390fd5b61112b61112682612901565b6115f1565b50565b3373ffffffffffffffffffffffffffffffffffffffff1661116e7f476f7665726e616e6365436f6e74726163740000000000000000000000000000612775565b73ffffffffffffffffffffffffffffffffffffffff161415156111f9576040517f08c379a000000000000000000000000000000000000000000000000000000000815260040180806020018281038252600d8152602001807f4e6f205065726d697373696f6e0000000000000000000000000000000000000081525060200191505060405180910390fd5b61120a61120582612901565b612132565b50565b606061124d60405180807f544553545f425954455300000000000000000000000000000000000000000000815250600a01905060405180910390206123c3565b905090565b600061129260405180807f62616c6c6f744475726174696f6e4d61780000000000000000000000000000008152506011019050604051809103902061239c565b905090565b7f5374616b696e670000000000000000000000000000000000000000000000000081565b6000806004016000836000191660001916815260200190815260200160002060009054906101000a900473ffffffffffffffffffffffffffffffffffffffff169050919050565b3373ffffffffffffffffffffffffffffffffffffffff166113427f476f7665726e616e6365436f6e74726163740000000000000000000000000000612775565b73ffffffffffffffffffffffffffffffffffffffff161415156113cd576040517f08c379a000000000000000000000000000000000000000000000000000000000815260040180806020018281038252600d8152602001807f4e6f205065726d697373696f6e0000000000000000000000000000000000000081525060200191505060405180910390fd5b61140c60405180807f7374616b696e674d696e00000000000000000000000000000000000000000000815250600a01905060405180910390208261290f565b50565b3373ffffffffffffffffffffffffffffffffffffffff1661144f7f476f7665726e616e6365436f6e74726163740000000000000000000000000000612775565b73ffffffffffffffffffffffffffffffffffffffff161415156114da576040517f08c379a000000000000000000000000000000000000000000000000000000000815260040180806020018281038252600d8152602001807f4e6f205065726d697373696f6e0000000000000000000000000000000000000081525060200191505060405180910390fd5b6114eb6114e682612901565b612668565b50565b600061152e60405180807f626c6f636b5065720000000000000000000000000000000000000000000000008152506008019050604051809103902061239c565b905090565b606061157360405180807f544553545f535452494e47000000000000000000000000000000000000000000815250600b019050604051809103902061204e565b905090565b60006115b860405180807f62616c6c6f744475726174696f6e4d696e0000000000000000000000000000008152506011019050604051809103902061239c565b905090565b6000806000016000836000191660001916815260200190815260200160002060009054906101000a900460ff169050919050565b3373ffffffffffffffffffffffffffffffffffffffff166116317f476f7665726e616e6365436f6e74726163740000000000000000000000000000612775565b73ffffffffffffffffffffffffffffffffffffffff161415156116bc576040517f08c379a000000000000000000000000000000000000000000000000000000000815260040180806020018281038252600d8152602001807f4e6f205065726d697373696f6e0000000000000000000000000000000000000081525060200191505060405180910390fd5b6116fb60405180807f626c6f636b506572000000000000000000000000000000000000000000000000815250600801905060405180910390208261290f565b50565b3373ffffffffffffffffffffffffffffffffffffffff1661173e7f476f7665726e616e6365436f6e74726163740000000000000000000000000000612775565b73ffffffffffffffffffffffffffffffffffffffff161415156117c9576040517f08c379a000000000000000000000000000000000000000000000000000000000815260040180806020018281038252600d8152602001807f4e6f205065726d697373696f6e0000000000000000000000000000000000000081525060200191505060405180910390fd5b61181060405180807f544553545f494e540000000000000000000000000000000000000000000000008152506008019050604051809103902061180b83612959565b612967565b50565b3373ffffffffffffffffffffffffffffffffffffffff166118537f476f7665726e616e6365436f6e74726163740000000000000000000000000000612775565b73ffffffffffffffffffffffffffffffffffffffff161415156118de576040517f08c379a000000000000000000000000000000000000000000000000000000000815260040180806020018281038252600d8152602001807f4e6f205065726d697373696f6e0000000000000000000000000000000000000081525060200191505060405180910390fd5b61192560405180807f544553545f425954455333320000000000000000000000000000000000000000815250600c0190506040518091039020611920836129b1565b6129bf565b50565b600061196860405180807f544553545f425954455333320000000000000000000000000000000000000000815250600c019050604051809103902061231e565b905090565b7f476f7665726e616e6365436f6e7472616374000000000000000000000000000081565b611999611ff6565b15156119a457600080fd5b600073ffffffffffffffffffffffffffffffffffffffff16600760009054906101000a900473ffffffffffffffffffffffffffffffffffffffff1673ffffffffffffffffffffffffffffffffffffffff167f8be0079c531659141344cd1fd0a4f28419497f9722a3daafe3b4186f6b6457e060405160405180910390a36000600760006101000a81548173ffffffffffffffffffffffffffffffffffffffff021916908373ffffffffffffffffffffffffffffffffffffffff160217905550565b3373ffffffffffffffffffffffffffffffffffffffff16611aa57f476f7665726e616e6365436f6e74726163740000000000000000000000000000612775565b73ffffffffffffffffffffffffffffffffffffffff16141515611b30576040517f08c379a000000000000000000000000000000000000000000000000000000000815260040180806020018281038252600d8152602001807f4e6f205065726d697373696f6e0000000000000000000000000000000000000081525060200191505060405180910390fd5b611b41611b3c82612901565b611302565b50565b6000611b8460405180807f7374616b696e674d617800000000000000000000000000000000000000000000815250600a019050604051809103902061239c565b905090565b600860009054906101000a900473ffffffffffffffffffffffffffffffffffffffff1681565b7f456e7653746f726167650000000000000000000000000000000000000000000081565b6000806000806000611be3611ff6565b1515611bee57600080fd5b611bf66114ee565b9450611c00611578565b9350611c0a611252565b9250611c14610efd565b9150611c1e611b44565b90506000851415611c6b57611c6a60405180807f626c6f636b506572000000000000000000000000000000000000000000000000815250600801905060405180910390206103e861290f565b5b6000841415611cb757611cb660405180807f62616c6c6f744475726174696f6e4d696e000000000000000000000000000000815250601101905060405180910390206201518061290f565b5b6000831415611d0357611d0260405180807f62616c6c6f744475726174696f6e4d61780000000000000000000000000000008152506011019050604051809103902062093a8061290f565b5b6000821415611d5757611d5660405180807f7374616b696e674d696e00000000000000000000000000000000000000000000815250600a01905060405180910390206a041e8e57486d2ec080000061290f565b5b6000811415611dab57611daa60405180807f7374616b696e674d617800000000000000000000000000000000000000000000815250600a01905060405180910390206a20f472ba4369760400000061290f565b5b5050505050565b3373ffffffffffffffffffffffffffffffffffffffff16611df27f476f7665726e616e6365436f6e74726163740000000000000000000000000000612775565b73ffffffffffffffffffffffffffffffffffffffff16141515611e7d576040517f08c379a000000000000000000000000000000000000000000000000000000000815260040180806020018281038252600d8152602001807f4e6f205065726d697373696f6e0000000000000000000000000000000000000081525060200191505060405180910390fd5b611ebc60405180807f62616c6c6f744475726174696f6e4d6178000000000000000000000000000000815250601101905060405180910390208261290f565b50565b3373ffffffffffffffffffffffffffffffffffffffff16611eff7f476f7665726e616e6365436f6e74726163740000000000000000000000000000612775565b73ffffffffffffffffffffffffffffffffffffffff16141515611f8a576040517f08c379a000000000000000000000000000000000000000000000000000000000815260040180806020018281038252600d8152602001807f4e6f205065726d697373696f6e0000000000000000000000000000000000000081525060200191505060405180910390fd5b611fc960405180807f544553545f535452494e47000000000000000000000000000000000000000000815250600b019050604051809103902082612a11565b50565b6000600760009054906101000a900473ffffffffffffffffffffffffffffffffffffffff16905090565b6000600760009054906101000a900473ffffffffffffffffffffffffffffffffffffffff1673ffffffffffffffffffffffffffffffffffffffff163373ffffffffffffffffffffffffffffffffffffffff1614905090565b60606000600301600083600019166000191681526020019081526020016000208054600181600116156101000203166002900480601f0160208091040260200160405190810160405280929190818152602001828054600181600116156101000203166002900480156121025780601f106120d757610100808354040283529160200191612102565b820191906000526020600020905b8154815290600101906020018083116120e557829003601f168201915b50505050509050919050565b7f42616c6c6f7453746f726167650000000000000000000000000000000000000081565b3373ffffffffffffffffffffffffffffffffffffffff166121727f476f7665726e616e6365436f6e74726163740000000000000000000000000000612775565b73ffffffffffffffffffffffffffffffffffffffff161415156121fd576040517f08c379a000000000000000000000000000000000000000000000000000000000815260040180806020018281038252600d8152602001807f4e6f205065726d697373696f6e0000000000000000000000000000000000000081525060200191505060405180910390fd5b61223c60405180807f62616c6c6f744475726174696f6e4d696e000000000000000000000000000000815250601101905060405180910390208261290f565b50565b3373ffffffffffffffffffffffffffffffffffffffff1661227f7f476f7665726e616e6365436f6e74726163740000000000000000000000000000612775565b73ffffffffffffffffffffffffffffffffffffffff1614151561230a576040517f08c379a000000000000000000000000000000000000000000000000000000000815260040180806020018281038252600d8152602001807f4e6f205065726d697373696f6e0000000000000000000000000000000000000081525060200191505060405180910390fd5b61231b61231682612901565b611db2565b50565b60008060060160008360001916600019168152602001908152602001600020549050919050565b61234d611ff6565b151561235857600080fd5b80600860006101000a81548173ffffffffffffffffffffffffffffffffffffffff021916908373ffffffffffffffffffffffffffffffffffffffff16021790555050565b60008060020160008360001916600019168152602001908152602001600020549050919050565b60606000600501600083600019166000191681526020019081526020016000208054600181600116156101000203166002900480601f0160208091040260200160405190810160405280929190818152602001828054600181600116156101000203166002900480156124775780601f1061244c57610100808354040283529160200191612477565b820191906000526020600020905b81548152906001019060200180831161245a57829003601f168201915b50505050509050919050565b60006124c360405180807f544553545f414444524553530000000000000000000000000000000000000000815250600c01905060405180910390206112bb565b905090565b60008060010160008360001916600019168152602001908152602001600020549050919050565b3373ffffffffffffffffffffffffffffffffffffffff1661252f7f476f7665726e616e6365436f6e74726163740000000000000000000000000000612775565b73ffffffffffffffffffffffffffffffffffffffff161415156125ba576040517f08c379a000000000000000000000000000000000000000000000000000000000815260040180806020018281038252600d8152602001807f4e6f205065726d697373696f6e0000000000000000000000000000000000000081525060200191505060405180910390fd5b61260160405180807f544553545f414444524553530000000000000000000000000000000000000000815250600c01905060405180910390206125fc83612ac0565b612ace565b50565b600061264460405180807f544553545f494e54000000000000000000000000000000000000000000000000815250600801905060405180910390206124c8565b905090565b612651611ff6565b151561265c57600080fd5b61266581612b44565b50565b3373ffffffffffffffffffffffffffffffffffffffff166126a87f476f7665726e616e6365436f6e74726163740000000000000000000000000000612775565b73ffffffffffffffffffffffffffffffffffffffff16141515612733576040517f08c379a000000000000000000000000000000000000000000000000000000000815260040180806020018281038252600d8152602001807f4e6f205065726d697373696f6e0000000000000000000000000000000000000081525060200191505060405180910390fd5b61277260405180807f7374616b696e674d617800000000000000000000000000000000000000000000815250600a01905060405180910390208261290f565b50565b6000600860009054906101000a900473ffffffffffffffffffffffffffffffffffffffff1673ffffffffffffffffffffffffffffffffffffffff16630d2020dd836040518263ffffffff167c0100000000000000000000000000000000000000000000000000000000028152600401808260001916600019168152602001915050602060405180830381600087803b15801561281057600080fd5b505af1158015612824573d6000803e3d6000fd5b505050506040513d602081101561283a57600080fd5b81019080805190602001909291905050509050919050565b61285c8282612c40565b81600019167f871b63105583c40db6d530b9340369142c5ae265e41a501d300455015dc1283a826040518080602001828103825283818151815260200191508051906020019080838360005b838110156128c35780820151818401526020810190506128a8565b50505050905090810190601f1680156128f05780820380516001836020036101000a031916815260200191505b509250505060405180910390a25050565b600060208201519050919050565b6129198282612c77565b81600019167f58d7c10adfd5778016889c15d422d57f2975b9292415b54fe5d8cd4241200612826040518082815260200191505060405180910390a25050565b600060208201519050919050565b6129718282612c9e565b81600019167f3b274b11383ad4ca069e655ed60df9e4307b7a0f82ba2245a3cb9789ab814bf6826040518082815260200191505060405180910390a25050565b600060208201519050919050565b6129c98282612cc5565b81600019167fde32aec28e018560c62b0217a8e7cfdc094cda68f1fc7ecd4ed833ee1d4862c98260405180826000191660001916815260200191505060405180910390a25050565b612a1b8282612cf0565b81600019167f43849fbc1e66a5d2cd0ace04916e2e6c8f314c1904d104cad97150428a370a41826040518080602001828103825283818151815260200191508051906020019080838360005b83811015612a82578082015181840152602081019050612a67565b50505050905090810190601f168015612aaf5780820380516001836020036101000a031916815260200191505b509250505060405180910390a25050565b600060148201519050919050565b612ad88282612d27565b81600019167f5ba696c1849fe23c6b280f9f6057cb4574c818e0cd542032eed6e211f1e0246482604051808273ffffffffffffffffffffffffffffffffffffffff1673ffffffffffffffffffffffffffffffffffffffff16815260200191505060405180910390a25050565b600073ffffffffffffffffffffffffffffffffffffffff168173ffffffffffffffffffffffffffffffffffffffff1614151515612b8057600080fd5b8073ffffffffffffffffffffffffffffffffffffffff16600760009054906101000a900473ffffffffffffffffffffffffffffffffffffffff1673ffffffffffffffffffffffffffffffffffffffff167f8be0079c531659141344cd1fd0a4f28419497f9722a3daafe3b4186f6b6457e060405160405180910390a380600760006101000a81548173ffffffffffffffffffffffffffffffffffffffff021916908373ffffffffffffffffffffffffffffffffffffffff16021790555050565b806000600501600084600019166000191681526020019081526020016000209080519060200190612c72929190612d88565b505050565b80600060020160008460001916600019168152602001908152602001600020819055505050565b80600060010160008460001916600019168152602001908152602001600020819055505050565b8060006006016000846000191660001916815260200190815260200160002081600019169055505050565b806000600301600084600019166000191681526020019081526020016000209080519060200190612d22929190612e08565b505050565b8060006004016000846000191660001916815260200190815260200160002060006101000a81548173ffffffffffffffffffffffffffffffffffffffff021916908373ffffffffffffffffffffffffffffffffffffffff1602179055505050565b828054600181600116156101000203166002900490600052602060002090601f016020900481019282601f10612dc957805160ff1916838001178555612df7565b82800160010185558215612df7579182015b82811115612df6578251825591602001919060010190612ddb565b5b509050612e049190612e88565b5090565b828054600181600116156101000203166002900490600052602060002090601f016020900481019282601f10612e4957805160ff1916838001178555612e77565b82800160010185558215612e77579182015b82811115612e76578251825591602001919060010190612e5b565b5b509050612e849190612e88565b5090565b612eaa91905b80821115612ea6576000816000905550600101612e8e565b5090565b905600a165627a7a723058205d19727414622264935d1103362440532deedb9a36c8b51b2e100a85f7393ab50029",
  "source": "pragma solidity ^0.4.24;\n\nimport \"openzeppelin-solidity/contracts/math/SafeMath.sol\";\nimport \"../abstract/EnvConstants.sol\";\nimport \"./AEnvStorage.sol\";\n//import \"./Conversion.sol\";\n\n\ncontract EnvStorageImp is AEnvStorage, EnvConstants {\n    using SafeMath for uint256;\n    //using Conversion for string;\n    \n    function initialize() public onlyOwner {\n        uint256 blockPerVal = getBlockPer();\n        uint256 ballotDurationMin = getBallotDurationMin();\n        uint256 ballotDurationMax = getBallotDurationMax();\n        uint256 stakingMin = getStakingMin();\n        uint256 stakingMax = getStakingMax();\n\n        if (blockPerVal == 0) {\n            setUint(BLOCK_PER_NAME, 1000);\n        }\n        if (ballotDurationMin == 0) {\n            setUint(BALLOT_DURATION_MIN_NAME, 86400);\n        }\n        if (ballotDurationMax == 0) {\n            setUint(BALLOT_DURATION_MAX_NAME, 604800);\n        }\n        if (stakingMin == 0) {\n            setUint(STAKING_MIN_NAME, 4980000 ether);\n        }\n        if (stakingMax == 0) {\n            setUint(STAKING_MAX_NAME, 39840000 ether);\n        }\n    }\n\n    function getBlockPer() public view returns (uint256) {\n        return getUint(BLOCK_PER_NAME);\n    }\n\n    function getBallotDurationMin() public view returns (uint256) {\n        return getUint(BALLOT_DURATION_MIN_NAME);\n    }\n\n    function getBallotDurationMax() public view returns (uint256) {\n        return getUint(BALLOT_DURATION_MAX_NAME);\n    }\n\n    function getStakingMin() public view returns (uint256) {\n        return getUint(STAKING_MIN_NAME);\n    }\n\n    function getStakingMax() public view returns (uint256) {\n        return getUint(STAKING_MAX_NAME);\n    }\n    \n    function setBlockPer(uint256 _value) public onlyGov { \n        setUint(BLOCK_PER_NAME, _value);\n    }\n\n    function setBallotDurationMin(uint256 _value) public onlyGov { \n        setUint(BALLOT_DURATION_MIN_NAME, _value);\n    }\n\n    function setBallotDurationMax(uint256 _value) public onlyGov { \n        setUint(BALLOT_DURATION_MAX_NAME, _value);\n    }\n\n    function setStakingMin(uint256 _value) public onlyGov { \n        setUint(STAKING_MIN_NAME, _value);\n    }\n\n    function setStakingMax(uint256 _value) public onlyGov { \n        setUint(STAKING_MAX_NAME, _value);\n    }\n\n    function setBlockPerByBytes(bytes _value) public onlyGov { \n        setBlockPer(toUint(_value));\n    }\n\n    function setBallotDurationMinByBytes(bytes _value) public onlyGov { \n        setBallotDurationMin(toUint(_value));\n    }\n\n    function setBallotDurationMaxByBytes(bytes _value) public onlyGov { \n        setBallotDurationMax(toUint(_value));\n    }\n\n    function setStakingMinByBytes(bytes _value) public onlyGov { \n        setStakingMin(toUint(_value));\n    }\n\n    function setStakingMaxByBytes(bytes _value) public onlyGov { \n        setStakingMax(toUint(_value));\n    }\n\n    function getTestInt() public view returns (int256) {\n        return getInt(TEST_INT);\n    }\n\n    function getTestAddress() public view returns (address) {\n        return getAddress(TEST_ADDRESS);\n    }\n\n    function getTestBytes32() public view returns (bytes32) {\n        return getBytes32(TEST_BYTES32);\n    }\n\n    function getTestBytes() public view returns (bytes) {\n        return getBytes(TEST_BYTES);\n    }\n\n    function getTestString() public view returns (string) {\n        return getString(TEST_STRING);\n    }\n\n    function setTestIntByBytes(bytes _value) public onlyGov { \n        setInt(TEST_INT, toInt(_value));\n    }\n\n    function setTestAddressByBytes(bytes _value) public onlyGov { \n        setAddress(TEST_ADDRESS, toAddress(_value));\n    }\n\n    function setTestBytes32ByBytes(bytes _value) public onlyGov { \n        setBytes32(TEST_BYTES32, toBytes32(_value));\n    }\n\n    function setTestBytesByBytes(bytes _value) public onlyGov { \n        setBytes(TEST_BYTES, _value);\n    }\n\n    function setTestStringByBytes(bytes _value) public onlyGov { \n        setString(TEST_STRING, string(_value));\n    }\n\n    function toBytes32(bytes memory _input) internal pure returns (bytes32 _output) {\n        assembly {\n            _output := mload(add(_input, 32))\n        }\n    }\n\n    function toInt(bytes memory _input) internal pure returns (int256 _output) {\n        assembly {\n            _output := mload(add(_input, 32))\n        }\n    }\n\n    function toUint(bytes memory _input) internal pure returns (uint256 _output) {\n        \n        assembly {\n            _output := mload(add(_input, 32))\n        }\n    }\n\n    function toAddress(bytes memory _input) internal pure returns (address _output) {\n        assembly {\n            _output := mload(add(_input, 20))\n        }\n    }\n}",
  "sourcePath": "/Users/hexoul/Documents/Metadium/governance/governance-contract/contracts/storage/EnvStorageImp.sol",
  "compiler": {
    "name": "solc",
    "version": "0.4.24+commit.e67f0147.Emscripten.clang"
  },
  "schemaVersion": "2.0.1",
  "updatedAt": "2019-02-01T07:15:27.062Z"
}