{
  "contractName": "EnvStorageImp",
  "abi": [
    {
      "constant": true,
      "inputs": [
        {
          "name": "h",
          "type": "bytes32"
        }
      ],
      "name": "getAddress",
      "outputs": [
        {
          "name": "",
          "type": "address"
        }
      ],
      "payable": false,
      "stateMutability": "view",
      "type": "function"
    },
    {
      "constant": true,
      "inputs": [
        {
          "name": "h",
          "type": "bytes32"
        }
      ],
      "name": "getBoolean",
      "outputs": [
        {
          "name": "",
          "type": "bool"
        }
      ],
      "payable": false,
      "stateMutability": "view",
      "type": "function"
    },
    {
      "constant": true,
      "inputs": [],
      "name": "REG",
      "outputs": [
        {
          "name": "",
          "type": "address"
        }
      ],
      "payable": false,
      "stateMutability": "view",
      "type": "function"
    },
    {
      "constant": true,
      "inputs": [],
      "name": "GOV_NAME",
      "outputs": [
        {
          "name": "",
          "type": "bytes32"
        }
      ],
      "payable": false,
      "stateMutability": "view",
      "type": "function"
    },
    {
      "constant": false,
      "inputs": [],
      "name": "renounceOwnership",
      "outputs": [],
      "payable": false,
      "stateMutability": "nonpayable",
      "type": "function"
    },
    {
      "constant": true,
      "inputs": [],
      "name": "owner",
      "outputs": [
        {
          "name": "",
          "type": "address"
        }
      ],
      "payable": false,
      "stateMutability": "view",
      "type": "function"
    },
    {
      "constant": true,
      "inputs": [],
      "name": "isOwner",
      "outputs": [
        {
          "name": "",
          "type": "bool"
        }
      ],
      "payable": false,
      "stateMutability": "view",
      "type": "function"
    },
    {
      "constant": true,
      "inputs": [
        {
          "name": "h",
          "type": "bytes32"
        }
      ],
      "name": "getString",
      "outputs": [
        {
          "name": "",
          "type": "string"
        }
      ],
      "payable": false,
      "stateMutability": "view",
      "type": "function"
    },
    {
      "constant": true,
      "inputs": [
        {
          "name": "h",
          "type": "bytes32"
        }
      ],
      "name": "getBytes32",
      "outputs": [
        {
          "name": "",
          "type": "bytes32"
        }
      ],
      "payable": false,
      "stateMutability": "view",
      "type": "function"
    },
    {
      "constant": false,
      "inputs": [
        {
          "name": "_addr",
          "type": "address"
        }
      ],
      "name": "setRegistry",
      "outputs": [],
      "payable": false,
      "stateMutability": "nonpayable",
      "type": "function"
    },
    {
      "constant": true,
      "inputs": [
        {
          "name": "h",
          "type": "bytes32"
        }
      ],
      "name": "getUint",
      "outputs": [
        {
          "name": "",
          "type": "uint256"
        }
      ],
      "payable": false,
      "stateMutability": "view",
      "type": "function"
    },
    {
      "constant": true,
      "inputs": [
        {
          "name": "h",
          "type": "bytes32"
        }
      ],
      "name": "getBytes",
      "outputs": [
        {
          "name": "",
          "type": "bytes"
        }
      ],
      "payable": false,
      "stateMutability": "view",
      "type": "function"
    },
    {
      "constant": true,
      "inputs": [
        {
          "name": "h",
          "type": "bytes32"
        }
      ],
      "name": "getInt",
      "outputs": [
        {
          "name": "",
          "type": "int256"
        }
      ],
      "payable": false,
      "stateMutability": "view",
      "type": "function"
    },
    {
      "constant": false,
      "inputs": [
        {
          "name": "newOwner",
          "type": "address"
        }
      ],
      "name": "transferOwnership",
      "outputs": [],
      "payable": false,
      "stateMutability": "nonpayable",
      "type": "function"
    },
    {
      "anonymous": false,
      "inputs": [
        {
          "indexed": false,
          "name": "_bytes",
          "type": "bytes"
        },
        {
          "indexed": false,
          "name": "_string",
          "type": "string"
        }
      ],
      "name": "testCodeValue",
      "type": "event"
    },
    {
      "anonymous": false,
      "inputs": [
        {
          "indexed": true,
          "name": "_name",
          "type": "bytes32"
        },
        {
          "indexed": false,
          "name": "_value",
          "type": "string"
        }
      ],
      "name": "StringVarableChanged",
      "type": "event"
    },
    {
      "anonymous": false,
      "inputs": [
        {
          "indexed": true,
          "name": "_name",
          "type": "bytes32"
        },
        {
          "indexed": false,
          "name": "_value",
          "type": "uint256"
        }
      ],
      "name": "UintVarableChanged",
      "type": "event"
    },
    {
      "anonymous": false,
      "inputs": [
        {
          "indexed": true,
          "name": "_name",
          "type": "bytes32"
        },
        {
          "indexed": false,
          "name": "_value",
          "type": "int256"
        }
      ],
      "name": "IntVarableChanged",
      "type": "event"
    },
    {
      "anonymous": false,
      "inputs": [
        {
          "indexed": true,
          "name": "_name",
          "type": "bytes32"
        },
        {
          "indexed": false,
          "name": "_value",
          "type": "address"
        }
      ],
      "name": "AddressVarableChanged",
      "type": "event"
    },
    {
      "anonymous": false,
      "inputs": [
        {
          "indexed": true,
          "name": "_name",
          "type": "bytes32"
        },
        {
          "indexed": false,
          "name": "_value",
          "type": "bytes32"
        }
      ],
      "name": "Bytes32VarableChanged",
      "type": "event"
    },
    {
      "anonymous": false,
      "inputs": [
        {
          "indexed": true,
          "name": "_name",
          "type": "bytes32"
        },
        {
          "indexed": false,
          "name": "_value",
          "type": "bytes"
        }
      ],
      "name": "BytesVarableChanged",
      "type": "event"
    },
    {
      "anonymous": false,
      "inputs": [
        {
          "indexed": true,
          "name": "_name",
          "type": "bytes32"
        },
        {
          "indexed": true,
          "name": "_type",
          "type": "uint256"
        },
        {
          "indexed": false,
          "name": "_value",
          "type": "string"
        }
      ],
      "name": "VarableChanged",
      "type": "event"
    },
    {
      "anonymous": false,
      "inputs": [
        {
          "indexed": true,
          "name": "previousOwner",
          "type": "address"
        },
        {
          "indexed": true,
          "name": "newOwner",
          "type": "address"
        }
      ],
      "name": "OwnershipTransferred",
      "type": "event"
    },
    {
      "constant": false,
      "inputs": [],
      "name": "initialize",
      "outputs": [],
      "payable": false,
      "stateMutability": "nonpayable",
      "type": "function"
    },
    {
      "constant": true,
      "inputs": [],
      "name": "getBlockPerValue",
      "outputs": [
        {
          "name": "",
          "type": "uint256"
        }
      ],
      "payable": false,
      "stateMutability": "view",
      "type": "function"
    },
    {
      "constant": true,
      "inputs": [],
      "name": "getBallotDurationMinValue",
      "outputs": [
        {
          "name": "",
          "type": "uint256"
        }
      ],
      "payable": false,
      "stateMutability": "view",
      "type": "function"
    },
    {
      "constant": true,
      "inputs": [],
      "name": "getBallotDurationMaxValue",
      "outputs": [
        {
          "name": "",
          "type": "uint256"
        }
      ],
      "payable": false,
      "stateMutability": "view",
      "type": "function"
    },
    {
      "constant": true,
      "inputs": [],
      "name": "getStakingMinValue",
      "outputs": [
        {
          "name": "",
          "type": "uint256"
        }
      ],
      "payable": false,
      "stateMutability": "view",
      "type": "function"
    },
    {
      "constant": true,
      "inputs": [],
      "name": "getStakingMaxValue",
      "outputs": [
        {
          "name": "",
          "type": "uint256"
        }
      ],
      "payable": false,
      "stateMutability": "view",
      "type": "function"
    },
    {
      "constant": true,
      "inputs": [],
      "name": "getBlockPer",
      "outputs": [
        {
          "name": "",
          "type": "uint256"
        }
      ],
      "payable": false,
      "stateMutability": "view",
      "type": "function"
    },
    {
      "constant": true,
      "inputs": [],
      "name": "getBallotDurationMin",
      "outputs": [
        {
          "name": "",
          "type": "uint256"
        }
      ],
      "payable": false,
      "stateMutability": "view",
      "type": "function"
    },
    {
      "constant": true,
      "inputs": [],
      "name": "getBallotDurationMax",
      "outputs": [
        {
          "name": "",
          "type": "uint256"
        }
      ],
      "payable": false,
      "stateMutability": "view",
      "type": "function"
    },
    {
      "constant": true,
      "inputs": [],
      "name": "getStakingMin",
      "outputs": [
        {
          "name": "",
          "type": "uint256"
        }
      ],
      "payable": false,
      "stateMutability": "view",
      "type": "function"
    },
    {
      "constant": true,
      "inputs": [],
      "name": "getStakingMax",
      "outputs": [
        {
          "name": "",
          "type": "uint256"
        }
      ],
      "payable": false,
      "stateMutability": "view",
      "type": "function"
    },
    {
      "constant": false,
      "inputs": [
        {
          "name": "_value",
          "type": "uint256"
        }
      ],
      "name": "setBlockPer",
      "outputs": [],
      "payable": false,
      "stateMutability": "nonpayable",
      "type": "function"
    },
    {
      "constant": false,
      "inputs": [
        {
          "name": "_value",
          "type": "uint256"
        }
      ],
      "name": "setBallotDurationMin",
      "outputs": [],
      "payable": false,
      "stateMutability": "nonpayable",
      "type": "function"
    },
    {
      "constant": false,
      "inputs": [
        {
          "name": "_value",
          "type": "uint256"
        }
      ],
      "name": "setBallotDurationMax",
      "outputs": [],
      "payable": false,
      "stateMutability": "nonpayable",
      "type": "function"
    },
    {
      "constant": false,
      "inputs": [
        {
          "name": "_value",
          "type": "uint256"
        }
      ],
      "name": "setStakingMin",
      "outputs": [],
      "payable": false,
      "stateMutability": "nonpayable",
      "type": "function"
    },
    {
      "constant": false,
      "inputs": [
        {
          "name": "_value",
          "type": "uint256"
        }
      ],
      "name": "setStakingMax",
      "outputs": [],
      "payable": false,
      "stateMutability": "nonpayable",
      "type": "function"
    },
    {
      "constant": false,
      "inputs": [
        {
          "name": "_value",
          "type": "bytes"
        }
      ],
      "name": "setBlockPerByBytes",
      "outputs": [],
      "payable": false,
      "stateMutability": "nonpayable",
      "type": "function"
    },
    {
      "constant": false,
      "inputs": [
        {
          "name": "_value",
          "type": "bytes"
        }
      ],
      "name": "setBallotDurationMinByBytes",
      "outputs": [],
      "payable": false,
      "stateMutability": "nonpayable",
      "type": "function"
    },
    {
      "constant": false,
      "inputs": [
        {
          "name": "_value",
          "type": "bytes"
        }
      ],
      "name": "setBallotDurationMaxByBytes",
      "outputs": [],
      "payable": false,
      "stateMutability": "nonpayable",
      "type": "function"
    },
    {
      "constant": false,
      "inputs": [
        {
          "name": "_value",
          "type": "bytes"
        }
      ],
      "name": "setStakingMinByBytes",
      "outputs": [],
      "payable": false,
      "stateMutability": "nonpayable",
      "type": "function"
    },
    {
      "constant": false,
      "inputs": [
        {
          "name": "_value",
          "type": "bytes"
        }
      ],
      "name": "setStakingMaxByBytes",
      "outputs": [],
      "payable": false,
      "stateMutability": "nonpayable",
      "type": "function"
    },
    {
      "constant": true,
      "inputs": [],
      "name": "getTestInt",
      "outputs": [
        {
          "name": "",
          "type": "int256"
        }
      ],
      "payable": false,
      "stateMutability": "view",
      "type": "function"
    },
    {
      "constant": true,
      "inputs": [],
      "name": "getTestAddress",
      "outputs": [
        {
          "name": "",
          "type": "address"
        }
      ],
      "payable": false,
      "stateMutability": "view",
      "type": "function"
    },
    {
      "constant": true,
      "inputs": [],
      "name": "getTestBytes32",
      "outputs": [
        {
          "name": "",
          "type": "bytes32"
        }
      ],
      "payable": false,
      "stateMutability": "view",
      "type": "function"
    },
    {
      "constant": true,
      "inputs": [],
      "name": "getTestBytes",
      "outputs": [
        {
          "name": "",
          "type": "bytes"
        }
      ],
      "payable": false,
      "stateMutability": "view",
      "type": "function"
    },
    {
      "constant": true,
      "inputs": [],
      "name": "getTestString",
      "outputs": [
        {
          "name": "",
          "type": "string"
        }
      ],
      "payable": false,
      "stateMutability": "view",
      "type": "function"
    },
    {
      "constant": false,
      "inputs": [
        {
          "name": "_value",
          "type": "bytes"
        }
      ],
      "name": "setTestIntByBytes",
      "outputs": [],
      "payable": false,
      "stateMutability": "nonpayable",
      "type": "function"
    },
    {
      "constant": false,
      "inputs": [
        {
          "name": "_value",
          "type": "bytes"
        }
      ],
      "name": "setTestAddressByBytes",
      "outputs": [],
      "payable": false,
      "stateMutability": "nonpayable",
      "type": "function"
    },
    {
      "constant": false,
      "inputs": [
        {
          "name": "_value",
          "type": "bytes"
        }
      ],
      "name": "setTestBytes32ByBytes",
      "outputs": [],
      "payable": false,
      "stateMutability": "nonpayable",
      "type": "function"
    },
    {
      "constant": false,
      "inputs": [
        {
          "name": "_value",
          "type": "bytes"
        }
      ],
      "name": "setTestBytesByBytes",
      "outputs": [],
      "payable": false,
      "stateMutability": "nonpayable",
      "type": "function"
    },
    {
      "constant": false,
      "inputs": [
        {
          "name": "_value",
          "type": "bytes"
        }
      ],
      "name": "setTestStringByBytes",
      "outputs": [],
      "payable": false,
      "stateMutability": "nonpayable",
      "type": "function"
    },
    {
      "constant": true,
      "inputs": [
        {
          "name": "_input",
          "type": "bytes"
        }
      ],
      "name": "toString",
      "outputs": [
        {
          "name": "_output",
          "type": "string"
        }
      ],
      "payable": false,
      "stateMutability": "pure",
      "type": "function"
    },
    {
      "constant": true,
      "inputs": [
        {
          "name": "_input",
          "type": "int256"
        }
      ],
      "name": "intToBytes",
      "outputs": [
        {
          "name": "_output",
          "type": "bytes"
        }
      ],
      "payable": false,
      "stateMutability": "pure",
      "type": "function"
    },
    {
      "constant": true,
      "inputs": [
        {
          "name": "_input",
          "type": "uint256"
        }
      ],
      "name": "uintToBytes",
      "outputs": [
        {
          "name": "_output",
          "type": "bytes"
        }
      ],
      "payable": false,
      "stateMutability": "pure",
      "type": "function"
    },
    {
      "constant": true,
      "inputs": [
        {
          "name": "_input",
          "type": "address"
        }
      ],
      "name": "addressToBytes",
      "outputs": [
        {
          "name": "_output",
          "type": "bytes"
        }
      ],
      "payable": false,
      "stateMutability": "pure",
      "type": "function"
    },
    {
      "constant": true,
      "inputs": [
        {
          "name": "_input",
          "type": "string"
        }
      ],
      "name": "stringToBytes",
      "outputs": [
        {
          "name": "_output",
          "type": "bytes"
        }
      ],
      "payable": false,
      "stateMutability": "pure",
      "type": "function"
    }
  ],
  "bytecode": "0x60806040527f476f7665726e616e6365436f6e7472616374000000000000000000000000000060099060001916905533600760006101000a81548173ffffffffffffffffffffffffffffffffffffffff021916908373ffffffffffffffffffffffffffffffffffffffff160217905550600760009054906101000a900473ffffffffffffffffffffffffffffffffffffffff1673ffffffffffffffffffffffffffffffffffffffff16600073ffffffffffffffffffffffffffffffffffffffff167f8be0079c531659141344cd1fd0a4f28419497f9722a3daafe3b4186f6b6457e060405160405180910390a3613f94806100fb6000396000f30060806040526004361061025c576000357c0100000000000000000000000000000000000000000000000000000000900463ffffffff168063076cd77f14610261578063081800351461028c5780630a61b0ba146102f5578063124cea371461035e57806315bf4b05146103c75780631b27e01b1461045757806321f8a721146104825780632eb57c65146104f35780632eccd832146105205780632f809ee1146105895780632f91be48146105b457806333be496e146106445780633848207a1461066f57806339363112146106b85780633c3456041461070f57806346e1d5531461073c5780635f5a4f66146107a557806368cb4da31461080e5780636c78d2cf14610841578063715018a61461087457806371aad10d1461088b57806371c6960d1461096d5780637379230b146109d6578063737c59b814610a7c5780637ca9166d14610aa75780637effdacf14610ad25780638129fc1c14610afd578063852cf38f14610b145780638a523b6b14610b415780638da5cb5b14610baa5780638f32d59b14610c0157806394e8767d14610c30578063986e791a14610cd6578063a36f259b14610d80578063a3c0beac14610dad578063a5d6a58114610dd8578063a6ed563e14610e41578063a91ee0dc14610e8e578063b165ca9514610ed1578063b99e34f014610efc578063bd02d0f514610f27578063c031a18014610f6c578063d614781414611016578063dc97d9621461106d578063dd46cb81146110b2578063ded8454a1461111b578063e106fb4b146111d7578063e60308db146112b9578063f2fde38b146112e4578063f821459114611327575b600080fd5b34801561026d57600080fd5b50610276611354565b6040518082815260200191505060405180910390f35b34801561029857600080fd5b506102f3600480360381019080803590602001908201803590602001908080601f0160208091040260200160405190810160405280939291908181526020018383808284378201915050505050509192919290505050611399565b005b34801561030157600080fd5b5061035c600480360381019080803590602001908201803590602001908080601f0160208091040260200160405190810160405280939291908181526020018383808284378201915050505050509192919290505050611553565b005b34801561036a57600080fd5b506103c5600480360381019080803590602001908201803590602001908080601f01602080910402602001604051908101604052809392919081815260200183838082843782019150505050505091929192905050506116df565b005b3480156103d357600080fd5b506103dc61186b565b6040518080602001828103825283818151815260200191508051906020019080838360005b8381101561041c578082015181840152602081019050610401565b50505050905090810190601f1680156104495780820380516001836020036101000a031916815260200191505b509250505060405180910390f35b34801561046357600080fd5b5061046c6118b0565b6040518082815260200191505060405180910390f35b34801561048e57600080fd5b506104b160048036038101908080356000191690602001909291905050506118f5565b604051808273ffffffffffffffffffffffffffffffffffffffff1673ffffffffffffffffffffffffffffffffffffffff16815260200191505060405180910390f35b3480156104ff57600080fd5b5061051e6004803603810190808035906020019092919050505061193c565b005b34801561052c57600080fd5b50610587600480360381019080803590602001908201803590602001908080601f0160208091040260200160405190810160405280939291908181526020018383808284378201915050505050509192919290505050611af6565b005b34801561059557600080fd5b5061059e611c82565b6040518082815260200191505060405180910390f35b3480156105c057600080fd5b506105c9611cc7565b6040518080602001828103825283818151815260200191508051906020019080838360005b838110156106095780820151818401526020810190506105ee565b50505050905090810190601f1680156106365780820380516001836020036101000a031916815260200191505b509250505060405180910390f35b34801561065057600080fd5b50610659611d0c565b6040518082815260200191505060405180910390f35b34801561067b57600080fd5b5061069e6004803603810190808035600019169060200190929190505050611d51565b604051808215151515815260200191505060405180910390f35b3480156106c457600080fd5b506106cd611d85565b604051808273ffffffffffffffffffffffffffffffffffffffff1673ffffffffffffffffffffffffffffffffffffffff16815260200191505060405180910390f35b34801561071b57600080fd5b5061073a60048036038101908080359060200190929190505050611dab565b005b34801561074857600080fd5b506107a3600480360381019080803590602001908201803590602001908080601f0160208091040260200160405190810160405280939291908181526020018383808284378201915050505050509192919290505050611f65565b005b3480156107b157600080fd5b5061080c600480360381019080803590602001908201803590602001908080601f0160208091040260200160405190810160405280939291908181526020018383808284378201915050505050509192919290505050612127565b005b34801561081a57600080fd5b506108236122e9565b60405180826000191660001916815260200191505060405180910390f35b34801561084d57600080fd5b5061085661232e565b60405180826000191660001916815260200191505060405180910390f35b34801561088057600080fd5b50610889612334565b005b34801561089757600080fd5b506108f2600480360381019080803590602001908201803590602001908080601f0160208091040260200160405190810160405280939291908181526020018383808284378201915050505050509192919290505050612408565b6040518080602001828103825283818151815260200191508051906020019080838360005b83811015610932578082015181840152602081019050610917565b50505050905090810190601f16801561095f5780820380516001836020036101000a031916815260200191505b509250505060405180910390f35b34801561097957600080fd5b506109d4600480360381019080803590602001908201803590602001908080601f0160208091040260200160405190810160405280939291908181526020018383808284378201915050505050509192919290505050612412565b005b3480156109e257600080fd5b50610a016004803603810190808035906020019092919050505061259e565b6040518080602001828103825283818151815260200191508051906020019080838360005b83811015610a41578082015181840152602081019050610a26565b50505050905090810190601f168015610a6e5780820380516001836020036101000a031916815260200191505b509250505060405180910390f35b348015610a8857600080fd5b50610a916125e2565b6040518082815260200191505060405180910390f35b348015610ab357600080fd5b50610abc612627565b6040518082815260200191505060405180910390f35b348015610ade57600080fd5b50610ae761266c565b6040518082815260200191505060405180910390f35b348015610b0957600080fd5b50610b126126b1565b005b348015610b2057600080fd5b50610b3f60048036038101908080359060200190929190505050612884565b005b348015610b4d57600080fd5b50610ba8600480360381019080803590602001908201803590602001908080601f0160208091040260200160405190810160405280939291908181526020018383808284378201915050505050509192919290505050612a3e565b005b348015610bb657600080fd5b50610bbf612d01565b604051808273ffffffffffffffffffffffffffffffffffffffff1673ffffffffffffffffffffffffffffffffffffffff16815260200191505060405180910390f35b348015610c0d57600080fd5b50610c16612d2b565b604051808215151515815260200191505060405180910390f35b348015610c3c57600080fd5b50610c5b60048036038101908080359060200190929190505050612d83565b6040518080602001828103825283818151815260200191508051906020019080838360005b83811015610c9b578082015181840152602081019050610c80565b50505050905090810190601f168015610cc85780820380516001836020036101000a031916815260200191505b509250505060405180910390f35b348015610ce257600080fd5b50610d056004803603810190808035600019169060200190929190505050612dc7565b6040518080602001828103825283818151815260200191508051906020019080838360005b83811015610d45578082015181840152602081019050610d2a565b50505050905090810190601f168015610d725780820380516001836020036101000a031916815260200191505b509250505060405180910390f35b348015610d8c57600080fd5b50610dab60048036038101908080359060200190929190505050612e87565b005b348015610db957600080fd5b50610dc2613041565b6040518082815260200191505060405180910390f35b348015610de457600080fd5b50610e3f600480360381019080803590602001908201803590602001908080601f0160208091040260200160405190810160405280939291908181526020018383808284378201915050505050509192919290505050613086565b005b348015610e4d57600080fd5b50610e706004803603810190808035600019169060200190929190505050613212565b60405180826000191660001916815260200191505060405180910390f35b348015610e9a57600080fd5b50610ecf600480360381019080803573ffffffffffffffffffffffffffffffffffffffff169060200190929190505050613239565b005b348015610edd57600080fd5b50610ee6613290565b6040518082815260200191505060405180910390f35b348015610f0857600080fd5b50610f116132d5565b6040518082815260200191505060405180910390f35b348015610f3357600080fd5b50610f56600480360381019080803560001916906020019092919050505061331a565b6040518082815260200191505060405180910390f35b348015610f7857600080fd5b50610f9b6004803603810190808035600019169060200190929190505050613341565b6040518080602001828103825283818151815260200191508051906020019080838360005b83811015610fdb578082015181840152602081019050610fc0565b50505050905090810190601f1680156110085780820380516001836020036101000a031916815260200191505b509250505060405180910390f35b34801561102257600080fd5b5061102b613401565b604051808273ffffffffffffffffffffffffffffffffffffffff1673ffffffffffffffffffffffffffffffffffffffff16815260200191505060405180910390f35b34801561107957600080fd5b5061109c6004803603810190808035600019169060200190929190505050613446565b6040518082815260200191505060405180910390f35b3480156110be57600080fd5b50611119600480360381019080803590602001908201803590602001908080601f016020809104026020016040519081016040528093929190818152602001838380828437820191505050505050919291929050505061346d565b005b34801561112757600080fd5b5061115c600480360381019080803573ffffffffffffffffffffffffffffffffffffffff16906020019092919050505061362f565b6040518080602001828103825283818151815260200191508051906020019080838360005b8381101561119c578082015181840152602081019050611181565b50505050905090810190601f1680156111c95780820380516001836020036101000a031916815260200191505b509250505060405180910390f35b3480156111e357600080fd5b5061123e600480360381019080803590602001908201803590602001908080601f0160208091040260200160405190810160405280939291908181526020018383808284378201915050505050509192919290505050613661565b6040518080602001828103825283818151815260200191508051906020019080838360005b8381101561127e578082015181840152602081019050611263565b50505050905090810190601f1680156112ab5780820380516001836020036101000a031916815260200191505b509250505060405180910390f35b3480156112c557600080fd5b506112ce6136ef565b6040518082815260200191505060405180910390f35b3480156112f057600080fd5b50611325600480360381019080803573ffffffffffffffffffffffffffffffffffffffff169060200190929190505050613734565b005b34801561133357600080fd5b5061135260048036038101908080359060200190929190505050613753565b005b600061139460405180807f7374616b696e674d696e00000000000000000000000000000000000000000000815250600a019050604051809103902061331a565b905090565b3373ffffffffffffffffffffffffffffffffffffffff16600860009054906101000a900473ffffffffffffffffffffffffffffffffffffffff1673ffffffffffffffffffffffffffffffffffffffff16630d2020dd6009546040518263ffffffff167c0100000000000000000000000000000000000000000000000000000000028152600401808260001916600019168152602001915050602060405180830381600087803b15801561144b57600080fd5b505af115801561145f573d6000803e3d6000fd5b505050506040513d602081101561147557600080fd5b810190808051906020019092919050505073ffffffffffffffffffffffffffffffffffffffff16141515611511576040517f08c379a000000000000000000000000000000000000000000000000000000000815260040180806020018281038252600d8152602001807f4e6f205065726d697373696f6e0000000000000000000000000000000000000081525060200191505060405180910390fd5b61155060405180807f544553545f425954455300000000000000000000000000000000000000000000815250600a01905060405180910390208261390d565b50565b3373ffffffffffffffffffffffffffffffffffffffff16600860009054906101000a900473ffffffffffffffffffffffffffffffffffffffff1673ffffffffffffffffffffffffffffffffffffffff16630d2020dd6009546040518263ffffffff167c0100000000000000000000000000000000000000000000000000000000028152600401808260001916600019168152602001915050602060405180830381600087803b15801561160557600080fd5b505af1158015611619573d6000803e3d6000fd5b505050506040513d602081101561162f57600080fd5b810190808051906020019092919050505073ffffffffffffffffffffffffffffffffffffffff161415156116cb576040517f08c379a000000000000000000000000000000000000000000000000000000000815260040180806020018281038252600d8152602001807f4e6f205065726d697373696f6e0000000000000000000000000000000000000081525060200191505060405180910390fd5b6116dc6116d7826139bc565b611dab565b50565b3373ffffffffffffffffffffffffffffffffffffffff16600860009054906101000a900473ffffffffffffffffffffffffffffffffffffffff1673ffffffffffffffffffffffffffffffffffffffff16630d2020dd6009546040518263ffffffff167c0100000000000000000000000000000000000000000000000000000000028152600401808260001916600019168152602001915050602060405180830381600087803b15801561179157600080fd5b505af11580156117a5573d6000803e3d6000fd5b505050506040513d60208110156117bb57600080fd5b810190808051906020019092919050505073ffffffffffffffffffffffffffffffffffffffff16141515611857576040517f08c379a000000000000000000000000000000000000000000000000000000000815260040180806020018281038252600d8152602001807f4e6f205065726d697373696f6e0000000000000000000000000000000000000081525060200191505060405180910390fd5b611868611863826139bc565b612e87565b50565b60606118ab60405180807f544553545f425954455300000000000000000000000000000000000000000000815250600a0190506040518091039020613341565b905090565b60006118f060405180807f62616c6c6f744475726174696f6e4d61780000000000000000000000000000008152506011019050604051809103902061331a565b905090565b6000806004016000836000191660001916815260200190815260200160002060009054906101000a900473ffffffffffffffffffffffffffffffffffffffff169050919050565b3373ffffffffffffffffffffffffffffffffffffffff16600860009054906101000a900473ffffffffffffffffffffffffffffffffffffffff1673ffffffffffffffffffffffffffffffffffffffff16630d2020dd6009546040518263ffffffff167c0100000000000000000000000000000000000000000000000000000000028152600401808260001916600019168152602001915050602060405180830381600087803b1580156119ee57600080fd5b505af1158015611a02573d6000803e3d6000fd5b505050506040513d6020811015611a1857600080fd5b810190808051906020019092919050505073ffffffffffffffffffffffffffffffffffffffff16141515611ab4576040517f08c379a000000000000000000000000000000000000000000000000000000000815260040180806020018281038252600d8152602001807f4e6f205065726d697373696f6e0000000000000000000000000000000000000081525060200191505060405180910390fd5b611af360405180807f7374616b696e674d696e00000000000000000000000000000000000000000000815250600a0190506040518091039020826139ca565b50565b3373ffffffffffffffffffffffffffffffffffffffff16600860009054906101000a900473ffffffffffffffffffffffffffffffffffffffff1673ffffffffffffffffffffffffffffffffffffffff16630d2020dd6009546040518263ffffffff167c0100000000000000000000000000000000000000000000000000000000028152600401808260001916600019168152602001915050602060405180830381600087803b158015611ba857600080fd5b505af1158015611bbc573d6000803e3d6000fd5b505050506040513d6020811015611bd257600080fd5b810190808051906020019092919050505073ffffffffffffffffffffffffffffffffffffffff16141515611c6e576040517f08c379a000000000000000000000000000000000000000000000000000000000815260040180806020018281038252600d8152602001807f4e6f205065726d697373696f6e0000000000000000000000000000000000000081525060200191505060405180910390fd5b611c7f611c7a826139bc565b613753565b50565b6000611cc260405180807f626c6f636b5065720000000000000000000000000000000000000000000000008152506008019050604051809103902061331a565b905090565b6060611d0760405180807f544553545f535452494e47000000000000000000000000000000000000000000815250600b0190506040518091039020612dc7565b905090565b6000611d4c60405180807f62616c6c6f744475726174696f6e4d696e0000000000000000000000000000008152506011019050604051809103902061331a565b905090565b6000806000016000836000191660001916815260200190815260200160002060009054906101000a900460ff169050919050565b600860009054906101000a900473ffffffffffffffffffffffffffffffffffffffff1681565b3373ffffffffffffffffffffffffffffffffffffffff16600860009054906101000a900473ffffffffffffffffffffffffffffffffffffffff1673ffffffffffffffffffffffffffffffffffffffff16630d2020dd6009546040518263ffffffff167c0100000000000000000000000000000000000000000000000000000000028152600401808260001916600019168152602001915050602060405180830381600087803b158015611e5d57600080fd5b505af1158015611e71573d6000803e3d6000fd5b505050506040513d6020811015611e8757600080fd5b810190808051906020019092919050505073ffffffffffffffffffffffffffffffffffffffff16141515611f23576040517f08c379a000000000000000000000000000000000000000000000000000000000815260040180806020018281038252600d8152602001807f4e6f205065726d697373696f6e0000000000000000000000000000000000000081525060200191505060405180910390fd5b611f6260405180807f626c6f636b50657200000000000000000000000000000000000000000000000081525060080190506040518091039020826139ca565b50565b3373ffffffffffffffffffffffffffffffffffffffff16600860009054906101000a900473ffffffffffffffffffffffffffffffffffffffff1673ffffffffffffffffffffffffffffffffffffffff16630d2020dd6009546040518263ffffffff167c0100000000000000000000000000000000000000000000000000000000028152600401808260001916600019168152602001915050602060405180830381600087803b15801561201757600080fd5b505af115801561202b573d6000803e3d6000fd5b505050506040513d602081101561204157600080fd5b810190808051906020019092919050505073ffffffffffffffffffffffffffffffffffffffff161415156120dd576040517f08c379a000000000000000000000000000000000000000000000000000000000815260040180806020018281038252600d8152602001807f4e6f205065726d697373696f6e0000000000000000000000000000000000000081525060200191505060405180910390fd5b61212460405180807f544553545f494e540000000000000000000000000000000000000000000000008152506008019050604051809103902061211f83613a14565b613a22565b50565b3373ffffffffffffffffffffffffffffffffffffffff16600860009054906101000a900473ffffffffffffffffffffffffffffffffffffffff1673ffffffffffffffffffffffffffffffffffffffff16630d2020dd6009546040518263ffffffff167c0100000000000000000000000000000000000000000000000000000000028152600401808260001916600019168152602001915050602060405180830381600087803b1580156121d957600080fd5b505af11580156121ed573d6000803e3d6000fd5b505050506040513d602081101561220357600080fd5b810190808051906020019092919050505073ffffffffffffffffffffffffffffffffffffffff1614151561229f576040517f08c379a000000000000000000000000000000000000000000000000000000000815260040180806020018281038252600d8152602001807f4e6f205065726d697373696f6e0000000000000000000000000000000000000081525060200191505060405180910390fd5b6122e660405180807f544553545f425954455333320000000000000000000000000000000000000000815250600c01905060405180910390206122e183613a6c565b613a7a565b50565b600061232960405180807f544553545f425954455333320000000000000000000000000000000000000000815250600c0190506040518091039020613212565b905090565b60095481565b61233c612d2b565b151561234757600080fd5b600073ffffffffffffffffffffffffffffffffffffffff16600760009054906101000a900473ffffffffffffffffffffffffffffffffffffffff1673ffffffffffffffffffffffffffffffffffffffff167f8be0079c531659141344cd1fd0a4f28419497f9722a3daafe3b4186f6b6457e060405160405180910390a36000600760006101000a81548173ffffffffffffffffffffffffffffffffffffffff021916908373ffffffffffffffffffffffffffffffffffffffff160217905550565b6060819050919050565b3373ffffffffffffffffffffffffffffffffffffffff16600860009054906101000a900473ffffffffffffffffffffffffffffffffffffffff1673ffffffffffffffffffffffffffffffffffffffff16630d2020dd6009546040518263ffffffff167c0100000000000000000000000000000000000000000000000000000000028152600401808260001916600019168152602001915050602060405180830381600087803b1580156124c457600080fd5b505af11580156124d8573d6000803e3d6000fd5b505050506040513d60208110156124ee57600080fd5b810190808051906020019092919050505073ffffffffffffffffffffffffffffffffffffffff1614151561258a576040517f08c379a000000000000000000000000000000000000000000000000000000000815260040180806020018281038252600d8152602001807f4e6f205065726d697373696f6e0000000000000000000000000000000000000081525060200191505060405180910390fd5b61259b612596826139bc565b61193c565b50565b606060206040519080825280601f01601f1916602001820160405280156125d45781602001602082028038833980820191505090505b509050816020820152919050565b600061262260405180807f7374616b696e674d617800000000000000000000000000000000000000000000815250600a019050604051809103902061331a565b905090565b600061266760405180807f7374616b696e674d617800000000000000000000000000000000000000000000815250600a019050604051809103902061331a565b905090565b60006126ac60405180807f7374616b696e674d696e00000000000000000000000000000000000000000000815250600a019050604051809103902061331a565b905090565b60008060008060006126c1612d2b565b15156126cc57600080fd5b6126d46132d5565b94506126de613290565b93506126e8613041565b92506126f261266c565b91506126fc612627565b905060008514156127495761274860405180807f626c6f636b506572000000000000000000000000000000000000000000000000815250600801905060405180910390206103e86139ca565b5b60008414156127955761279460405180807f62616c6c6f744475726174696f6e4d696e0000000000000000000000000000008152506011019050604051809103902062093a806139ca565b5b60008314156127e1576127e060405180807f62616c6c6f744475726174696f6e4d61780000000000000000000000000000008152506011019050604051809103902062093a806139ca565b5b600082141561282f5761282e60405180807f7374616b696e674d696e00000000000000000000000000000000000000000000815250600a01905060405180910390206402540be4006139ca565b5b600081141561287d5761287c60405180807f7374616b696e674d617800000000000000000000000000000000000000000000815250600a01905060405180910390206404a817c8006139ca565b5b5050505050565b3373ffffffffffffffffffffffffffffffffffffffff16600860009054906101000a900473ffffffffffffffffffffffffffffffffffffffff1673ffffffffffffffffffffffffffffffffffffffff16630d2020dd6009546040518263ffffffff167c0100000000000000000000000000000000000000000000000000000000028152600401808260001916600019168152602001915050602060405180830381600087803b15801561293657600080fd5b505af115801561294a573d6000803e3d6000fd5b505050506040513d602081101561296057600080fd5b810190808051906020019092919050505073ffffffffffffffffffffffffffffffffffffffff161415156129fc576040517f08c379a000000000000000000000000000000000000000000000000000000000815260040180806020018281038252600d8152602001807f4e6f205065726d697373696f6e0000000000000000000000000000000000000081525060200191505060405180910390fd5b612a3b60405180807f62616c6c6f744475726174696f6e4d617800000000000000000000000000000081525060110190506040518091039020826139ca565b50565b3373ffffffffffffffffffffffffffffffffffffffff16600860009054906101000a900473ffffffffffffffffffffffffffffffffffffffff1673ffffffffffffffffffffffffffffffffffffffff16630d2020dd6009546040518263ffffffff167c0100000000000000000000000000000000000000000000000000000000028152600401808260001916600019168152602001915050602060405180830381600087803b158015612af057600080fd5b505af1158015612b04573d6000803e3d6000fd5b505050506040513d6020811015612b1a57600080fd5b810190808051906020019092919050505073ffffffffffffffffffffffffffffffffffffffff16141515612bb6576040517f08c379a000000000000000000000000000000000000000000000000000000000815260040180806020018281038252600d8152602001807f4e6f205065726d697373696f6e0000000000000000000000000000000000000081525060200191505060405180910390fd5b7f1e36976b9c37ba9e441fdbdd3a41d18069e9917141789204de7c0ef19d4ccad18182604051808060200180602001838103835285818151815260200191508051906020019080838360005b83811015612c1d578082015181840152602081019050612c02565b50505050905090810190601f168015612c4a5780820380516001836020036101000a031916815260200191505b50838103825284818151815260200191508051906020019080838360005b83811015612c83578082015181840152602081019050612c68565b50505050905090810190601f168015612cb05780820380516001836020036101000a031916815260200191505b5094505050505060405180910390a1612cfe60405180807f544553545f535452494e47000000000000000000000000000000000000000000815250600b019050604051809103902082613acc565b50565b6000600760009054906101000a900473ffffffffffffffffffffffffffffffffffffffff16905090565b6000600760009054906101000a900473ffffffffffffffffffffffffffffffffffffffff1673ffffffffffffffffffffffffffffffffffffffff163373ffffffffffffffffffffffffffffffffffffffff1614905090565b606060206040519080825280601f01601f191660200182016040528015612db95781602001602082028038833980820191505090505b509050816020820152919050565b60606000600301600083600019166000191681526020019081526020016000208054600181600116156101000203166002900480601f016020809104026020016040519081016040528092919081815260200182805460018160011615610100020316600290048015612e7b5780601f10612e5057610100808354040283529160200191612e7b565b820191906000526020600020905b815481529060010190602001808311612e5e57829003601f168201915b50505050509050919050565b3373ffffffffffffffffffffffffffffffffffffffff16600860009054906101000a900473ffffffffffffffffffffffffffffffffffffffff1673ffffffffffffffffffffffffffffffffffffffff16630d2020dd6009546040518263ffffffff167c0100000000000000000000000000000000000000000000000000000000028152600401808260001916600019168152602001915050602060405180830381600087803b158015612f3957600080fd5b505af1158015612f4d573d6000803e3d6000fd5b505050506040513d6020811015612f6357600080fd5b810190808051906020019092919050505073ffffffffffffffffffffffffffffffffffffffff16141515612fff576040517f08c379a000000000000000000000000000000000000000000000000000000000815260040180806020018281038252600d8152602001807f4e6f205065726d697373696f6e0000000000000000000000000000000000000081525060200191505060405180910390fd5b61303e60405180807f62616c6c6f744475726174696f6e4d696e00000000000000000000000000000081525060110190506040518091039020826139ca565b50565b600061308160405180807f62616c6c6f744475726174696f6e4d61780000000000000000000000000000008152506011019050604051809103902061331a565b905090565b3373ffffffffffffffffffffffffffffffffffffffff16600860009054906101000a900473ffffffffffffffffffffffffffffffffffffffff1673ffffffffffffffffffffffffffffffffffffffff16630d2020dd6009546040518263ffffffff167c0100000000000000000000000000000000000000000000000000000000028152600401808260001916600019168152602001915050602060405180830381600087803b15801561313857600080fd5b505af115801561314c573d6000803e3d6000fd5b505050506040513d602081101561316257600080fd5b810190808051906020019092919050505073ffffffffffffffffffffffffffffffffffffffff161415156131fe576040517f08c379a000000000000000000000000000000000000000000000000000000000815260040180806020018281038252600d8152602001807f4e6f205065726d697373696f6e0000000000000000000000000000000000000081525060200191505060405180910390fd5b61320f61320a826139bc565b612884565b50565b60008060060160008360001916600019168152602001908152602001600020549050919050565b613241612d2b565b151561324c57600080fd5b80600860006101000a81548173ffffffffffffffffffffffffffffffffffffffff021916908373ffffffffffffffffffffffffffffffffffffffff16021790555050565b60006132d060405180807f62616c6c6f744475726174696f6e4d696e0000000000000000000000000000008152506011019050604051809103902061331a565b905090565b600061331560405180807f626c6f636b5065720000000000000000000000000000000000000000000000008152506008019050604051809103902061331a565b905090565b60008060020160008360001916600019168152602001908152602001600020549050919050565b60606000600501600083600019166000191681526020019081526020016000208054600181600116156101000203166002900480601f0160208091040260200160405190810160405280929190818152602001828054600181600116156101000203166002900480156133f55780601f106133ca576101008083540402835291602001916133f5565b820191906000526020600020905b8154815290600101906020018083116133d857829003601f168201915b50505050509050919050565b600061344160405180807f544553545f414444524553530000000000000000000000000000000000000000815250600c01905060405180910390206118f5565b905090565b60008060010160008360001916600019168152602001908152602001600020549050919050565b3373ffffffffffffffffffffffffffffffffffffffff16600860009054906101000a900473ffffffffffffffffffffffffffffffffffffffff1673ffffffffffffffffffffffffffffffffffffffff16630d2020dd6009546040518263ffffffff167c0100000000000000000000000000000000000000000000000000000000028152600401808260001916600019168152602001915050602060405180830381600087803b15801561351f57600080fd5b505af1158015613533573d6000803e3d6000fd5b505050506040513d602081101561354957600080fd5b810190808051906020019092919050505073ffffffffffffffffffffffffffffffffffffffff161415156135e5576040517f08c379a000000000000000000000000000000000000000000000000000000000815260040180806020018281038252600d8152602001807f4e6f205065726d697373696f6e0000000000000000000000000000000000000081525060200191505060405180910390fd5b61362c60405180807f544553545f414444524553530000000000000000000000000000000000000000815250600c019050604051809103902061362783613b7b565b613b89565b50565b606060405182741400000000000000000000000000000000000000001860148201526034810160405280915050919050565b6060816040516020018080602001828103825283818151815260200191508051906020019080838360005b838110156136a757808201518184015260208101905061368c565b50505050905090810190601f1680156136d45780820380516001836020036101000a031916815260200191505b50925050506040516020818303038152906040529050919050565b600061372f60405180807f544553545f494e5400000000000000000000000000000000000000000000000081525060080190506040518091039020613446565b905090565b61373c612d2b565b151561374757600080fd5b61375081613bff565b50565b3373ffffffffffffffffffffffffffffffffffffffff16600860009054906101000a900473ffffffffffffffffffffffffffffffffffffffff1673ffffffffffffffffffffffffffffffffffffffff16630d2020dd6009546040518263ffffffff167c0100000000000000000000000000000000000000000000000000000000028152600401808260001916600019168152602001915050602060405180830381600087803b15801561380557600080fd5b505af1158015613819573d6000803e3d6000fd5b505050506040513d602081101561382f57600080fd5b810190808051906020019092919050505073ffffffffffffffffffffffffffffffffffffffff161415156138cb576040517f08c379a000000000000000000000000000000000000000000000000000000000815260040180806020018281038252600d8152602001807f4e6f205065726d697373696f6e0000000000000000000000000000000000000081525060200191505060405180910390fd5b61390a60405180807f7374616b696e674d617800000000000000000000000000000000000000000000815250600a0190506040518091039020826139ca565b50565b6139178282613cfb565b81600019167f871b63105583c40db6d530b9340369142c5ae265e41a501d300455015dc1283a826040518080602001828103825283818151815260200191508051906020019080838360005b8381101561397e578082015181840152602081019050613963565b50505050905090810190601f1680156139ab5780820380516001836020036101000a031916815260200191505b509250505060405180910390a25050565b600060208201519050919050565b6139d48282613d32565b81600019167f58d7c10adfd5778016889c15d422d57f2975b9292415b54fe5d8cd4241200612826040518082815260200191505060405180910390a25050565b600060208201519050919050565b613a2c8282613d59565b81600019167f3b274b11383ad4ca069e655ed60df9e4307b7a0f82ba2245a3cb9789ab814bf6826040518082815260200191505060405180910390a25050565b600060208201519050919050565b613a848282613d80565b81600019167fde32aec28e018560c62b0217a8e7cfdc094cda68f1fc7ecd4ed833ee1d4862c98260405180826000191660001916815260200191505060405180910390a25050565b613ad68282613dab565b81600019167f43849fbc1e66a5d2cd0ace04916e2e6c8f314c1904d104cad97150428a370a41826040518080602001828103825283818151815260200191508051906020019080838360005b83811015613b3d578082015181840152602081019050613b22565b50505050905090810190601f168015613b6a5780820380516001836020036101000a031916815260200191505b509250505060405180910390a25050565b600060148201519050919050565b613b938282613de2565b81600019167f5ba696c1849fe23c6b280f9f6057cb4574c818e0cd542032eed6e211f1e0246482604051808273ffffffffffffffffffffffffffffffffffffffff1673ffffffffffffffffffffffffffffffffffffffff16815260200191505060405180910390a25050565b600073ffffffffffffffffffffffffffffffffffffffff168173ffffffffffffffffffffffffffffffffffffffff1614151515613c3b57600080fd5b8073ffffffffffffffffffffffffffffffffffffffff16600760009054906101000a900473ffffffffffffffffffffffffffffffffffffffff1673ffffffffffffffffffffffffffffffffffffffff167f8be0079c531659141344cd1fd0a4f28419497f9722a3daafe3b4186f6b6457e060405160405180910390a380600760006101000a81548173ffffffffffffffffffffffffffffffffffffffff021916908373ffffffffffffffffffffffffffffffffffffffff16021790555050565b806000600501600084600019166000191681526020019081526020016000209080519060200190613d2d929190613e43565b505050565b80600060020160008460001916600019168152602001908152602001600020819055505050565b80600060010160008460001916600019168152602001908152602001600020819055505050565b8060006006016000846000191660001916815260200190815260200160002081600019169055505050565b806000600301600084600019166000191681526020019081526020016000209080519060200190613ddd929190613ec3565b505050565b8060006004016000846000191660001916815260200190815260200160002060006101000a81548173ffffffffffffffffffffffffffffffffffffffff021916908373ffffffffffffffffffffffffffffffffffffffff1602179055505050565b828054600181600116156101000203166002900490600052602060002090601f016020900481019282601f10613e8457805160ff1916838001178555613eb2565b82800160010185558215613eb2579182015b82811115613eb1578251825591602001919060010190613e96565b5b509050613ebf9190613f43565b5090565b828054600181600116156101000203166002900490600052602060002090601f016020900481019282601f10613f0457805160ff1916838001178555613f32565b82800160010185558215613f32579182015b82811115613f31578251825591602001919060010190613f16565b5b509050613f3f9190613f43565b5090565b613f6591905b80821115613f61576000816000905550600101613f49565b5090565b905600a165627a7a723058209568f4e0c16b8b3afde51de56921e14dba3607a5d2eca92b30420b0b6a30fa570029",
  "source": "pragma solidity ^0.4.24;\n\nimport \"../abstract/EnvConstants.sol\";\nimport \"./AEnvStorage.sol\";\n//import \"./Conversion.sol\";\nimport \"openzeppelin-solidity/contracts/math/SafeMath.sol\";\n\ncontract EnvStorageImp is AEnvStorage, EnvConstants {\n    using SafeMath for uint256;\n    //using Conversion for string;\n    \n    function initialize() public onlyOwner{\n        uint256 blockPerVal = getBlockPerValue();\n        uint256 ballotDurationMin = getBallotDurationMinValue();\n        uint256 ballotDurationMax = getBallotDurationMaxValue();\n        uint256 stakingMin = getStakingMinValue();\n        uint256 stakingMax = getStakingMaxValue();\n        if( blockPerVal == 0){\n            setUint(BLOCK_PER_NAME, 1000);\n        }\n        if( ballotDurationMin == 0){\n            setUint(BALLOT_DURATION_MIN_NAME, 604800);\n        }\n        if( ballotDurationMax == 0 ){\n            setUint(BALLOT_DURATION_MAX_NAME, 604800);\n        }\n        if( stakingMin == 0 ){\n            setUint(STAKING_MIN_NAME, 10000000000);\n        }\n        if( stakingMax == 0 ){\n            setUint(STAKING_MAX_NAME, 20000000000);\n        }\n        \n    }\n\n    function getBlockPerValue() public view returns (uint256) {\n        return getUint(BLOCK_PER_NAME);\n    }\n    function getBallotDurationMinValue() public view returns (uint256) {\n        return getUint(BALLOT_DURATION_MIN_NAME);\n    }\n    function getBallotDurationMaxValue() public view returns (uint256) {\n        return getUint(BALLOT_DURATION_MAX_NAME);\n    }\n    function getStakingMinValue() public view returns (uint256) {\n        return getUint(STAKING_MIN_NAME);\n    }\n    function getStakingMaxValue() public view returns (uint256) {\n        return getUint(STAKING_MAX_NAME);\n    }\n\n    function getBlockPer() public view returns (uint256) {\n        return getUint(BLOCK_PER_NAME);\n    }\n    function getBallotDurationMin() public view returns (uint256) {\n        return getUint(BALLOT_DURATION_MIN_NAME);\n    }\n    function getBallotDurationMax() public view returns (uint256) {\n        return getUint(BALLOT_DURATION_MAX_NAME);\n    }\n    function getStakingMin() public view returns (uint256) {\n        return getUint(STAKING_MIN_NAME);\n    }\n    function getStakingMax() public view returns (uint256) {\n        return getUint(STAKING_MAX_NAME);\n    }\n    \n    function setBlockPer(uint256 _value) public onlyGov { \n        setUint(BLOCK_PER_NAME, _value);\n    }\n    function setBallotDurationMin(uint256 _value) public onlyGov { \n        setUint(BALLOT_DURATION_MIN_NAME, _value);\n    }\n    function setBallotDurationMax(uint256 _value) public onlyGov { \n        setUint(BALLOT_DURATION_MAX_NAME, _value);\n    }\n    function setStakingMin(uint256 _value) public onlyGov { \n        setUint(STAKING_MIN_NAME, _value);\n    }\n    function setStakingMax(uint256 _value) public onlyGov { \n        setUint(STAKING_MAX_NAME, _value);\n    }\n\n    function setBlockPerByBytes(bytes _value) public onlyGov { \n        setBlockPer(toUint(_value));\n    }\n    function setBallotDurationMinByBytes(bytes _value) public onlyGov { \n        setBallotDurationMin(toUint(_value));\n    }\n    function setBallotDurationMaxByBytes(bytes _value) public onlyGov { \n        setBallotDurationMax(toUint(_value));\n    }\n    function setStakingMinByBytes(bytes _value) public onlyGov { \n        setStakingMin(toUint(_value));\n    }\n    function setStakingMaxByBytes(bytes _value) public onlyGov { \n        setStakingMax(toUint(_value));\n    }\n\n    function getTestInt() public view returns (int256) {\n        return getInt(TEST_INT);\n    }\n    function getTestAddress() public view returns (address) {\n        return getAddress(TEST_ADDRESS);\n    }\n    function getTestBytes32() public view returns (bytes32) {\n        return getBytes32(TEST_BYTES32);\n    }\n    function getTestBytes() public view returns (bytes) {\n        return getBytes(TEST_BYTES);\n    }\n    function getTestString() public view returns (string) {\n        return getString(TEST_STRING);\n    }\n    function setTestIntByBytes(bytes _value) public onlyGov { \n        setInt(TEST_INT, toInt(_value));\n    }\n    function setTestAddressByBytes(bytes _value) public onlyGov { \n        setAddress(TEST_ADDRESS, toAddress(_value));\n    }\n    function setTestBytes32ByBytes(bytes _value) public onlyGov { \n        setBytes32(TEST_BYTES32, toBytes32(_value));\n    }\n    function setTestBytesByBytes(bytes _value) public onlyGov { \n        setBytes(TEST_BYTES, _value);\n    }\n    event testCodeValue(bytes _bytes,string _string);\n    function setTestStringByBytes(bytes _value) public onlyGov { \n        emit testCodeValue(_value,string(_value));\n        setString(TEST_STRING, string(_value));\n    }\n    // function getBlockPer() public view returns (uint256 varType, string varVal) {\n    //     (varType,varVal) = get(BLOCK_PER_NAME);\n    //     // varType = getBlockPerType();\n    //     // varVal = getBlockPerValue();\n    // }\n    // function getBlockPerType() public view returns (uint256) {\n    //     return getType(BLOCK_PER_NAME);\n    // }\n    // function getBlockPerValue() public view returns (string) {\n    //     return getValue(BLOCK_PER_NAME);\n    // }\n    // function setBlockPer(string _value) public onlyGov { \n    //     _set(BLOCK_PER_NAME, BLOCK_PER_TYPE, _value);\n    // }\n    \n    // function getBallotDurationMin() public view returns (uint256 varType, string varVal) {\n    //     varType = getBallotDurationMinType();\n    //     varVal = getBallotDurationMinValue();\n    // }\n    // function getBallotDurationMinType() public view returns (uint256) {\n    //     return getType(BALLOT_DURATION_MIN_NAME);\n    // }\n    // function getBallotDurationMinValue() public view returns (string) {\n    //     return getValue(BALLOT_DURATION_MIN_NAME);\n    // }\n    // function setBallotDurationMin(string _value) public onlyGov { \n    //     _set(BALLOT_DURATION_MIN_NAME, BALLOT_DURATION_MIN_TYPE, _value);\n    // }\n\n    // function getBallotDurationMax() public view returns (uint256 varType, string varVal) {\n    //     varType = getBallotDurationMaxType();\n    //     varVal = getBallotDurationMaxValue();\n    // }\n    // function getBallotDurationMaxType() public view returns (uint256) {\n    //     return getType(BALLOT_DURATION_MAX_NAME);\n    // }\n    // function getBallotDurationMaxValue() public view returns (string) {\n    //     return getValue(BALLOT_DURATION_MAX_NAME);\n    // }\n    // function setBallotDurationMax(string _value) public onlyGov { \n    //     _set(BALLOT_DURATION_MAX_NAME, BALLOT_DURATION_MAX_TYPE, _value);\n    // }\n\n    // function getStakingMin() public view returns (uint256 varType, string varVal) {\n    //     varType = getStakingMinType();\n    //     varVal = getStakingMinValue();\n    // }\n    // function getStakingMinType() public view returns (uint256) {\n    //     return getType(STAKING_MIN_NAME);\n    // }\n    // function getStakingMinValue() public view returns (string) {\n    //     return getValue(STAKING_MIN_NAME);\n    // }\n    // function setStakingMin(string _value) public onlyGov { \n    //     _set(STAKING_MIN_NAME, STAKING_MIN_TYPE, _value);\n    // }\n\n    // function getStakingMax() public view returns (uint256 varType, string varVal) {\n    //     varType = getStakingMaxType();\n    //     varVal = getStakingMaxValue();\n    // }\n    // function getStakingMaxType() public view returns (uint256) {\n    //     return getType(STAKING_MAX_NAME);\n    // }\n    // function getStakingMaxValue() public view returns (string) {\n    //     return getValue(STAKING_MAX_NAME);\n    // }\n    // function setStakingMax(string _value) public onlyGov { \n    //     _set(STAKING_MAX_NAME, STAKING_MAX_TYPE, _value);\n    // }\n\n\n    \n    // * @dev set a value for a string variable.\n    // * @param _h The keccak256 hash of the variable name\n    // * @param _t The type of value\n    // * @param _v The value to be stored\n    \n    // function _set(bytes32 _h, uint256 _t,string _v) internal {\n    //     require(_t >= uint256(VariableTypes.Int), \"Invalid Variable Type\");\n    //     require(_t <= uint256(VariableTypes.String), \"Invalid Variable Type\");\n    //     require(bytes(_v).length > 0, \"empty value\");\n    //     if(s[_h]._name == \"\") {\n    //         _add(_h, _t, _v);\n    //     }else{\n    //         _change(_h, _t, _v);\n    //     }\n    // }\n\n/*\n    function parseAddr(string memory _a) internal pure returns (address _parsedAddress) {\n        bytes memory tmp = bytes(_a);\n        uint160 iaddr = 0;\n        uint160 b1;\n        uint160 b2;\n        for (uint i = 2; i < 2 + 2 * 20; i += 2) {\n            iaddr *= 256;\n            b1 = uint160(uint8(tmp[i]));\n            b2 = uint160(uint8(tmp[i + 1]));\n            if ((b1 >= 97) && (b1 <= 102)) {\n                b1 -= 87;\n            } else if ((b1 >= 65) && (b1 <= 70)) {\n                b1 -= 55;\n            } else if ((b1 >= 48) && (b1 <= 57)) {\n                b1 -= 48;\n            }\n            if ((b2 >= 97) && (b2 <= 102)) {\n                b2 -= 87;\n            } else if ((b2 >= 65) && (b2 <= 70)) {\n                b2 -= 55;\n            } else if ((b2 >= 48) && (b2 <= 57)) {\n                b2 -= 48;\n            }\n            iaddr += (b1 * 16 + b2);\n        }\n        return address(iaddr);\n    }\n    \n    function safeParseUInt2(string memory _a) public pure returns (uint _parsedInt) {\n        bytes memory bresult = bytes(_a);\n        uint256 mint = 0;\n\n        for (uint i = 0; i < bresult.length; i++) {\n            if ((uint(uint8(bresult[i])) >= 48) && (uint(uint8(bresult[i])) <= 57)) {\n                 \n                mint = mint.mul(10);\n                mint = mint.add(uint(uint8(bresult[i])) - 48);\n            } else {\n                revert(\"Non-numeral character encountered in string!\");\n            }\n        }\n        return mint;\n    }\n\n    function safeParseInt(string memory _a) public pure returns (int _parsedInt) {\n        bytes memory bresult = bytes(_a);\n        uint mint = 0;\n        int pint = 0;\n        bool minus = false;\n        for (uint i = 0; i < bresult.length; i++) {\n            if ((uint(uint8(bresult[i])) >= 48) && (uint(uint8(bresult[i])) <= 57)) {\n                mint = mint.mul(10);\n                mint = mint.add(uint(uint8(bresult[i])) - 48);\n            } else if (uint(uint8(bresult[i])) == 45) {\n                require(i == 0 , 'not start with Minus symbol in string!');\n                minus = true;\n            } else {\n                revert(\"Non-numeral character encountered in string!\");\n            }\n        }\n        if(minus){\n            uint _max = uint(INT256_MAX).add(1);\n            require(mint <= _max, \"out of range of int min!\");\n            if(mint == _max ){\n                pint =INT256_MIN;\n            }else{\n                pint = int(mint) * -1;\n            }\n        }else{\n            require(mint < uint(INT256_MAX), \"out of range of int max!\");\n            pint =int(mint);\n        }\n        return pint;\n    }\n*/\n// }\n    \n    function toBytes32( bytes memory  _input) internal pure  returns (bytes32 _output){\n        assembly {\n          _output := mload(add(_input, 32))\n        }\n    }\n    function toInt(bytes memory _input) internal pure returns (int256 _output) {\n        assembly {\n            _output := mload(add(_input, 32))\n        }\n    }\n    function toUint(bytes memory _input) internal pure returns (uint256 _output) {\n        \n        assembly {\n            _output := mload(add(_input, 32))\n        }\n    }\n    function toAddress(bytes memory _input) internal pure returns (address _output) {\n        assembly {\n            _output := mload(add(_input, 20))\n        }\n    } \n    // function toString(bytes memory _input) internal pure returns(string _output){\n    //     _output = string(_input);\n    // }\n    function toString( bytes memory _input ) public pure returns(string memory _output) {\n        return string(_input);\n        // uint _offst = _input.length;\n        // uint size = 32;\n        // assembly {\n            \n        //     let chunk_count\n        //     size := mload(add(_input,_offst))\n        //     chunk_count := add(div(size,32),1) // chunk_count = size/32 + 1\n            \n        //     if gt(mod(size,32),0) {\n        //         chunk_count := add(chunk_count,1)  // chunk_count++\n        //     }\n               \n        //     for { let index:= 0 }  lt(index , chunk_count){ index := add(index,1) } {\n        //         mstore(add(_output,mul(index,32)),mload(add(_input,_offst)))\n        //         _offst := sub(_offst,32)           // _offst -= 32\n        //     }\n        // }\n    }\n\n    function bytes32ToBytes( bytes32 _input) internal pure returns(bytes) {\n        bytes memory _output = new bytes(32);\n        assembly {\n            mstore(add(_output, 32), _input)\n            mstore(add(add(_output,32),32), add(_input,32))\n        }\n        return _output;\n    }\n    function intToBytes(int _input) public pure returns(bytes memory _output) {\n        _output = new bytes(32);\n        assembly {\n            mstore(add(_output, 32), _input)\n        }\n    } \n    \n    function uintToBytes(uint _input) public pure returns(bytes memory _output) {\n        _output = new bytes(32);\n        assembly {\n            mstore(add(_output, 32), _input)\n        }\n    }\n    \n    function addressToBytes(address _input) public pure returns (bytes _output){\n        assembly {\n            let m := mload(0x40)\n            mstore(add(m, 20), xor(0x140000000000000000000000000000000000000000, _input))\n            mstore(0x40, add(m, 52))\n            _output := m\n        }\n    }\n    \n    function stringToBytes(string memory _input) public pure returns(bytes _output){\n        //_output = bytes(_input);\n        _output =  abi.encode(_input);\n    }\n    \n\n\n\n\n\n}",
  "sourcePath": "/Users/ywshin/Documents/WS/truffle/governance-contract-blueisle/contracts/storage/EnvStorageImp.sol",
  "compiler": {
    "name": "solc",
    "version": "0.4.24+commit.e67f0147.Emscripten.clang"
  },
  "schemaVersion": "2.0.1",
  "updatedAt": "2019-01-31T19:57:47.373Z"
}