{
  "contractName": "EternalStorage",
  "abi": [
    {
      "constant": false,
      "inputs": [],
      "name": "renounceOwnership",
      "outputs": [],
      "payable": false,
      "stateMutability": "nonpayable",
      "type": "function"
    },
    {
      "constant": true,
      "inputs": [],
      "name": "owner",
      "outputs": [
        {
          "name": "",
          "type": "address"
        }
      ],
      "payable": false,
      "stateMutability": "view",
      "type": "function"
    },
    {
      "constant": true,
      "inputs": [],
      "name": "isOwner",
      "outputs": [
        {
          "name": "",
          "type": "bool"
        }
      ],
      "payable": false,
      "stateMutability": "view",
      "type": "function"
    },
    {
      "constant": false,
      "inputs": [
        {
          "name": "newOwner",
          "type": "address"
        }
      ],
      "name": "transferOwnership",
      "outputs": [],
      "payable": false,
      "stateMutability": "nonpayable",
      "type": "function"
    },
    {
      "anonymous": false,
      "inputs": [
        {
          "indexed": true,
          "name": "previousOwner",
          "type": "address"
        },
        {
          "indexed": true,
          "name": "newOwner",
          "type": "address"
        }
      ],
      "name": "OwnershipTransferred",
      "type": "event"
    },
    {
      "constant": false,
      "inputs": [
        {
          "name": "h",
          "type": "bytes32"
        },
        {
          "name": "v",
          "type": "bool"
        }
      ],
      "name": "setBoolean",
      "outputs": [],
      "payable": false,
      "stateMutability": "nonpayable",
      "type": "function"
    },
    {
      "constant": false,
      "inputs": [
        {
          "name": "h",
          "type": "bytes32"
        },
        {
          "name": "v",
          "type": "int256"
        }
      ],
      "name": "setInt",
      "outputs": [],
      "payable": false,
      "stateMutability": "nonpayable",
      "type": "function"
    },
    {
      "constant": false,
      "inputs": [
        {
          "name": "h",
          "type": "bytes32"
        },
        {
          "name": "v",
          "type": "uint256"
        }
      ],
      "name": "setUint",
      "outputs": [],
      "payable": false,
      "stateMutability": "nonpayable",
      "type": "function"
    },
    {
      "constant": false,
      "inputs": [
        {
          "name": "h",
          "type": "bytes32"
        },
        {
          "name": "v",
          "type": "address"
        }
      ],
      "name": "setAddress",
      "outputs": [],
      "payable": false,
      "stateMutability": "nonpayable",
      "type": "function"
    },
    {
      "constant": false,
      "inputs": [
        {
          "name": "h",
          "type": "bytes32"
        },
        {
          "name": "v",
          "type": "string"
        }
      ],
      "name": "setString",
      "outputs": [],
      "payable": false,
      "stateMutability": "nonpayable",
      "type": "function"
    },
    {
      "constant": false,
      "inputs": [
        {
          "name": "h",
          "type": "bytes32"
        },
        {
          "name": "v",
          "type": "bytes"
        }
      ],
      "name": "setBytes",
      "outputs": [],
      "payable": false,
      "stateMutability": "nonpayable",
      "type": "function"
    },
    {
      "constant": true,
      "inputs": [
        {
          "name": "h",
          "type": "bytes32"
        }
      ],
      "name": "getBoolean",
      "outputs": [
        {
          "name": "",
          "type": "bool"
        }
      ],
      "payable": false,
      "stateMutability": "view",
      "type": "function"
    },
    {
      "constant": true,
      "inputs": [
        {
          "name": "h",
          "type": "bytes32"
        }
      ],
      "name": "getInt",
      "outputs": [
        {
          "name": "",
          "type": "int256"
        }
      ],
      "payable": false,
      "stateMutability": "view",
      "type": "function"
    },
    {
      "constant": true,
      "inputs": [
        {
          "name": "h",
          "type": "bytes32"
        }
      ],
      "name": "getUint",
      "outputs": [
        {
          "name": "",
          "type": "uint256"
        }
      ],
      "payable": false,
      "stateMutability": "view",
      "type": "function"
    },
    {
      "constant": true,
      "inputs": [
        {
          "name": "h",
          "type": "bytes32"
        }
      ],
      "name": "getAddress",
      "outputs": [
        {
          "name": "",
          "type": "address"
        }
      ],
      "payable": false,
      "stateMutability": "view",
      "type": "function"
    },
    {
      "constant": true,
      "inputs": [
        {
          "name": "h",
          "type": "bytes32"
        }
      ],
      "name": "getString",
      "outputs": [
        {
          "name": "",
          "type": "string"
        }
      ],
      "payable": false,
      "stateMutability": "view",
      "type": "function"
    },
    {
      "constant": true,
      "inputs": [
        {
          "name": "h",
          "type": "bytes32"
        }
      ],
      "name": "getBytes",
      "outputs": [
        {
          "name": "",
          "type": "bytes"
        }
      ],
      "payable": false,
      "stateMutability": "view",
      "type": "function"
    }
  ],
  "bytecode": "0x6080604052336000806101000a81548173ffffffffffffffffffffffffffffffffffffffff021916908373ffffffffffffffffffffffffffffffffffffffff1602179055506000809054906101000a900473ffffffffffffffffffffffffffffffffffffffff1673ffffffffffffffffffffffffffffffffffffffff16600073ffffffffffffffffffffffffffffffffffffffff167f8be0079c531659141344cd1fd0a4f28419497f9722a3daafe3b4186f6b6457e060405160405180910390a3610e25806100cf6000396000f3006080604052600436106100e6576000357c0100000000000000000000000000000000000000000000000000000000900463ffffffff16806321f8a721146100eb5780632e28d0841461015c5780633848207a146101d35780633e49bed01461021c5780636e89955014610257578063715018a6146102ce5780638da5cb5b146102e55780638f32d59b1461033c578063986e791a1461036b578063bd02d0f514610415578063c031a1801461045a578063ca446dd914610504578063dc97d96214610555578063e2a4853a1461059a578063f2fde38b146105d5578063f8715b3e14610618575b600080fd5b3480156100f757600080fd5b5061011a6004803603810190808035600019169060200190929190505050610655565b604051808273ffffffffffffffffffffffffffffffffffffffff1673ffffffffffffffffffffffffffffffffffffffff16815260200191505060405180910390f35b34801561016857600080fd5b506101d16004803603810190808035600019169060200190929190803590602001908201803590602001908080601f016020809104026020016040519081016040528093929190818152602001838380828437820191505050505050919291929050505061069d565b005b3480156101df57600080fd5b5061020260048036038101908080356000191690602001909291905050506106e7565b604051808215151515815260200191505060405180910390f35b34801561022857600080fd5b5061025560048036038101908080356000191690602001909291908035906020019092919050505061071c565b005b34801561026357600080fd5b506102cc6004803603810190808035600019169060200190929190803590602001908201803590602001908080601f0160208091040260200160405190810160405280939291908181526020018383808284378201915050505050509192919290505050610755565b005b3480156102da57600080fd5b506102e361079f565b005b3480156102f157600080fd5b506102fa610871565b604051808273ffffffffffffffffffffffffffffffffffffffff1673ffffffffffffffffffffffffffffffffffffffff16815260200191505060405180910390f35b34801561034857600080fd5b5061035161089a565b604051808215151515815260200191505060405180910390f35b34801561037757600080fd5b5061039a60048036038101908080356000191690602001909291905050506108f1565b6040518080602001828103825283818151815260200191508051906020019080838360005b838110156103da5780820151818401526020810190506103bf565b50505050905090810190601f1680156104075780820380516001836020036101000a031916815260200191505b509250505060405180910390f35b34801561042157600080fd5b5061044460048036038101908080356000191690602001909291905050506109b1565b6040518082815260200191505060405180910390f35b34801561046657600080fd5b5061048960048036038101908080356000191690602001909291905050506109d9565b6040518080602001828103825283818151815260200191508051906020019080838360005b838110156104c95780820151818401526020810190506104ae565b50505050905090810190601f1680156104f65780820380516001836020036101000a031916815260200191505b509250505060405180910390f35b34801561051057600080fd5b506105536004803603810190808035600019169060200190929190803573ffffffffffffffffffffffffffffffffffffffff169060200190929190505050610a99565b005b34801561056157600080fd5b506105846004803603810190808035600019169060200190929190505050610b0d565b6040518082815260200191505060405180910390f35b3480156105a657600080fd5b506105d3600480360381019080803560001916906020019092919080359060200190929190505050610b34565b005b3480156105e157600080fd5b50610616600480360381019080803573ffffffffffffffffffffffffffffffffffffffff169060200190929190505050610b6e565b005b34801561062457600080fd5b506106536004803603810190808035600019169060200190929190803515159060200190929190505050610b8d565b005b600060016004016000836000191660001916815260200190815260200160002060009054906101000a900473ffffffffffffffffffffffffffffffffffffffff169050919050565b6106a561089a565b15156106b057600080fd5b8060016005016000846000191660001916815260200190815260200160002090805190602001906106e2929190610cd4565b505050565b600060016000016000836000191660001916815260200190815260200160002060009054906101000a900460ff169050919050565b61072461089a565b151561072f57600080fd5b806001800160008460001916600019168152602001908152602001600020819055505050565b61075d61089a565b151561076857600080fd5b80600160030160008460001916600019168152602001908152602001600020908051906020019061079a929190610d54565b505050565b6107a761089a565b15156107b257600080fd5b600073ffffffffffffffffffffffffffffffffffffffff166000809054906101000a900473ffffffffffffffffffffffffffffffffffffffff1673ffffffffffffffffffffffffffffffffffffffff167f8be0079c531659141344cd1fd0a4f28419497f9722a3daafe3b4186f6b6457e060405160405180910390a360008060006101000a81548173ffffffffffffffffffffffffffffffffffffffff021916908373ffffffffffffffffffffffffffffffffffffffff160217905550565b60008060009054906101000a900473ffffffffffffffffffffffffffffffffffffffff16905090565b60008060009054906101000a900473ffffffffffffffffffffffffffffffffffffffff1673ffffffffffffffffffffffffffffffffffffffff163373ffffffffffffffffffffffffffffffffffffffff1614905090565b60606001600301600083600019166000191681526020019081526020016000208054600181600116156101000203166002900480601f0160208091040260200160405190810160405280929190818152602001828054600181600116156101000203166002900480156109a55780601f1061097a576101008083540402835291602001916109a5565b820191906000526020600020905b81548152906001019060200180831161098857829003601f168201915b50505050509050919050565b6000600160020160008360001916600019168152602001908152602001600020549050919050565b60606001600501600083600019166000191681526020019081526020016000208054600181600116156101000203166002900480601f016020809104026020016040519081016040528092919081815260200182805460018160011615610100020316600290048015610a8d5780601f10610a6257610100808354040283529160200191610a8d565b820191906000526020600020905b815481529060010190602001808311610a7057829003601f168201915b50505050509050919050565b610aa161089a565b1515610aac57600080fd5b8060016004016000846000191660001916815260200190815260200160002060006101000a81548173ffffffffffffffffffffffffffffffffffffffff021916908373ffffffffffffffffffffffffffffffffffffffff1602179055505050565b60006001800160008360001916600019168152602001908152602001600020549050919050565b610b3c61089a565b1515610b4757600080fd5b80600160020160008460001916600019168152602001908152602001600020819055505050565b610b7661089a565b1515610b8157600080fd5b610b8a81610bda565b50565b610b9561089a565b1515610ba057600080fd5b8060016000016000846000191660001916815260200190815260200160002060006101000a81548160ff0219169083151502179055505050565b600073ffffffffffffffffffffffffffffffffffffffff168173ffffffffffffffffffffffffffffffffffffffff1614151515610c1657600080fd5b8073ffffffffffffffffffffffffffffffffffffffff166000809054906101000a900473ffffffffffffffffffffffffffffffffffffffff1673ffffffffffffffffffffffffffffffffffffffff167f8be0079c531659141344cd1fd0a4f28419497f9722a3daafe3b4186f6b6457e060405160405180910390a3806000806101000a81548173ffffffffffffffffffffffffffffffffffffffff021916908373ffffffffffffffffffffffffffffffffffffffff16021790555050565b828054600181600116156101000203166002900490600052602060002090601f016020900481019282601f10610d1557805160ff1916838001178555610d43565b82800160010185558215610d43579182015b82811115610d42578251825591602001919060010190610d27565b5b509050610d509190610dd4565b5090565b828054600181600116156101000203166002900490600052602060002090601f016020900481019282601f10610d9557805160ff1916838001178555610dc3565b82800160010185558215610dc3579182015b82811115610dc2578251825591602001919060010190610da7565b5b509050610dd09190610dd4565b5090565b610df691905b80821115610df2576000816000905550600101610dda565b5090565b905600a165627a7a7230582056e8c0722aba440bed20b3f993232fd960ba09002f345862353556c3f8b739a00029",
  "source": "pragma solidity ^0.4.24;\n\nimport \"openzeppelin-solidity/contracts/ownership/Ownable.sol\";\n\n\n/**\n * @title EternalStorage\n * @dev An ownable contract that can be used as a storage where the variables\n * are stored in a set of mappings indexed by hash names.\n */\ncontract EternalStorage is Ownable {\n    struct Storage {\n        mapping(bytes32 => bool) _bool;\n        mapping(bytes32 => int) _int;\n        mapping(bytes32 => uint256) _uint;\n        mapping(bytes32 => string) _string;\n        mapping(bytes32 => address) _address;\n        mapping(bytes32 => bytes) _bytes;\n    }\n\n    Storage internal s;\n\n    /**\n    * @dev Allows the owner to set a value for a boolean variable.\n    * @param h The keccak256 hash of the variable name\n    * @param v The value to be stored\n    */\n    function setBoolean(bytes32 h, bool v) public onlyOwner {\n        s._bool[h] = v;\n    }\n\n    /**\n    * @dev Allows the owner to set a value for a int variable.\n    * @param h The keccak256 hash of the variable name\n    * @param v The value to be stored\n    */\n    function setInt(bytes32 h, int v) public onlyOwner {\n        s._int[h] = v;\n    }\n\n    /**\n    * @dev Allows the owner to set a value for a boolean variable.\n    * @param h The keccak256 hash of the variable name\n    * @param v The value to be stored\n    */\n    function setUint(bytes32 h, uint256 v) public onlyOwner {\n        s._uint[h] = v;\n    }\n\n    /**\n    * @dev Allows the owner to set a value for a address variable.\n    * @param h The keccak256 hash of the variable name\n    * @param v The value to be stored\n    */\n    function setAddress(bytes32 h, address v) public onlyOwner {\n        s._address[h] = v;\n    }\n\n    /**\n    * @dev Allows the owner to set a value for a string variable.\n    * @param h The keccak256 hash of the variable name\n    * @param v The value to be stored\n    */\n    function setString(bytes32 h, string v) public onlyOwner {\n        s._string[h] = v;\n    }\n\n    /**\n    * @dev Allows the owner to set a value for a bytes variable.\n    * @param h The keccak256 hash of the variable name\n    * @param v The value to be stored\n    */\n    function setBytes(bytes32 h, bytes v) public onlyOwner {\n        s._bytes[h] = v;\n    }\n\n    /**\n    * @dev Get the value stored of a boolean variable by the hash name\n    * @param h The keccak256 hash of the variable name\n    */\n    function getBoolean(bytes32 h) public view returns (bool){\n        return s._bool[h];\n    }\n\n    /**\n    * @dev Get the value stored of a int variable by the hash name\n    * @param h The keccak256 hash of the variable name\n    */\n    function getInt(bytes32 h) public view returns (int){\n        return s._int[h];\n    }\n\n    /**\n    * @dev Get the value stored of a uint variable by the hash name\n    * @param h The keccak256 hash of the variable name\n    */\n    function getUint(bytes32 h) public view returns (uint256){\n        return s._uint[h];\n    }\n\n    /**\n    * @dev Get the value stored of a address variable by the hash name\n    * @param h The keccak256 hash of the variable name\n    */\n    function getAddress(bytes32 h) public view returns (address){\n        return s._address[h];\n    }\n\n    /**\n    * @dev Get the value stored of a string variable by the hash name\n    * @param h The keccak256 hash of the variable name\n    */\n    function getString(bytes32 h) public view returns (string){\n        return s._string[h];\n    }\n\n    /**\n    * @dev Get the value stored of a bytes variable by the hash name\n    * @param h The keccak256 hash of the variable name\n    */\n    function getBytes(bytes32 h) public view returns (bytes){\n        return s._bytes[h];\n    }\n\n}",
  "sourcePath": "/Users/hexoul/Documents/Metadium/governance/governance-contract/contracts/storage/EternalStorage.sol",
  "compiler": {
    "name": "solc",
    "version": "0.4.24+commit.e67f0147.Emscripten.clang"
  },
  "schemaVersion": "2.0.1",
  "updatedAt": "2019-01-29T01:43:14.792Z"
}