{
  "contractName": "Gov",
  "abi": [
    {
      "constant": true,
      "inputs": [],
      "name": "REG",
      "outputs": [
        {
          "name": "",
          "type": "address"
        }
      ],
      "payable": false,
      "stateMutability": "view",
      "type": "function"
    },
    {
      "constant": true,
      "inputs": [],
      "name": "implementation",
      "outputs": [
        {
          "name": "impl",
          "type": "address"
        }
      ],
      "payable": false,
      "stateMutability": "view",
      "type": "function"
    },
    {
      "constant": true,
      "inputs": [],
      "name": "GOV_NAME",
      "outputs": [
        {
          "name": "",
          "type": "bytes32"
        }
      ],
      "payable": false,
      "stateMutability": "view",
      "type": "function"
    },
    {
      "constant": false,
      "inputs": [],
      "name": "renounceOwnership",
      "outputs": [],
      "payable": false,
      "stateMutability": "nonpayable",
      "type": "function"
    },
    {
      "constant": true,
      "inputs": [],
      "name": "owner",
      "outputs": [
        {
          "name": "",
          "type": "address"
        }
      ],
      "payable": false,
      "stateMutability": "view",
      "type": "function"
    },
    {
      "constant": true,
      "inputs": [],
      "name": "isOwner",
      "outputs": [
        {
          "name": "",
          "type": "bool"
        }
      ],
      "payable": false,
      "stateMutability": "view",
      "type": "function"
    },
    {
      "constant": false,
      "inputs": [
        {
          "name": "_addr",
          "type": "address"
        }
      ],
      "name": "setRegistry",
      "outputs": [],
      "payable": false,
      "stateMutability": "nonpayable",
      "type": "function"
    },
    {
      "constant": true,
      "inputs": [],
      "name": "ballotLength",
      "outputs": [
        {
          "name": "",
          "type": "uint256"
        }
      ],
      "payable": false,
      "stateMutability": "view",
      "type": "function"
    },
    {
      "constant": true,
      "inputs": [],
      "name": "voteLength",
      "outputs": [
        {
          "name": "",
          "type": "uint256"
        }
      ],
      "payable": false,
      "stateMutability": "view",
      "type": "function"
    },
    {
      "constant": false,
      "inputs": [
        {
          "name": "newOwner",
          "type": "address"
        }
      ],
      "name": "transferOwnership",
      "outputs": [],
      "payable": false,
      "stateMutability": "nonpayable",
      "type": "function"
    },
    {
      "inputs": [],
      "payable": false,
      "stateMutability": "nonpayable",
      "type": "constructor"
    },
    {
      "payable": true,
      "stateMutability": "payable",
      "type": "fallback"
    },
    {
      "anonymous": false,
      "inputs": [
        {
          "indexed": true,
          "name": "previousOwner",
          "type": "address"
        },
        {
          "indexed": true,
          "name": "newOwner",
          "type": "address"
        }
      ],
      "name": "OwnershipTransferred",
      "type": "event"
    },
    {
      "anonymous": false,
      "inputs": [
        {
          "indexed": true,
          "name": "implementation",
          "type": "address"
        }
      ],
      "name": "Upgraded",
      "type": "event"
    },
    {
      "constant": true,
      "inputs": [
        {
          "name": "addr",
          "type": "address"
        }
      ],
      "name": "isMember",
      "outputs": [
        {
          "name": "",
          "type": "bool"
        }
      ],
      "payable": false,
      "stateMutability": "view",
      "type": "function"
    },
    {
      "constant": true,
      "inputs": [
        {
          "name": "idx",
          "type": "uint256"
        }
      ],
      "name": "getMember",
      "outputs": [
        {
          "name": "",
          "type": "address"
        }
      ],
      "payable": false,
      "stateMutability": "view",
      "type": "function"
    },
    {
      "constant": true,
      "inputs": [],
      "name": "getMemberLength",
      "outputs": [
        {
          "name": "",
          "type": "uint256"
        }
      ],
      "payable": false,
      "stateMutability": "view",
      "type": "function"
    },
    {
      "constant": true,
      "inputs": [
        {
          "name": "addr",
          "type": "address"
        }
      ],
      "name": "getNodeIdxFromMember",
      "outputs": [
        {
          "name": "",
          "type": "uint256"
        }
      ],
      "payable": false,
      "stateMutability": "view",
      "type": "function"
    },
    {
      "constant": true,
      "inputs": [
        {
          "name": "idx",
          "type": "uint256"
        }
      ],
      "name": "getMemberFromNodeIdx",
      "outputs": [
        {
          "name": "",
          "type": "address"
        }
      ],
      "payable": false,
      "stateMutability": "view",
      "type": "function"
    },
    {
      "constant": true,
      "inputs": [],
      "name": "getNodeLength",
      "outputs": [
        {
          "name": "",
          "type": "uint256"
        }
      ],
      "payable": false,
      "stateMutability": "view",
      "type": "function"
    },
    {
      "constant": true,
      "inputs": [
        {
          "name": "idx",
          "type": "uint256"
        }
      ],
      "name": "getNode",
      "outputs": [
        {
          "name": "enode",
          "type": "bytes"
        },
        {
          "name": "ip",
          "type": "bytes"
        },
        {
          "name": "port",
          "type": "uint256"
        }
      ],
      "payable": false,
      "stateMutability": "view",
      "type": "function"
    },
    {
      "constant": true,
      "inputs": [],
      "name": "getBallotInVoting",
      "outputs": [
        {
          "name": "",
          "type": "uint256"
        }
      ],
      "payable": false,
      "stateMutability": "view",
      "type": "function"
    },
    {
      "constant": false,
      "inputs": [
        {
          "name": "registry",
          "type": "address"
        },
        {
          "name": "implementation",
          "type": "address"
        },
        {
          "name": "lockAmount",
          "type": "uint256"
        },
        {
          "name": "enode",
          "type": "bytes"
        },
        {
          "name": "ip",
          "type": "bytes"
        },
        {
          "name": "port",
          "type": "uint256"
        }
      ],
      "name": "init",
      "outputs": [],
      "payable": false,
      "stateMutability": "nonpayable",
      "type": "function"
    }
  ],
  "bytecode": "0x60806040527f476f7665726e616e6365436f6e7472616374000000000000000000000000000060029060001916905534801561003a57600080fd5b50336000806101000a81548173ffffffffffffffffffffffffffffffffffffffff021916908373ffffffffffffffffffffffffffffffffffffffff1602179055506000809054906101000a900473ffffffffffffffffffffffffffffffffffffffff1673ffffffffffffffffffffffffffffffffffffffff16600073ffffffffffffffffffffffffffffffffffffffff167f8be0079c531659141344cd1fd0a4f28419497f9722a3daafe3b4186f6b6457e060405160405180910390a36000600360006101000a81548160ff02191690831515021790555060006006819055506000600a819055506000600b819055506000600c819055506000600d819055506114b2806101496000396000f300608060405260043610610107576000357c0100000000000000000000000000000000000000000000000000000000900463ffffffff16806315bf6b4d1461017657806339363112146101e35780634f0f4aa91461023a5780635c60da1b146103535780636c78d2cf146103aa578063715018a6146103dd57806372016f75146103f45780638da5cb5b1461041f5780638f32d59b14610476578063a230c524146104a5578063a91ee0dc14610500578063ab3545e514610543578063ce6a54ff146105b0578063d6f9cfce14610607578063d965ea0014610632578063de09b3771461065d578063e4df5ea914610688578063e9523fb51461078b578063f2fde38b146107b6575b60006101116107f9565b9050600073ffffffffffffffffffffffffffffffffffffffff168173ffffffffffffffffffffffffffffffffffffffff161415151561014f57600080fd5b60405136600082376000803683855af43d806000843e8160008114610172578184f35b8184fd5b34801561018257600080fd5b506101a160048036038101908080359060200190929190505050610862565b604051808273ffffffffffffffffffffffffffffffffffffffff1673ffffffffffffffffffffffffffffffffffffffff16815260200191505060405180910390f35b3480156101ef57600080fd5b506101f861089f565b604051808273ffffffffffffffffffffffffffffffffffffffff1673ffffffffffffffffffffffffffffffffffffffff16815260200191505060405180910390f35b34801561024657600080fd5b50610265600480360381019080803590602001909291905050506108c5565b604051808060200180602001848152602001838103835286818151815260200191508051906020019080838360005b838110156102af578082015181840152602081019050610294565b50505050905090810190601f1680156102dc5780820380516001836020036101000a031916815260200191505b50838103825285818151815260200191508051906020019080838360005b838110156103155780820151818401526020810190506102fa565b50505050905090810190601f1680156103425780820380516001836020036101000a031916815260200191505b509550505050505060405180910390f35b34801561035f57600080fd5b506103686107f9565b604051808273ffffffffffffffffffffffffffffffffffffffff1673ffffffffffffffffffffffffffffffffffffffff16815260200191505060405180910390f35b3480156103b657600080fd5b506103bf610a52565b60405180826000191660001916815260200191505060405180910390f35b3480156103e957600080fd5b506103f2610a58565b005b34801561040057600080fd5b50610409610b2a565b6040518082815260200191505060405180910390f35b34801561042b57600080fd5b50610434610b34565b604051808273ffffffffffffffffffffffffffffffffffffffff1673ffffffffffffffffffffffffffffffffffffffff16815260200191505060405180910390f35b34801561048257600080fd5b5061048b610b5d565b604051808215151515815260200191505060405180910390f35b3480156104b157600080fd5b506104e6600480360381019080803573ffffffffffffffffffffffffffffffffffffffff169060200190929190505050610bb4565b604051808215151515815260200191505060405180910390f35b34801561050c57600080fd5b50610541600480360381019080803573ffffffffffffffffffffffffffffffffffffffff169060200190929190505050610c00565b005b34801561054f57600080fd5b5061056e60048036038101908080359060200190929190505050610c57565b604051808273ffffffffffffffffffffffffffffffffffffffff1673ffffffffffffffffffffffffffffffffffffffff16815260200191505060405180910390f35b3480156105bc57600080fd5b506105f1600480360381019080803573ffffffffffffffffffffffffffffffffffffffff169060200190929190505050610c94565b6040518082815260200191505060405180910390f35b34801561061357600080fd5b5061061c610cdd565b6040518082815260200191505060405180910390f35b34801561063e57600080fd5b50610647610ce3565b6040518082815260200191505060405180910390f35b34801561066957600080fd5b50610672610ced565b6040518082815260200191505060405180910390f35b34801561069457600080fd5b50610789600480360381019080803573ffffffffffffffffffffffffffffffffffffffff169060200190929190803573ffffffffffffffffffffffffffffffffffffffff16906020019092919080359060200190929190803590602001908201803590602001908080601f0160208091040260200160405190810160405280939291908181526020018383808284378201915050505050509192919290803590602001908201803590602001908080601f016020809104026020016040519081016040528093929190818152602001838380828437820191505050505050919291929080359060200190929190505050610cf7565b005b34801561079757600080fd5b506107a061125b565b6040518082815260200191505060405180910390f35b3480156107c257600080fd5b506107f7600480360381019080803573ffffffffffffffffffffffffffffffffffffffff169060200190929190505050611261565b005b60008060405180807f6f72672e6d6574616469756d2e70726f78792e696d706c656d656e746174696f81526020017f6e00000000000000000000000000000000000000000000000000000000000000815250602101905060405180910390209050805491505090565b60006009600083815260200190815260200160002060009054906101000a900473ffffffffffffffffffffffffffffffffffffffff169050919050565b600160009054906101000a900473ffffffffffffffffffffffffffffffffffffffff1681565b606080600060076000858152602001908152602001600020600001600760008681526020019081526020016000206001016007600087815260200190815260200160002060020154828054600181600116156101000203166002900480601f0160208091040260200160405190810160405280929190818152602001828054600181600116156101000203166002900480156109a25780601f10610977576101008083540402835291602001916109a2565b820191906000526020600020905b81548152906001019060200180831161098557829003601f168201915b50505050509250818054600181600116156101000203166002900480601f016020809104026020016040519081016040528092919081815260200182805460018160011615610100020316600290048015610a3e5780601f10610a1357610100808354040283529160200191610a3e565b820191906000526020600020905b815481529060010190602001808311610a2157829003601f168201915b505050505091509250925092509193909250565b60025481565b610a60610b5d565b1515610a6b57600080fd5b600073ffffffffffffffffffffffffffffffffffffffff166000809054906101000a900473ffffffffffffffffffffffffffffffffffffffff1673ffffffffffffffffffffffffffffffffffffffff167f8be0079c531659141344cd1fd0a4f28419497f9722a3daafe3b4186f6b6457e060405160405180910390a360008060006101000a81548173ffffffffffffffffffffffffffffffffffffffff021916908373ffffffffffffffffffffffffffffffffffffffff160217905550565b6000600a54905090565b60008060009054906101000a900473ffffffffffffffffffffffffffffffffffffffff16905090565b60008060009054906101000a900473ffffffffffffffffffffffffffffffffffffffff1673ffffffffffffffffffffffffffffffffffffffff163373ffffffffffffffffffffffffffffffffffffffff1614905090565b600080600560008473ffffffffffffffffffffffffffffffffffffffff1673ffffffffffffffffffffffffffffffffffffffff1681526020019081526020016000205414159050919050565b610c08610b5d565b1515610c1357600080fd5b80600160006101000a81548173ffffffffffffffffffffffffffffffffffffffff021916908373ffffffffffffffffffffffffffffffffffffffff16021790555050565b60006004600083815260200190815260200160002060009054906101000a900473ffffffffffffffffffffffffffffffffffffffff169050919050565b6000600860008373ffffffffffffffffffffffffffffffffffffffff1673ffffffffffffffffffffffffffffffffffffffff168152602001908152602001600020549050919050565b600b5481565b6000600654905090565b6000600d54905090565b600080610d02610b5d565b1515610d0d57600080fd5b60001515600360009054906101000a900460ff161515141515610d98576040517f08c379a00000000000000000000000000000000000000000000000000000000081526004018080602001828103825260138152602001807f416c726561647920696e697469616c697a65640000000000000000000000000081525060200191505060405180910390fd5b610da188610c00565b610daa87611280565b600160009054906101000a900473ffffffffffffffffffffffffffffffffffffffff1673ffffffffffffffffffffffffffffffffffffffff16630d2020dd6040518163ffffffff167c010000000000000000000000000000000000000000000000000000000002815260040180807f5374616b696e67000000000000000000000000000000000000000000000000008152506020019050602060405180830381600087803b158015610e5b57600080fd5b505af1158015610e6f573d6000803e3d6000fd5b505050506040513d6020811015610e8557600080fd5b81019080805190602001909291905050509150858273ffffffffffffffffffffffffffffffffffffffff1663a0821be3336040518263ffffffff167c0100000000000000000000000000000000000000000000000000000000028152600401808273ffffffffffffffffffffffffffffffffffffffff1673ffffffffffffffffffffffffffffffffffffffff168152602001915050602060405180830381600087803b158015610f3457600080fd5b505af1158015610f48573d6000803e3d6000fd5b505050506040513d6020811015610f5e57600080fd5b810190808051906020019092919050505010151515610fe5576040517f08c379a00000000000000000000000000000000000000000000000000000000081526004018080602001828103825260148152602001807f496e73756666696369656e74207374616b696e6700000000000000000000000081525060200191505060405180910390fd5b8173ffffffffffffffffffffffffffffffffffffffff1663282d3fdf33886040518363ffffffff167c0100000000000000000000000000000000000000000000000000000000028152600401808373ffffffffffffffffffffffffffffffffffffffff1673ffffffffffffffffffffffffffffffffffffffff16815260200182815260200192505050600060405180830381600087803b15801561108857600080fd5b505af115801561109c573d6000803e3d6000fd5b5050505060016006819055503360046000600654815260200190815260200160002060006101000a81548173ffffffffffffffffffffffffffffffffffffffff021916908373ffffffffffffffffffffffffffffffffffffffff160217905550600654600560003373ffffffffffffffffffffffffffffffffffffffff1673ffffffffffffffffffffffffffffffffffffffff168152602001908152602001600020819055506001600a8190555060076000600a5481526020019081526020016000209050848160000190805190602001906111799291906113e1565b50838160010190805190602001906111929291906113e1565b50828160020181905550600a54600860003373ffffffffffffffffffffffffffffffffffffffff1673ffffffffffffffffffffffffffffffffffffffff168152602001908152602001600020819055503360096000600a54815260200190815260200160002060006101000a81548173ffffffffffffffffffffffffffffffffffffffff021916908373ffffffffffffffffffffffffffffffffffffffff1602179055506001600360006101000a81548160ff0219169083151502179055505050505050505050565b600c5481565b611269610b5d565b151561127457600080fd5b61127d816112e7565b50565b600060405180807f6f72672e6d6574616469756d2e70726f78792e696d706c656d656e746174696f81526020017f6e000000000000000000000000000000000000000000000000000000000000008152506021019050604051809103902090508181555050565b600073ffffffffffffffffffffffffffffffffffffffff168173ffffffffffffffffffffffffffffffffffffffff161415151561132357600080fd5b8073ffffffffffffffffffffffffffffffffffffffff166000809054906101000a900473ffffffffffffffffffffffffffffffffffffffff1673ffffffffffffffffffffffffffffffffffffffff167f8be0079c531659141344cd1fd0a4f28419497f9722a3daafe3b4186f6b6457e060405160405180910390a3806000806101000a81548173ffffffffffffffffffffffffffffffffffffffff021916908373ffffffffffffffffffffffffffffffffffffffff16021790555050565b828054600181600116156101000203166002900490600052602060002090601f016020900481019282601f1061142257805160ff1916838001178555611450565b82800160010185558215611450579182015b8281111561144f578251825591602001919060010190611434565b5b50905061145d9190611461565b5090565b61148391905b8082111561147f576000816000905550600101611467565b5090565b905600a165627a7a723058202370bbe208cbdc394e48b4ea68ff42495b24d59a46fa8bb6454507d13701088e0029",
  "source": "pragma solidity ^0.4.24;\n\nimport \"openzeppelin-solidity/contracts/math/SafeMath.sol\";\nimport \"./proxy/UpgradeabilityProxy.sol\";\nimport \"./GovChecker.sol\";\nimport \"./Staking.sol\";\n\n\ncontract Gov is UpgradeabilityProxy, GovChecker {\n    bool private initialized;\n\n    // For member\n    mapping(uint256 => address) internal members;\n    mapping(address => uint256) internal memberIdx;\n    uint256 internal memberLength;\n\n    // For enode\n    struct Node {\n        bytes enode;\n        bytes ip;\n        uint port;\n    }\n    mapping(uint256 => Node) internal nodes;\n    mapping(address => uint256) internal nodeIdxFromMember;\n    mapping(uint256 => address) internal nodeToMember;\n    uint256 internal nodeLength;\n\n    // For ballot\n    uint256 public ballotLength;\n    uint256 public voteLength;\n    uint256 internal ballotInVoting;\n\n    constructor() public {\n        initialized = false;\n        memberLength = 0;\n        nodeLength = 0;\n        ballotLength = 0;\n        voteLength = 0;\n        ballotInVoting = 0;\n    }\n\n    function isMember(address addr) public view returns (bool) { return (memberIdx[addr] != 0); }\n    function getMember(uint256 idx) public view returns (address) { return members[idx]; }\n    function getMemberLength() public view returns (uint256) { return memberLength; }\n    function getNodeIdxFromMember(address addr) public view returns (uint256) { return nodeIdxFromMember[addr]; }\n    function getMemberFromNodeIdx(uint256 idx) public view returns (address) { return nodeToMember[idx]; }\n    function getNodeLength() public view returns (uint256) { return nodeLength; }\n    function getNode(uint256 idx) public view returns (bytes enode, bytes ip, uint port) {\n        return (nodes[idx].enode, nodes[idx].ip, nodes[idx].port);\n    }\n    function getBallotInVoting() public view returns (uint256) { return ballotInVoting; }\n\n    function init(\n        address registry,\n        address implementation,\n        uint256 lockAmount,\n        bytes enode,\n        bytes ip,\n        uint port\n    )\n        public onlyOwner\n    {\n        require(initialized == false, \"Already initialized\");\n\n        setRegistry(registry);\n        setImplementation(implementation);\n\n        // Lock\n        Staking staking = Staking(REG.getContractAddress(\"Staking\"));\n        require(staking.availableBalance(msg.sender) >= lockAmount, \"Insufficient staking\");\n        staking.lock(msg.sender, lockAmount);\n\n        // Add member\n        memberLength = 1;\n        members[memberLength] = msg.sender;\n        memberIdx[msg.sender] = memberLength;\n\n        // Add node\n        nodeLength = 1;\n        Node storage node = nodes[nodeLength];\n        node.enode = enode;\n        node.ip = ip;\n        node.port = port;\n        nodeIdxFromMember[msg.sender] = nodeLength;\n        nodeToMember[nodeLength] = msg.sender;\n\n        initialized = true;\n    }\n}",
  "sourcePath": "/Users/hexoul/Documents/Metadium/governance/governance-contract/contracts/Gov.sol",
  "compiler": {
    "name": "solc",
    "version": "0.4.24+commit.e67f0147.Emscripten.clang"
  },
  "schemaVersion": "2.0.1",
  "updatedAt": "2019-02-01T01:24:43.016Z"
}