{
  "contractName": "Gov",
  "abi": [
    {
      "constant": true,
      "inputs": [],
      "name": "STAKING_NAME",
      "outputs": [
        {
          "name": "",
          "type": "bytes32"
        }
      ],
      "payable": false,
      "stateMutability": "view",
      "type": "function"
    },
    {
      "constant": true,
      "inputs": [],
      "name": "implementation",
      "outputs": [
        {
          "name": "impl",
          "type": "address"
        }
      ],
      "payable": false,
      "stateMutability": "view",
      "type": "function"
    },
    {
      "constant": true,
      "inputs": [],
      "name": "GOV_NAME",
      "outputs": [
        {
          "name": "",
          "type": "bytes32"
        }
      ],
      "payable": false,
      "stateMutability": "view",
      "type": "function"
    },
    {
      "constant": false,
      "inputs": [],
      "name": "renounceOwnership",
      "outputs": [],
      "payable": false,
      "stateMutability": "nonpayable",
      "type": "function"
    },
    {
      "constant": true,
      "inputs": [],
      "name": "reg",
      "outputs": [
        {
          "name": "",
          "type": "address"
        }
      ],
      "payable": false,
      "stateMutability": "view",
      "type": "function"
    },
    {
      "constant": true,
      "inputs": [],
      "name": "ENV_STORAGE_NAME",
      "outputs": [
        {
          "name": "",
          "type": "bytes32"
        }
      ],
      "payable": false,
      "stateMutability": "view",
      "type": "function"
    },
    {
      "constant": true,
      "inputs": [],
      "name": "owner",
      "outputs": [
        {
          "name": "",
          "type": "address"
        }
      ],
      "payable": false,
      "stateMutability": "view",
      "type": "function"
    },
    {
      "constant": true,
      "inputs": [],
      "name": "isOwner",
      "outputs": [
        {
          "name": "",
          "type": "bool"
        }
      ],
      "payable": false,
      "stateMutability": "view",
      "type": "function"
    },
    {
      "constant": true,
      "inputs": [],
      "name": "BALLOT_STORAGE_NAME",
      "outputs": [
        {
          "name": "",
          "type": "bytes32"
        }
      ],
      "payable": false,
      "stateMutability": "view",
      "type": "function"
    },
    {
      "constant": false,
      "inputs": [
        {
          "name": "_addr",
          "type": "address"
        }
      ],
      "name": "setRegistry",
      "outputs": [],
      "payable": false,
      "stateMutability": "nonpayable",
      "type": "function"
    },
    {
      "constant": true,
      "inputs": [],
      "name": "ballotLength",
      "outputs": [
        {
          "name": "",
          "type": "uint256"
        }
      ],
      "payable": false,
      "stateMutability": "view",
      "type": "function"
    },
    {
      "constant": true,
      "inputs": [],
      "name": "voteLength",
      "outputs": [
        {
          "name": "",
          "type": "uint256"
        }
      ],
      "payable": false,
      "stateMutability": "view",
      "type": "function"
    },
    {
      "constant": false,
      "inputs": [
        {
          "name": "newOwner",
          "type": "address"
        }
      ],
      "name": "transferOwnership",
      "outputs": [],
      "payable": false,
      "stateMutability": "nonpayable",
      "type": "function"
    },
    {
      "inputs": [],
      "payable": false,
      "stateMutability": "nonpayable",
      "type": "constructor"
    },
    {
      "payable": true,
      "stateMutability": "payable",
      "type": "fallback"
    },
    {
      "anonymous": false,
      "inputs": [
        {
          "indexed": true,
          "name": "previousOwner",
          "type": "address"
        },
        {
          "indexed": true,
          "name": "newOwner",
          "type": "address"
        }
      ],
      "name": "OwnershipTransferred",
      "type": "event"
    },
    {
      "anonymous": false,
      "inputs": [
        {
          "indexed": true,
          "name": "implementation",
          "type": "address"
        }
      ],
      "name": "Upgraded",
      "type": "event"
    },
    {
      "constant": true,
      "inputs": [
        {
          "name": "addr",
          "type": "address"
        }
      ],
      "name": "isMember",
      "outputs": [
        {
          "name": "",
          "type": "bool"
        }
      ],
      "payable": false,
      "stateMutability": "view",
      "type": "function"
    },
    {
      "constant": true,
      "inputs": [
        {
          "name": "idx",
          "type": "uint256"
        }
      ],
      "name": "getMember",
      "outputs": [
        {
          "name": "",
          "type": "address"
        }
      ],
      "payable": false,
      "stateMutability": "view",
      "type": "function"
    },
    {
      "constant": true,
      "inputs": [],
      "name": "getMemberLength",
      "outputs": [
        {
          "name": "",
          "type": "uint256"
        }
      ],
      "payable": false,
      "stateMutability": "view",
      "type": "function"
    },
    {
      "constant": true,
      "inputs": [
        {
          "name": "addr",
          "type": "address"
        }
      ],
      "name": "getNodeIdxFromMember",
      "outputs": [
        {
          "name": "",
          "type": "uint256"
        }
      ],
      "payable": false,
      "stateMutability": "view",
      "type": "function"
    },
    {
      "constant": true,
      "inputs": [
        {
          "name": "idx",
          "type": "uint256"
        }
      ],
      "name": "getMemberFromNodeIdx",
      "outputs": [
        {
          "name": "",
          "type": "address"
        }
      ],
      "payable": false,
      "stateMutability": "view",
      "type": "function"
    },
    {
      "constant": true,
      "inputs": [],
      "name": "getNodeLength",
      "outputs": [
        {
          "name": "",
          "type": "uint256"
        }
      ],
      "payable": false,
      "stateMutability": "view",
      "type": "function"
    },
    {
      "constant": true,
      "inputs": [
        {
          "name": "idx",
          "type": "uint256"
        }
      ],
      "name": "getNode",
      "outputs": [
        {
          "name": "enode",
          "type": "bytes"
        },
        {
          "name": "ip",
          "type": "bytes"
        },
        {
          "name": "port",
          "type": "uint256"
        }
      ],
      "payable": false,
      "stateMutability": "view",
      "type": "function"
    },
    {
      "constant": true,
      "inputs": [],
      "name": "getBallotInVoting",
      "outputs": [
        {
          "name": "",
          "type": "uint256"
        }
      ],
      "payable": false,
      "stateMutability": "view",
      "type": "function"
    },
    {
      "constant": false,
      "inputs": [
        {
          "name": "registry",
          "type": "address"
        },
        {
          "name": "implementation",
          "type": "address"
        },
        {
          "name": "lockAmount",
          "type": "uint256"
        },
        {
          "name": "enode",
          "type": "bytes"
        },
        {
          "name": "ip",
          "type": "bytes"
        },
        {
          "name": "port",
          "type": "uint256"
        }
      ],
      "name": "init",
      "outputs": [],
      "payable": false,
      "stateMutability": "nonpayable",
      "type": "function"
    }
  ],
  "bytecode": "0x608060405234801561001057600080fd5b50336000806101000a81548173ffffffffffffffffffffffffffffffffffffffff021916908373ffffffffffffffffffffffffffffffffffffffff1602179055506000809054906101000a900473ffffffffffffffffffffffffffffffffffffffff1673ffffffffffffffffffffffffffffffffffffffff16600073ffffffffffffffffffffffffffffffffffffffff167f8be0079c531659141344cd1fd0a4f28419497f9722a3daafe3b4186f6b6457e060405160405180910390a36000600160146101000a81548160ff0219169083151502179055506000600481905550600060088190555060006009819055506000600a819055506000600b8190555061161e8061011f6000396000f300608060405260043610610128576000357c0100000000000000000000000000000000000000000000000000000000900463ffffffff16806315bf6b4d146101975780631e0cba0d146102045780634f0f4aa9146102375780635c60da1b146103505780636c78d2cf146103a7578063715018a6146103da57806372016f75146103f1578063738fdd1a1461041c5780637bf46530146104735780638da5cb5b146104a65780638f32d59b146104fd5780639986e4b91461052c578063a230c5241461055f578063a91ee0dc146105ba578063ab3545e5146105fd578063ce6a54ff1461066a578063d6f9cfce146106c1578063d965ea00146106ec578063de09b37714610717578063e4df5ea914610742578063e9523fb514610845578063f2fde38b14610870575b60006101326108b3565b9050600073ffffffffffffffffffffffffffffffffffffffff168173ffffffffffffffffffffffffffffffffffffffff161415151561017057600080fd5b60405136600082376000803683855af43d806000843e8160008114610193578184f35b8184fd5b3480156101a357600080fd5b506101c26004803603810190808035906020019092919050505061091c565b604051808273ffffffffffffffffffffffffffffffffffffffff1673ffffffffffffffffffffffffffffffffffffffff16815260200191505060405180910390f35b34801561021057600080fd5b50610219610959565b60405180826000191660001916815260200191505060405180910390f35b34801561024357600080fd5b506102626004803603810190808035906020019092919050505061097d565b604051808060200180602001848152602001838103835286818151815260200191508051906020019080838360005b838110156102ac578082015181840152602081019050610291565b50505050905090810190601f1680156102d95780820380516001836020036101000a031916815260200191505b50838103825285818151815260200191508051906020019080838360005b838110156103125780820151818401526020810190506102f7565b50505050905090810190601f16801561033f5780820380516001836020036101000a031916815260200191505b509550505050505060405180910390f35b34801561035c57600080fd5b506103656108b3565b604051808273ffffffffffffffffffffffffffffffffffffffff1673ffffffffffffffffffffffffffffffffffffffff16815260200191505060405180910390f35b3480156103b357600080fd5b506103bc610b0a565b60405180826000191660001916815260200191505060405180910390f35b3480156103e657600080fd5b506103ef610b2e565b005b3480156103fd57600080fd5b50610406610c00565b6040518082815260200191505060405180910390f35b34801561042857600080fd5b50610431610c0a565b604051808273ffffffffffffffffffffffffffffffffffffffff1673ffffffffffffffffffffffffffffffffffffffff16815260200191505060405180910390f35b34801561047f57600080fd5b50610488610c30565b60405180826000191660001916815260200191505060405180910390f35b3480156104b257600080fd5b506104bb610c54565b604051808273ffffffffffffffffffffffffffffffffffffffff1673ffffffffffffffffffffffffffffffffffffffff16815260200191505060405180910390f35b34801561050957600080fd5b50610512610c7d565b604051808215151515815260200191505060405180910390f35b34801561053857600080fd5b50610541610cd4565b60405180826000191660001916815260200191505060405180910390f35b34801561056b57600080fd5b506105a0600480360381019080803573ffffffffffffffffffffffffffffffffffffffff169060200190929190505050610cf8565b604051808215151515815260200191505060405180910390f35b3480156105c657600080fd5b506105fb600480360381019080803573ffffffffffffffffffffffffffffffffffffffff169060200190929190505050610d44565b005b34801561060957600080fd5b5061062860048036038101908080359060200190929190505050610d9b565b604051808273ffffffffffffffffffffffffffffffffffffffff1673ffffffffffffffffffffffffffffffffffffffff16815260200191505060405180910390f35b34801561067657600080fd5b506106ab600480360381019080803573ffffffffffffffffffffffffffffffffffffffff169060200190929190505050610dd8565b6040518082815260200191505060405180910390f35b3480156106cd57600080fd5b506106d6610e21565b6040518082815260200191505060405180910390f35b3480156106f857600080fd5b50610701610e27565b6040518082815260200191505060405180910390f35b34801561072357600080fd5b5061072c610e31565b6040518082815260200191505060405180910390f35b34801561074e57600080fd5b50610843600480360381019080803573ffffffffffffffffffffffffffffffffffffffff169060200190929190803573ffffffffffffffffffffffffffffffffffffffff16906020019092919080359060200190929190803590602001908201803590602001908080601f0160208091040260200160405190810160405280939291908181526020018383808284378201915050505050509192919290803590602001908201803590602001908080601f016020809104026020016040519081016040528093929190818152602001838380828437820191505050505050919291929080359060200190929190505050610e3b565b005b34801561085157600080fd5b5061085a6112ba565b6040518082815260200191505060405180910390f35b34801561087c57600080fd5b506108b1600480360381019080803573ffffffffffffffffffffffffffffffffffffffff1690602001909291905050506112c0565b005b60008060405180807f6f72672e6d6574616469756d2e70726f78792e696d706c656d656e746174696f81526020017f6e00000000000000000000000000000000000000000000000000000000000000815250602101905060405180910390209050805491505090565b60006007600083815260200190815260200160002060009054906101000a900473ffffffffffffffffffffffffffffffffffffffff169050919050565b7f5374616b696e670000000000000000000000000000000000000000000000000081565b606080600060056000858152602001908152602001600020600001600560008681526020019081526020016000206001016005600087815260200190815260200160002060020154828054600181600116156101000203166002900480601f016020809104026020016040519081016040528092919081815260200182805460018160011615610100020316600290048015610a5a5780601f10610a2f57610100808354040283529160200191610a5a565b820191906000526020600020905b815481529060010190602001808311610a3d57829003601f168201915b50505050509250818054600181600116156101000203166002900480601f016020809104026020016040519081016040528092919081815260200182805460018160011615610100020316600290048015610af65780601f10610acb57610100808354040283529160200191610af6565b820191906000526020600020905b815481529060010190602001808311610ad957829003601f168201915b505050505091509250925092509193909250565b7f476f7665726e616e6365436f6e7472616374000000000000000000000000000081565b610b36610c7d565b1515610b4157600080fd5b600073ffffffffffffffffffffffffffffffffffffffff166000809054906101000a900473ffffffffffffffffffffffffffffffffffffffff1673ffffffffffffffffffffffffffffffffffffffff167f8be0079c531659141344cd1fd0a4f28419497f9722a3daafe3b4186f6b6457e060405160405180910390a360008060006101000a81548173ffffffffffffffffffffffffffffffffffffffff021916908373ffffffffffffffffffffffffffffffffffffffff160217905550565b6000600854905090565b600160009054906101000a900473ffffffffffffffffffffffffffffffffffffffff1681565b7f456e7653746f726167650000000000000000000000000000000000000000000081565b60008060009054906101000a900473ffffffffffffffffffffffffffffffffffffffff16905090565b60008060009054906101000a900473ffffffffffffffffffffffffffffffffffffffff1673ffffffffffffffffffffffffffffffffffffffff163373ffffffffffffffffffffffffffffffffffffffff1614905090565b7f42616c6c6f7453746f726167650000000000000000000000000000000000000081565b600080600360008473ffffffffffffffffffffffffffffffffffffffff1673ffffffffffffffffffffffffffffffffffffffff1681526020019081526020016000205414159050919050565b610d4c610c7d565b1515610d5757600080fd5b80600160006101000a81548173ffffffffffffffffffffffffffffffffffffffff021916908373ffffffffffffffffffffffffffffffffffffffff16021790555050565b60006002600083815260200190815260200160002060009054906101000a900473ffffffffffffffffffffffffffffffffffffffff169050919050565b6000600660008373ffffffffffffffffffffffffffffffffffffffff1673ffffffffffffffffffffffffffffffffffffffff168152602001908152602001600020549050919050565b60095481565b6000600454905090565b6000600b54905090565b600080610e46610c7d565b1515610e5157600080fd5b60001515600160149054906101000a900460ff161515141515610edc576040517f08c379a00000000000000000000000000000000000000000000000000000000081526004018080602001828103825260138152602001807f416c726561647920696e697469616c697a65640000000000000000000000000081525060200191505060405180910390fd5b610ee588610d44565b610eee876112df565b610ef6611346565b9150858273ffffffffffffffffffffffffffffffffffffffff1663a0821be3336040518263ffffffff167c0100000000000000000000000000000000000000000000000000000000028152600401808273ffffffffffffffffffffffffffffffffffffffff1673ffffffffffffffffffffffffffffffffffffffff168152602001915050602060405180830381600087803b158015610f9457600080fd5b505af1158015610fa8573d6000803e3d6000fd5b505050506040513d6020811015610fbe57600080fd5b810190808051906020019092919050505010151515611045576040517f08c379a00000000000000000000000000000000000000000000000000000000081526004018080602001828103825260148152602001807f496e73756666696369656e74207374616b696e6700000000000000000000000081525060200191505060405180910390fd5b8173ffffffffffffffffffffffffffffffffffffffff1663282d3fdf33886040518363ffffffff167c0100000000000000000000000000000000000000000000000000000000028152600401808373ffffffffffffffffffffffffffffffffffffffff1673ffffffffffffffffffffffffffffffffffffffff16815260200182815260200192505050600060405180830381600087803b1580156110e857600080fd5b505af11580156110fc573d6000803e3d6000fd5b5050505060016004819055503360026000600454815260200190815260200160002060006101000a81548173ffffffffffffffffffffffffffffffffffffffff021916908373ffffffffffffffffffffffffffffffffffffffff160217905550600454600360003373ffffffffffffffffffffffffffffffffffffffff1673ffffffffffffffffffffffffffffffffffffffff1681526020019081526020016000208190555060016008819055506005600060085481526020019081526020016000209050848160000190805190602001906111d992919061154d565b50838160010190805190602001906111f292919061154d565b50828160020181905550600854600660003373ffffffffffffffffffffffffffffffffffffffff1673ffffffffffffffffffffffffffffffffffffffff168152602001908152602001600020819055503360076000600854815260200190815260200160002060006101000a81548173ffffffffffffffffffffffffffffffffffffffff021916908373ffffffffffffffffffffffffffffffffffffffff16021790555060018060146101000a81548160ff0219169083151502179055505050505050505050565b600a5481565b6112c8610c7d565b15156112d357600080fd5b6112dc81611376565b50565b600060405180807f6f72672e6d6574616469756d2e70726f78792e696d706c656d656e746174696f81526020017f6e000000000000000000000000000000000000000000000000000000000000008152506021019050604051809103902090508181555050565b60006113717f5374616b696e6700000000000000000000000000000000000000000000000000611470565b905090565b600073ffffffffffffffffffffffffffffffffffffffff168173ffffffffffffffffffffffffffffffffffffffff16141515156113b257600080fd5b8073ffffffffffffffffffffffffffffffffffffffff166000809054906101000a900473ffffffffffffffffffffffffffffffffffffffff1673ffffffffffffffffffffffffffffffffffffffff167f8be0079c531659141344cd1fd0a4f28419497f9722a3daafe3b4186f6b6457e060405160405180910390a3806000806101000a81548173ffffffffffffffffffffffffffffffffffffffff021916908373ffffffffffffffffffffffffffffffffffffffff16021790555050565b6000600160009054906101000a900473ffffffffffffffffffffffffffffffffffffffff1673ffffffffffffffffffffffffffffffffffffffff16630d2020dd836040518263ffffffff167c0100000000000000000000000000000000000000000000000000000000028152600401808260001916600019168152602001915050602060405180830381600087803b15801561150b57600080fd5b505af115801561151f573d6000803e3d6000fd5b505050506040513d602081101561153557600080fd5b81019080805190602001909291905050509050919050565b828054600181600116156101000203166002900490600052602060002090601f016020900481019282601f1061158e57805160ff19168380011785556115bc565b828001600101855582156115bc579182015b828111156115bb5782518255916020019190600101906115a0565b5b5090506115c991906115cd565b5090565b6115ef91905b808211156115eb5760008160009055506001016115d3565b5090565b905600a165627a7a72305820e6a94957621519fb929ac0bb8bb768e6ae894ba2d19ca4a006710562842f49230029",
  "source": "pragma solidity ^0.4.24;\n\nimport \"openzeppelin-solidity/contracts/math/SafeMath.sol\";\nimport \"./proxy/UpgradeabilityProxy.sol\";\nimport \"./interface/IStaking.sol\";\nimport \"./GovChecker.sol\";\n\n\ncontract Gov is UpgradeabilityProxy, GovChecker {\n    bool private initialized;\n\n    // For member\n    mapping(uint256 => address) internal members;\n    mapping(address => uint256) internal memberIdx;\n    uint256 internal memberLength;\n\n    // For enode\n    struct Node {\n        bytes enode;\n        bytes ip;\n        uint port;\n    }\n\n    mapping(uint256 => Node) internal nodes;\n    mapping(address => uint256) internal nodeIdxFromMember;\n    mapping(uint256 => address) internal nodeToMember;\n    uint256 internal nodeLength;\n\n    // For ballot\n    uint256 public ballotLength;\n    uint256 public voteLength;\n    uint256 internal ballotInVoting;\n\n    constructor() public {\n        initialized = false;\n        memberLength = 0;\n        nodeLength = 0;\n        ballotLength = 0;\n        voteLength = 0;\n        ballotInVoting = 0;\n    }\n\n    function isMember(address addr) public view returns (bool) { return (memberIdx[addr] != 0); }\n    function getMember(uint256 idx) public view returns (address) { return members[idx]; }\n    function getMemberLength() public view returns (uint256) { return memberLength; }\n    function getNodeIdxFromMember(address addr) public view returns (uint256) { return nodeIdxFromMember[addr]; }\n    function getMemberFromNodeIdx(uint256 idx) public view returns (address) { return nodeToMember[idx]; }\n    function getNodeLength() public view returns (uint256) { return nodeLength; }\n\n    function getNode(uint256 idx) public view returns (bytes enode, bytes ip, uint port) {\n        return (nodes[idx].enode, nodes[idx].ip, nodes[idx].port);\n    }\n    \n    function getBallotInVoting() public view returns (uint256) { return ballotInVoting; }\n\n    function init(\n        address registry,\n        address implementation,\n        uint256 lockAmount,\n        bytes enode,\n        bytes ip,\n        uint port\n    )\n        public onlyOwner\n    {\n        require(initialized == false, \"Already initialized\");\n\n        setRegistry(registry);\n        setImplementation(implementation);\n\n        // Lock\n        IStaking staking = IStaking(getStakingAddress());\n        require(staking.availableBalance(msg.sender) >= lockAmount, \"Insufficient staking\");\n        staking.lock(msg.sender, lockAmount);\n\n        // Add member\n        memberLength = 1;\n        members[memberLength] = msg.sender;\n        memberIdx[msg.sender] = memberLength;\n\n        // Add node\n        nodeLength = 1;\n        Node storage node = nodes[nodeLength];\n        node.enode = enode;\n        node.ip = ip;\n        node.port = port;\n        nodeIdxFromMember[msg.sender] = nodeLength;\n        nodeToMember[nodeLength] = msg.sender;\n\n        initialized = true;\n    }\n}",
  "sourcePath": "/Users/hexoul/Documents/Metadium/governance/governance-contract/contracts/Gov.sol",
  "compiler": {
    "name": "solc",
    "version": "0.4.24+commit.e67f0147.Emscripten.clang"
  },
  "schemaVersion": "2.0.1",
  "updatedAt": "2019-02-01T06:27:34.148Z"
}