{
  "contractName": "GovImp",
  "abi": [
    {
      "constant": true,
      "inputs": [
        {
          "name": "idx",
          "type": "uint256"
        }
      ],
      "name": "getMemberFromNodeIdx",
      "outputs": [
        {
          "name": "",
          "type": "address"
        }
      ],
      "payable": false,
      "stateMutability": "view",
      "type": "function"
    },
    {
      "constant": true,
      "inputs": [],
      "name": "REG",
      "outputs": [
        {
          "name": "",
          "type": "address"
        }
      ],
      "payable": false,
      "stateMutability": "view",
      "type": "function"
    },
    {
      "constant": true,
      "inputs": [
        {
          "name": "idx",
          "type": "uint256"
        }
      ],
      "name": "getNode",
      "outputs": [
        {
          "name": "enode",
          "type": "bytes"
        },
        {
          "name": "ip",
          "type": "bytes"
        },
        {
          "name": "port",
          "type": "uint256"
        }
      ],
      "payable": false,
      "stateMutability": "view",
      "type": "function"
    },
    {
      "constant": true,
      "inputs": [],
      "name": "implementation",
      "outputs": [
        {
          "name": "impl",
          "type": "address"
        }
      ],
      "payable": false,
      "stateMutability": "view",
      "type": "function"
    },
    {
      "constant": true,
      "inputs": [],
      "name": "GOV_NAME",
      "outputs": [
        {
          "name": "",
          "type": "bytes32"
        }
      ],
      "payable": false,
      "stateMutability": "view",
      "type": "function"
    },
    {
      "constant": false,
      "inputs": [],
      "name": "renounceOwnership",
      "outputs": [],
      "payable": false,
      "stateMutability": "nonpayable",
      "type": "function"
    },
    {
      "constant": true,
      "inputs": [],
      "name": "getNodeLength",
      "outputs": [
        {
          "name": "",
          "type": "uint256"
        }
      ],
      "payable": false,
      "stateMutability": "view",
      "type": "function"
    },
    {
      "constant": true,
      "inputs": [],
      "name": "owner",
      "outputs": [
        {
          "name": "",
          "type": "address"
        }
      ],
      "payable": false,
      "stateMutability": "view",
      "type": "function"
    },
    {
      "constant": true,
      "inputs": [],
      "name": "isOwner",
      "outputs": [
        {
          "name": "",
          "type": "bool"
        }
      ],
      "payable": false,
      "stateMutability": "view",
      "type": "function"
    },
    {
      "constant": true,
      "inputs": [
        {
          "name": "addr",
          "type": "address"
        }
      ],
      "name": "isMember",
      "outputs": [
        {
          "name": "",
          "type": "bool"
        }
      ],
      "payable": false,
      "stateMutability": "view",
      "type": "function"
    },
    {
      "constant": false,
      "inputs": [
        {
          "name": "_addr",
          "type": "address"
        }
      ],
      "name": "setRegistry",
      "outputs": [],
      "payable": false,
      "stateMutability": "nonpayable",
      "type": "function"
    },
    {
      "constant": true,
      "inputs": [
        {
          "name": "idx",
          "type": "uint256"
        }
      ],
      "name": "getMember",
      "outputs": [
        {
          "name": "",
          "type": "address"
        }
      ],
      "payable": false,
      "stateMutability": "view",
      "type": "function"
    },
    {
      "constant": true,
      "inputs": [
        {
          "name": "addr",
          "type": "address"
        }
      ],
      "name": "getNodeIdxFromMember",
      "outputs": [
        {
          "name": "",
          "type": "uint256"
        }
      ],
      "payable": false,
      "stateMutability": "view",
      "type": "function"
    },
    {
      "constant": true,
      "inputs": [],
      "name": "ballotLength",
      "outputs": [
        {
          "name": "",
          "type": "uint256"
        }
      ],
      "payable": false,
      "stateMutability": "view",
      "type": "function"
    },
    {
      "constant": true,
      "inputs": [],
      "name": "getMemberLength",
      "outputs": [
        {
          "name": "",
          "type": "uint256"
        }
      ],
      "payable": false,
      "stateMutability": "view",
      "type": "function"
    },
    {
      "constant": true,
      "inputs": [],
      "name": "getBallotInVoting",
      "outputs": [
        {
          "name": "",
          "type": "uint256"
        }
      ],
      "payable": false,
      "stateMutability": "view",
      "type": "function"
    },
    {
      "constant": false,
      "inputs": [
        {
          "name": "registry",
          "type": "address"
        },
        {
          "name": "implementation",
          "type": "address"
        },
        {
          "name": "lockAmount",
          "type": "uint256"
        },
        {
          "name": "enode",
          "type": "bytes"
        },
        {
          "name": "ip",
          "type": "bytes"
        },
        {
          "name": "port",
          "type": "uint256"
        }
      ],
      "name": "init",
      "outputs": [],
      "payable": false,
      "stateMutability": "nonpayable",
      "type": "function"
    },
    {
      "constant": true,
      "inputs": [],
      "name": "voteLength",
      "outputs": [
        {
          "name": "",
          "type": "uint256"
        }
      ],
      "payable": false,
      "stateMutability": "view",
      "type": "function"
    },
    {
      "constant": false,
      "inputs": [
        {
          "name": "newOwner",
          "type": "address"
        }
      ],
      "name": "transferOwnership",
      "outputs": [],
      "payable": false,
      "stateMutability": "nonpayable",
      "type": "function"
    },
    {
      "payable": true,
      "stateMutability": "payable",
      "type": "fallback"
    },
    {
      "anonymous": false,
      "inputs": [
        {
          "indexed": true,
          "name": "previousOwner",
          "type": "address"
        },
        {
          "indexed": true,
          "name": "newOwner",
          "type": "address"
        }
      ],
      "name": "OwnershipTransferred",
      "type": "event"
    },
    {
      "anonymous": false,
      "inputs": [
        {
          "indexed": true,
          "name": "implementation",
          "type": "address"
        }
      ],
      "name": "Upgraded",
      "type": "event"
    },
    {
      "constant": true,
      "inputs": [],
      "name": "getMaxVotingDuration",
      "outputs": [
        {
          "name": "",
          "type": "uint256"
        }
      ],
      "payable": false,
      "stateMutability": "pure",
      "type": "function"
    },
    {
      "constant": false,
      "inputs": [
        {
          "name": "member",
          "type": "address"
        },
        {
          "name": "enode",
          "type": "bytes"
        },
        {
          "name": "ip",
          "type": "bytes"
        },
        {
          "name": "port",
          "type": "uint256"
        }
      ],
      "name": "addProposalToAddMember",
      "outputs": [
        {
          "name": "ballotIdx",
          "type": "uint256"
        }
      ],
      "payable": false,
      "stateMutability": "nonpayable",
      "type": "function"
    },
    {
      "constant": false,
      "inputs": [
        {
          "name": "member",
          "type": "address"
        }
      ],
      "name": "addProposalToRemoveMember",
      "outputs": [
        {
          "name": "ballotIdx",
          "type": "uint256"
        }
      ],
      "payable": false,
      "stateMutability": "nonpayable",
      "type": "function"
    },
    {
      "constant": false,
      "inputs": [
        {
          "name": "target",
          "type": "address"
        },
        {
          "name": "nMember",
          "type": "address"
        },
        {
          "name": "nEnode",
          "type": "bytes"
        },
        {
          "name": "nIp",
          "type": "bytes"
        },
        {
          "name": "nPort",
          "type": "uint256"
        }
      ],
      "name": "addProposalToChangeMember",
      "outputs": [
        {
          "name": "ballotIdx",
          "type": "uint256"
        }
      ],
      "payable": false,
      "stateMutability": "nonpayable",
      "type": "function"
    },
    {
      "constant": false,
      "inputs": [
        {
          "name": "newGovAddr",
          "type": "address"
        }
      ],
      "name": "addProposalToChangeGov",
      "outputs": [
        {
          "name": "ballotIdx",
          "type": "uint256"
        }
      ],
      "payable": false,
      "stateMutability": "nonpayable",
      "type": "function"
    },
    {
      "constant": false,
      "inputs": [
        {
          "name": "envName",
          "type": "bytes32"
        },
        {
          "name": "envType",
          "type": "uint256"
        },
        {
          "name": "envVal",
          "type": "string"
        }
      ],
      "name": "addProposalToChangeEnv",
      "outputs": [
        {
          "name": "ballotIdx",
          "type": "uint256"
        }
      ],
      "payable": false,
      "stateMutability": "nonpayable",
      "type": "function"
    },
    {
      "constant": false,
      "inputs": [
        {
          "name": "ballotIdx",
          "type": "uint256"
        },
        {
          "name": "approval",
          "type": "bool"
        }
      ],
      "name": "vote",
      "outputs": [],
      "payable": false,
      "stateMutability": "nonpayable",
      "type": "function"
    }
  ],
  "bytecode": "0x60806040527f476f7665726e616e6365436f6e74726163740000000000000000000000000000600290600019169055336000806101000a81548173ffffffffffffffffffffffffffffffffffffffff021916908373ffffffffffffffffffffffffffffffffffffffff1602179055506000809054906101000a900473ffffffffffffffffffffffffffffffffffffffff1673ffffffffffffffffffffffffffffffffffffffff16600073ffffffffffffffffffffffffffffffffffffffff167f8be0079c531659141344cd1fd0a4f28419497f9722a3daafe3b4186f6b6457e060405160405180910390a36000600360006101000a81548160ff02191690831515021790555060006006819055506000600a819055506000600b819055506000600c819055506000600d819055506001600e81905550614473806101446000396000f300608060405260043610610154576000357c0100000000000000000000000000000000000000000000000000000000900463ffffffff1680630850938e146101c357806315bf6b4d1461027457806316190226146102e157806337b8a96914610338578063393631121461038f5780633d804253146103e65780634f0f4aa91461044d5780635c60da1b146105665780635f5825fa146105bd5780636c78d2cf1461064e578063715018a61461068157806372016f75146106985780638da5cb5b146106c35780638f32d59b1461071a578063a230c52414610749578063a91ee0dc146107a4578063ab3545e5146107e7578063c9d27afe14610854578063ce04b9d41461088d578063ce6a54ff146108b8578063d6f9cfce1461090f578063d965ea001461093a578063de09b37714610965578063e4df5ea914610990578063e9523fb514610a93578063f2fde38b14610abe575b600061015e610b01565b9050600073ffffffffffffffffffffffffffffffffffffffff168173ffffffffffffffffffffffffffffffffffffffff161415151561019c57600080fd5b60405136600082376000803683855af43d806000843e81600081146101bf578184f35b8184fd5b3480156101cf57600080fd5b5061025e600480360381019080803573ffffffffffffffffffffffffffffffffffffffff169060200190929190803573ffffffffffffffffffffffffffffffffffffffff16906020019092919080359060200190820180359060200191909192939192939080359060200190820180359060200191909192939192939080359060200190929190505050610b6a565b6040518082815260200191505060405180910390f35b34801561028057600080fd5b5061029f60048036038101908080359060200190929190505050611151565b604051808273ffffffffffffffffffffffffffffffffffffffff1673ffffffffffffffffffffffffffffffffffffffff16815260200191505060405180910390f35b3480156102ed57600080fd5b50610322600480360381019080803573ffffffffffffffffffffffffffffffffffffffff16906020019092919050505061118e565b6040518082815260200191505060405180910390f35b34801561034457600080fd5b50610379600480360381019080803573ffffffffffffffffffffffffffffffffffffffff169060200190929190505050611696565b6040518082815260200191505060405180910390f35b34801561039b57600080fd5b506103a4611d76565b604051808273ffffffffffffffffffffffffffffffffffffffff1673ffffffffffffffffffffffffffffffffffffffff16815260200191505060405180910390f35b3480156103f257600080fd5b50610437600480360381019080803560001916906020019092919080359060200190929190803590602001908201803590602001919091929391929390505050611d9c565b6040518082815260200191505060405180910390f35b34801561045957600080fd5b50610478600480360381019080803590602001909291905050506122ac565b604051808060200180602001848152602001838103835286818151815260200191508051906020019080838360005b838110156104c25780820151818401526020810190506104a7565b50505050905090810190601f1680156104ef5780820380516001836020036101000a031916815260200191505b50838103825285818151815260200191508051906020019080838360005b8381101561052857808201518184015260208101905061050d565b50505050905090810190601f1680156105555780820380516001836020036101000a031916815260200191505b509550505050505060405180910390f35b34801561057257600080fd5b5061057b610b01565b604051808273ffffffffffffffffffffffffffffffffffffffff1673ffffffffffffffffffffffffffffffffffffffff16815260200191505060405180910390f35b3480156105c957600080fd5b50610638600480360381019080803573ffffffffffffffffffffffffffffffffffffffff16906020019092919080359060200190820180359060200191909192939192939080359060200190820180359060200191909192939192939080359060200190929190505050612439565b6040518082815260200191505060405180910390f35b34801561065a57600080fd5b50610663612ac5565b60405180826000191660001916815260200191505060405180910390f35b34801561068d57600080fd5b50610696612acb565b005b3480156106a457600080fd5b506106ad612b9d565b6040518082815260200191505060405180910390f35b3480156106cf57600080fd5b506106d8612ba7565b604051808273ffffffffffffffffffffffffffffffffffffffff1673ffffffffffffffffffffffffffffffffffffffff16815260200191505060405180910390f35b34801561072657600080fd5b5061072f612bd0565b604051808215151515815260200191505060405180910390f35b34801561075557600080fd5b5061078a600480360381019080803573ffffffffffffffffffffffffffffffffffffffff169060200190929190505050612c27565b604051808215151515815260200191505060405180910390f35b3480156107b057600080fd5b506107e5600480360381019080803573ffffffffffffffffffffffffffffffffffffffff169060200190929190505050612c73565b005b3480156107f357600080fd5b5061081260048036038101908080359060200190929190505050612cca565b604051808273ffffffffffffffffffffffffffffffffffffffff1673ffffffffffffffffffffffffffffffffffffffff16815260200191505060405180910390f35b34801561086057600080fd5b5061088b60048036038101908080359060200190929190803515159060200190929190505050612d07565b005b34801561089957600080fd5b506108a2613b36565b6040518082815260200191505060405180910390f35b3480156108c457600080fd5b506108f9600480360381019080803573ffffffffffffffffffffffffffffffffffffffff169060200190929190505050613b41565b6040518082815260200191505060405180910390f35b34801561091b57600080fd5b50610924613b8a565b6040518082815260200191505060405180910390f35b34801561094657600080fd5b5061094f613b90565b6040518082815260200191505060405180910390f35b34801561097157600080fd5b5061097a613b9a565b6040518082815260200191505060405180910390f35b34801561099c57600080fd5b50610a91600480360381019080803573ffffffffffffffffffffffffffffffffffffffff169060200190929190803573ffffffffffffffffffffffffffffffffffffffff16906020019092919080359060200190929190803590602001908201803590602001908080601f0160208091040260200160405190810160405280939291908181526020018383808284378201915050505050509192919290803590602001908201803590602001908080601f016020809104026020016040519081016040528093929190818152602001838380828437820191505050505050919291929080359060200190929190505050613ba4565b005b348015610a9f57600080fd5b50610aa8614108565b6040518082815260200191505060405180910390f35b348015610aca57600080fd5b50610aff600480360381019080803573ffffffffffffffffffffffffffffffffffffffff16906020019092919050505061410e565b005b60008060405180807f6f72672e6d6574616469756d2e70726f78792e696d706c656d656e746174696f81526020017f6e00000000000000000000000000000000000000000000000000000000000000815250602101905060405180910390209050805491505090565b6000806000600160009054906101000a900473ffffffffffffffffffffffffffffffffffffffff1673ffffffffffffffffffffffffffffffffffffffff16630d2020dd6002546040518263ffffffff167c0100000000000000000000000000000000000000000000000000000000028152600401808260001916600019168152602001915050602060405180830381600087803b158015610c0a57600080fd5b505af1158015610c1e573d6000803e3d6000fd5b505050506040513d6020811015610c3457600080fd5b81019080805190602001909291905050509050600073ffffffffffffffffffffffffffffffffffffffff168173ffffffffffffffffffffffffffffffffffffffff1614151515610cec576040517f08c379a000000000000000000000000000000000000000000000000000000000815260040180806020018281038252600d8152602001807f4e6f20476f7665726e616e63650000000000000000000000000000000000000081525060200191505060405180910390fd5b8073ffffffffffffffffffffffffffffffffffffffff1663a230c524336040518263ffffffff167c0100000000000000000000000000000000000000000000000000000000028152600401808273ffffffffffffffffffffffffffffffffffffffff1673ffffffffffffffffffffffffffffffffffffffff168152602001915050602060405180830381600087803b158015610d8757600080fd5b505af1158015610d9b573d6000803e3d6000fd5b505050506040513d6020811015610db157600080fd5b81019080805190602001909291905050501515610e36576040517f08c379a000000000000000000000000000000000000000000000000000000000815260040180806020018281038252600d8152602001807f4e6f205065726d697373696f6e0000000000000000000000000000000000000081525060200191505060405180910390fd5b60006001600e60008282540192505081905550600e549050610e578b612c27565b1515610ecb576040517f08c379a000000000000000000000000000000000000000000000000000000000815260040180806020018281038252600a8152602001807f4e6f6e2d6d656d6265720000000000000000000000000000000000000000000081525060200191505060405180910390fd5b610ed361412d565b9250600073ffffffffffffffffffffffffffffffffffffffff168373ffffffffffffffffffffffffffffffffffffffff1614151515610f7a576040517f08c379a00000000000000000000000000000000000000000000000000000000081526004018080602001828103825260178152602001807f42616c6c6f7453746f72616765204e4f5420464f554e4400000000000000000081525060200191505060405180910390fd5b8273ffffffffffffffffffffffffffffffffffffffff166399e929a3610fac6001600b5461422090919063ffffffff16565b60036005811115610fb957fe5b338f8f8f8f8f8f8f6040518b63ffffffff167c0100000000000000000000000000000000000000000000000000000000028152600401808b81526020018a81526020018973ffffffffffffffffffffffffffffffffffffffff1673ffffffffffffffffffffffffffffffffffffffff1681526020018873ffffffffffffffffffffffffffffffffffffffff1673ffffffffffffffffffffffffffffffffffffffff1681526020018773ffffffffffffffffffffffffffffffffffffffff1673ffffffffffffffffffffffffffffffffffffffff168152602001806020018060200184815260200183810383528888828181526020019250808284378201915050838103825286868281815260200192508082843782019150509c50505050505050505050505050600060405180830381600087803b1580156110fa57600080fd5b505af115801561110e573d6000803e3d6000fd5b505050506111286001600b5461422090919063ffffffff16565b600b81905550600b549350600e548114151561114357600080fd5b505050979650505050505050565b60006009600083815260200190815260200160002060009054906101000a900473ffffffffffffffffffffffffffffffffffffffff169050919050565b6000806000600160009054906101000a900473ffffffffffffffffffffffffffffffffffffffff1673ffffffffffffffffffffffffffffffffffffffff16630d2020dd6002546040518263ffffffff167c0100000000000000000000000000000000000000000000000000000000028152600401808260001916600019168152602001915050602060405180830381600087803b15801561122e57600080fd5b505af1158015611242573d6000803e3d6000fd5b505050506040513d602081101561125857600080fd5b81019080805190602001909291905050509050600073ffffffffffffffffffffffffffffffffffffffff168173ffffffffffffffffffffffffffffffffffffffff1614151515611310576040517f08c379a000000000000000000000000000000000000000000000000000000000815260040180806020018281038252600d8152602001807f4e6f20476f7665726e616e63650000000000000000000000000000000000000081525060200191505060405180910390fd5b8073ffffffffffffffffffffffffffffffffffffffff1663a230c524336040518263ffffffff167c0100000000000000000000000000000000000000000000000000000000028152600401808273ffffffffffffffffffffffffffffffffffffffff1673ffffffffffffffffffffffffffffffffffffffff168152602001915050602060405180830381600087803b1580156113ab57600080fd5b505af11580156113bf573d6000803e3d6000fd5b505050506040513d60208110156113d557600080fd5b8101908080519060200190929190505050151561145a576040517f08c379a000000000000000000000000000000000000000000000000000000000815260040180806020018281038252600d8152602001807f4e6f205065726d697373696f6e0000000000000000000000000000000000000081525060200191505060405180910390fd5b60006001600e60008282540192505081905550600e54905061147a61412d565b9250600073ffffffffffffffffffffffffffffffffffffffff168373ffffffffffffffffffffffffffffffffffffffff1614151515611521576040517f08c379a00000000000000000000000000000000000000000000000000000000081526004018080602001828103825260178152602001807f42616c6c6f7453746f72616765204e4f5420464f554e4400000000000000000081525060200191505060405180910390fd5b8273ffffffffffffffffffffffffffffffffffffffff16634a4af0136115536001600b5461422090919063ffffffff16565b6004600581111561156057fe5b33896040518563ffffffff167c0100000000000000000000000000000000000000000000000000000000028152600401808581526020018481526020018373ffffffffffffffffffffffffffffffffffffffff1673ffffffffffffffffffffffffffffffffffffffff1681526020018273ffffffffffffffffffffffffffffffffffffffff1673ffffffffffffffffffffffffffffffffffffffff168152602001945050505050602060405180830381600087803b15801561162157600080fd5b505af1158015611635573d6000803e3d6000fd5b505050506040513d602081101561164b57600080fd5b8101908080519060200190929190505050506116736001600b5461422090919063ffffffff16565b600b81905550600b549350600e548114151561168e57600080fd5b505050919050565b6000806000600160009054906101000a900473ffffffffffffffffffffffffffffffffffffffff1673ffffffffffffffffffffffffffffffffffffffff16630d2020dd6002546040518263ffffffff167c0100000000000000000000000000000000000000000000000000000000028152600401808260001916600019168152602001915050602060405180830381600087803b15801561173657600080fd5b505af115801561174a573d6000803e3d6000fd5b505050506040513d602081101561176057600080fd5b81019080805190602001909291905050509050600073ffffffffffffffffffffffffffffffffffffffff168173ffffffffffffffffffffffffffffffffffffffff1614151515611818576040517f08c379a000000000000000000000000000000000000000000000000000000000815260040180806020018281038252600d8152602001807f4e6f20476f7665726e616e63650000000000000000000000000000000000000081525060200191505060405180910390fd5b8073ffffffffffffffffffffffffffffffffffffffff1663a230c524336040518263ffffffff167c0100000000000000000000000000000000000000000000000000000000028152600401808273ffffffffffffffffffffffffffffffffffffffff1673ffffffffffffffffffffffffffffffffffffffff168152602001915050602060405180830381600087803b1580156118b357600080fd5b505af11580156118c7573d6000803e3d6000fd5b505050506040513d60208110156118dd57600080fd5b81019080805190602001909291905050501515611962576040517f08c379a000000000000000000000000000000000000000000000000000000000815260040180806020018281038252600d8152602001807f4e6f205065726d697373696f6e0000000000000000000000000000000000000081525060200191505060405180910390fd5b60006001600e60008282540192505081905550600e54905061198385612c27565b15156119f7576040517f08c379a000000000000000000000000000000000000000000000000000000000815260040180806020018281038252600a8152602001807f4e6f6e2d6d656d6265720000000000000000000000000000000000000000000081525060200191505060405180910390fd5b6119ff61412d565b9250600073ffffffffffffffffffffffffffffffffffffffff168373ffffffffffffffffffffffffffffffffffffffff1614151515611aa6576040517f08c379a00000000000000000000000000000000000000000000000000000000081526004018080602001828103825260178152602001807f42616c6c6f7453746f72616765204e4f5420464f554e4400000000000000000081525060200191505060405180910390fd5b8273ffffffffffffffffffffffffffffffffffffffff166399e929a3611ad86001600b5461422090919063ffffffff16565b60026005811115611ae557fe5b33896000806040519080825280601f01601f191660200182016040528015611b1c5781602001602082028038833980820191505090505b5060006040519080825280601f01601f191660200182016040528015611b515781602001602082028038833980820191505090505b5060006040518963ffffffff167c0100000000000000000000000000000000000000000000000000000000028152600401808981526020018881526020018773ffffffffffffffffffffffffffffffffffffffff1673ffffffffffffffffffffffffffffffffffffffff1681526020018673ffffffffffffffffffffffffffffffffffffffff1673ffffffffffffffffffffffffffffffffffffffff1681526020018573ffffffffffffffffffffffffffffffffffffffff1673ffffffffffffffffffffffffffffffffffffffff1681526020018060200180602001848152602001838103835286818151815260200191508051906020019080838360005b83811015611c6b578082015181840152602081019050611c50565b50505050905090810190601f168015611c985780820380516001836020036101000a031916815260200191505b50838103825285818151815260200191508051906020019080838360005b83811015611cd1578082015181840152602081019050611cb6565b50505050905090810190601f168015611cfe5780820380516001836020036101000a031916815260200191505b509a5050505050505050505050600060405180830381600087803b158015611d2557600080fd5b505af1158015611d39573d6000803e3d6000fd5b50505050611d536001600b5461422090919063ffffffff16565b600b81905550600b549350600e5481141515611d6e57600080fd5b505050919050565b600160009054906101000a900473ffffffffffffffffffffffffffffffffffffffff1681565b6000806000600160009054906101000a900473ffffffffffffffffffffffffffffffffffffffff1673ffffffffffffffffffffffffffffffffffffffff16630d2020dd6002546040518263ffffffff167c0100000000000000000000000000000000000000000000000000000000028152600401808260001916600019168152602001915050602060405180830381600087803b158015611e3c57600080fd5b505af1158015611e50573d6000803e3d6000fd5b505050506040513d6020811015611e6657600080fd5b81019080805190602001909291905050509050600073ffffffffffffffffffffffffffffffffffffffff168173ffffffffffffffffffffffffffffffffffffffff1614151515611f1e576040517f08c379a000000000000000000000000000000000000000000000000000000000815260040180806020018281038252600d8152602001807f4e6f20476f7665726e616e63650000000000000000000000000000000000000081525060200191505060405180910390fd5b8073ffffffffffffffffffffffffffffffffffffffff1663a230c524336040518263ffffffff167c0100000000000000000000000000000000000000000000000000000000028152600401808273ffffffffffffffffffffffffffffffffffffffff1673ffffffffffffffffffffffffffffffffffffffff168152602001915050602060405180830381600087803b158015611fb957600080fd5b505af1158015611fcd573d6000803e3d6000fd5b505050506040513d6020811015611fe357600080fd5b81019080805190602001909291905050501515612068576040517f08c379a000000000000000000000000000000000000000000000000000000000815260040180806020018281038252600d8152602001807f4e6f205065726d697373696f6e0000000000000000000000000000000000000081525060200191505060405180910390fd5b60006001600e60008282540192505081905550600e54905061208861412d565b9250600073ffffffffffffffffffffffffffffffffffffffff168373ffffffffffffffffffffffffffffffffffffffff161415151561212f576040517f08c379a00000000000000000000000000000000000000000000000000000000081526004018080602001828103825260178152602001807f42616c6c6f7453746f72616765204e4f5420464f554e4400000000000000000081525060200191505060405180910390fd5b8273ffffffffffffffffffffffffffffffffffffffff1663c351e2ea6121616001600b5461422090919063ffffffff16565b60058081111561216d57fe5b338c8c8c8c6040518863ffffffff167c0100000000000000000000000000000000000000000000000000000000028152600401808881526020018781526020018673ffffffffffffffffffffffffffffffffffffffff1673ffffffffffffffffffffffffffffffffffffffff1681526020018560001916600019168152602001848152602001806020018281038252848482818152602001925080828437820191505098505050505050505050602060405180830381600087803b15801561223457600080fd5b505af1158015612248573d6000803e3d6000fd5b505050506040513d602081101561225e57600080fd5b8101908080519060200190929190505050506122866001600b5461422090919063ffffffff16565b600b81905550600b549350600e54811415156122a157600080fd5b505050949350505050565b606080600060076000858152602001908152602001600020600001600760008681526020019081526020016000206001016007600087815260200190815260200160002060020154828054600181600116156101000203166002900480601f0160208091040260200160405190810160405280929190818152602001828054600181600116156101000203166002900480156123895780601f1061235e57610100808354040283529160200191612389565b820191906000526020600020905b81548152906001019060200180831161236c57829003601f168201915b50505050509250818054600181600116156101000203166002900480601f0160208091040260200160405190810160405280929190818152602001828054600181600116156101000203166002900480156124255780601f106123fa57610100808354040283529160200191612425565b820191906000526020600020905b81548152906001019060200180831161240857829003601f168201915b505050505091509250925092509193909250565b6000806000600160009054906101000a900473ffffffffffffffffffffffffffffffffffffffff1673ffffffffffffffffffffffffffffffffffffffff16630d2020dd6002546040518263ffffffff167c0100000000000000000000000000000000000000000000000000000000028152600401808260001916600019168152602001915050602060405180830381600087803b1580156124d957600080fd5b505af11580156124ed573d6000803e3d6000fd5b505050506040513d602081101561250357600080fd5b81019080805190602001909291905050509050600073ffffffffffffffffffffffffffffffffffffffff168173ffffffffffffffffffffffffffffffffffffffff16141515156125bb576040517f08c379a000000000000000000000000000000000000000000000000000000000815260040180806020018281038252600d8152602001807f4e6f20476f7665726e616e63650000000000000000000000000000000000000081525060200191505060405180910390fd5b8073ffffffffffffffffffffffffffffffffffffffff1663a230c524336040518263ffffffff167c0100000000000000000000000000000000000000000000000000000000028152600401808273ffffffffffffffffffffffffffffffffffffffff1673ffffffffffffffffffffffffffffffffffffffff168152602001915050602060405180830381600087803b15801561265657600080fd5b505af115801561266a573d6000803e3d6000fd5b505050506040513d602081101561268057600080fd5b81019080805190602001909291905050501515612705576040517f08c379a000000000000000000000000000000000000000000000000000000000815260040180806020018281038252600d8152602001807f4e6f205065726d697373696f6e0000000000000000000000000000000000000081525060200191505060405180910390fd5b60006001600e60008282540192505081905550600e5490508973ffffffffffffffffffffffffffffffffffffffff163373ffffffffffffffffffffffffffffffffffffffff16141515156127c1576040517f08c379a000000000000000000000000000000000000000000000000000000000815260040180806020018281038252600f8152602001807f43616e6e6f74206164642073656c66000000000000000000000000000000000081525060200191505060405180910390fd5b6127ca8a612c27565b15151561283f576040517f08c379a000000000000000000000000000000000000000000000000000000000815260040180806020018281038252600e8152602001807f416c7265616479206d656d62657200000000000000000000000000000000000081525060200191505060405180910390fd5b61284761412d565b9250600073ffffffffffffffffffffffffffffffffffffffff168373ffffffffffffffffffffffffffffffffffffffff16141515156128ee576040517f08c379a00000000000000000000000000000000000000000000000000000000081526004018080602001828103825260178152602001807f42616c6c6f7453746f72616765204e4f5420464f554e4400000000000000000081525060200191505060405180910390fd5b8273ffffffffffffffffffffffffffffffffffffffff166399e929a36129206001600b5461422090919063ffffffff16565b6001600581111561292d57fe5b3360008f8f8f8f8f8f6040518b63ffffffff167c0100000000000000000000000000000000000000000000000000000000028152600401808b81526020018a81526020018973ffffffffffffffffffffffffffffffffffffffff1673ffffffffffffffffffffffffffffffffffffffff1681526020018873ffffffffffffffffffffffffffffffffffffffff1673ffffffffffffffffffffffffffffffffffffffff1681526020018773ffffffffffffffffffffffffffffffffffffffff1673ffffffffffffffffffffffffffffffffffffffff168152602001806020018060200184815260200183810383528888828181526020019250808284378201915050838103825286868281815260200192508082843782019150509c50505050505050505050505050600060405180830381600087803b158015612a6f57600080fd5b505af1158015612a83573d6000803e3d6000fd5b50505050612a9d6001600b5461422090919063ffffffff16565b600b81905550600b549350600e5481141515612ab857600080fd5b5050509695505050505050565b60025481565b612ad3612bd0565b1515612ade57600080fd5b600073ffffffffffffffffffffffffffffffffffffffff166000809054906101000a900473ffffffffffffffffffffffffffffffffffffffff1673ffffffffffffffffffffffffffffffffffffffff167f8be0079c531659141344cd1fd0a4f28419497f9722a3daafe3b4186f6b6457e060405160405180910390a360008060006101000a81548173ffffffffffffffffffffffffffffffffffffffff021916908373ffffffffffffffffffffffffffffffffffffffff160217905550565b6000600a54905090565b60008060009054906101000a900473ffffffffffffffffffffffffffffffffffffffff16905090565b60008060009054906101000a900473ffffffffffffffffffffffffffffffffffffffff1673ffffffffffffffffffffffffffffffffffffffff163373ffffffffffffffffffffffffffffffffffffffff1614905090565b600080600560008473ffffffffffffffffffffffffffffffffffffffff1673ffffffffffffffffffffffffffffffffffffffff1681526020019081526020016000205414159050919050565b612c7b612bd0565b1515612c8657600080fd5b80600160006101000a81548173ffffffffffffffffffffffffffffffffffffffff021916908373ffffffffffffffffffffffffffffffffffffffff16021790555050565b60006004600083815260200190815260200160002060009054906101000a900473ffffffffffffffffffffffffffffffffffffffff169050919050565b6000806000806000600160009054906101000a900473ffffffffffffffffffffffffffffffffffffffff1673ffffffffffffffffffffffffffffffffffffffff16630d2020dd6002546040518263ffffffff167c0100000000000000000000000000000000000000000000000000000000028152600401808260001916600019168152602001915050602060405180830381600087803b158015612daa57600080fd5b505af1158015612dbe573d6000803e3d6000fd5b505050506040513d6020811015612dd457600080fd5b81019080805190602001909291905050509050600073ffffffffffffffffffffffffffffffffffffffff168173ffffffffffffffffffffffffffffffffffffffff1614151515612e8c576040517f08c379a000000000000000000000000000000000000000000000000000000000815260040180806020018281038252600d8152602001807f4e6f20476f7665726e616e63650000000000000000000000000000000000000081525060200191505060405180910390fd5b8073ffffffffffffffffffffffffffffffffffffffff1663a230c524336040518263ffffffff167c0100000000000000000000000000000000000000000000000000000000028152600401808273ffffffffffffffffffffffffffffffffffffffff1673ffffffffffffffffffffffffffffffffffffffff168152602001915050602060405180830381600087803b158015612f2757600080fd5b505af1158015612f3b573d6000803e3d6000fd5b505050506040513d6020811015612f5157600080fd5b81019080805190602001909291905050501515612fd6576040517f08c379a000000000000000000000000000000000000000000000000000000000815260040180806020018281038252600d8152602001807f4e6f205065726d697373696f6e0000000000000000000000000000000000000081525060200191505060405180910390fd5b60006001600e60008282540192505081905550600e549050612ff661412d565b9550600073ffffffffffffffffffffffffffffffffffffffff168673ffffffffffffffffffffffffffffffffffffffff161415151561309d576040517f08c379a00000000000000000000000000000000000000000000000000000000081526004018080602001828103825260178152602001807f42616c6c6f7453746f72616765204e4f5420464f554e4400000000000000000081525060200191505060405180910390fd5b6000600d54141515613381578573ffffffffffffffffffffffffffffffffffffffff1663688ca5b2896040518263ffffffff167c010000000000000000000000000000000000000000000000000000000002815260040180828152602001915050606060405180830381600087803b15801561311857600080fd5b505af115801561312c573d6000803e3d6000fd5b505050506040513d606081101561314257600080fd5b81019080805190602001909291908051906020019092919080519060200190929190505050509550508573ffffffffffffffffffffffffffffffffffffffff166309970688896040518263ffffffff167c010000000000000000000000000000000000000000000000000000000002815260040180828152602001915050606060405180830381600087803b1580156131da57600080fd5b505af11580156131ee573d6000803e3d6000fd5b505050506040513d606081101561320457600080fd5b81019080805190602001909291908051906020019092919080519060200190929190505050509450506002600481111561323a57fe5b85141561338057428410156132dd576040517f08c379a00000000000000000000000000000000000000000000000000000000081526004018080602001828103825260238152602001807f4e6f7720696e20766f74696e67207769746820646966666572656e742062616c81526020017f6c6f74000000000000000000000000000000000000000000000000000000000081525060400191505060405180910390fd5b8573ffffffffffffffffffffffffffffffffffffffff1663a91e59ba8960028081111561330657fe5b6040518363ffffffff167c01000000000000000000000000000000000000000000000000000000000281526004018083815260200182815260200192505050600060405180830381600087803b15801561335f57600080fd5b505af1158015613373573d6000803e3d6000fd5b505050506000600d819055505b5b8573ffffffffffffffffffffffffffffffffffffffff1663688ca5b2896040518263ffffffff167c010000000000000000000000000000000000000000000000000000000002815260040180828152602001915050606060405180830381600087803b1580156133f057600080fd5b505af1158015613404573d6000803e3d6000fd5b505050506040513d606081101561341a57600080fd5b8101908080519060200190929190805190602001909291908051906020019092919050505090915050809550506001600481111561345457fe5b851415613500578573ffffffffffffffffffffffffffffffffffffffff1663c0b6f1868942613481613b36565b42016040518463ffffffff167c0100000000000000000000000000000000000000000000000000000000028152600401808481526020018381526020018281526020019350505050600060405180830381600087803b1580156134e357600080fd5b505af11580156134f7573d6000803e3d6000fd5b50505050613588565b6002600481111561350d57fe5b85141561351957613587565b6040517f08c379a00000000000000000000000000000000000000000000000000000000081526004018080602001828103825260078152602001807f457870697265640000000000000000000000000000000000000000000000000081525060200191505060405180910390fd5b5b600160009054906101000a900473ffffffffffffffffffffffffffffffffffffffff1673ffffffffffffffffffffffffffffffffffffffff16630d2020dd6040518163ffffffff167c010000000000000000000000000000000000000000000000000000000002815260040180807f5374616b696e67000000000000000000000000000000000000000000000000008152506020019050602060405180830381600087803b15801561363957600080fd5b505af115801561364d573d6000803e3d6000fd5b505050506040513d602081101561366357600080fd5b81019080805190602001909291905050509250600073ffffffffffffffffffffffffffffffffffffffff168373ffffffffffffffffffffffffffffffffffffffff161415151561371b576040517f08c379a00000000000000000000000000000000000000000000000000000000081526004018080602001828103825260118152602001807f5374616b696e67204e4f5420464f554e4400000000000000000000000000000081525060200191505060405180910390fd5b8615613913578573ffffffffffffffffffffffffffffffffffffffff166396462b9c6137536001600c5461422090919063ffffffff16565b8a336001600281111561376257fe5b8873ffffffffffffffffffffffffffffffffffffffff1663884d97a7336040518263ffffffff167c0100000000000000000000000000000000000000000000000000000000028152600401808273ffffffffffffffffffffffffffffffffffffffff1673ffffffffffffffffffffffffffffffffffffffff168152602001915050602060405180830381600087803b1580156137fd57600080fd5b505af1158015613811573d6000803e3d6000fd5b505050506040513d602081101561382757600080fd5b81019080805190602001909291905050506040518663ffffffff167c0100000000000000000000000000000000000000000000000000000000028152600401808681526020018581526020018473ffffffffffffffffffffffffffffffffffffffff1673ffffffffffffffffffffffffffffffffffffffff16815260200183815260200182815260200195505050505050602060405180830381600087803b1580156138d257600080fd5b505af11580156138e6573d6000803e3d6000fd5b505050506040513d60208110156138fc57600080fd5b810190808051906020019092919050505050613b00565b8573ffffffffffffffffffffffffffffffffffffffff166396462b9c6139456001600c5461422090919063ffffffff16565b8a3360028081111561395357fe5b8873ffffffffffffffffffffffffffffffffffffffff1663884d97a7336040518263ffffffff167c0100000000000000000000000000000000000000000000000000000000028152600401808273ffffffffffffffffffffffffffffffffffffffff1673ffffffffffffffffffffffffffffffffffffffff168152602001915050602060405180830381600087803b1580156139ee57600080fd5b505af1158015613a02573d6000803e3d6000fd5b505050506040513d6020811015613a1857600080fd5b81019080805190602001909291905050506040518663ffffffff167c0100000000000000000000000000000000000000000000000000000000028152600401808681526020018581526020018473ffffffffffffffffffffffffffffffffffffffff1673ffffffffffffffffffffffffffffffffffffffff16815260200183815260200182815260200195505050505050602060405180830381600087803b158015613ac357600080fd5b505af1158015613ad7573d6000803e3d6000fd5b505050506040513d6020811015613aed57600080fd5b8101908080519060200190929190505050505b613b166001600c5461422090919063ffffffff16565b600c81905550600e5481141515613b2c57600080fd5b5050505050505050565b600062093a80905090565b6000600860008373ffffffffffffffffffffffffffffffffffffffff1673ffffffffffffffffffffffffffffffffffffffff168152602001908152602001600020549050919050565b600b5481565b6000600654905090565b6000600d54905090565b600080613baf612bd0565b1515613bba57600080fd5b60001515600360009054906101000a900460ff161515141515613c45576040517f08c379a00000000000000000000000000000000000000000000000000000000081526004018080602001828103825260138152602001807f416c726561647920696e697469616c697a65640000000000000000000000000081525060200191505060405180910390fd5b613c4e88612c73565b613c5787614241565b600160009054906101000a900473ffffffffffffffffffffffffffffffffffffffff1673ffffffffffffffffffffffffffffffffffffffff16630d2020dd6040518163ffffffff167c010000000000000000000000000000000000000000000000000000000002815260040180807f5374616b696e67000000000000000000000000000000000000000000000000008152506020019050602060405180830381600087803b158015613d0857600080fd5b505af1158015613d1c573d6000803e3d6000fd5b505050506040513d6020811015613d3257600080fd5b81019080805190602001909291905050509150858273ffffffffffffffffffffffffffffffffffffffff1663a0821be3336040518263ffffffff167c0100000000000000000000000000000000000000000000000000000000028152600401808273ffffffffffffffffffffffffffffffffffffffff1673ffffffffffffffffffffffffffffffffffffffff168152602001915050602060405180830381600087803b158015613de157600080fd5b505af1158015613df5573d6000803e3d6000fd5b505050506040513d6020811015613e0b57600080fd5b810190808051906020019092919050505010151515613e92576040517f08c379a00000000000000000000000000000000000000000000000000000000081526004018080602001828103825260148152602001807f496e73756666696369656e74207374616b696e6700000000000000000000000081525060200191505060405180910390fd5b8173ffffffffffffffffffffffffffffffffffffffff1663282d3fdf33886040518363ffffffff167c0100000000000000000000000000000000000000000000000000000000028152600401808373ffffffffffffffffffffffffffffffffffffffff1673ffffffffffffffffffffffffffffffffffffffff16815260200182815260200192505050600060405180830381600087803b158015613f3557600080fd5b505af1158015613f49573d6000803e3d6000fd5b5050505060016006819055503360046000600654815260200190815260200160002060006101000a81548173ffffffffffffffffffffffffffffffffffffffff021916908373ffffffffffffffffffffffffffffffffffffffff160217905550600654600560003373ffffffffffffffffffffffffffffffffffffffff1673ffffffffffffffffffffffffffffffffffffffff168152602001908152602001600020819055506001600a8190555060076000600a5481526020019081526020016000209050848160000190805190602001906140269291906143a2565b508381600101908051906020019061403f9291906143a2565b50828160020181905550600a54600860003373ffffffffffffffffffffffffffffffffffffffff1673ffffffffffffffffffffffffffffffffffffffff168152602001908152602001600020819055503360096000600a54815260200190815260200160002060006101000a81548173ffffffffffffffffffffffffffffffffffffffff021916908373ffffffffffffffffffffffffffffffffffffffff1602179055506001600360006101000a81548160ff0219169083151502179055505050505050505050565b600c5481565b614116612bd0565b151561412157600080fd5b61412a816142a8565b50565b6000600160009054906101000a900473ffffffffffffffffffffffffffffffffffffffff1673ffffffffffffffffffffffffffffffffffffffff16630d2020dd6040518163ffffffff167c010000000000000000000000000000000000000000000000000000000002815260040180807f42616c6c6f7453746f72616765000000000000000000000000000000000000008152506020019050602060405180830381600087803b1580156141e057600080fd5b505af11580156141f4573d6000803e3d6000fd5b505050506040513d602081101561420a57600080fd5b8101908080519060200190929190505050905090565b600080828401905083811015151561423757600080fd5b8091505092915050565b600060405180807f6f72672e6d6574616469756d2e70726f78792e696d706c656d656e746174696f81526020017f6e000000000000000000000000000000000000000000000000000000000000008152506021019050604051809103902090508181555050565b600073ffffffffffffffffffffffffffffffffffffffff168173ffffffffffffffffffffffffffffffffffffffff16141515156142e457600080fd5b8073ffffffffffffffffffffffffffffffffffffffff166000809054906101000a900473ffffffffffffffffffffffffffffffffffffffff1673ffffffffffffffffffffffffffffffffffffffff167f8be0079c531659141344cd1fd0a4f28419497f9722a3daafe3b4186f6b6457e060405160405180910390a3806000806101000a81548173ffffffffffffffffffffffffffffffffffffffff021916908373ffffffffffffffffffffffffffffffffffffffff16021790555050565b828054600181600116156101000203166002900490600052602060002090601f016020900481019282601f106143e357805160ff1916838001178555614411565b82800160010185558215614411579182015b828111156144105782518255916020019190600101906143f5565b5b50905061441e9190614422565b5090565b61444491905b80821115614440576000816000905550600101614428565b5090565b905600a165627a7a72305820244764fa34ed780681231d03009700eccb044f5b3b5491191ae6d83e2fb27fa10029",
  "source": "pragma solidity ^0.4.24;\n\nimport \"openzeppelin-solidity/contracts/utils/ReentrancyGuard.sol\";\nimport \"./abstract/BallotEnums.sol\";\nimport \"./storage/BallotStorage.sol\";\nimport \"./Gov.sol\";\nimport \"./Staking.sol\";\n\n\ncontract GovImp is Gov, ReentrancyGuard, BallotEnums {\n    using SafeMath for uint256;\n\n    bytes32 internal constant BLOCK_PER = keccak256(\"blockPer\");\n    bytes32 internal constant THRESHOLD = keccak256(\"threshold\");\n\n    function getBallotStorageAddress() private view returns (address) {\n        return REG.getContractAddress(\"BallotStorage\");\n    }\n\n    function getMaxVotingDuration() public pure returns (uint256) {\n        return 7 days;\n    }\n\n    function addProposalToAddMember(\n        address member,\n        bytes enode,\n        bytes ip,\n        uint port\n    )\n        external\n        onlyGovMem\n        nonReentrant\n        returns (uint256 ballotIdx)\n    {\n        require(msg.sender != member, \"Cannot add self\");\n        require(!isMember(member), \"Already member\");\n\n        address ballotStorage = getBallotStorageAddress();\n        require(ballotStorage != address(0), \"BallotStorage NOT FOUND\");\n\n        BallotStorage(ballotStorage).createBallotForMemeber(\n            ballotLength.add(1), // ballot id\n            uint256(BallotTypes.MemberAdd), // ballot type\n            msg.sender, // creator\n            address(0), // old member address\n            member, // new member address\n            enode, // new enode\n            ip, // new ip\n            port // new port\n        );\n        ballotLength = ballotLength.add(1);\n        return ballotLength;\n    }\n\n    function addProposalToRemoveMember(\n        address member\n    )\n        external\n        onlyGovMem\n        nonReentrant\n        returns (uint256 ballotIdx)\n    {\n        require(isMember(member), \"Non-member\");\n\n        address ballotStorage = getBallotStorageAddress();\n        require(ballotStorage != address(0), \"BallotStorage NOT FOUND\");\n\n        BallotStorage(ballotStorage).createBallotForMemeber(\n            ballotLength.add(1), // ballot id\n            uint256(BallotTypes.MemberRemoval), // ballot type\n            msg.sender, // creator\n            member, // old member address\n            address(0), // new member address\n            new bytes(0), // new enode\n            new bytes(0), // new ip\n            0 // new port\n        );\n        ballotLength = ballotLength.add(1);\n        return ballotLength;\n    }\n\n    function addProposalToChangeMember(\n        address target,\n        address nMember,\n        bytes nEnode,\n        bytes nIp,\n        uint nPort\n    )\n        external\n        onlyGovMem\n        nonReentrant\n        returns (uint256 ballotIdx)\n    {\n        require(isMember(target), \"Non-member\");\n\n        address ballotStorage = getBallotStorageAddress();\n        require(ballotStorage != address(0), \"BallotStorage NOT FOUND\");\n\n        BallotStorage(ballotStorage).createBallotForMemeber(\n            ballotLength.add(1), // ballot id\n            uint256(BallotTypes.MemberChange), // ballot type\n            msg.sender, // creator\n            target, // old member address\n            nMember, // new member address\n            nEnode, // new enode\n            nIp, // new ip\n            nPort // new port\n        );\n        ballotLength = ballotLength.add(1);\n        return ballotLength;\n    }\n\n    function addProposalToChangeGov(\n        address newGovAddr\n    )\n        external\n        onlyGovMem\n        nonReentrant\n        returns (uint256 ballotIdx)\n    {\n        address ballotStorage = getBallotStorageAddress();\n        require(ballotStorage != address(0), \"BallotStorage NOT FOUND\");\n\n        BallotStorage(ballotStorage).createBallotForAddress(\n            ballotLength.add(1), // ballot id\n            uint256(BallotTypes.GovernanceChange), // ballot type\n            msg.sender, // creator\n            newGovAddr // new governance address\n        );\n        ballotLength = ballotLength.add(1);\n        return ballotLength;\n    }\n\n    function addProposalToChangeEnv(\n        bytes32 envName,\n        uint256 envType,\n        string envVal\n    )\n        external\n        onlyGovMem\n        nonReentrant\n        returns (uint256 ballotIdx)\n    {\n        address ballotStorage = getBallotStorageAddress();\n        require(ballotStorage != address(0), \"BallotStorage NOT FOUND\");\n\n        BallotStorage(ballotStorage).createBallotForVariable(\n            ballotLength.add(1), // ballot id\n            uint256(BallotTypes.EnvValChange), // ballot type\n            msg.sender, // creator\n            envName, // env name\n            envType, // env type\n            envVal // env value\n        );\n        ballotLength = ballotLength.add(1);\n        return ballotLength;\n    }\n\n    function vote(uint256 ballotIdx, bool approval) external onlyGovMem nonReentrant {\n        address ballotStorage = getBallotStorageAddress();\n        require(ballotStorage != address(0), \"BallotStorage NOT FOUND\");\n\n        // Check if some ballot is in progress\n        if (ballotInVoting != 0) {\n            (, uint256 state, ) = BallotStorage(ballotStorage).getBallotState(ballotIdx);\n            (, uint256 endTime, ) = BallotStorage(ballotStorage).getBallotPeriod(ballotIdx);\n            if (state == uint256(BallotStates.InProgress)) {\n                if (endTime < block.timestamp) {\n                    revert(\"Now in voting with different ballot\");\n                } else {\n                    BallotStorage(ballotStorage).finalizeBallot(ballotIdx, uint256(DecisionTypes.Reject));\n                    ballotInVoting = 0;\n                }\n            }\n        }\n\n        // Check if the ballot can be voted\n        (, state, ) = BallotStorage(ballotStorage).getBallotState(ballotIdx);\n        if (state == uint256(BallotStates.Ready)) {\n            BallotStorage(ballotStorage).startBallot(ballotIdx, block.timestamp, block.timestamp + getMaxVotingDuration());\n        } else if (state == uint256(BallotStates.InProgress)) {\n            // Nothing to do\n        } else {\n            revert(\"Expired\");\n        }\n\n        address staking = REG.getContractAddress(\"Staking\");\n        require(staking != address(0), \"Staking NOT FOUND\");\n\n        // Vote\n        if (approval) {\n            BallotStorage(ballotStorage).createVote(\n                voteLength.add(1),\n                ballotIdx,\n                msg.sender,\n                uint256(DecisionTypes.Accept),\n                Staking(staking).calcVotingWeight(msg.sender)\n            );\n        } else {\n            BallotStorage(ballotStorage).createVote(\n                voteLength.add(1),\n                ballotIdx,\n                msg.sender,\n                uint256(DecisionTypes.Reject),\n                Staking(staking).calcVotingWeight(msg.sender)\n            );\n        }\n        voteLength = voteLength.add(1);\n    }\n\n    // function addMember(address addr, bytes enode, bytes ip, uint port) private {}\n    // function removeMember(address addr) private {}\n    // function changeMember(address target, address nAddr, bytes nEnode, bytes nIp, uint nPort) private {}\n    // function applyEnv(bytes32 envName, uint256 envType, string envVal) private {}\n}",
  "sourcePath": "/Users/hexoul/Documents/Metadium/governance/governance-contract/contracts/GovImp.sol",
  "compiler": {
    "name": "solc",
    "version": "0.4.24+commit.e67f0147.Emscripten.clang"
  },
  "schemaVersion": "2.0.1",
  "updatedAt": "2019-01-29T09:04:52.102Z"
}