{
  "contractName": "Impl",
  "abi": [
    {
      "inputs": [
        {
          "name": "_implAddress",
          "type": "address"
        }
      ],
      "payable": false,
      "stateMutability": "nonpayable",
      "type": "constructor"
    },
    {
      "constant": true,
      "inputs": [],
      "name": "getImplementation",
      "outputs": [
        {
          "name": "",
          "type": "address"
        }
      ],
      "payable": false,
      "stateMutability": "view",
      "type": "function"
    }
  ],
  "bytecode": "0x608060405234801561001057600080fd5b5060405160208061021483398101806040528101908080519060200190929190505050600073ffffffffffffffffffffffffffffffffffffffff168173ffffffffffffffffffffffffffffffffffffffff16141515156100d8576040517f08c379a000000000000000000000000000000000000000000000000000000000815260040180806020018281038252600f8152602001807f496e76616c69642041646472657373000000000000000000000000000000000081525060200191505060405180910390fd5b806000806101000a81548173ffffffffffffffffffffffffffffffffffffffff021916908373ffffffffffffffffffffffffffffffffffffffff1602179055505060ed806101276000396000f300608060405260043610603f576000357c0100000000000000000000000000000000000000000000000000000000900463ffffffff168063aaf10f42146044575b600080fd5b348015604f57600080fd5b5060566098565b604051808273ffffffffffffffffffffffffffffffffffffffff1673ffffffffffffffffffffffffffffffffffffffff16815260200191505060405180910390f35b60008060009054906101000a900473ffffffffffffffffffffffffffffffffffffffff169050905600a165627a7a72305820f5e603213fc7f3ca628e92ce48c83b9f11d7113331431ec17555ec8d2fdaea5b0029",
  "source": "pragma solidity ^0.4.24;\n\n\ncontract Impl {\n    address internal implementation;\n\n    function getImplementation() public view returns (address) {\n        return implementation;\n    }\n\n    constructor (address _implAddress) public {\n        require(_implAddress != address(0), \"Invalid Address\");\n        implementation = _implAddress;\n    }\n}",
  "sourcePath": "/Users/hexoul/Documents/Metadium/governance/governance-contract/contracts/Impl.sol",
  "compiler": {
    "name": "solc",
    "version": "0.4.24+commit.e67f0147.Emscripten.clang"
  },
  "schemaVersion": "2.0.1",
  "updatedAt": "2019-01-18T01:08:53.897Z"
}