{
  "contractName": "OwnedUpgradeabilityProxy",
  "abi": [
    {
      "constant": true,
      "inputs": [],
      "name": "implementation",
      "outputs": [
        {
          "name": "impl",
          "type": "address"
        }
      ],
      "payable": false,
      "stateMutability": "view",
      "type": "function"
    },
    {
      "inputs": [],
      "payable": false,
      "stateMutability": "nonpayable",
      "type": "constructor"
    },
    {
      "payable": true,
      "stateMutability": "payable",
      "type": "fallback"
    },
    {
      "anonymous": false,
      "inputs": [
        {
          "indexed": false,
          "name": "previousOwner",
          "type": "address"
        },
        {
          "indexed": false,
          "name": "newOwner",
          "type": "address"
        }
      ],
      "name": "ProxyOwnershipTransferred",
      "type": "event"
    },
    {
      "anonymous": false,
      "inputs": [
        {
          "indexed": true,
          "name": "implementation",
          "type": "address"
        }
      ],
      "name": "Upgraded",
      "type": "event"
    },
    {
      "constant": true,
      "inputs": [],
      "name": "proxyOwner",
      "outputs": [
        {
          "name": "owner",
          "type": "address"
        }
      ],
      "payable": false,
      "stateMutability": "view",
      "type": "function"
    },
    {
      "constant": false,
      "inputs": [
        {
          "name": "newOwner",
          "type": "address"
        }
      ],
      "name": "transferProxyOwnership",
      "outputs": [],
      "payable": false,
      "stateMutability": "nonpayable",
      "type": "function"
    },
    {
      "constant": false,
      "inputs": [
        {
          "name": "implementation",
          "type": "address"
        }
      ],
      "name": "upgradeTo",
      "outputs": [],
      "payable": false,
      "stateMutability": "nonpayable",
      "type": "function"
    },
    {
      "constant": false,
      "inputs": [
        {
          "name": "implementation",
          "type": "address"
        },
        {
          "name": "data",
          "type": "bytes"
        }
      ],
      "name": "upgradeToAndCall",
      "outputs": [],
      "payable": true,
      "stateMutability": "payable",
      "type": "function"
    }
  ],
  "bytecode": "0x608060405234801561001057600080fd5b506100293361002e640100000000026401000000009004565b61006f565b600060405180807f6f72672e6d6574616469756d2e70726f78792e6f776e657200000000000000008152506018019050604051809103902090508181555050565b6106f88061007e6000396000f30060806040526004361061006d576000357c0100000000000000000000000000000000000000000000000000000000900463ffffffff168063025313a2146100dc5780633659cfe6146101335780634f1ef286146101765780635c60da1b146101f2578063f1739cae14610249575b600061007761028c565b9050600073ffffffffffffffffffffffffffffffffffffffff168173ffffffffffffffffffffffffffffffffffffffff16141515156100b557600080fd5b60405136600082376000803683855af43d806000843e81600081146100d8578184f35b8184fd5b3480156100e857600080fd5b506100f16102f5565b604051808273ffffffffffffffffffffffffffffffffffffffff1673ffffffffffffffffffffffffffffffffffffffff16815260200191505060405180910390f35b34801561013f57600080fd5b50610174600480360381019080803573ffffffffffffffffffffffffffffffffffffffff169060200190929190505050610338565b005b6101f0600480360381019080803573ffffffffffffffffffffffffffffffffffffffff169060200190929190803590602001908201803590602001908080601f0160208091040260200160405190810160405280939291908181526020018383808284378201915050505050509192919290505050610385565b005b3480156101fe57600080fd5b5061020761028c565b604051808273ffffffffffffffffffffffffffffffffffffffff1673ffffffffffffffffffffffffffffffffffffffff16815260200191505060405180910390f35b34801561025557600080fd5b5061028a600480360381019080803573ffffffffffffffffffffffffffffffffffffffff169060200190929190505050610466565b005b60008060405180807f6f72672e6d6574616469756d2e70726f78792e696d706c656d656e746174696f81526020017f6e00000000000000000000000000000000000000000000000000000000000000815250602101905060405180910390209050805491505090565b60008060405180807f6f72672e6d6574616469756d2e70726f78792e6f776e65720000000000000000815250601801905060405180910390209050805491505090565b6103406102f5565b73ffffffffffffffffffffffffffffffffffffffff163373ffffffffffffffffffffffffffffffffffffffff1614151561037957600080fd5b6103828161058d565b50565b61038d6102f5565b73ffffffffffffffffffffffffffffffffffffffff163373ffffffffffffffffffffffffffffffffffffffff161415156103c657600080fd5b6103cf82610338565b3073ffffffffffffffffffffffffffffffffffffffff16348260405180828051906020019080838360005b838110156104155780820151818401526020810190506103fa565b50505050905090810190601f1680156104425780820380516001836020036101000a031916815260200191505b5091505060006040518083038185875af192505050151561046257600080fd5b5050565b61046e6102f5565b73ffffffffffffffffffffffffffffffffffffffff163373ffffffffffffffffffffffffffffffffffffffff161415156104a757600080fd5b600073ffffffffffffffffffffffffffffffffffffffff168173ffffffffffffffffffffffffffffffffffffffff16141515156104e357600080fd5b7f5a3e66efaa1e445ebd894728a69d6959842ea1e97bd79b892797106e270efcd961050c6102f5565b82604051808373ffffffffffffffffffffffffffffffffffffffff1673ffffffffffffffffffffffffffffffffffffffff1681526020018273ffffffffffffffffffffffffffffffffffffffff1673ffffffffffffffffffffffffffffffffffffffff1681526020019250505060405180910390a161058a81610624565b50565b600061059761028c565b90508173ffffffffffffffffffffffffffffffffffffffff168173ffffffffffffffffffffffffffffffffffffffff16141515156105d457600080fd5b6105dd82610665565b8173ffffffffffffffffffffffffffffffffffffffff167fbc7cd75a20ee27fd9adebab32041f755214dbc6bffa90cc0225b39da2e5c2d3b60405160405180910390a25050565b600060405180807f6f72672e6d6574616469756d2e70726f78792e6f776e657200000000000000008152506018019050604051809103902090508181555050565b600060405180807f6f72672e6d6574616469756d2e70726f78792e696d706c656d656e746174696f81526020017f6e0000000000000000000000000000000000000000000000000000000000000081525060210190506040518091039020905081815550505600a165627a7a7230582027d99dc520009e17011fcaba53c317d583c2092cbb61186c7e0135ddbdc393d90029",
  "source": "pragma solidity ^0.4.24;\n\nimport \"./UpgradeabilityProxy.sol\";\n\n\n/**\n * @title OwnedUpgradeabilityProxy\n * @dev This contract combines an upgradeability proxy with basic authorization control functionalities\n */\ncontract OwnedUpgradeabilityProxy is UpgradeabilityProxy {\n    /**\n    * @dev Event to show ownership has been transferred\n    * @param previousOwner representing the address of the previous owner\n    * @param newOwner representing the address of the new owner\n    */\n    event ProxyOwnershipTransferred(address previousOwner, address newOwner);\n\n    // Storage position of the owner of the contract\n    bytes32 private constant PROXY_OWNER_POSITION = keccak256(\"org.metadium.proxy.owner\");\n\n    /**\n    * @dev the constructor sets the original owner of the contract to the sender account.\n    */\n    constructor() public {\n        setUpgradeabilityOwner(msg.sender);\n    }\n\n    /**\n    * @dev Throws if called by any account other than the owner.\n    */\n    modifier onlyProxyOwner() {\n        require(msg.sender == proxyOwner());\n        _;\n    }\n\n    /**\n     * @dev Tells the address of the owner\n     * @return the address of the owner\n     */\n    function proxyOwner() public view returns (address owner) {\n        bytes32 position = PROXY_OWNER_POSITION;\n        assembly {\n            owner := sload(position)\n        }\n    }\n\n    /**\n     * @dev Allows the current owner to transfer control of the contract to a newOwner.\n     * @param newOwner The address to transfer ownership to.\n     */\n    function transferProxyOwnership(address newOwner) public onlyProxyOwner {\n        require(newOwner != address(0));\n        emit ProxyOwnershipTransferred(proxyOwner(), newOwner);\n        setUpgradeabilityOwner(newOwner);\n    }\n\n    /**\n     * @dev Allows the proxy owner to upgrade the current version of the proxy.\n     * @param implementation representing the address of the new implementation to be set.\n     */\n    function upgradeTo(address implementation) public onlyProxyOwner {\n        _upgradeTo(implementation);\n    }\n\n    /**\n     * @dev Allows the proxy owner to upgrade the current version of the proxy and call the new implementation\n     * to initialize whatever is needed through a low level call.\n     * @param implementation representing the address of the new implementation to be set.\n     * @param data represents the msg.data to bet sent in the low level call. This parameter may include the function\n     * signature of the implementation to be called with the needed payload\n     */\n    function upgradeToAndCall(address implementation, bytes data) public payable onlyProxyOwner {\n        upgradeTo(implementation);\n        require(address(this).call.value(msg.value)(data));\n    }\n\n    /**\n     * @dev Sets the address of the owner\n     */\n    function setUpgradeabilityOwner(address newProxyOwner) internal {\n        bytes32 position = PROXY_OWNER_POSITION;\n        assembly {\n            sstore(position, newProxyOwner)\n        }\n    }\n}",
  "sourcePath": "/Users/ywshin/Documents/WS/truffle/governance-contract-blueisle/contracts/proxy/OwnedUpgradeabilityProxy.sol",
  "compiler": {
    "name": "solc",
    "version": "0.4.24+commit.e67f0147.Emscripten.clang"
  },
  "schemaVersion": "2.0.1",
  "updatedAt": "2019-02-01T06:10:20.813Z"
}