{
  "contractName": "Staking",
  "abi": [
    {
      "constant": true,
      "inputs": [],
      "name": "REG",
      "outputs": [
        {
          "name": "",
          "type": "address"
        }
      ],
      "payable": false,
      "stateMutability": "view",
      "type": "function"
    },
    {
      "constant": true,
      "inputs": [],
      "name": "GOV_NAME",
      "outputs": [
        {
          "name": "",
          "type": "bytes32"
        }
      ],
      "payable": false,
      "stateMutability": "view",
      "type": "function"
    },
    {
      "constant": false,
      "inputs": [],
      "name": "renounceOwnership",
      "outputs": [],
      "payable": false,
      "stateMutability": "nonpayable",
      "type": "function"
    },
    {
      "constant": true,
      "inputs": [],
      "name": "owner",
      "outputs": [
        {
          "name": "",
          "type": "address"
        }
      ],
      "payable": false,
      "stateMutability": "view",
      "type": "function"
    },
    {
      "constant": true,
      "inputs": [],
      "name": "isOwner",
      "outputs": [
        {
          "name": "",
          "type": "bool"
        }
      ],
      "payable": false,
      "stateMutability": "view",
      "type": "function"
    },
    {
      "constant": false,
      "inputs": [
        {
          "name": "_addr",
          "type": "address"
        }
      ],
      "name": "setRegistry",
      "outputs": [],
      "payable": false,
      "stateMutability": "nonpayable",
      "type": "function"
    },
    {
      "constant": false,
      "inputs": [
        {
          "name": "newOwner",
          "type": "address"
        }
      ],
      "name": "transferOwnership",
      "outputs": [],
      "payable": false,
      "stateMutability": "nonpayable",
      "type": "function"
    },
    {
      "inputs": [
        {
          "name": "_registry",
          "type": "address"
        }
      ],
      "payable": false,
      "stateMutability": "nonpayable",
      "type": "constructor"
    },
    {
      "payable": true,
      "stateMutability": "payable",
      "type": "fallback"
    },
    {
      "anonymous": false,
      "inputs": [
        {
          "indexed": true,
          "name": "payee",
          "type": "address"
        },
        {
          "indexed": false,
          "name": "amount",
          "type": "uint256"
        },
        {
          "indexed": false,
          "name": "total",
          "type": "uint256"
        },
        {
          "indexed": false,
          "name": "available",
          "type": "uint256"
        }
      ],
      "name": "Staked",
      "type": "event"
    },
    {
      "anonymous": false,
      "inputs": [
        {
          "indexed": true,
          "name": "payee",
          "type": "address"
        },
        {
          "indexed": false,
          "name": "amount",
          "type": "uint256"
        },
        {
          "indexed": false,
          "name": "total",
          "type": "uint256"
        },
        {
          "indexed": false,
          "name": "available",
          "type": "uint256"
        }
      ],
      "name": "Unstaked",
      "type": "event"
    },
    {
      "anonymous": false,
      "inputs": [
        {
          "indexed": true,
          "name": "payee",
          "type": "address"
        },
        {
          "indexed": false,
          "name": "amount",
          "type": "uint256"
        },
        {
          "indexed": false,
          "name": "total",
          "type": "uint256"
        },
        {
          "indexed": false,
          "name": "available",
          "type": "uint256"
        }
      ],
      "name": "Locked",
      "type": "event"
    },
    {
      "anonymous": false,
      "inputs": [
        {
          "indexed": true,
          "name": "payee",
          "type": "address"
        },
        {
          "indexed": false,
          "name": "amount",
          "type": "uint256"
        },
        {
          "indexed": false,
          "name": "total",
          "type": "uint256"
        },
        {
          "indexed": false,
          "name": "available",
          "type": "uint256"
        }
      ],
      "name": "Unlocked",
      "type": "event"
    },
    {
      "anonymous": false,
      "inputs": [
        {
          "indexed": true,
          "name": "previousOwner",
          "type": "address"
        },
        {
          "indexed": true,
          "name": "newOwner",
          "type": "address"
        }
      ],
      "name": "OwnershipTransferred",
      "type": "event"
    },
    {
      "constant": true,
      "inputs": [
        {
          "name": "payee",
          "type": "address"
        }
      ],
      "name": "balanceOf",
      "outputs": [
        {
          "name": "",
          "type": "uint256"
        }
      ],
      "payable": false,
      "stateMutability": "view",
      "type": "function"
    },
    {
      "constant": true,
      "inputs": [
        {
          "name": "payee",
          "type": "address"
        }
      ],
      "name": "lockedBalanceOf",
      "outputs": [
        {
          "name": "",
          "type": "uint256"
        }
      ],
      "payable": false,
      "stateMutability": "view",
      "type": "function"
    },
    {
      "constant": true,
      "inputs": [
        {
          "name": "payee",
          "type": "address"
        }
      ],
      "name": "availableBalance",
      "outputs": [
        {
          "name": "",
          "type": "uint256"
        }
      ],
      "payable": false,
      "stateMutability": "view",
      "type": "function"
    },
    {
      "constant": true,
      "inputs": [
        {
          "name": "payee",
          "type": "address"
        }
      ],
      "name": "calcVotingWeight",
      "outputs": [
        {
          "name": "",
          "type": "uint256"
        }
      ],
      "payable": false,
      "stateMutability": "view",
      "type": "function"
    },
    {
      "constant": false,
      "inputs": [],
      "name": "deposit",
      "outputs": [],
      "payable": true,
      "stateMutability": "payable",
      "type": "function"
    },
    {
      "constant": false,
      "inputs": [
        {
          "name": "amount",
          "type": "uint256"
        }
      ],
      "name": "withdraw",
      "outputs": [],
      "payable": false,
      "stateMutability": "nonpayable",
      "type": "function"
    },
    {
      "constant": false,
      "inputs": [
        {
          "name": "payee",
          "type": "address"
        },
        {
          "name": "lockAmount",
          "type": "uint256"
        }
      ],
      "name": "lock",
      "outputs": [],
      "payable": false,
      "stateMutability": "nonpayable",
      "type": "function"
    },
    {
      "constant": false,
      "inputs": [
        {
          "name": "payee",
          "type": "address"
        },
        {
          "name": "unlockAmount",
          "type": "uint256"
        }
      ],
      "name": "unlock",
      "outputs": [],
      "payable": false,
      "stateMutability": "nonpayable",
      "type": "function"
    }
  ],
  "bytecode": "0x60806040527f476f7665726e616e6365436f6e7472616374000000000000000000000000000060029060001916905534801561003a57600080fd5b506040516020806118db83398101806040528101908080519060200190929190505050336000806101000a81548173ffffffffffffffffffffffffffffffffffffffff021916908373ffffffffffffffffffffffffffffffffffffffff1602179055506000809054906101000a900473ffffffffffffffffffffffffffffffffffffffff1673ffffffffffffffffffffffffffffffffffffffff16600073ffffffffffffffffffffffffffffffffffffffff167f8be0079c531659141344cd1fd0a4f28419497f9722a3daafe3b4186f6b6457e060405160405180910390a36001600381905550600060068190555061014181610147640100000000026401000000009004565b50610204565b61015e6101ad640100000000026401000000009004565b151561016957600080fd5b80600160006101000a81548173ffffffffffffffffffffffffffffffffffffffff021916908373ffffffffffffffffffffffffffffffffffffffff16021790555050565b60008060009054906101000a900473ffffffffffffffffffffffffffffffffffffffff1673ffffffffffffffffffffffffffffffffffffffff163373ffffffffffffffffffffffffffffffffffffffff1614905090565b6116c8806102136000396000f3006080604052600436106100db576000357c0100000000000000000000000000000000000000000000000000000000900463ffffffff168063282d3fdf146100e55780632e1a7d4d14610132578063393631121461015f57806359355736146101b65780636c78d2cf1461020d57806370a0823114610240578063715018a6146102975780637eee288d146102ae578063884d97a7146102fb5780638da5cb5b146103525780638f32d59b146103a9578063a0821be3146103d8578063a91ee0dc1461042f578063d0e30db014610472578063f2fde38b1461047c575b6100e36104bf565b005b3480156100f157600080fd5b50610130600480360381019080803573ffffffffffffffffffffffffffffffffffffffff169060200190929190803590602001909291905050506106c2565b005b34801561013e57600080fd5b5061015d60048036038101908080359060200190929190505050610b16565b005b34801561016b57600080fd5b50610174610d69565b604051808273ffffffffffffffffffffffffffffffffffffffff1673ffffffffffffffffffffffffffffffffffffffff16815260200191505060405180910390f35b3480156101c257600080fd5b506101f7600480360381019080803573ffffffffffffffffffffffffffffffffffffffff169060200190929190505050610d8f565b6040518082815260200191505060405180910390f35b34801561021957600080fd5b50610222610dd8565b60405180826000191660001916815260200191505060405180910390f35b34801561024c57600080fd5b50610281600480360381019080803573ffffffffffffffffffffffffffffffffffffffff169060200190929190505050610dde565b6040518082815260200191505060405180910390f35b3480156102a357600080fd5b506102ac610e27565b005b3480156102ba57600080fd5b506102f9600480360381019080803573ffffffffffffffffffffffffffffffffffffffff16906020019092919080359060200190929190505050610ef9565b005b34801561030757600080fd5b5061033c600480360381019080803573ffffffffffffffffffffffffffffffffffffffff1690602001909291905050506112a7565b6040518082815260200191505060405180910390f35b34801561035e57600080fd5b50610367611368565b604051808273ffffffffffffffffffffffffffffffffffffffff1673ffffffffffffffffffffffffffffffffffffffff16815260200191505060405180910390f35b3480156103b557600080fd5b506103be611391565b604051808215151515815260200191505060405180910390f35b3480156103e457600080fd5b50610419600480360381019080803573ffffffffffffffffffffffffffffffffffffffff1690602001909291905050506113e8565b6040518082815260200191505060405180910390f35b34801561043b57600080fd5b50610470600480360381019080803573ffffffffffffffffffffffffffffffffffffffff169060200190929190505050611482565b005b61047a6104bf565b005b34801561048857600080fd5b506104bd600480360381019080803573ffffffffffffffffffffffffffffffffffffffff1690602001909291905050506114d9565b005b600060016003600082825401925050819055506003549050600034111515610575576040517f08c379a000000000000000000000000000000000000000000000000000000000815260040180806020018281038252602a8152602001807f4465706f73697420616d6f756e742073686f756c64206265206772656174657281526020017f207468616e207a65726f0000000000000000000000000000000000000000000081525060400191505060405180910390fd5b6105c734600460003373ffffffffffffffffffffffffffffffffffffffff1673ffffffffffffffffffffffffffffffffffffffff168152602001908152602001600020546114f890919063ffffffff16565b600460003373ffffffffffffffffffffffffffffffffffffffff1673ffffffffffffffffffffffffffffffffffffffff168152602001908152602001600020819055503373ffffffffffffffffffffffffffffffffffffffff167fb4caaf29adda3eefee3ad552a8e85058589bf834c7466cae4ee58787f70589ed34600460003373ffffffffffffffffffffffffffffffffffffffff1673ffffffffffffffffffffffffffffffffffffffff1681526020019081526020016000205461068c336113e8565b60405180848152602001838152602001828152602001935050505060405180910390a2600354811415156106bf57600080fd5b50565b3373ffffffffffffffffffffffffffffffffffffffff16600160009054906101000a900473ffffffffffffffffffffffffffffffffffffffff1673ffffffffffffffffffffffffffffffffffffffff16630d2020dd6002546040518263ffffffff167c0100000000000000000000000000000000000000000000000000000000028152600401808260001916600019168152602001915050602060405180830381600087803b15801561077457600080fd5b505af1158015610788573d6000803e3d6000fd5b505050506040513d602081101561079e57600080fd5b810190808051906020019092919050505073ffffffffffffffffffffffffffffffffffffffff1614151561083a576040517f08c379a000000000000000000000000000000000000000000000000000000000815260040180806020018281038252600d8152602001807f4e6f205065726d697373696f6e0000000000000000000000000000000000000081525060200191505060405180910390fd5b80600460008473ffffffffffffffffffffffffffffffffffffffff1673ffffffffffffffffffffffffffffffffffffffff1681526020019081526020016000205410151515610917576040517f08c379a00000000000000000000000000000000000000000000000000000000081526004018080602001828103825260308152602001807f4c6f636b20616d6f756e742073686f756c6420626520657175616c206f72206c81526020017f657373207468616e2062616c616e63650000000000000000000000000000000081525060400191505060405180910390fd5b80610921836113e8565b101515156109bd576040517f08c379a00000000000000000000000000000000000000000000000000000000081526004018080602001828103825260278152602001807f496e73756666696369656e742062616c616e636520746861742063616e20626581526020017f206c6f636b65640000000000000000000000000000000000000000000000000081525060400191505060405180910390fd5b610a0f81600560008573ffffffffffffffffffffffffffffffffffffffff1673ffffffffffffffffffffffffffffffffffffffff168152602001908152602001600020546114f890919063ffffffff16565b600560008473ffffffffffffffffffffffffffffffffffffffff1673ffffffffffffffffffffffffffffffffffffffff16815260200190815260200160002081905550610a67816006546114f890919063ffffffff16565b6006819055508173ffffffffffffffffffffffffffffffffffffffff167f44cebfefa4561bee5b61d675ccfd8dc9969fff9cc15e7a4eccccd62af94f9c1182600460008673ffffffffffffffffffffffffffffffffffffffff1673ffffffffffffffffffffffffffffffffffffffff16815260200190815260200160002054610aef866113e8565b60405180848152602001838152602001828152602001935050505060405180910390a25050565b600060016003600082825401925050819055506003549050610b37336113e8565b8211151515610bd4576040517f08c379a00000000000000000000000000000000000000000000000000000000081526004018080602001828103825260348152602001807f576974686472617720616d6f756e742073686f756c6420626520657175616c2081526020017f6f72206c657373207468616e2062616c616e636500000000000000000000000081525060400191505060405180910390fd5b610c2682600460003373ffffffffffffffffffffffffffffffffffffffff1673ffffffffffffffffffffffffffffffffffffffff1681526020019081526020016000205461151990919063ffffffff16565b600460003373ffffffffffffffffffffffffffffffffffffffff1673ffffffffffffffffffffffffffffffffffffffff168152602001908152602001600020819055503373ffffffffffffffffffffffffffffffffffffffff166108fc839081150290604051600060405180830381858888f19350505050158015610caf573d6000803e3d6000fd5b503373ffffffffffffffffffffffffffffffffffffffff167f204fccf0d92ed8d48f204adb39b2e81e92bad0dedb93f5716ca9478cfb57de0083600460003373ffffffffffffffffffffffffffffffffffffffff1673ffffffffffffffffffffffffffffffffffffffff16815260200190815260200160002054610d32336113e8565b60405180848152602001838152602001828152602001935050505060405180910390a260035481141515610d6557600080fd5b5050565b600160009054906101000a900473ffffffffffffffffffffffffffffffffffffffff1681565b6000600560008373ffffffffffffffffffffffffffffffffffffffff1673ffffffffffffffffffffffffffffffffffffffff168152602001908152602001600020549050919050565b60025481565b6000600460008373ffffffffffffffffffffffffffffffffffffffff1673ffffffffffffffffffffffffffffffffffffffff168152602001908152602001600020549050919050565b610e2f611391565b1515610e3a57600080fd5b600073ffffffffffffffffffffffffffffffffffffffff166000809054906101000a900473ffffffffffffffffffffffffffffffffffffffff1673ffffffffffffffffffffffffffffffffffffffff167f8be0079c531659141344cd1fd0a4f28419497f9722a3daafe3b4186f6b6457e060405160405180910390a360008060006101000a81548173ffffffffffffffffffffffffffffffffffffffff021916908373ffffffffffffffffffffffffffffffffffffffff160217905550565b3373ffffffffffffffffffffffffffffffffffffffff16600160009054906101000a900473ffffffffffffffffffffffffffffffffffffffff1673ffffffffffffffffffffffffffffffffffffffff16630d2020dd6002546040518263ffffffff167c0100000000000000000000000000000000000000000000000000000000028152600401808260001916600019168152602001915050602060405180830381600087803b158015610fab57600080fd5b505af1158015610fbf573d6000803e3d6000fd5b505050506040513d6020811015610fd557600080fd5b810190808051906020019092919050505073ffffffffffffffffffffffffffffffffffffffff16141515611071576040517f08c379a000000000000000000000000000000000000000000000000000000000815260040180806020018281038252600d8152602001807f4e6f205065726d697373696f6e0000000000000000000000000000000000000081525060200191505060405180910390fd5b80600560008473ffffffffffffffffffffffffffffffffffffffff1673ffffffffffffffffffffffffffffffffffffffff168152602001908152602001600020541015151561114e576040517f08c379a00000000000000000000000000000000000000000000000000000000081526004018080602001828103825260398152602001807f556e6c6f636b20616d6f756e742073686f756c6420626520657175616c206f7281526020017f206c657373207468616e2062616c616e6365206c6f636b65640000000000000081525060400191505060405180910390fd5b6111a081600560008573ffffffffffffffffffffffffffffffffffffffff1673ffffffffffffffffffffffffffffffffffffffff1681526020019081526020016000205461151990919063ffffffff16565b600560008473ffffffffffffffffffffffffffffffffffffffff1673ffffffffffffffffffffffffffffffffffffffff168152602001908152602001600020819055506111f88160065461151990919063ffffffff16565b6006819055508173ffffffffffffffffffffffffffffffffffffffff167f5245d528087a96a64f4589a764f00061e4671eab90cb1e019b1a5b24b2e4c2a882600460008673ffffffffffffffffffffffffffffffffffffffff1673ffffffffffffffffffffffffffffffffffffffff16815260200190815260200160002054611280866113e8565b60405180848152602001838152602001828152602001935050505060405180910390a25050565b600080600560008473ffffffffffffffffffffffffffffffffffffffff1673ffffffffffffffffffffffffffffffffffffffff1681526020019081526020016000205414156112f95760009050611363565b6113606006546113526064600560008773ffffffffffffffffffffffffffffffffffffffff1673ffffffffffffffffffffffffffffffffffffffff1681526020019081526020016000205461153a90919063ffffffff16565b61157890919063ffffffff16565b90505b919050565b60008060009054906101000a900473ffffffffffffffffffffffffffffffffffffffff16905090565b60008060009054906101000a900473ffffffffffffffffffffffffffffffffffffffff1673ffffffffffffffffffffffffffffffffffffffff163373ffffffffffffffffffffffffffffffffffffffff1614905090565b600061147b600560008473ffffffffffffffffffffffffffffffffffffffff1673ffffffffffffffffffffffffffffffffffffffff16815260200190815260200160002054600460008573ffffffffffffffffffffffffffffffffffffffff1673ffffffffffffffffffffffffffffffffffffffff1681526020019081526020016000205461151990919063ffffffff16565b9050919050565b61148a611391565b151561149557600080fd5b80600160006101000a81548173ffffffffffffffffffffffffffffffffffffffff021916908373ffffffffffffffffffffffffffffffffffffffff16021790555050565b6114e1611391565b15156114ec57600080fd5b6114f5816115a2565b50565b600080828401905083811015151561150f57600080fd5b8091505092915050565b60008083831115151561152b57600080fd5b82840390508091505092915050565b600080600084141561154f5760009150611571565b828402905082848281151561156057fe5b0414151561156d57600080fd5b8091505b5092915050565b60008060008311151561158a57600080fd5b828481151561159557fe5b0490508091505092915050565b600073ffffffffffffffffffffffffffffffffffffffff168173ffffffffffffffffffffffffffffffffffffffff16141515156115de57600080fd5b8073ffffffffffffffffffffffffffffffffffffffff166000809054906101000a900473ffffffffffffffffffffffffffffffffffffffff1673ffffffffffffffffffffffffffffffffffffffff167f8be0079c531659141344cd1fd0a4f28419497f9722a3daafe3b4186f6b6457e060405160405180910390a3806000806101000a81548173ffffffffffffffffffffffffffffffffffffffff021916908373ffffffffffffffffffffffffffffffffffffffff160217905550505600a165627a7a723058204a1567a9e6ca13f8723b265f24fdf06458b56154865b5788a96be236fd4101f90029",
  "source": "pragma solidity ^0.4.24;\n\nimport \"openzeppelin-solidity/contracts/math/SafeMath.sol\";\nimport \"openzeppelin-solidity/contracts/utils/ReentrancyGuard.sol\";\nimport \"./GovChecker.sol\";\n\n\ncontract Staking is GovChecker, ReentrancyGuard {\n    using SafeMath for uint256;\n\n    mapping(address => uint256) private _balance;\n    mapping(address => uint256) private _lockedBalance;\n    uint256 private _totalLockedBalance;\n    \n    event Staked(address indexed payee, uint256 amount, uint256 total, uint256 available);\n    event Unstaked(address indexed payee, uint256 amount, uint256 total, uint256 available);\n    event Locked(address indexed payee, uint256 amount, uint256 total, uint256 available);\n    event Unlocked(address indexed payee, uint256 amount, uint256 total, uint256 available);\n\n    constructor(address _registry) public {\n        _totalLockedBalance = 0;\n        setRegistry(_registry);\n    }\n\n    function balanceOf(address payee) public view returns (uint256) {\n        return _balance[payee];\n    }\n\n    function lockedBalanceOf(address payee) public view returns (uint256) {\n        return _lockedBalance[payee];\n    }\n\n    function availableBalance(address payee) public view returns (uint256) {\n        return _balance[payee].sub(_lockedBalance[payee]);\n    }\n\n    function calcVotingWeight(address payee) public view returns (uint256) {\n        if (_lockedBalance[payee] == 0) return 0;\n        return _lockedBalance[payee].mul(100).div(_totalLockedBalance);\n    }\n\n    function () external payable {\n        deposit();\n    }\n\n    /**\n    * @dev Deposit from a sender.\n    */\n    function deposit() public nonReentrant payable {\n        require(msg.value > 0, \"Deposit amount should be greater than zero\");\n\n        _balance[msg.sender] = _balance[msg.sender].add(msg.value);\n\n        emit Staked(msg.sender, msg.value, _balance[msg.sender], availableBalance(msg.sender));\n    }\n\n    /**\n    * @dev Withdraw for a sender.\n    * @param amount The amount of funds will be withdrawn and transferred to.\n    */\n    function withdraw(uint256 amount) external nonReentrant {\n        require(amount <= availableBalance(msg.sender), \"Withdraw amount should be equal or less than balance\");\n\n        _balance[msg.sender] = _balance[msg.sender].sub(amount);\n        msg.sender.transfer(amount);\n\n        emit Unstaked(msg.sender, amount, _balance[msg.sender], availableBalance(msg.sender));\n    }\n\n    /**\n    * @dev Lock fund\n    * @param payee The address whose funds will be locked.\n    * @param lockAmount The amount of funds will be locked.\n    */\n    function lock(address payee, uint256 lockAmount) external onlyGov {\n        require(_balance[payee] >= lockAmount, \"Lock amount should be equal or less than balance\");\n        require(availableBalance(payee) >= lockAmount, \"Insufficient balance that can be locked\");\n\n        _lockedBalance[payee] = _lockedBalance[payee].add(lockAmount);\n        _totalLockedBalance = _totalLockedBalance.add(lockAmount);\n\n        emit Locked(payee, lockAmount, _balance[payee], availableBalance(payee));\n    }\n\n    /**\n    * @dev Unlock fund\n    * @param payee The address whose funds will be unlocked.\n    * @param unlockAmount The amount of funds will be unlocked.\n    */\n    function unlock(address payee, uint256 unlockAmount) external onlyGov {\n        require(_lockedBalance[payee] >= unlockAmount, \"Unlock amount should be equal or less than balance locked\");\n\n        _lockedBalance[payee] = _lockedBalance[payee].sub(unlockAmount);\n        _totalLockedBalance = _totalLockedBalance.sub(unlockAmount);\n\n        emit Unlocked(payee, unlockAmount, _balance[payee], availableBalance(payee));\n    }\n\n}",
  "sourcePath": "/Users/hexoul/Documents/Metadium/governance/governance-contract/contracts/Staking.sol",
  "compiler": {
    "name": "solc",
    "version": "0.4.24+commit.e67f0147.Emscripten.clang"
  },
  "schemaVersion": "2.0.1",
  "updatedAt": "2019-01-22T07:50:18.593Z"
}