{
  "contractName": "UpgradeabilityProxy",
  "abi": [
    {
      "inputs": [],
      "payable": false,
      "stateMutability": "nonpayable",
      "type": "constructor"
    },
    {
      "payable": true,
      "stateMutability": "payable",
      "type": "fallback"
    },
    {
      "anonymous": false,
      "inputs": [
        {
          "indexed": true,
          "name": "implementation",
          "type": "address"
        }
      ],
      "name": "Upgraded",
      "type": "event"
    },
    {
      "constant": true,
      "inputs": [],
      "name": "implementation",
      "outputs": [
        {
          "name": "impl",
          "type": "address"
        }
      ],
      "payable": false,
      "stateMutability": "view",
      "type": "function"
    }
  ],
  "bytecode": "0x608060405234801561001057600080fd5b5061019c806100206000396000f300608060405260043610610041576000357c0100000000000000000000000000000000000000000000000000000000900463ffffffff1680635c60da1b146100b0575b600061004b610107565b9050600073ffffffffffffffffffffffffffffffffffffffff168173ffffffffffffffffffffffffffffffffffffffff161415151561008957600080fd5b60405136600082376000803683855af43d806000843e81600081146100ac578184f35b8184fd5b3480156100bc57600080fd5b506100c5610107565b604051808273ffffffffffffffffffffffffffffffffffffffff1673ffffffffffffffffffffffffffffffffffffffff16815260200191505060405180910390f35b60008060405180807f6f72672e6d6574616469756d2e70726f78792e696d706c656d656e746174696f81526020017f6e000000000000000000000000000000000000000000000000000000000000008152506021019050604051809103902090508054915050905600a165627a7a72305820ef216b20d810b6a5f5d3ec2ecbd98febed8ecae3e5a9c6803b3ce32864126e610029",
  "source": "pragma solidity ^0.4.24;\n\nimport './Proxy.sol';\n\n\n/**\n * @title UpgradeabilityProxy\n * @dev This contract represents a proxy where the implementation address to which it will delegate can be upgraded\n */\ncontract UpgradeabilityProxy is Proxy {\n    /**\n     * @dev This event will be emitted every time the implementation gets upgraded\n     * @param implementation representing the address of the upgraded implementation\n     */\n    event Upgraded(address indexed implementation);\n\n    // Storage position of the address of the current implementation\n    bytes32 private constant IMPLEMENT_POSITION = keccak256(\"org.metadium.proxy.implementation\");\n\n    /**\n     * @dev Constructor function\n     */\n    constructor() public {}\n\n    /**\n     * @dev Tells the address of the current implementation\n     * @return address of the current implementation\n     */\n    function implementation() public view returns (address impl) {\n        bytes32 position = IMPLEMENT_POSITION;\n        assembly {\n            impl := sload(position)\n        }\n    }\n\n    /**\n     * @dev Sets the address of the current implementation\n     * @param newImplementation address representing the new implementation to be set\n     */\n    function setImplementation(address newImplementation) internal {\n        bytes32 position = IMPLEMENT_POSITION;\n        assembly {\n            sstore(position, newImplementation)\n        }\n    }\n\n    /**\n     * @dev Upgrades the implementation address\n     * @param newImplementation representing the address of the new implementation to be set\n     */\n    function _upgradeTo(address newImplementation) internal {\n        address currentImplementation = implementation();\n        require(currentImplementation != newImplementation);\n        setImplementation(newImplementation);\n        emit Upgraded(newImplementation);\n    }\n}",
  "sourcePath": "/Users/ywshin/Documents/WS/truffle/governance-contract-blueisle/contracts/proxy/UpgradeabilityProxy.sol",
  "compiler": {
    "name": "solc",
    "version": "0.4.24+commit.e67f0147.Emscripten.clang"
  },
  "schemaVersion": "2.0.1",
  "updatedAt": "2019-01-30T06:47:20.770Z"
}